:020000040800F2
:10000000B80700208901000827200008511F0008B8
:100010002520000861050008852400080000000074
:100020000000000000000000000000002B2000087D
:100030004B06000800000000292000082D200008C1
:10004000A3010008A3010008A3010008A301000800
:10005000A3010008A3010008A3010008A3010008F0
:10006000A3010008A3010008A3010008A3010008E0
:10007000A3010008A3010008A30100081506000859
:10008000A3010008A3010008A3010008A3010008C0
:10009000A3010008A3010008A3010008A3010008B0
:1000A000A3010008A3010008A3010008A3010008A0
:1000B000A3010008A3010008A3010008A301000890
:1000C000A3010008A3010008A3010008A301000880
:1000D000A301000879240008A3010008A301000877
:1000E000A3010008A3010008A301000800F002F822
:1000F00000F03AF80AA090E8000C82448344AAF188
:100100000107DA4501D100F02FF8AFF2090EBAE885
:100110000F0013F0010F18BFFB1A43F0010318473B
:100120001025000030250000103A24BF78C878C19F
:10013000FAD8520724BF30C830C144BF04680C60ED
:10014000704700000023002400250026103A28BF35
:1001500078C1FBD8520728BF30C148BF0B60704739
:100160001FB51FBD10B510BD00F0B9F81146FFF75F
:10017000F7FF02F0ABF900F0D7F803B4FFF7F2FF96
:1001800003BC00F0DFF80000094880470948004739
:10019000FEE7FEE7FEE7FEE7FEE7FEE7FEE7FEE737
:1001A000FEE7FEE704480549054A064B7047000094
:1001B0008F200008ED000008B8010020B8070020DB
:1001C000B8030020B8030020B2F120030AD5C2F121
:1001D000200320FA02F001FA03F321FA02F140EAC7
:1001E0000300704721FA03F04FF00001704740EA26
:1001F000010310B59B070FD1042A0DD310C808C9FD
:10020000121F9C42F8D020BA19BA884201D90120A5
:1002100010BD4FF0FF3010BD1AB1D30703D0521CF0
:1002200007E0002010BD10F8013B11F8014B1B1B2B
:1002300007D110F8013B11F8014B1B1B01D1921E95
:10024000F1D1184610BD4FF000020429C0F0128011
:1002500010F0030C00F01B80CCF1040CBCF1020F79
:1002600018BF00F8012BA8BF20F8022BA1EB0C014E
:1002700000F00DB85FEAC17C24BF00F8012B00F844
:10028000012B48BF00F8012B70474FF0000200B56A
:10029000134694469646203922BFA0E80C50A0E8A9
:1002A0000C50B1F12001BFF4F7AF090728BFA0E857
:1002B0000C5048BF0CC05DF804EB890028BF40F823
:1002C000042B08BF704748BF20F8022B11F0804F65
:1002D00018BF00F8012B704770477047704775468C
:1002E00000F02CF8AE4605006946534620F00700A2
:1002F000854618B020B5FFF755FFBDE820404FF008
:1003000000064FF000074FF000084FF0000B21F0FF
:100310000701AC46ACE8C009ACE8C009ACE8C009CC
:10032000ACE8C0098D46704710B50446AFF30080B5
:100330002046BDE81040FFF720BF0000004870478E
:100340005801002001491820ABBEFEE7260002003C
:10035000704700002DE9F04FDFF8F0B105468BB093
:100360000C46584600F022FA2078794F4FF4805618
:10037000112861D0DFF8DC81DFF8DCA14FF0000943
:1003800098F8000022286AD001215D46584600F006
:10039000E9F9FF20401E10F0FF00FBD12220207061
:1003A00084F8019084F8029084F80390A4F80490F3
:1003B000C4F806A0D8F80010D8F80420B8F808301F
:1003C000ADF8083098F80A008DF80A002846029B1C
:1003D00000F00EFA01223146384600F044FE322089
:1003E00000F0F4FB00223146384600F03CFEC82005
:1003F00000F0ECFB01223146384600F034FE32209A
:1004000000F0E4FB00223146384600F02CFEC82004
:1004100000F0DCFB01223146384600F024FE322099
:1004200000F0D4FB00223146384600F01CFEC82004
:1004300000F0CCFB02F038F800223146384600F0DC
:1004400012FE642000F0C2FB01223146384600F063
:100450000AFE0BB02846BDE8F04F00F0BDB80025FD
:100460001E226946504600F093F9002069460A5C56
:10047000FF2A01D16D1CEDB2401CC0B21E28F6D37C
:10048000192D52D301215D46584600F06BF9112019
:10049000207084F8019084F8029084F80390A4F806
:1004A0000490C4F806A000223146384600F0DBFD77
:1004B000322000F08BFB01223146384600F0D3FD9C
:1004C000C82000F083FB00223146384600F0CBFD07
:1004D000322000F07BFB01223146384600F0C3FD9C
:1004E000C82000F073FB00223146384600F0BBFD07
:1004F000322000F06BFB01223146384600F0B3FD9C
:100500004FF4FA7000F062FBD8F80010D8F804201D
:10051000B8F80830ADF8283098F80A008DF82A00AD
:1005200028460A9B00F064F984E772B60B49C1F8CB
:1005300000A0D4F80610086880F30888486840F0E6
:10054000010080470BB0BDE8F08F000000FC000800
:1005500000080140380000200028000808ED00E0F5
:10056000FEE730B5044600200246491E0EE0A35CBB
:100570005840002345000006C0105B1C85EA5070FF
:10058000DBB2C0B2082BF5D3521CD2B28A42EEDBEA
:1005900030BD00000A460146501A401C820804483B
:1005A0000068836843F001038360014800F028B9C4
:1005B0002000002010B500F05BFD064CA169401A38
:1005C0004EF66021A060884202D300F051FDA06188
:1005D00010BD00000000002070B50C4C0546002046
:1005E000A0702846E56001F0A3F84FF46140686010
:1005F000284601F0EFF964210548FFF724FE01F0D9
:10060000A9FC00F035FDA06170BD000000000020D5
:1006100043000020014800F0C9B90000F0000020AC
:1006200030B590F840500124AC40C56B6C60046854
:1006300063604368102B036803D099600068C26050
:1006400030BD9A600068C16030BD704772B6FEE789
:1006500006490020C8610648016941F004010161B2
:10066000016941F04001016170470000380100203C
:1006700000200240064A0021D16106490A6942F081
:1006800002020A614861086940F040000861704751
:100690003801002000200240044B0022DA61044AA5
:1006A000136943F001031361018070473801002092
:1006B0000020024014480022C168CB06134904D52B
:1006C000CA6942F00202CA611022C3685B0705D5FD
:1006D000CB6943F00103CB6142F00402C369DB073D
:1006E00007D0CB6943F00403CB61C16921F001015C
:1006F000C161A2F58071013901D0C2607047C16942
:1007000021F00101C1617047002002403801002042
:1007100070B5054600F0ACFC0646114C09E0681CBB
:1007200007D025B100F0A4FC801BA84201D903200A
:1007300070BDE068C007F2D1E068800601D52020D6
:10074000E060E068C00605D4E069C00702D1E06857
:10075000400703D5FFF7AEFF012070BD002070BD3C
:100760000020024030B585B00C46054600F0DEFAA8
:1007700001200394CDE901050020009004A96846FA
:1007800000F036FA044600F087FA05B0204630BD86
:1007900010B50023521C05E030F813405B1C21F813
:1007A000024BDBB2B3EB520FF6D310BD0B22FFF7B7
:1007B000EFBF2DE9F0411646804601270D4600F0B7
:1007C000B5FA0024761C0BE02A8808EB44010023CC
:1007D000012000F06BFA641C3844C7B2E4B2AD1CCF
:1007E000B4EB560FF0D300F057FA3846BDE8F0816D
:1007F0001FB50B2201A9FFF7DCFF04B010BD0000FC
:1008000030B502234371002305E000BF056851F8AD
:1008100023402C605B1C9342F8D3016809680122D5
:100820004271084630BD10B5040002D0607910B1A5
:1008300006E0012010BD00202071204600F004F8E1
:1008400001206071002010BD08B50068064988428B
:1008500008D10648416941F040014161406900F01A
:100860004000009008BD000000300240001002402F
:1008700010B590F821100022022905D004218163CF
:1008800080F82020012010BD01680B6823F00E03C2
:100890000B6001680B6823F001030B6090F8403097
:1008A000C46B012101FA03F3636080F8211080F822
:1008B0002020104610BD000010B590F82110002433
:1008C000022903D00421816301243DE001680A6804
:1008D00022F00E020A6001680A6822F001020A6032
:1008E0001A4A0168914201D1012121E0174A1432CC
:1008F000914201D110211BE0144A2832914201D1CA
:10090000891515E0114A3C32914201D189140FE05A
:100910000E4A5032914202D14FF4803108E00B4A26
:100920006432914202D14FF4801101E04FF08071A6
:10093000064A083A5160012180F82110002180F810
:100940002010416B01B18847204610BD08000240CD
:1009500010B528B301680A6822F001020A60026833
:100960000021116002685160026891600268D160E4
:100970000C4B026801241A441423B2FBF3F29300D7
:10098000094AC0E90F239C4054608162C16201633F
:100990004163816380F8211080F82010002010BD91
:1009A000012010BDF8FFFDBF000002402DE9F05FFF
:1009B000C16B0C6801680B68D0F840C0042202FAD1
:1009C0000CF2494DDFF824A1494E4A4FDFF828B117
:1009D000DFF828E122422CD05A072AD50A6892066D
:1009E00003D40A6822F004020A600168A94201D116
:1009F000042219E0514501D1402215E0B14202D153
:100A00004FF4806210E0B94202D14FF480420BE013
:100A1000594502D14FF4802206E0714502D14FF4CE
:100A2000800201E04FF080622F4908394A60C16AB4
:100A30003BE04FF0020808FA0CF818EA040F4FF0F8
:100A400000094FF0010235D05FEA837832D50B6898
:100A50009B0605D40B6823F00A030B6080F8212065
:100A60000168A94201D1022219E0514501D1202299
:100A700015E0B14202D14FF4007210E0B94202D148
:100A80004FF400520BE0594502D14FF4003206E01A
:100A9000714502D14FF4001201E04FF0007212498B
:100AA00008394A6080F82090816A00291AD0BDE890
:100AB000F05F0847082505FA0CF5254212D01B0700
:100AC00010D50B6823F00E030B6090F84010C36B39
:100AD00002FA01F15960826380F8212080F82090A9
:100AE000016BE2E7BDE8F09F080002401C000240F5
:100AF0003000024044000240580002406C000240B6
:100B000030B528B308C8134914221944B1FBF2F1D7
:100B10008900C16310498163022141771A6843F655
:100B2000F0718A43D0E900142143D0E902452C43F7
:100B300021430469214344692143846921431143CA
:100B4000196000214163012242770177084630BDD8
:100B5000012030BDF8FFFDBF0000024070B5044623
:100B600090F82000002501280CD0012084F82000F6
:100B700094F821600020012E06D084F82000022580
:100B8000284670BD022070BD022684F82160A06353
:100B90002068066826F0010606602046FFF740FD43
:100BA000E06A00282068016802D041F00E0106E0EA
:100BB00021F0040101602068016841F00A01016030
:100BC0002068016841F001010160D9E770B5044671
:100BD00000F04EFA0546601C02D004480078044438
:100BE00000F046FA401BA042FAD370BD2800002056
:100BF0002DE9F047054626480F460126017E0129CA
:100C00000FD00121814601762868DFF888804CF2F8
:100C10005034022808D0A2462046FFF779FDA8B13B
:100C200031E00220BDE8F0872046FFF771FD08BBE8
:100C30000120FFF70DFD2046FFF76AFDD8F81010E0
:100C4000064621F00401C8F810101CE04FF0FF30F8
:100C50003860AC6811E02046FFF70CFD5046FFF706
:100C600057FDD8F81010060021F00201C8F8101046
:100C700001D03C6007E004F58064D5E9020100EB97
:100C80008120A042E7D8002189F818103046C9E732
:100C900038010020002002400348016941F0800132
:100CA0000161002070470000002002402DE9F05F44
:100CB00007461C4888460024017E15461E46012929
:100CC00009D00121814601764CF2503A5046FFF797
:100CD0001FFD18B122E00220BDE8F09F012F02D0D5
:100CE000022F00D00427D346DFF83CA0220128467B
:100CF0003146FFF769FA81B208EB4400FFF7CCFCFC
:100D00005846FFF705FDDAF8102022F00102CAF874
:100D1000102018B9641CE4B2BC42E7D3002289F861
:100D20001820D9E7380100200020024006490020A1
:100D30000A69120607D5054A4A60054A4A600969E8
:100D4000090600D5012070470020024023016745B5
:100D5000AB89EFCD2DE9F04300233E4F0F2573E023
:100D600001229A400A406DD023F00304E619D6F818
:100D700008809C074FEA147C05FA0CF909EA08047C
:100D8000DFF8D480404502D14FF0000816E0DFF8CC
:100D9000CC80404502D14FF001080FE0DFF8C08061
:100DA000404502D14FF0020808E0DFF8B880404526
:100DB00002D14FF0030801E04FF0040808FA0CF8E4
:100DC000A04522D1284CD4F800C02CEA020CC4F86B
:100DD00000C0241DD4F800C02CEA020CC4F800C0E6
:100DE000214C0C34D4F800C02CEA020CC4F800C02A
:100DF000241FD4F800C02CEA020CC4F800C0D6F8B6
:100E000008C02CEA090CC6F808C0FF2A01D806461B
:100E100001E000F104064FEA830401D9A4F12004A3
:100E2000D6F800C005FA04F82CEA080C4FF00408C4
:100E300008FA04F84CEA080CC6F800C0C46824EAB2
:100E40000204C46003F1010331FA03F288D1BDE862
:100E5000F08300000000014000080140000C014048
:100E60000010014000140140000401402DE9F84F3A
:100E7000DFF8B8910024A9F1040B23460F2709F1EC
:100E8000040AABF1040EC9E00125A5402A40AA429C
:100E90007DD1674ED1F804C0ACEB0608B44532D022
:100EA00014DCBCF1030F3AD009DCBCF1000F2AD0EE
:100EB000BCF1010F1CD0BCF1020F31D11DE0BCF11F
:100EC000110F17D0BCF1120F2AD119E0B8F5881F05
:100ED00019D006DCB8F5803F15D0B8F5801F1FD1BA
:100EE00011E0B8F5001F0ED0B8F5041F18D10AE0C4
:100EF000CB6815E0CB681B1D12E0CB6808330FE010
:100F0000CB680C330CE08B682BB1012B4FF008033E
:100F100003D0456104E0042302E0056100E0002302
:100F2000FF2A01D8064601E000F104064FEA8405D5
:100F300001D9A5F12005D6F8008007FA05FC28EABA
:100F40000C0803FA05F548EA0508C6F800804D6864
:100F5000ED0062D5374DAE6946F00106AE61AD6970
:100F600024F0030605F001050095334D06EB050C52
:100F7000DCF80850A607360F07FA06F825EA080538
:100F8000DFF8B880404503D14FF0000817E044E097
:100F9000DFF8AC80404502D14FF001080FE0DFF8E8
:100FA000A480404502D14FF0020808E0DFF89880A5
:100FB000404502D14FF0030801E04FF0040808FA61
:100FC00006F848EA0508CCF808804D68D9F80060B2
:100FD000ED024D4601D5164300E096432E604D6864
:100FE000DAF80060AD02554601D5164300E096439D
:100FF0002E604D68DBF80060AD035D4601D51643F9
:1010000000E096432E604D68DEF80060ED03754603
:1010100001D5164300E096432E60641C0D682A46F5
:10102000E5407FF431AFBDE8F88F000008040140CF
:1010300000001110001002400000014000080140B3
:10104000000C01400010014000140140806808407D
:1010500000D001207047C26821EA02030A4043EA37
:101060000241016170470AB1016170470904FBE761
:10107000014880687047000028000020024881680D
:10108000027811448160704728000020074810B59D
:10109000016841F010010160032000F085F80F2085
:1010A00000F006F800F024F8002010BD00200240F7
:1010B00070B50D4D04464FF47A712878B1FBF0F00D
:1010C0000A490968B1FBF0F000F0ECFA48B9102CBD
:1010D00007D200222146501E00F046F800206C6026
:1010E00070BD012070BD00002800002034000020E9
:1010F0000C4808B5816941F001018161816901F005
:1011000001010091C16941F08051C161C06900F0E5
:10111000805000900448416821F0E06141F0007186
:10112000416008BD001002400000014000280DDBB6
:1011300000F01F02012191404009800000F1E020F1
:10114000C0F88011BFF34F8FBFF36F8F7047002837
:1011500009DB00F01F02012191404009800000F1ED
:10116000E020C0F800117047F0B40E4B1B680C462D
:10117000C3F30223C3F10705042D00D90425191D6B
:10118000072901D2002300E0DB1E012606FA05F143
:10119000491E214099409E40761E16403143F0BCC6
:1011A00001F071B90CED00E0064900F00702086893
:1011B0004FF6FF03184040EA0220034A104308603C
:1011C000704700000CED00E00000FA052DE9F04743
:1011D0000F46050061D0434E306800F00700B8426A
:1011E00009D2306820F0070038433060306800F0E2
:1011F0000700B84251D128683B4C810712D54007FF
:1012000003D5606840F4E06060602878000703D58B
:10121000606840F4605060606068A96820F0F00089
:10122000084360602878C00728D06868012810D07B
:101230002168022810D0890700292EDA616821F080
:10124000030101436160FFF713FF804641F28839D3
:101250000DE021688903EFE78901EDE7FFF708FF5B
:10126000A0EB0801494502D90320BDE8F08760687A
:10127000696800F00C00B0EB810FEFD1306800F02E
:101280000700B8420BD9306820F0070038433060BF
:10129000306800F00700B84201D00120E5E7287867
:1012A000400705D56068E96820F4E06008436060A5
:1012B0002878000706D56068296920F4605040EA64
:1012C000C100606000F038F86168084AC1F303119A
:1012D000515CC8400649086006480068FFF7E8FE10
:1012E0000020C2E70020024000100240162600083D
:1012F000340000202C00002004480549006849689B
:10130000044AC1F30221515CC840704734000020F8
:101310000010024026260008044805490068496874
:10132000044AC1F3C221515CC84070473400002018
:1013300000100240262600080E4A51680E4801F0AF
:101340000C03042B11D0082B0FD10C48C1F383439D
:10135000C903C05C0AD55168084AC1F34041921ED6
:10136000515C054A5043B0FBF1F0704704494843D3
:10137000704700000010024000127A0006260008A4
:1013800000093D002DE9F84F040070D02078C04DD1
:10139000C00749D06868C0F38100012807D0686899
:1013A000C0F38100022809D16868C00306D5286807
:1013B000800339D560680028E7D035E06068B0F573
:1013C000803F0BD010B1B0F5A02F11D0286820F4C9
:1013D00080302860286820F4802002E0286840F4EB
:1013E00080302860606890B1FFF742FE06460AE050
:1013F000286840F480202860F0E700BFFFF738FE3F
:10140000801B642873D828688003F7D50CE0FFF7A9
:101410002FFE064605E000BFFFF72AFE801B64286A
:10142000F0D828688003F7D420789A4E80074FF0D0
:1014300001094FF0000839D5686810F00C0F07D08B
:101440006868C0F38100022809D16868C00306D427
:101450002868800714D52069012808D110E0206988
:10146000B0B1C6F80090FFF703FE074605E00AE1B9
:10147000FFF7FEFDC01B0228C4D828688007F7D5F7
:101480002868616920F0F80040EAC10028600DE09A
:10149000C6F80080FFF7ECFD074604E0FFF7E8FD23
:1014A000C01B022823D828688007F7D420780007BB
:1014B0002CD57948A169D9B1C0F80090FFF7D8FDC3
:1014C000074604E0FFF7D4FDC01B02280FD8686A66
:1014D0008007F7D571484FF4FA510068B0FBF1F07E
:1014E000009000BF0098411E0091FAD20EE080E00B
:1014F000C0F80080FFF7BCFD074604E0FFF7B8FD29
:10150000C01B022875D8686A8007F7D42078400786
:1015100060D5E8690027C00008D4E86940F0805031
:10152000E861E869012700F0805000905C4801689C
:10153000C90513D40168834641F480710160FFF747
:1015400097FD824606E000BFFFF792FDA0EB0A0080
:1015500064284ED8DBF80000C005F5D5E068012806
:101560000AD008B1052813D0286A20F001002862AB
:10157000286A20F0040002E0286A40F00100286296
:10158000E06841F2883B98B1FFF772FD82460BE0BC
:10159000286A40F004002862EEE700BFFFF768FD0C
:1015A000A0EB0A0159455AD8286A8007F6D50CE005
:1015B000FFF75EFD824605E0FFF75AFDA0EB0A014A
:1015C00059454CD8286A8007F6D41FB1E86920F045
:1015D0008050E861E06988B36968C1F3810102293C
:1015E00044D00228C6F8608004D0FFF741FD0446CD
:1015F00038E034E0FFF73CFD074604E0FFF738FD34
:10160000C01B02282BD828688001F7D4206AB0F5C7
:10161000803F05D16868A16820F400300843686005
:10162000D4E908010843696821F47411084368602B
:10163000C6F86090FFF71CFD044606E025E000BFF9
:10164000FFF716FD001B022809D828688001F7D58E
:101650001BE000BFFFF70CFD001B022802D903208E
:10166000BDE8F88F28688001F4D40EE00128F7D097
:101670006868226A00F48031914204D1616A00F402
:101680007010884201D00120EAE70020E8E700005E
:101690000010024000004242800442423400002018
:1016A0000070004010B5401EB0F1807F01D30120D2
:1016B00010BD4FF0E02460610F21601700F0E3FEE1
:1016C0000020A06107202061002010BD38B504462D
:1016D00090F84200202801D0022038BD51B14AB113
:1016E0000120206300206063204600F043FE216B50
:1016F000012901D0012038BD21680A68496800919C
:1017000021680C3151E8002F42F0100241E800231B
:10171000002BF5D138BD000001680448C26812688A
:10172000914201D10121817070470000000000202A
:1017300010B5040015D0242084F841002068C16849
:1017400021F40051C160204600F076F90020606469
:1017500084F8410084F8420044F8300F606020743F
:1017600010BD012010BD7047F8B501680446086837
:10177000CA684B6910F00F0F4FF0000559D003F005
:10178000010602F49077374365D0C10705D0D10533
:1017900003D5616C41F001016164410705D5D907AA
:1017A00003D0616C41F002016164810705D5D9075E
:1017B00003D0616C41F004016164010707D502F0B8
:1017C0002001314303D0616C41F008016164616C18
:1017D00000293AD0800604D5900602D5204600F0B4
:1017E0000BFD20684069616CC0F38010090700D4CC
:1017F00060B3204600F0CBFC20684069400621D54C
:101800002068143050E8001F21F0400140E8001229
:10181000002AF5D1E06BA8B16D494163E06BFFF799
:101820004BF8002811D0E06B416B01B0BDE8F040EF
:10183000084783060FD593060DD52046BDE8F8402E
:1018400000F0DABC2046FFF78EFFF8BD2046FFF718
:101850008AFF6564F8BD266B2023012E7CD1C60665
:101860007AD5D60678D508684868009048694FF060
:101870000206400640D5E16B086840680004000C91
:10188000E8D0A28D8242E5D9E085886920282DD054
:1018900020680C3050E8001F21F4807140E80012ED
:1018A000002AF5D12068143050E8001F21F0010112
:1018B00040E80012002AF5D12068143050E8001FDB
:1018C00021F0400140E80012002AF5D184F84230AE
:1018D000256320680C3050E8001F21F0100140E81B
:1018E0000012002AF5D1E06BFEF7C2FF6663A08DFF
:1018F000E18D401A81B22AE0A08DE18D401A81B2BB
:10190000E08D0028A6D00029A4D022680C3252E82D
:10191000000F20F4907042E80007002FF5D12068F6
:10192000143050E8002F22F0010240E80027002F79
:10193000F5D184F84230256320680C3050E8002F40
:1019400022F0100240E80023002BF5D16663204608
:10195000FFF7E2FEF8BDFFE705062BD5150629D5F2
:1019600094F841002128F5D1A068B0F5805F01D13D
:101970002069B0B1206A411C21622168007848606A
:10198000E08C401E0004000CE084E3D12068C168B4
:1019900021F08001C1602068C16841F04001C16050
:1019A000D8E7206A0088C0F308004860206A801CDD
:1019B0002062E5E74006CDD55006CBD5CA68204663
:1019C00022F04002CA6084F8413000F0FFF8C1E71D
:1019D0009120000870B5040004D094F8410000255F
:1019E00010B106E0012070BD84F84050204600F0A0
:1019F00043F8242084F841002068C16821F4005194
:101A0000C160204600F05AFC2068016921F4904131
:101A100001612068416921F02A0141612068C168A3
:101A200041F40051C1606564202084F8410084F8CD
:101A300042006563002070BD10B5044600680B4984
:101A4000884211D10A48816921F4804181614FF4B3
:101A5000C0610848FFF77EF9E06BFEF779FFBDE84B
:101A600010402520FFF762BB10BD00000038014088
:101A7000001002400008014070B586B000250646FF
:101A800000950195029503950068224988423ED150
:101A90002149886940F480408861886900F4804069
:101AA0000490886940F00400886188691B4C00F04C
:101AB0000400049048150090022001900320039038
:101AC00069462046FFF7D2F92015CDE900056946A1
:101AD00020460295FFF7CAF9124C1148C4E90005E7
:101AE0008020C4E9025025616561A5612046E56159
:101AF000FFF706F808B1FEF7A9FDF46300221146CE
:101B000025206662FFF730FB2520FFF720FB06B09B
:101B100070BD000000380140001002400008014084
:101B200058000240F0000020704770472DE9F8434C
:101B3000044690F84100984616460D46202802D0EB
:101B40000220BDE8F88385B17EB1002060642120C9
:101B500084F84100FFF78CFAA6848146E684A068E9
:101B60002027B0F5805F02D003E00120E9E720697B
:101B700010B12E4600250EE000260CE08021204604
:101B800000F040FCA8B9C6B116F8010B2168486006
:101B9000E08C401EE084E08C4B464FF00002CDF814
:101BA00000800028EAD14FF04001204600F02AFCD6
:101BB00040B184F841700320C3E735F8020BC0F34D
:101BC0000800E3E784F841700020BAE7704700009E
:101BD0002DE9F04FD84D9FB0A878002872D0D74C8F
:101BE0002978207800F00F00884209D166782046D5
:101BF0003146FEF7B6FCA11911F8011C814208D04C
:101C00006421CE48FEF71FFB1FB0BDE8F04F00F087
:101C1000A1B9A7784FF48051C948FFF71CFAFFF724
:101C200027FADFF818834FF0FF3BA8F10B08A861F3
:101C3000A02F48D0DFF80C934FF0060AA22F7CD0DB
:101C4000A32F7BD0A42F7AD0A52F3BD1592600F00B
:101C500097F9D4F80300A17900BA20F0FF000843F7
:101C6000296988426CD1DFF8E09201214846FEF7ED
:101C700079FD222088F80000E07988F801002869C1
:101C8000C8F80600207A88F80200607A88F8030015
:101C90006089474640BAA8F80400207B88F80A000B
:101CA0000120FEF793FF396800917A680192388924
:101CB000ADF80800B87A8DF80A004846029BFEF796
:101CC00097FD1AE188E000F05BF90120FEF77EFF46
:101CD00020788DF800000F218DF8011011208DF86B
:101CE000020098F800208DF8032098F801208DF864
:101CF000042098F802208DF8052098F803208DF82C
:101D00000620B8F804208DF80820130A8DF8073053
:101D1000D8F806208DF80C20130E8DF80930130C1E
:101D20008DF80A30130A8DF80B3098F80A008DF8F8
:101D30000D006846FEF715FC03E005E047E0AEE065
:101D4000DAE08DF80E003AE000F01AF9D4F803005A
:101D5000A17900BA20F0FF0008432861D4F80710E9
:101D6000A27A09BA21F0FF011143784A5926696124
:101D7000904210D149450ED20A1AC0F38521E9706C
:101D8000C2F387212971920501D0491C2971C9B27A
:101D9000FEF7E8FCC0B14E2620788DF800008DF8E3
:101DA00001A0A0788DF802008DF8036028798DF8E5
:101DB000040051466846FEF7D4FB8DF805009DF8F7
:101DC00001205B4669465FE001206870E4E76878BF
:101DD000012804D000F0BEF81FB0BDE8F08F00F07D
:101DE000CFF8D4F80300083E00BA20F0FF07A0792E
:101DF000F6B20743286987422FD3686987422CD8F7
:101E0000B919494529D2002005A904E02218D27940
:101E10000A54401CC0B2B042F8D3324612A9384628
:101E2000FEF7B6FC324612A905A8FEF7E0F998B312
:101E3000324605A93846FEF7BCFCFF20401E10F0D4
:101E4000FF00FBD1324612A93846FEF7A1FC32460C
:101E500012A905A8FEF7CBF9F0B14E2021788DF834
:101E600008108DF809A0A2788DF80A208DF80B00D3
:101E700051468DF80C6002A8FEF773FB9DF809200F
:101E80008DF80D005B4602A9E868FFF74FFE64215C
:101E90002A48FEF7D8F99DE7FFE75920DEE75926E3
:101EA00000F06EF8D4F8030000BA20F0FF07A07924
:101EB0000743D5E90401FEF76DFB874200D04E26AB
:101EC00029788DF8001009218DF80110A4228DF8D1
:101ED0000220020E8DF80420020C8DF80520020A63
:101EE0008DF806208DF807008DF803606846FEF730
:101EF00038FB8DF8080062E74E2620788DF8140034
:101F000005218DF81510A0788DF816008DF8176052
:101F100005A8FEF726FB8DF818009DF815205B46F6
:101F200005A9E868FFF702FE64210448FEF78BF973
:101F300000F010F800F0B8FA000000204300002084
:101F40000008014000F8000800FC00080028000814
:101F5000FEE7000010B500224FF480710548FFF73E
:101F600082F8064C64220449E068FFF7AFFB0020CA
:101F7000A07010BD000801404300002000000020B8
:101F8000012211020148FFF76EB80000000801406D
:101F900070B586B000242048009401940294039404
:101FA000816941F020018161816901F02001049182
:101FB000816941F004018161816901F004010491AA
:101FC000816941F0080181618069144E00F00800C8
:101FD0004FF488550490002229463046FFF743F815
:101FE000C020CDE90004694630460294FEF73EFF6A
:101FF0000720CDE90004694609480294FEF736FF40
:1020000001200095CDE90104022003906946304685
:10201000FEF72CFF06B070BD001002400008014022
:10202000000C0140FEE7FEE770477047FFF726B857
:1020300030B58FB028216846FEF727F914210AA889
:10204000FEF723F901210804CDE9001000240294D1
:1020500002250491CDE907504FF4E010099068463D
:10206000FFF790F908B172B6FEE70F20CDE90A0537
:102070004FF48060CDE90C4002210AA80E94FFF7CE
:10208000A5F8002801D072B6FEE70FB030BD70474A
:1020900010B5406A0021C185C184FFF764FB10BD03
:1020A00070B5446A2068406994F84110C0F3C010CC
:1020B0000025212904D118B1E584204600F08EF8CE
:1020C0002068406994F84210C0F38010222904D19E
:1020D00018B1E585204600F05AF8606C40F0100019
:1020E00060642046FFF73FFB70BD10B50146406AB3
:1020F000096809684FF0000289062ED4C28501687C
:102100000C3151E8003F23F4807341E80034002C87
:10211000F5D10168143151E8003F23F0010341E893
:102120000034002CF5D10168143151E8003F23F050
:10213000400341E80034002CF5D1202180F8421002
:10214000016B012909D101680C3151E8003F23F0EE
:10215000100341E80034002CF5D14263016B0129E2
:1021600002D0FFF7E1FC10BD818DFFF7D5FA10BD5D
:1021700010B5406A01214163016B012902D0FFF7CC
:10218000D4FC10BD818D4908FFF7C6FA10BD016867
:102190000C3151E8002F22F4907241E80023002B0B
:1021A000F5D10168143151E8002F22F0010241E815
:1021B0000023002BF5D1016B012909D101680C31F5
:1021C00051E8002F22F0100241E80023002BF5D146
:1021D000202180F8421000210163704701680C3112
:1021E00051E8002F22F0C00241E80023002BF5D176
:1021F000202180F84110704708B590F8421022293C
:1022000001D0022008BD82684FF480539A4201D168
:10221000016921B1816A9A421BD04AB10AE0026881
:10222000816A5268C2F308020A80816A891C08E048
:10223000026972B10268526802F07F020A70816A14
:10224000491C8162C18D491E0904090CC18503D056
:102250001BE002685268F1E70168CA6822F02002B8
:10226000CA600168CA6822F48072CA6001684A695B
:1022700022F001024A61202180F8421000214163CE
:10228000026B012A03D0FFF74FFC002008BD016359
:1022900001680C3151E8002F22F0100241E80023C0
:1022A000002BF5D101680A68D20602D50A68496890
:1022B0000091818DFFF730FAE7E7000070B5044622
:1022C00000680169E26821F440511143016121690C
:1022D000A0680843616908432168CA6841F20C6339
:1022E0009A430243CA6020684169A26921F440719F
:1022F000114341611E492068884202D1FFF70CF862
:1023000001E0FEF7F9FF00EBC00101EB001260688D
:1023100064218000B2FBF0F3B3FBF1F36FF0180619
:102320007343B2FBF0F5B2FBF0F605EB8305322305
:1023300003EB0515B5FBF1F5B6FBF1F605F0F0057D
:1023400005EB0615B2FBF0F6B2FBF0F0B0FBF1F0D6
:102350006FF01802504306EB800003EB0010B0FB57
:10236000F1F0216800F00F002844886070BD000083
:102370000038014038B5816204468285002013464A
:102380006064222284F84220E56B1B4AAA62E56B56
:102390001A4AEA62E56B1A4A2A63E26B50630A46FC
:1023A0002168E06B091DFEF7D9FB206801684068D1
:1023B0000090206948B120680C3050E8001F41F4BB
:1023C000807140E80012002AF5D12068143050E8EE
:1023D000001F41F0010140E80012002AF5D12068F9
:1023E000143050E8001F41F0400140E80012002A7C
:1023F000F5D1002038BD0000EB2000087121000855
:10240000A12000082DE9F843984617460D460446DA
:10241000089E24E0701C22D0FEF72AFEA0EB0800E4
:10242000B0421AD8CEB12068C168490717D5802DAF
:1024300015D0402D13D00168C94309070FD4016896
:102440000025406800902046FFF7A1FE0820606448
:1024500084F840500120BDE8F8830320FBE72068A2
:10246000006835EA000004D00020B842D2D0002035
:10247000F1E70120F9E700000148FFF775B9000016
:10248000A8000020FEE70907090E002804DB00F180
:10249000E02080F80014704700F00F0000F1E02009
:1024A00080F8141D70470000BFF34F8F0548016886
:1024B000054A01F4E06111430160BFF34F8F00BF93
:1024C000FDE700000CED00E00400FA0508B5FEF79A
:1024D000DDFDFFF7ADFDFFF75BFD4148416941F0D0
:1024E000010141614069002200F0010000901146A5
:1024F0000F20FEF739FE0F20FEF729FE3A49394832
:1025000008600846FEF78FF908B172B6FEE7384852
:1025100036490C2201604FF4614141600021816025
:10252000C160C0E904128161C161FFF753FA08B1CB
:1025300072B6FEE72F4D40212846FEF787FDE8B32F
:1025400000202D4C217841EA00102070802128467F
:10255000FEF77CFD98B300202178284E41EAC000A8
:10256000207001213046FEF771FD48B3002021782C
:1025700041EA8000207002213046FEF767FD58B323
:102580000020217841EA4000207004213046FEF707
:102590005DFD18B3002021780022084320704FF41D
:1025A00080512846FEF75FFD15491148FDF7D2FE20
:1025B0000D4C241F2078401C207002E006E007E04C
:1025C00008E0FFF705FBFDF7F5FFF3E70120B8E7AB
:1025D0000120C1E70120CAE70120D2E70120DAE7A4
:1025E000001002400030024020000020003801406E
:1025F000A80000200008014000000020000C01405D
:1026000038000020010202030405060708090A0B2E
:102610000C0D0E0F10100000000000000000010261
:10262000030406070809000000000102030400007B
:102630005026000800000020380000002801000893
:1026400088260008380000208007000044010008A8
:10265000000000000000000000000000000000007A
:10266000000000000000000000000000000000006A
:102670000000000000000000010000001000000049
:082680000000000000127A00C6
:04000005080000ED02
:00000001FF
