:020000040800F2
:1000000018150020F9020008299E0008758B0008C9
:10001000D59800086515000861D6000800000000AA
:1000200000000000000000000000000071AF0008A8
:100030003D2A00080000000095A00008F9B900085A
:100040001503000815030008150300080000000050
:100050001503000815030008150300080000000040
:10006000150300081503000800000000D92D000842
:100070001503000815030008150300081503000800
:1000800015030008150300081503000815030008F0
:1000900015030008150300081503000815030008E0
:1000A0001503000815030008150300087D2E00083D
:1000B000892E0008952E0008150300081503000876
:1000C00015030008150300081503000815030008B0
:1000D00000000000150300081503000815030008C0
:1000E0001503000815030008150300081503000890
:1000F00015030008A5BA0008B1BA00080000000006
:1001000000000000BDBA0008C9BA000815030008C5
:10011000150300081503000815030008150300085F
:1001200015030008150300081503000855D600083C
:10013000150300080000000000000000150300087F
:10014000150300080000000000000000000000008F
:10015000000000000000000015030008000000007F
:10016000000000000000000015030008150300084F
:10017000000000000000000000000000000000007F
:10018000000000000000000000000000000000006F
:10019000000000000000000000000000000000005F
:1001A000000000000000000015030008150300080F
:1001B00015030008150300081503000815030008BF
:1001C00015030008150300080000000000000000EF
:1001D00000000000000000000000000015030008FF
:1001E00015030008000000000000000000000000EF
:1001F00000000000000000000000000000000000FF
:1002000000000000150300081503000800000000AE
:1002100000000000150300080000000000000000BE
:1002200000000000000000000000000015030008AE
:10023000150300080000000000000000000000009E
:10024000000000000000000000000000150300088E
:10025000150300081503000800F002F800F03CF850
:100260000AA090E8000C82448344AAF10107DA4511
:1002700001D100F031F8AFF2090EBAE80F0013F027
:10028000010F18BFFB1A43F001031847F44D01009A
:10029000144E0100103A24BF78C878C1FAD852072A
:1002A00024BF30C830C144BF04680C6070470000F0
:1002B0000023002400250026103A28BF78C1FBD86F
:1002C000520728BF30C148BF0B6070471FB514F0FC
:1002D00078FC1FBD10B510BD00F03AF91146FFF7CC
:1002E000F5FF0FF057FD00F058F903B4FFF7F2FFE8
:1002F00003BC00F05BF900000A4880470A48004749
:10030000FEE7FEE7FEE7FEE7FEE7FEE7FEE7FEE7C5
:10031000FEE7FEE7FEE7000004480549054A064BF4
:1003200070470000FDB9000859020008180F0020AE
:1003300018150020181100201811002053EA020C93
:1003400000F069802DE9F04B4FF00006002B1FBF35
:10035000B3FA83F503FA05F424FA05F65E4012BFFA
:100360001643B2FA82F502FA05F4C5F120051EBF64
:1003700022FA05FC44EA0C04203556EA044C4FEA04
:10038000144418BF641C4FF000084FF0000990425D
:1003900071EB030C39D3002919BFB1FA81F701FAC7
:1003A00007F6B0FA80F700FA07F6C7F120071EBF7C
:1003B00020FA07FC46EA0C062037B6FBF4FCA7EB54
:1003C0000507103F07F01F0BCBF120062CFA06F6AD
:1003D0000CFA0BFB44BFB3460026202FA4BF5E4699
:1003E0004FF0000B5BEA060C08BF4FF0010B19EB56
:1003F0000B0948EB0608ABFB027C06FB02CC0BFBAF
:1004000003CCC01B71EB0C01C1E70B460246414611
:100410004846BDE8F08B13B5084318BF4FF0FF30D6
:100420000146AFF30080BDE81C40704710B5203A8C
:10043000C0F00B80B1E81850A0E81850B1E818508F
:10044000A0E81850203ABFF4F5AF5FEA027C24BF61
:10045000B1E81850A0E8185044BF18C918C0BDE84A
:1004600010405FEA827C24BF51F8043B40F8043B13
:1004700008BF7047D20728BF31F8023B48BF11F8C8
:10048000012B28BF20F8023B48BF00F8012B704722
:100490004FF000020429C0F0128010F0030C00F0AD
:1004A0001B80CCF1040CBCF1020F18BF00F8012B2B
:1004B000A8BF20F8022BA1EB0C0100F00DB85FEAF9
:1004C000C17C24BF00F8012B00F8012B48BF00F8C5
:1004D000012B70474FF0000200B513469446964634
:1004E000203922BFA0E80C50A0E80C50B1F1200147
:1004F000BFF4F7AF090728BFA0E80C5048BF0CC0F5
:100500005DF804EB890028BF40F8042B08BF704752
:1005100048BF20F8022B11F0804F18BF00F8012BC4
:10052000704770477047704710B500F009F80068D1
:1005300010BD10B5044600F003F8046010BD0000C3
:1005400000487047C000002000487047C0000020ED
:100550007546FFF7F9FFAE4605006946534620F0A1
:100560000700854618B020B5FFF7D6FEBDE820404D
:100570004FF000064FF000074FF000084FF0000B5F
:10058000AC46ACE8C009ACE8C009ACE8C009ACE8CE
:10059000C00921F007018D46704710B50446AFF33E
:1005A00000802046BDE81040FFF79FBE014918209B
:1005B000ABBEFEE726000200704700002DE9F041C7
:1005C0000446DDE9060C00264FF07E584FF0030E7E
:1005D000FF25089FC4E90166C4E90368C4E905680A
:1005E000C4E9076EA584C4E90A6622866086C4E968
:1005F0000F1304F1500061464C2284F83860FFF775
:1006000015FF4FF0FF30002F08BF012084F89C0039
:10061000C4E92A68206D84F8B060016841F0800167
:1006200001604FF6FF71C16246F28660C4F6691040
:10063000E165C4F8B160C4F8A060C4F8A400204625
:10064000C4F81480BDE8F041AFF300802DE9F04319
:1006500081B0044694ED030A4068A16820EE000AC8
:100660000F1A10EE100A14F0E1F9054660690E4603
:1006700014F0DCF902460B4613F092FB02460B46DF
:100680002846314613F048FC13F0DAFD4FB9012833
:1006900007DC0020E061E060C4F8A00001B0BDE824
:1006A000F083012F0BDBD4F8A080B8F1010FC0F26A
:1006B0008780874213DD94F8B010B9B90FE0D4F801
:1006C000A080B7F1FF3F0EDC7942B8F1010FC0F214
:1006D0008580884203DA94F8B010012906D1C0F170
:1006E0000008C4F8A080B8F1000F40D0D4F8A800EA
:1006F00014F09CF902460B4606460F4613F050FBD9
:1007000005464046894613F0F8FD0023CCF210035D
:10071000002213F095FE0023CBF6F073002213F0B5
:100720003FFB02460B462846494613F0F5FB0246BE
:100730000B463046394613F033FB13F0FFFA00EE58
:10074000100ABDEEC00A94ED2B1A10EE100ABDEE91
:10075000C11A11EE101A8842C8BF014600EE101AE5
:10076000B8EEC00A94F8B00084ED2A0A0DE0D4F87F
:10077000A41000204FF00008002FC8BF0120C4F8CB
:10078000A81000EE101A84F8B00042F20041C4F63E
:10079000741101EE101A08F1010181EE001AC4F87B
:1007A000A010BCEEC00A002884ED070A84ED031AED
:1007B00004BFB1EE410A84ED030A01B0BDE8F08345
:1007C000874290DDB8F1000F8DD094F8B000012879
:1007D0008CD1C8F10008C4F8A08087E78842BFF632
:1007E00082AFB8F1000F3FF47EAF94F8B00000285C
:1007F0007FF47CAFEDE700004068704710B5044619
:100800008068884208BF10BD2046A160FFF71EFF28
:1008100004F15000BDE8104006F010BEB0B504462B
:100820004068A168002581422DD0E3694FF00002A5
:10083000C8BF012284F8B0202BB300238142D8BF67
:1008400001234FF0FF31C8BF0121084494F89C10E8
:100850006060FF29206C618E08BF1A4604F09CF985
:10086000E06B218E0122012504F096F9206A0DF03B
:10087000B1FFE06B218E002204F08EF90FF090FEA4
:10088000C117C4E90A012846B0BD000010B52DED1E
:10089000028BB5EE400AF1EE10FA02D1BDEC028BEC
:1008A00010BD90ED051AB0EEC08A0446B4EE481AA9
:1008B000F1EE10FAF2D081EE080A94ED281A18EE43
:1008C000100AB8EEC11A20EE010ABDEEC00A84ED8E
:1008D000280A14F0ABF802460B4600204FF0804186
:1008E00013F01AFB41EC100B12F096FC51EC100BBC
:1008F0004AF2CA1341F26F22C3F6E573CCF28302C7
:1009000013F09EFD48F28043C4F22E13002213F030
:1009100097FD13F013FA014684ED058A2046C4F8CA
:10092000A410BDEC028BBDE81040FFF78FBE0000A5
:100930000022C0F8A020C261C0E90111C260704766
:1009400070B590ED041AB0EEC00AB4EE401AF1EEA4
:1009500010FA08BF70BD044642F2004084ED040A5C
:10096000C4F6741001EE100AD4F8A00081EE001A4B
:10097000012884ED2B1A20DB94ED030A20EE000AF7
:1009800010EE100A14F052F8054660690E4614F095
:100990004DF802460B4613F003FA02460B46284672
:1009A000314613F0B9FA13F04BFC01462046C4F867
:1009B000A010BDE87040FFF749BE70BD2DE9F041C1
:1009C0002DED028BB5EE400A0446F1EE10FA0AD086
:1009D00094ED031AB4EE401AF1EE10FA03D1BDEC17
:1009E000028BBDE8F08194ED041AB1EE412AB4EE19
:1009F000402A81FE400AF1EE10FA32FE008A18EE1B
:100A0000100A14F013F8B5EE408AF1EE10FA0DD189
:100A1000002504F15000E56106F040FD206D4562BF
:100A200084ED038ABDEC028BBDE8F081274657F8C0
:100A3000508F0546D8F80C000E46C00704D1384642
:100A400006F0FCFCD7F8008048F28041C4F22E1179
:100A500000202A463346002713F05EFAFA0F62F3AD
:100A6000DF7113F01DFC00EE107AE061B4EE408AF5
:100A7000C8F82C00E065F1EE10FAC8BF012784F831
:100A8000B07084ED038ABDEC028BBDE8F0810000FC
:100A9000806870472DE9F04381B02DED028B40F660
:100AA0000004C4F2022404F07DF805462046042127
:100AB00004F06CF840F22016C2F2000696F82A10F4
:100AC00040F2586840F2882740F284098842C2F216
:100AD0000008C2F20007C2F2000911D1D7E90C12D6
:100AE0000023691AD9F800504FF0010063EB0202AD
:100AF000691A73EB020188F81B0028BF002005E08B
:100B0000002088F81B00C7E90C50002086F82B0055
:100B100004F048F805462046022104F037F896F81C
:100B20002A10884211D1D7E90E120023691AD9F888
:100B300004504FF0010063EB0202691A73EB0201EB
:100B400088F81C0028BF002005E0002088F81C0061
:100B5000C7E90E50002086F82C0004F023F8054663
:100B600020460121012404F011F896F82A10884249
:100B700010D1D7E91001D9F80830281A4FF0000237
:100B800062EB0101181A72EB010088F81D4028BFC2
:100B9000002405E00020002488F81D00C7E910505B
:100BA00040F20008C2F2000898F8120096F82B10E4
:100BB00096F82C20091A18BF0121121A18BF012219
:100BC00086F82D4040F2F0278442C2F200071FBF92
:100BD0007B881140B3FA83F2520918BF51EA02012F
:100BE00004D10121844208BF02213173707D0128A4
:100BF0000ED140F6A844C2F200042046FFF7FCFDE7
:100C000005462046FFF744FF854204BF03203073AA
:100C1000B07E012804BF0420307396F82E00798836
:100C2000012808BF002904D096F8230001280DD020
:100C300022E0307F012801BFD7E9160250EA020006
:100C40000C20307396F82300012815D103F0AAFF79
:100C5000798889B940F26C32C2F20002D26E801AF1
:100C60004EF68162C0F23602904205D3D7E91602F1
:100C7000104301D10D204FE002294FD140F6A8408A
:100C8000C2F20000FFF7B8FD002848BF404213F051
:100C900034FB98ED1C0B0D46002153EC102B044641
:100CA000C4F22401002013F037F922462B4613F03A
:100CB000F6FE98BB40F6A840C2F20000FFF79CFD8C
:100CC000002848BF404213F018FB98ED1C0B0D465E
:100CD000002153EC102B0446C4F23E01002013F017
:100CE0001BF9B7F91A20012A18DB40F2E832C2F2E8
:100CF000000292ED020A44F20002C4F29C5201EE9C
:100D0000102AB4EE410AF1EE10FA07DA22462B4619
:100D100013F0CCFE10B10E20307302E0307B0028BF
:100D20005DD0002408EE104A40F6A840B0EE480A14
:100D3000C2F20000FFF742FE40F66050B0EE480AF3
:100D4000C2F20000FFF73AFE307BB474022805D0EF
:100D500096F8200070B1317BB9B924E040F6F0304C
:100D6000B0EE480AC2F20000FFF728FE96F8200015
:100D70000028F0D144F62060C8F858000320B07174
:100D8000012086F82000317B69B196F82F0050B918
:100D9000012086F82F0003F005FF40F2E832317B96
:100DA000C2F20002D0600D291ED80120884043F213
:100DB0001401084218D0307B0D2810D103F0F2FE48
:100DC00040F2E831C2F20001C968401A41F28831AC
:100DD000884204D3022086F8230001207073BDEC02
:100DE000028B01B0BDE8F08396F830000028E2D114
:100DF000B07D0128DFD003F0D5FE40F2E831C2F229
:100E00000001C968401AB0F5FA6FD4D3307998F868
:100E10000D10884208BF03F073FFCCE72DE9F04FB7
:100E200081B02DED0A8B84B040F22018C2F2000888
:100E300098F86E1029B104B0BDEC0A8B01B0BDE882
:100E4000F08F40F26C39C2F20009D9F80C1040F270
:100E50005C5A0446C2F2000A11B1012946D065E18C
:100E60000120C9F80C0003F09DFECAF84C00204692
:100E700013F05AFA42F2FB134AF2A872C4F20903C1
:100E8000C5F23D4213F0DCFA40F20007C2F200075F
:100E90000546786B0E4613F0C9FD02460B46284600
:100EA000314613F0CDFA97ED1C0B05460E4648F27D
:100EB000000351EC100BC4F276030022002713F05C
:100EC000BFFA02460B462846314613F025F8FA0FC2
:100ED00062F3DF7113F0B4F940F2F022D9F80C108C
:100EE000C2F20002D087012940F0208199ED178AD3
:100EF000B0EEC89A19EE100A13F098FD0546204688
:100F00000E4613F011FA04460F4628463146224693
:100F10003B4613F0D2FD18B9092088F80C0005E112
:100F2000B6EE000AB4EE409AF1EE10FA0BDA0120A8
:100F300088F86E000020C9F80C0004B0BDEC0A8BE4
:100F400001B0BDE8F08FB4EE409AF1EE10FAC0F2B5
:100F5000ED802846314622463B4613F0A0FD00288E
:100F600040F0E480B5EE408A8AED148AF1EE10FA82
:100F700011DD40F2F0240220C2F20004E18FC9F832
:100F80000C0040F6A840C2F20000FFF737FCE08FEB
:100F9000A346414210E040F2F024C2F200040320D4
:100FA000E18FC9F80C0040F6A8404942C2F20000A7
:100FB000FFF724FCE18FA34640F66050C2F2000028
:100FC000FFF71CFC40F20000C2F2000090ED1C0B89
:100FD000002156EC105BC4F23E0100202A46334645
:100FE000002412F099FF12F0A9FE44F20001074616
:100FF00008EE100A0390C4F28F0100202A463346FF
:1010000012F08AFF12F09AFE00EE104A0024BFEEA2
:10101000009AB4EE408AB7EE00AA0546F1EE10FA47
:10102000B8BF01249BED120A584638EE400A40F240
:10103000E83BB5EE400AC2F2000BF1EE10FA88F878
:1010400032403AFE09CA90ED13BA28468BED140AD5
:10105000CBF848708BED15CACBF84C5013F0E6FC7A
:1010600046F24D234AF6FC12C3F65073CDF2F1223C
:1010700013F0E6F9064602901CEE100A0F460191A5
:1010800013F0D4FC02460B463046394613F0D8F92B
:1010900012F054FECBF858000120CBF8440040F683
:1010A0000410C2F2000040F264410768C2F200017D
:1010B00038EE4B0ACE6E786A8BED1A0A4FF47A71CD
:1010C000B5EE400A06FB010040F25862F1EE10FA5C
:1010D000C2F200024FF00001C2E91A0103983AFE81
:1010E000091ACBF8600011EE100A88F833408BED36
:1010F0001B1ACBF8645013F099FC02460B46DDE94D
:10110000011013F09DF912F019FECBF870000120C8
:10111000CBF85C00786A4FF47A7106FB010040F26C
:1011200058620021C2F20002C2E91C01D9F80C0089
:1011300003281BD0022840F0A78099ED178A18EEEB
:10114000100A13F073FCB9EE040AB4EE408AF1EE13
:1011500010FA73DB49F6991349F69A12C3F6C9736C
:10116000C9F6991213F09BFCC8B167E099ED178A94
:1011700018EE100A13F05AFCB1EE040AB4EE408ADD
:10118000F1EE10FA64DC49F6991349F69A12CBF69F
:10119000C973C9F6991213F097FC002858D140F68C
:1011A000A844C2F20004002620460021C9F80C60C1
:1011B000FFF7BEFB40F66055C2F20005284600214D
:1011C000FFF7B6FB20460021FFF718FB2846002159
:1011D000FFF714FB08EE106A2046B0EE480AFFF74E
:1011E000EDFBB0EE480A2846FFF7E8FB40F69C10FE
:1011F000C2F2000001684FF6FF7240F6E813CA62BF
:10120000C2F200031F68C26040F2F020C2F2000088
:10121000FA62DA604E627E62C0E9126640F2E8303D
:10122000C2F200004664C665C662D9F80C0001210E
:10123000032888F86E100BD0022825D199ED170AE3
:101240009AED141AB4EE410AF1EE10FA09DC1EE030
:1012500099ED170A9AED141AB4EE410AF1EE10FA5C
:1012600015DA0120C9F80C0040F6A840C2F20000CF
:101270000021FFF75DFB40F66050C2F20000002144
:10128000FFF756FBD9F80C0000283FF4D4AD03F06B
:1012900089FCDAF84C10401A40F6B8318842FFF465
:1012A000CAADD9F80400002804BF092088F80C0052
:1012B00004B0BDEC0A8B01B0BDE8F08FF0B581B091
:1012C0002DED028B40F22016C2F2000696F85B006C
:1012D00018B1BDEC028B01B0F0BD40F26C37C2F228
:1012E0000007B86801281AD0002840F0CE8040F2EC
:1012F0000001C2F2000191ED1C0B0120002153EC12
:10130000102BB860C4F23E01002012F005FE12F06E
:1013100097FF40F2F021C2F20001A1F8400097EDE2
:10132000170AB3EE092AB0EEC01AB4EE421AF1EE73
:1013300010FA5CDA40F2E040C2F2000090ED1E1AB2
:1013400096F86F2030EE010A40F25C540221012A27
:10135000C2F20004B96084ED150A04D10021616570
:10136000816786F86F1040F6A840C2F200000021A5
:10137000FFF7DEFA40F66050C2F200000021FFF7EE
:10138000D7FA40F20000C2F2000090ED0B0A90ED97
:101390000C1A90ED0D2AB8EEC00A0020C4F2B43049
:1013A00022EE002A94ED150A03EE100A20EE022A1E
:1013B00021EE031AB5EE400A82EE011AF1EE10FAA0
:1013C000B0EEC11A84ED161A17DDBDEEC10A40F663
:1013D000A84010EE101AC2F20000FFF70FFA94EDC9
:1013E000160ABDEEC00A10EE100A444229E0102091
:1013F0003073BDEC028B01B0F0BDB5EE400AF1EEEA
:1014000010FA11DABDEEC10A10EE100A414240F6A0
:10141000A840C2F20000FFF7F1F994ED160ABDEE04
:10142000C00A10EE104A0CE0B5EE400AF1EE10FAD8
:101430000ED140F6A840C2F2000000210024FFF7C0
:10144000DDF940F66050C2F200002146FFF7D6F900
:1014500040F2F024C2F20004B4F8400000EE100A9A
:1014600040F6A840B8EE400AC2F20000FFF7A6FA24
:10147000B4F8400000EE100A40F66050B8EE400AA2
:10148000C2F20000FFF79AFAB86802287FF421AF91
:1014900040F6A844C2F200042046FFF7F9FA0546D8
:1014A0002046FFF7A9F985427FF413AF40F6605458
:1014B000C2F200042046FFF7EBFA05462046FFF78C
:1014C0009BF985427FF405AF40F6A8440320C2F2A1
:1014D0000004B860204600210027FFF729FA40F6F3
:1014E0006055C2F2000528460021FFF721FA204688
:1014F0000021FFF783F928460021FFF77FF908EE66
:10150000107A2046B0EE480AFFF758FAB0EE480AC3
:101510002846FFF753FA40F69C10C2F2000001681B
:101520004FF6FF7240F6E813CA62C2F200031D686C
:10153000C26040F2F020C2F20000EA62DA604F625C
:101540006F62C0E9127740F2E830C2F200004764EF
:10155000C765C762012086F85B00BDEC028B01B055
:10156000F0BD0000FEE700002DE9F04740F2004A20
:10157000C4F2022A03F016FB054650464FF48041A0
:1015800003F004FB40F22017C2F2000797F82A107C
:1015900040F2586940F2882840F284068842C2F23C
:1015A0000009C2F20008C2F2000610D1D8E91212F6
:1015B0000023691AF5684FF0010063EB0202691A13
:1015C00073EB020189F81E0028BF002005E000200F
:1015D00089F81E00C8E91250002040F20004C2F24F
:1015E0000004217D884207D197F82500002804BF18
:1015F00040F20110A7F83D0003F0D4FA054650462A
:101600004FF4005103F0C2FA97F82A10884221D112
:10161000D8E914123669691A4FF000034FF001003F
:1016200063EB0202711A73EB020189F81F0028BFF5
:101630000020217D884216D003F0B4FA40F26441C4
:10164000C2F20001096A401AC82824BF002087F8A6
:10165000420067E0002089F81F00C8E9145000200C
:10166000217D8842E8D197F8420000285AD140F203
:10167000F026C2F20006F08C0130F084012087F8D9
:10168000420003F08FFA96F8262097F8381040F2BF
:101690006443C2F20003D207186225D1012941D167
:1016A0000AF5806020210022002403F075FA40F63C
:1016B000F0350120C2F2000587F8390028460021E4
:1016C00087F83C40FFF79AF8308C12F02DFE46F276
:1016D0006663C3F6E6734FF0663212F0B1FE12F0A5
:1016E0002DFB00EE100A1AE001291BD10AF58060DB
:1016F00020210022002403F04FFA40F6F0350120AB
:10170000F18BC2F2000587F83C00284687F8394083
:10171000FFF774F8308C00EE100AB8EE400A284645
:10172000FFF74CF903F03EFA054650464FF480515E
:1017300003F02CFA97F82A10884204D1012089F886
:101740002000BDE8F087002089F82000C8E9165085
:10175000BDE8F0872DE9F04F81B02DED0A8B84B004
:101760008A46B1EE602A41F26F21C3F68321B5EEBD
:10177000401AB0EE408A00EE101AF1EE10FA8346DD
:1017800000FE010AB1EE481A8BED012A10EE100A94
:101790008BED001A13F04AF942F2FB134AF2A872D9
:1017A000C4F20903C5F23D4212F04AFE48F20003BA
:1017B000C4F2660300224FF0000912F0ADFB12F0F4
:1017C000BDFA0746CBF8080018EE100A8BF86CA09B
:1017D00013F02CF90646DBF82C000D4613F026F921
:1017E00004463846884613F021F941EC100B10F0FE
:1017F000B3FC51EC100B2246434612F021FE324658
:101800002B4613F029F812F099FACBF81C00DBE90B
:101810000104DBF82C7013F009F9804638460E46B7
:1018200013F004F9074620460D4613F0FFF841EC8B
:10183000100B11F0C5FB51EC100B3A462B4612F081
:10184000FFFD4246334612F0ABFA12F077FACBF8BE
:101850002000DBF80000DBF80840DBF82C7013F008
:10186000E5F8804638460E4613F0E0F80746204675
:101870000D4613F0DBF841EC100B10F06DFC51EC51
:10188000100B3A462B4612F0DBFD02460B46404653
:10189000314612F0E1FF12F051FACBF82400DBE9F7
:1018A0000104DBF82C7013F0C1F8804638460E4670
:1018B00013F0BCF8074620460D4613F0B7F841EC8C
:1018C000100B11F07DFB51EC100B3A462B4612F039
:1018D000B7FD02460B4640463146574612F0BCFF64
:1018E00012F02CFA9BED000ABAF1020FCBF8280097
:1018F00023D1B5EE400A42F2FB15C4F20905F1EE20
:1019000010FA40F0B680DBF80800DBF82C4020F03D
:101910000040CBE9104413F089F802464AF2A8705F
:101920000B46C5F23D40294612F096FF12F006FA2A
:1019300000EE104ACBF850004AE301EE109A002066
:10194000B4EE410A9BED010AF1EE10FA18BF012036
:10195000B4EE410AF1EE10FA18BF4FF0010950EA57
:10196000090027D1DBF80800DBF82C6013F05EF8E3
:1019700004460D4600204FF0004122462B4612F04F
:101980006BFF42F2FB134AF2A872C3F6F973C5F279
:101990003D42002F04BF2946204612F001FA12F002
:1019A000CDF9CBF85000CBF8406000EE106ACBF8D0
:1019B00044600DE310EE100A20F0004013F036F8FA
:1019C0000446DBF808000D4613F030F841EC100B2C
:1019D00010F0C2FB53EC102B2046294612F09CFA63
:1019E00012F0ACF90446CBF86400DBF800009BED84
:1019F000018A13F01BF8804620460E4613F016F8B5
:101A00000446DBF808000D4613F010F841EC100B0B
:101A100011F0D6FA51EC100B22462B4612F010FDB5
:101A200004460D4600204FF0004122462B4612F09E
:101A300013FFB5EE408A42463346F1EE10FAA4BFDA
:101A40002946204612F0ACF912F078F900EE100A9F
:101A5000CBF81400C7B1012F24D19BED01CA9BED37
:101A6000191AB5EE40CAF1EE10FA16DB31EE008A13
:101A700015E09BED028AB5EE408AF1EE10FA40F0D7
:101A8000AA809BED110AA3E29BED01CA9BED191AF6
:101A9000B5EE40CAF1EE10FAE8DB30EE418A8BED8C
:101AA000038A03E09BED01CA9BED038A9BED000ACC
:101AB0009BED08AA9BED07BA3AEE4C1A3BEE402A82
:101AC000B5EE40CA81EE021AF1EE10FA8BED0E8AE5
:101AD000039720EE012A21EE083A3CEE422A8BEDD4
:101AE0000C1A33EE029A8BED0D2A8BED0F9A14D15E
:101AF000DBF8080012F09AFF0246002F0F4600F0B4
:101B0000CD8042F2FB114AF2A870C3F6F971C5F21A
:101B10003D403B4612F0A0FECCE010EE100A12F061
:101B200085FF04461CEE100A0F4612F07FFF814627
:101B300018EE100A029112F079FF804619EE100A91
:101B40008A4612F073FF05460E4620463946424645
:101B5000534612F081FE02460B4612F071FC0F460E
:101B60000299044648462A46334612F075FE02465C
:101B70000B4612F065FC02460B462046394612F031
:101B80000FF941EC100B11F047FB51EC100B12F068
:101B9000D5F800EE100A9BED191ACBF8680081EE1B
:101BA000000A10EE101A084612F040FF41EC100B2C
:101BB00010F066F951EC100B0B46024612F0F0F8EB
:101BC00012F0BCF89BED07BA9BED08AA9BED0E8ABC
:101BD0009BED0F9A70E010EE100A20F0004012F01A
:101BE00025FF044618EE100A0D4620F0004012F0C2
:101BF0001DFF41EC100B11F0E3F953EC102B2046C4
:101C0000294612F089F912F099F808EE100ACBF87B
:101C10006400DBF8040012F009FF9BED029AB1EEBC
:101C2000480A8046B5EE409A0E46F1EE10FA28FEBC
:101C3000000A9BED008A10EE100A12F0F7FE04462F
:101C400019EE100A0D4612F0F1FE41EC100B10F0E7
:101C500083FA51EC100B22462B4612F0F1FBB5EE45
:101C6000408A0246F1EE10FA0B4680F2A48040460C
:101C7000314612F0F1FD12F061F89BED020A9BED86
:101C8000191AB5EE400AB1EE412AF1EE10FA00EE53
:101C9000100A21FE021A31EE008AA4E042F2FB1380
:101CA00010464AF2A872C3F6F9733946C5F23D42AE
:101CB00012F076F812F042F8CBF8500018EE100A45
:101CC00012F0B4FE044619EE100A0F4612F0AEFEF2
:101CD00002901BEE100A8A4612F0A8FE81461AEE08
:101CE000100A884612F0A2FE05460E4620463946E6
:101CF0004A46434612F0B0FD02460B4612F0A0FBE6
:101D0000044602980F4651462A46334612F0A4FD77
:101D100002460B4612F094FB02460B46204639461B
:101D200012F03EF841EC100B11F076FA51EC100B6A
:101D300012F004F8CBF84000DBE90E06DBE90945B8
:101D400012F074FE074630468A4612F06FFE02908B
:101D50002046894612F06AFE04462846884612F05C
:101D600065FE05460E46384651462246434612F069
:101D700073FD02460B4612F063FB044602980F46C1
:101D800049462A46334612F067FD02460B4612F0DA
:101D900057FB02460B462046394612F001F841EC4B
:101DA000100B11F039FA51EC100B11F0C7FF00EED7
:101DB000100A039F0AE1104619464246334611F0C5
:101DC000EFFF11F0BBFF9BED020A9BED191AB5EE78
:101DD000400AB1EE412AF1EE10FA00EE100A21FE9F
:101DE000021A30EE418A9BED001A9BED019A9BEDA1
:101DF000082A9BED073A32EE492A33EE413A11EEBA
:101E0000100A82EE032A8BED060A8BED048A8BED15
:101E10000F8A21EE023A8BED0C2A39EE433A38EE66
:101E2000434A8BED0D3A84EE02AA8BED0EAA12F016
:101E3000FDFD044619EE100A0D4612F0F7FD029062
:101E40001AEE100A019112F0F1FD804618EE100A08
:101E500003978A4612F0EAFD81460E46204629463F
:101E60004246534612F0F8FC02460B4612F0E8FADE
:101E700007460C46DDE901104A46334612F0ECFCF9
:101E800002460B4612F0DCFA3A46234611F088FF70
:101E900041EC100B11F0C0F951EC100B11F04EFF9A
:101EA00000EE100A9BED191ACBF8680081EE000ACB
:101EB00010EE101A084612F0B9FD41EC100B0FF0AD
:101EC000DFFF51EC100B0B46024611F069FF11F0D9
:101ED00035FFCBF85000DBE90E06DBE9074512F0D1
:101EE000A5FD07463046884612F0A0FD81462046F3
:101EF000029112F09BFD044628468A4612F096FD98
:101F000005460E46384641462246534612F0A4FC8A
:101F100002460B4612F094FA0F46029904464846D0
:101F20002A46334612F098FC02460B4612F088FA15
:101F300002460B462046394611F032FF41EC100BA9
:101F400011F06AF951EC100B11F0F8FECBF84000DB
:101F5000DBE90E06DBE9094512F068FD074630466D
:101F6000884612F063FDCDE90110204612F05EFDB7
:101F7000044628468A4612F059FD81460E463846E8
:101F80004146039F2246534612F066FC02460B462A
:101F900012F056FA04460D46DDE901104A46334672
:101FA00012F05AFC02460B4612F04AFA02460B4661
:101FB0002046294611F0F4FE41EC100B11F02CF9EB
:101FC00051EC100B11F0BAFE00EE100ACBF84400F1
:101FD0009BED101A9BED142A21EE021A22EE000A44
:101FE0008BED121A8BED130A9FB19BED0B0A012F9B
:101FF000B1EE401A19BF8BED171A8BED150A8BED58
:10200000180A8BED161A04B0BDEC0A8B01B0BDE8BE
:10201000F08F9BED0B0AB1EE401A8BED160A8BED9B
:10202000181A04B0BDEC0A8B01B0BDE8F08F0000B7
:102030002DE9F04F81B02DED048B40F22010C2F25B
:1020400000000078012840F0288140F60410C2F218
:10205000000040F264410068C2F20001CA6E416AA9
:102060004FF47A7302FB031740F25861C2F2000189
:10207000D1E9186540F20008C2F20008D8F85040D3
:10208000BE1B4FF0000767EB0505361B75EBE476CA
:10209000C0F0038102FB03F2406A40F2E8391044C9
:1020A000C2F20009C1E91807D9E904010028024673
:1020B00048BF4242002948BF49428A42C8BFC9F8C6
:1020C000140040F2F020D9E90664C2F2000000EEEC
:1020D000106A01EE104AB8EEC00AB8EEC11A90EDCF
:1020E000122A90ED133A80EE010A83EE021A301B99
:1020F00089ED080A00EE100A89ED091AB8EEC00A47
:1021000010EE100A12F092FC98ED1C0B02465AECED
:10211000105B98ED1A8B0B462846514612F090F949
:1021200011F00CFE12F082FC02460B4651EC180B2B
:1021300012F086F911F002FE07462846514611F0CA
:10214000FDFD002C48BF644200EE100A002E48BF7F
:102150007642A019400801EE100A08EE107AB8EE97
:10216000C11A21EE000A10EE100A12F05FFC0646BA
:1021700027F000400C4612F059FC48F2000AC4F265
:10218000660A02460B460020514612F065FB4AF2F1
:10219000A87242F2FB13C5F23D42C4F2090307469E
:1021A0000D4612F04DF940F2000BC3F6E07B002221
:1021B0005B4612F045F90022534611F0ADFE11F0D6
:1021C000BDFD12F033FC41EC100B10F0F9FE51ECA8
:1021D000100B3246234612F033F911F0AFFDD9E966
:1021E000061298ED1C9B0646114400EE101AB8EE3C
:1021F000C00A10EE100A12F019FC02460B4651EC10
:10220000190B12F01DF900225B4612F019F9044671
:1022100088463846294600225B4612F011F94AF2F8
:10222000A87242F2FB13C5F23D42C4F2090312F058
:1022300007F90022534611F06FFE41EC100B0FF02E
:102240008BFF51EC100B2246434612F0F9F811F0C7
:1022500075FD0021C4F2B43100EE101AB5EE408ACB
:10226000002138EE001ACCF2B431F1EE10FAB8BF0A
:10227000B0EE418AC9F8280001EE101AB4EE408A87
:1022800038EE010AF1EE10FA40F2F02130FE080AB1
:10229000C2F200014E6581ED140ABDEC048B01B061
:1022A000BDE8F08F70B52DED088B044610EE900A56
:1022B000B0EE408A12F0BAFB40F6805349F23B720E
:1022C000C4F20903C7F20A3212F0BAF848F2000366
:1022D000C4F26603002211F01FFE11F02FFDB0EED4
:1022E000C80AB2EE0E1AB4EE410A84ED000AF1EE0D
:1022F00010FA55DB94ED070A94ED021A30EE000A4D
:1023000020F0004080EE01AA09EE100A94ED0F0AB9
:1023100094ED0CBA39EE000A10EE100A84ED0BAA07
:1023200012F084FB4CF6CC434CF6CD42C3F6EC7372
:10233000CCF6CC4212F084F805461AEE100A0E468E
:1023400012F074FB02460B462846314611F0E4FDBC
:1023500011F0F4FCB0EE490A8BEE0AAA20640FF0EB
:102360005FFF94ED0F1AB0EE409AB0EE410A0FF005
:1023700057FF39EE400AB5EE408A2AEE000AF1EE28
:1023800010FA84ED130A10DD94ED050A94ED0C1A91
:1023900031EE002A31EE400A84ED0E2A84ED0D0A5A
:1023A00094ED100ABDEC088B70BDB5EE408AF1EEDD
:1023B00010FAF5DA94ED050A94ED0C1A31EE402A84
:1023C00031EE000A84ED0E2A84ED0D0A94ED100A18
:1023D000BDEC088B70BD000070B52DED0A8B044676
:1023E00010EE900AB0EE408A12F020FB40F68053C7
:1023F00049F23B72C4F20903C7F20A3212F020F824
:1024000048F20003C4F26603002211F085FD11F0CA
:1024100095FCB0EEC8BAB2EE0E0AB4EE40BA84ED46
:1024200000BAF1EE10FA08DA94ED110AB5EE400A9E
:10243000F1EE10FA00F3B780B1E094ED070A94EDE5
:10244000021A30EE000A20F0004080EE010A09EE88
:10245000100A94ED0CAAF0EE490A204684ED0B0A0E
:10246000B0EE480AFFF71EFF94ED0F1A2AEE000A9D
:1024700039EE011A80EE01CAB0EE490A0FF0D0FE23
:1024800094ED0F1AB0EE40AAB0EE410A0FF0C8FE6C
:1024900094ED071A94ED022A31EE011A94ED0F9A89
:1024A00081EE021A3AEE400A84ED00BA2CEE00AA40
:1024B00094ED0CCA89EE012A84ED0B1A12EE100A73
:1024C00012F0B4FA4CF6CD454CF6CC43CCF6CC45E4
:1024D000C3F6F0732A4611F0B3FF11F02FFCB5EEEE
:1024E000408A00EE100AF1EE10FAA06406DD94EDC9
:1024F000051A3CEE012A3CEE411A0AE0B5EE408A8C
:10250000F1EE10FA09DA94ED051A3CEE412A3CEEA0
:10251000011A84ED0E2A84ED0D1A2CEE000A80EECD
:10252000098AB0EE490A0FF07BFEBFEE001A30EECA
:10253000010A28EE000A30EE4A0A3BEE000A10EECD
:10254000100A12F073FA4CF6CC43C3F6EC732A4629
:1025500011F076FF0546206B0E4612F067FA024630
:102560000B462846314611F0D7FC94ED0F0A05467C
:102570000E4610F089FD10EE100A12F057FA0246CE
:102580000B462846314611F0C7FC11F0D7FB00EE90
:10259000100A6064B5EE400AF1EE10FA03DC002088
:1025A00000EE100A6064BDEC0A8B70BD10B52DED15
:1025B000028BB0EE408AB0EEC00AB2EE0E1AB4EE54
:1025C000410A044680ED000AF1EE10FA04DA94EDB7
:1025D000120ABDEC028B10BD94ED070A94ED021AAD
:1025E00030EE000A80EE010A94ED0F1A81EE001A17
:1025F00084ED0B0A11EE100A12F018FA4CF6CC43D7
:102600004CF6CD42C3F6F073CCF6CC4211F018FF75
:1026100011F094FBB5EE408A00EE100AF1EE10FACC
:10262000A0640EDD94ED051A94ED0C2A32EE013A09
:1026300032EE411A84ED0E3A84ED0D1ABDEC028B98
:1026400010BDB5EE408AF1EE10FA0BDA94ED051AE2
:1026500094ED0C2A32EE413A32EE011A84ED0E3A34
:1026600084ED0D1ABDEC028B10BD0000F0B581B0F9
:1026700040F26C33C2F20003002793ED100AC4F25B
:10268000342701EE107AB0EEC00AB4EE410AF1EE42
:1026900010FA0EDA0546002093ED140AC4F2482021
:1026A00001EE100AB0EEC02AB4EE412AF1EE10FAA3
:1026B00007DD40F22010C2F200000521017301B0D5
:1026C000F0BDBBEE0E1A40F2E046B4EE410A40F215
:1026D000F020F1EE10FAC2F20006D8BF86ED060A2D
:1026E000C2F20000B0F91A0086ED180A0C4600FB91
:1026F00002F001EE100AB8EEC11A30EE010A10EE37
:10270000100A86ED160A12F091F940F20007C2F2A3
:10271000000797ED1C0B53EC102B11F0FDFB11F093
:102720008FFD716B01EE104A01FB05F1F06100EEC7
:10273000101AB8EEC00AF8EE410A0BF04FFC02F096
:1027400031FAD7E91212706601EB810002EB8201C7
:1027500040004900C6E9120140F60410C2F2000030
:1027600040F264410068C2F20001C96E406A4FF451
:102770007A7201FB020040F2A011C2F200010022B5
:10278000C1E9060240F22010C2F20000012180F8E7
:10279000501080F8581080F8531001B0F0BD0000C0
:1027A0002DE9F04F89B040F2F025C2F20005E88E25
:1027B0000138072800F2FB800FF2080101EB8001CD
:1027C0008F4600BF00F00EB800F045B800F04AB8E0
:1027D00000F050B800F055B800F05AB800F06BB8EF
:1027E00000F0C7B840F22016C2F2000696F84C007E
:1027F000012818D102F0D6F940F2644140F60004F5
:10280000C2F20001C4F20224886720460821002297
:10281000002702F0C1F904F580600421002202F0D3
:10282000BBF986F84C70B07D01280CD10020B07542
:1028300040F20000C2F2000041F2883181650120BF
:10284000B07186F86F0000210120E98609B0BDE86B
:10285000F04F0BF0DBBA0020E88609B0BDE8F04F7E
:102860000BF066BC00210320E98609B0BDE8F04FFB
:102870000BF0CCBA0020E88609B0BDE8F04F0BF0B1
:10288000CFBD0020E88609B0BDE8F04F0BF00CBDCD
:102890000F20FEF7C3FA40F22010C2F2000090F8B9
:1028A0006E10012940F083800021E98680F86E10C7
:1028B00009B0BDE8F08F40F22016C2F2000696F88B
:1028C0002E00012873D102F06DF940F2644440F209
:1028D000D857C2F20004C2F20007A06740F2000914
:1028E000386D44F6987BC2F20009C0F6010B002156
:1028F000D9F848205BF8203006910291009101211F
:102900009A4201914FF0030205914FF002010392A8
:102910000491CDE9072113D144F6BC7AC0F6010A2F
:10292000D9F84C105AF82020914209D16988002921
:1029300002BF96F8461096F84B2051EA020139D0B2
:10294000092834D1288E022829D1307999F80B1022
:10295000884224D10020E886386540F60000C4F2A1
:1029600002204FF48071012202F016F909B0BDE88F
:10297000F08FFEF7A3FC40F22010C2F2000090F8A6
:102980005B10012913D1002180F85B1040F26C30FC
:10299000C2F20000E986816009B0BDE8F08F002432
:1029A0006420EC8601F048F807203C65E88609B011
:1029B000BDE8F08F96F84000002804BF40F20110F7
:1029C000A6F83D00642001F037F8396D481C07294E
:1029D0003865B5DC012186F84B10694696F84C2025
:1029E00051F8200040F60008012AC4F20228288786
:1029F00010D102F0D7F8A067404608210022002439
:102A000002F0CAF808F580600421002202F0C4F840
:102A100086F84C4040464FF48071002202F0BCF82A
:102A2000386D5BF820105AF82000C5E91B1007F03C
:102A300033FB386D0121A965696681E770470000A5
:102A40002DE9F04F81B02DED108B40F2E83AC2F243
:102A5000000ADAF84400012840F0B98140F6A844A1
:102A6000C2F200042046FDF7C7FE002848BF4042DE
:102A700011F043FC804620468946FEF709F80028FD
:102A800048BF404211F039FC40F2000BC2F2000B8B
:102A90000546DBF85C000E4611F02FFC9BED1C0B8D
:102AA00054EC107B23463A4611F036FA02460B46A8
:102AB0002846314611F0D0FE42464B4611F0EFFF5A
:102AC000002840F05E8140F22018C2F2000898F819
:102AD0003400012840F0558140F26C30C2F2000011
:102AE000C068002840F04D8140F2F029C2F2000990
:102AF000D9F8480011F09AFF02460B4638462146A5
:102B000011F09EFC41EC100B4FF08040002140EC96
:102B1000181BB0EE481AF0EE681A0FF029FC51ECC1
:102B2000100B11F00BF909EE100ABBF82A0011F096
:102B3000FBFBB0EE481A41EC100BF0EE681A0FF0F8
:102B400017FC51EC100B11F0F9F800EE100A9BED98
:102B5000172A39EE400AB6EE001A40F2644120EE20
:102B6000010AB8EEC21AC2F2000180EE010A9AED23
:102B70001E8A91ED00AABBF82A00B0EECA1A02EE36
:102B8000100AB0EEC0BAB0EEC80AB4EE410A8AED3F
:102B90001DBAB8EE429AF1EE10FA0ADA2AEE090AE4
:102BA00081ED019A80EE081AB0EE490AB0EE419A22
:102BB00005E028EE090A80EE0A0A81ED010A10EE0E
:102BC000100A81ED029A11F031FF9BED1C0B54ECC1
:102BD000105B23462A4611F09FF911F0AFF8064624
:102BE0000DEE100A1BEE100A11F020FF2A462346B4
:102BF00011F092F911F0A2F80021B7EE00EA0CEE04
:102C0000101A0021B4EE4CDAF1EE10FAB8BF01212F
:102C100099ED120A99ED13FA3DEE400ABFEE00DA83
:102C200088F83210B5EE400ACAF848608AED140AF6
:102C3000F1EE10FACAF84C007EFE0D8ACAED158A34
:102C400011F0F4FE4AF6FC1246F24D23CDF2F122C9
:102C5000C3F6507311F0F4FB064618EE900A0F46C7
:102C600011F0E4FE02460B463046394611F0E8FB0F
:102C700011F064F8CAF858000120CAF8440040F680
:102C80000410C2F20000C146D0F8008040F2644057
:102C9000C2F20000C76ED8F824004FF47A7107FB27
:102CA000010040F25861C2F2000100222AEE0B0A34
:102CB000C1E91A0219EE100A80EE088A11F0B6FE78
:102CC0002A46234611F028F911F038F8064609EE95
:102CD000100A18EE100A11F0A9FE2A46234611F038
:102CE0001BF911F02BF8B4EE4C9A39EE4F0AF1EEC5
:102CF00010FA4FF00001B5EE400AB8BF012189F883
:102D00003310F1EE10FACAF860603EFE0D8ACAF880
:102D100064008AED1A0A8AED1B8A11F087FE4AF6D2
:102D2000FC1246F24D23CDF2F122C3F6507311F09E
:102D300087FB044618EE100A0D4611F077FE024696
:102D40000B462046294611F07BFB10F0F7FF0122CD
:102D5000CAF87000CAF85C20D8F824004FF47A71E1
:102D600007FB010040F258630021C2F20003C3E9EF
:102D70001C0141F28830CBF8580089F8062089F808
:102D8000341040F6A844C2F200042046FDF734FD9A
:102D900005462046FDF77CFE854218D140F660547A
:102DA000C2F200042046FDF727FD05462046FDF748
:102DB0006FFE85420BD10020CAF84400CAF85C00BF
:102DC00040F22010C2F20000012180F83510BDEC65
:102DD000108B01B0BDE8F08F012000F0A7BF00000C
:102DE00072B600BFFEE7000070B542F2200604464E
:102DF000C4F2020601F0D6FE316811F00B0F20D0AC
:102E0000BCB30546601C11D1306810F00B0F18D010
:102E1000306810F00B0F14D0306810F00B0F10D08A
:102E2000306810F00B0FEFD10BE000BF01F0BAFEDD
:102E3000401BA04284BF032070BD306810F00B0F10
:102E4000F4D1306810F41E0009D040F2A001C2F2A3
:102E500000014A6802434A603061012070BD306859
:102E6000C0035CBF002070BD4FF480303061002093
:102E700070BD01F097FE032070BD000040F20C70A1
:102E8000C2F2000000F0F6BB40F28470C2F2000013
:102E900000F0F0BB40F2FC70C2F2000000F0EABBB0
:102EA00000284FF0010218BF002901D110467047D9
:102EB000B0B5D0E904C2C369D0F818E01A43C36BB7
:102EC0001A4342EA0C0242EA0E020A6003789B06A9
:102ED00016D5D0E909C3D0F82CE04FF07C75846B8F
:102EE00005EB03534FF47C7505EB0C1542EA0E021B
:102EF00003F07C73224305F47C751A432A430A606D
:102F00004268036B40F2FF252A401A434A60C368B7
:102F1000B3F5007F08D0B3F5806F08D103789B0626
:102F200005D542F4806201E042F400724A60436BCE
:102F30001A434A60436C43B1856C046C1A4305F034
:102F40003F05224342EA05424A60B0F8682040F259
:102F5000000C8A600378C0F2FF7C9B0722D5C36C0B
:102F60000CEB034303EA0C031A438A60036D002B46
:102F700048BF02F180528A60436D002B48BF02F1C6
:102F800000528A60836D22F08045002B48BF42F0DA
:102F900080458D60C26D25F00043002A48BF45F092
:102FA00000438B60026ECA60426E0A61027892072B
:102FB00020D5026D0023002A48BF52426FF35F32D2
:102FC0004A61456D2C04002D48BFA3EB05440CF16C
:102FD000C05525402A444A61826D002A48BF5242AA
:102FE00092B28A61C56D2C04002D48BFA3EB054445
:102FF00022448A61006882074FF4E06258BF4FF4B0
:10300000A062104300220862BDE8B040104670473D
:10301000B0B5044601F0C6FD002C04BF0120B0BDD0
:1030200000210546206884F84C10022184F85410D1
:10303000416941F0060141614169C90709D000BFFA
:1030400001F0B0FD401B052850D820684169C90730
:10305000F6D14FF6B072CBF6FD7202446FF01F034B
:10306000A16B03EBF213E56B082B41EA050103D3D7
:103070004FEAF212072A01D8226C1143426922F466
:1030800043021143416100210164626C426441F2D8
:103090004F32C4F2020290428164C16401650CDCCB
:1030A00040F25031C4F20201884212D040F2D031D5
:1030B000C4F2020188420CD00EE041F2D031C4F2D9
:1030C0000201884205D041F25031C4F20201884227
:1030D00002D10021416581650021C167A06C0122F8
:1030E00020650020A16584F85420B0BD0120032292
:1030F0001021A16584F85420B0BD00002DE9F043F3
:1031000000284FF0010318BF002A02D11846BDE87D
:10311000F0834369012B04D1042101610120BDE842
:10312000F083056842EA01030F462B43002908BFDC
:103130001746002D18BF2F467B40B3F5803F08D2BD
:1031400065B195F8203061B191F82070BB42E3D1B0
:1031500007E0052101610120BDE8F08331B191F85C
:10316000203092F82070BB42D6D100E0176A0223CB
:103170000373002340F2000C03617B08CFF6010CBF
:1031800063F3596C63F39A6C07F00203002D03F1AB
:10319000050E47D0002950D0D0F808904FF6FC73A8
:1031A00011EA03044FF0000755D0B9F1000F4FF0BA
:1031B000000351D04FF6FF739D4300274FF6FC7874
:1031C000002345EA07060746002B18BF06EB8E07CB
:1031D0003F685E1C4E4507EA080737D2A74235D044
:1031E00045EA070656F82E709E1C4E4507EA08076A
:1031F0002CD2A7422AD045EA070656F82E70DE1CCC
:103200004E4507EA080721D2A7421FD045EA070624
:1032100056F82E6004334B4506EA08071CD2A74235
:10322000CFD119E0A1B14FF6FC731A4042EA0C026B
:10323000016041F82E2002212DE04FF6FC7129405B
:1032400041EA0C0142F82E10026022E0334603E00E
:10325000026001211FE00023A74209D14B450DD197
:1032600043687BB14FF6FC74234043EA0C0307E04C
:103270000621012301611846BDE8F08351F82E3084
:1032800042F82E304FF6FC731A4042EA0C0241F825
:103290002E208168013181600023012103610173C7
:1032A0001846BDE8F083000000284FF0010218BF67
:1032B000002901D11046704790F8543090F85420FE
:1032C000052B18BF022A06D140218165002180F814
:1032D0004C10012070470A7B022A03D101221046BC
:1032E0000A617047026841F24F33C4F202039A4206
:1032F00008DC40F25033C4F202039A420ED040F28E
:10330000D03307E041F25033C4F202039A4205D0B1
:1033100041F2D033C4F202039A420ED1036D4A68DF
:10332000812B04D12AB10022416710467047002A40
:10333000F9D004200861012070470A6892F8202023
:103340009207EBD503200861012070472DE9F04377
:10335000002804BF0120BDE8F083D0F800E0BEF1F2
:10336000000F07D0416851B1714504BF0020BDE88E
:10337000F08307E0022101610120BDE8F08341698B
:10338000012904D1042101610120BDE8F08302215B
:10339000017300210161DEF8202040F2000C530887
:1033A000CFF6010C846863F3596C02F0020263F3F8
:1033B0009A6C02F105035CB14FF6FF72651E2EEAAE
:1033C0000202032D04F0030804D20025002623E0A6
:1033D000002542E0A4EB080900254FF6FC74002606
:1033E00015430746002E18BF05EB83073D680436DA
:1033F0002540154355F82350B14505EA040545EA33
:10340000020555F8235005EA040545EA020555F87A
:10341000235005EA0405E3D1B8F1000F1DD042EABC
:1034200005040546002E18BF04EB83052D684FF6F2
:10343000FC74B8F1010F05EA04050ED0154355F8E8
:103440002350B8F1020F05EA040506D02A4352F8CA
:1034500023204FF6FC7402EA04054FF6FF724FF684
:10346000FC742EEA020204EA0E042A4344EA0C0722
:1034700042F823700122C0F804E00161027308469B
:10348000BDE8F08380B5002856D0436F002B53D0A1
:1034900090F85410D0F800E00129DEF814C004D0F0
:1034A00002294BD11CF4803148D090F854100129E6
:1034B0003AD190F84C1001294FF0020144D001227A
:1034C00080F84C2080F8541019730021816519612F
:1034D000DEF8141041F4BA41CEF81410416E29B14F
:1034E000DEF8141041F40071CEF81410006F28B10A
:1034F000DEF8140040F40050CEF8140018680022E2
:10350000016ACFF60102490861F3596261F39A62D8
:103510004FF6FF7120EA0101CEF800104FF6FC7162
:1035200008401044CEF87C00DEF8140040F00100A2
:10353000CEF81400002080BD012080BD40218165AF
:10354000002180F84C100121084680BDB0B504462A
:1035500001F028FB002C04BF0120B0BD054694F803
:10356000540002282DD12168486940F004004861C8
:10357000052084F854000869800408D401F012FB87
:10358000401B052824D8216808698004F6D54869BD
:10359000012240F002004861042084F854004FF4F6
:1035A000FE40C86084F8542094F8500000064FF0A4
:1035B000000002D5636F1A738864002184F84C10F0
:1035C000B0BD2020A0650120002184F84C10B0BDC2
:1035D000A06D40F01000A065032084F8540094F81A
:1035E000500000064FF0010044BF616F08730021D6
:1035F00084F84C10B0BD0000002804BF01207047C3
:1036000090F8541002290AD1042180F8541000685F
:1036100042F20402416911434161002070472021B8
:103620008165012070470000024600284FF001002C
:1036300008BF7047126802F57B63C3F3C41CCB0656
:103640005CBF0020704740F6FF7301F011019A4300
:10365000112900FA0CF004D1516808435060002091
:103660007047516821EA0000506000207047000058
:10367000806D704710B5044600680C22034600F5C3
:103680007B6162F30B03C1F3C4111A6822FA01F1E2
:10369000C90700F0A3800169490544BF41695FEA99
:1036A00041514BD40169090544BF41695FEA0151A9
:1036B0004CD40169C90444BF41695FEAC1414DD49A
:1036C0000169490444BF41695FEA41414ED401693F
:1036D000890544BF41695FEA81514FD4016989047A
:1036E00044BF41695FEA814152D40169C90544BFC1
:1036F00041695FEAC15172D4A06D002808BF10BDB6
:103700002068416941F0020141614069C0074FF002
:10371000030008BF012084F8540094F8500000060C
:1037200002D5606F01210173A16E0020002984F889
:103730004C0053D02046BDE8104008474FF480614C
:10374000C160A16D41F00101A165ABE74FF40061DB
:10375000C160A16D41F00201A165AAE74FF480515B
:10376000C160A16D41F00401A165A9E74FF480415A
:10377000C160A16D41F00801A165A8E74FF4007197
:10378000C160616E0029A9D0204688472068A5E75E
:103790004FF40051C16094F8541004292AD14169B2
:1037A00021F400514161416941F0020141614169E7
:1037B000C9074FF0030108BF012184F8541094F8A1
:1037C0005010090604D5616F01220A73002181643B
:1037D000E16E0020002984F84C00ABD110BD94F8B4
:1037E0005010090611D4816C002904BF012184F80E
:1037F000541013E0052184F85410216F00293FF480
:1038000074AF2046884720686FE7C16F31B9816C7B
:1038100021B9012184F85410626F11734FF4407183
:10382000C160216E0020002984F84C001CBF204696
:10383000884761E7B0B5044601F0B4F9002C04BF35
:103840000120B0BD00210546206884F84C100221FB
:1038500084F85410416941F0060141614169C9078A
:1038600009D000BF01F09EF9401B05284FD8206801
:103870004169C907F6D1216A426904F1100C22F4AA
:10388000430211434161E3699CE806101A43114366
:103890004FF6B072CBF6FD7283186FF01F0202EB89
:1038A000F31541EA0C02082D4FEAF31C28BFBCF1C6
:1038B000070F14D804F1240E9EE828404FF07C71C5
:1038C00001EB05514FF47C7505EB031301F07C719E
:1038D00042EA0E0203F47C73114341EA03020264DC
:1038E000A1682279E3681143226BB3F5007F42EAB5
:1038F000010213D0B3F5806F12D1ACF12001082979
:1039000028BFBCF1070F98BF42F4806208E0012095
:1039100003211022A26584F85410B0BD42F4007255
:10392000616B436C42F20015C3F6C0450A432B405D
:103930001A4341F24F33C4F2020342640022984218
:1039400082640CDC40F25032C4F20202904212D087
:1039500040F2D032C4F2020290420CD00EE041F2AA
:10396000D032C4F20202904205D041F25032C4F289
:103970000202904202D10022426582650022C267A3
:10398000216501210020A26584F85410B0BD00001B
:1039900010B500284DD090F84CC0BCF1010F04BF09
:1039A000022010BD4FF0010C80F84CC090F854C0BC
:1039B000BCF1010F38D14FF0020C80F854C04FF029
:1039C000000CC0F858C0D0F800C0D0F864E0DCF8B3
:1039D0004840BEF1000FC3EA0403CCF848304FF46E
:1039E000FE43CCF80C30CCF84C10CCF85020DCF86E
:1039F000141041F4BA41CCF8141005D0DCF81410BE
:103A000041F40071CCF81410006F28B1DCF81400F8
:103A100040F40050CCF81400DCF8140040F0010031
:103A2000CCF81400002010BD40218165002180F8F1
:103A30004C10012010BD0000B0B5044601F0B2F8F2
:103A4000054640F27800C2F200000078611C18BF01
:103A5000044400BF01F0A6F8401BA042FAD3B0BD59
:103A60002DE9F04F81B040F2A00BC2F2000B9BF8A1
:103A70000020012A02BF022001B0BDE8F08F0446F9
:103A800001208BF8000000264FF47A708946CBF8AD
:103A90000460FFF7A9F920B18BF8006001B0BDE820
:103AA000F08F206848F2080220F0004142F2280717
:103AB0009142C4F20207CBF8080007D1606800F019
:103AC0000301032936D148F2200042E04FF0FF30D5
:103AD000C9F80000D4E902502844854241D24FF68B
:103AE000D77A4EF23F08C7F6FF7AAE01C7F6FF78E5
:103AF0006068414610F00100386808BF6FF4FE515D
:103B00004FF0240200EA01003860386808BF0AF16B
:103B10004D023043104338604FF47A70FFF764F978
:103B200008BBD4E902010135403608448542DFD3A1
:103B300000201AE0C1074FF6D771C7F6FF7104D015
:103B40003A680A4042F028023A60800704D501F141
:103B500051003968084338604FF47A70FFF744F930
:103B600004E0002002E0C9F80050002621684FF070
:103B700000423B6862EA0101194039608BF800603D
:103B800001B0BDE8F08F000040F2A000C2F20000DA
:103B90004068704742F22800C4F20200016841F018
:103BA000010101600068012121EA00007047000066
:103BB0002DE9F04381B040F2A009C2F20009154698
:103BC00099F80020012A02BF022001B0BDE8F0836D
:103BD0008046012089F80000002042F220040E46B1
:103BE000C4F20204C9F8040000F0DCFF216811F0FF
:103BF0000B0F0BD0074600BF00F0D4FFC01BB0F581
:103C00007A7F14D8206810F00B0FF5D1206810F4DB
:103C10001E0013D0D9F804100143C9F80410206124
:103C20000120002189F8001001B0BDE8F0830320D5
:103C3000002189F8001001B0BDE8F0832068C003BE
:103C400044BF4FF48030206128F000400228C9F8BA
:103C5000088017D1A06840F00200A060EFF3108048
:103C600072B62968316069687160A968B160E968F5
:103C7000F16080F3108800F095FF216811F00B0FC0
:103C80000CD117E0A06840F00200A06028883080C6
:103C900000F088FF216811F00B0F0BD0054600BF24
:103CA00000F080FF401BB0F57A7F0FD8206810F03D
:103CB0000B0FF5D1206810F41E0009D0D9F80410BC
:103CC0000143C9F804102061012008E0032006E048
:103CD0002068C00344BF4FF48030206100204FF0C3
:103CE0002041A26861EA08011140A160002189F821
:103CF000001001B0BDE8F08342F20400C4F20200FB
:103D0000416AC90704BF0020704740F22311C4F282
:103D10006751016048F6AB11CCF6EF510160406A83
:103D200000F001007047000070470000B0B542F29B
:103D30000C05C4F2024529680446014203D020461E
:103D40002C6000F00BF86868204208BFB0BD204628
:103D50006C60BDE8B040FFF7E7BF00002DE9F04F11
:103D600081B040F28821C2F20001898A40F2644A9F
:103D7000814240F6041140F2182B40F25869C2F219
:103D8000000AC2F20001C2F2000BC2F2000963D1C4
:103D90000868DAF86C10406A4FF47A7201FB02008E
:103DA00040F2A011C2F20001D1E91A23801A4FF0AB
:103DB00000029A41C1E91C0200F0F4FE40F2D8581A
:103DC000C2F20008C8F8780040F288200BF1140114
:103DD000C2F200000C2205F0AFFAD9F800109BF8EF
:103DE000155008449BF814109BF816409BF817C018
:103DF000294421449BF8183061449BF81960CA1883
:103E00009BF81AE032449BF81B70C9F8000072441A
:103E10009BF81C003A4410449BF81D209BF81E1090
:103E2000104408449BF81F10C2B2914240F604119E
:103E300040F22012C2F20001C2F2000282F87A00BF
:103E40000AD140F2F020C2F200000288D0B28542CE
:103E500008BFB4EB122F12D0D9F808004FF47A72D1
:103E60000130C9F808000868DAF86C10406A01FBF4
:103E700002000021CBE9000101B0BDE8F08F40F263
:103E8000201040F20004C2F20000C2F200040579E2
:103E9000A07A854252D1607A8445DDD1A04640F2B5
:103EA0002014C2F2000446EA032094F8443040F2A1
:103EB000F02547EA0E21160AC2F200056885A98599
:103EC000B3B9A1F5487080B2C82811D80120A4F870
:103ED000430040F60000C4F202204FF4807101223A
:103EE00000F05AFE2A8898F809C094F84430160A5F
:103EF0000120594601F8080F90194A7060444FF0AC
:103F0000FF321844C1F80520A1F80920D9F804208F
:103F10000538C872501CC9F8040040F288200B71A3
:103F2000C2F200000C220F238E7081F803C005F04E
:103F30006BFB40F60411C2F200018DE7607B854205
:103F40008AD140F22010C2F2000090F82E00012821
:103F500006D0207A844503D0A07984457FF47CAFD5
:103F600000F020FECAF8740000F01CFE40F220159C
:103F7000C2F2000595F84C1040F26C32C2F2000219
:103F8000012910671CD19BF81700A179884217D02E
:103F900000F008FE40F60007C4F20227CAF87800D5
:103FA0003846082100222646002400F0F5FD07F5DA
:103FB00080600421002200F0EFFD85F84C4034467B
:103FC0009BF81700A179884203D000F0EBFDCAF8F6
:103FD0007800287B40B3FF22594601F8082F40F2B1
:103FE000F022C2F200021288C8704A70130A02EB73
:103FF00012228B7010444FF0FF324A60C1F8072044
:10400000D9F804200838C872501CC9F8040040F2DE
:104010008820C2F200000C220F2305F0F5FA40F6CA
:104020000411C2F2000117E79BF8170021788842BB
:104030004BD195F8411040F2F0280029C2F2000857
:1040400040F08580B8F80210002940F0808095F893
:104050007B1001297BD1D4E912679BF818209BF8CB
:104060001A109BF819309642A8F8381085F87C2071
:1040700085F87D3071D19F4272D10122594601F8F5
:10408000082FB8F80020C8704A70130A02EB1222F9
:104090008B70104430443844D9F8042005384FF070
:1040A000FF33C872501CC1F80630FE23C9F8040063
:1040B00040F288208B72C2F200000C220F230E7196
:1040C0004F7105F0A1FA0920B7E1617888422DD13E
:1040D00040F2F021C2F20001C96D002940F0AF802A
:1040E00095F87B10012940F0AA80A97D012940F0B4
:1040F000A18040F2F02801225946C2F2000801F8DE
:10410000082FB8F80030C8704B701F0A03EB132358
:104110008F70D8F8687018444A7138444FF0FF32F5
:104120000F710338C1F806208A7258E2A1788842DC
:1041300027D195F83D1095F83F2095F8413011436F
:1041400040F2F0281943C2F2000800F02C82D9F89E
:1041500004000BF10801013045E29F4240F0468126
:10416000A97D012940F072810021A975012785F8F8
:104170002910E9704FF47A7185F86F7085F85D70D9
:1041800066E1E17840F2F0288842C2F2000840F08F
:10419000AA81B8F80210002900F01E8302225946B5
:1041A00001F8082FB8F8002040F2E04695F84F30AB
:1041B000C2F200064FEA122C06F148054A7081F857
:1041C00002C0C870012B08BF06F150052D685CFACB
:1041D00082F2EC1705EB14640D7127124F7106F192
:1041E0004C07012B08BF06F154073B6810442844D4
:1041F000DF1700EB242003EB1767184400EB2720A0
:10420000D9F804200230C872501C3E12C9F80400CC
:1042100040F288208B71CE71002640F22015C2F248
:1042200000000C220F23C2F200050E818E7205F0F1
:10423000EBF99FE395F84110002900F0FD82D9F8D1
:1042400004000BF108010130C9F8040040F2882095
:10425000C2F200000C220F2305F0D6F940F2F0283C
:10426000C2F200089BF817006179884200F0CB8108
:10427000A17988424AD195F87E10002940F60411B0
:10428000C2F200017FF4E8AD40F2F0250122594668
:10429000C2F2000501F8082F2B8840F22014C2F268
:1042A000000484F87E204B701A0A03EB13238A70F3
:1042B00094F82220C870EE8A1844104430442D8BA4
:1042C00000EB162094F8217028440A71FF2200EBBD
:1042D00015208A72D9F804203844C872501CC9F8D5
:1042E000040040F28820C2F200000C220F23A1F843
:1042F0000560A1F807504F7205F086F940F60411E9
:104300000020C2F2000184F87E00A5E5E179884230
:1043100048D1A97D01291BD195F82910C1B92020C8
:1043200040F6000868700120C4F2022885F82900D0
:1043300040460821002200F02FFC08F5806040F282
:10434000F02804210022C2F2000800F025FCE079E8
:104350000122594601F8082FB8F80020C8704A70A9
:10436000130A02EB12228B70EB7810444FF0FF32ED
:104370001844C1F80520A1F80920D9F8042005380F
:10438000C872501CC9F8040040F288200B71C2F2B8
:1043900000000C220F2305F037F940F60411C2F299
:1043A000000159E5217A884240F60411C2F2000169
:1043B0007FF452AD9BF8181040F220160129C2F28A
:1043C000000640F0008296F82320022A00F0FB81CC
:1043D000717B327D40F2F023114304BF02217173DF
:1043E0000122C2F200038BF80820D5E200225946D0
:1043F00001F8082FB8F80020C8704A70130A02EBC1
:1044000012228B70104430443844D9F80420063806
:104410004FF0FF33C872501CC1F80630FE23C9F8B4
:10442000040040F288208B72C2F200000C220F239D
:104430000E714F7105F0E8F80A2085F874009BF8BA
:1044400017006179884200F0DE8011E74FF4FA61CD
:10445000618341F28831A16500210126A977C9F85D
:104460001410C9F81710594601F8086FB8F8007011
:10447000AE7185F8416085F84B604F703D0A07EBDF
:104480001727C87038440A7110444FF0FF3218449F
:10449000C1F806208A72D9F804200438C872501C6A
:1044A000C9F8040040F288208D7040F220154B714D
:1044B000C2F200000C220F23C2F2000505F0A4F89E
:1044C00095F87C0095F87D10C8E91B0105F0E4FD26
:1044D000C8F85860C8F864609BF817006179884292
:1044E00000F09180C4E62179884240F086804FF048
:1044F000010C594601F808CF27468E7C40F2201463
:10450000663EB6FA86F6CD7C7609C2F2000484F8DF
:10451000306064246E1E05FB04F50A7C4B7C1D2E66
:1045200088BF4FF47A7540F6B836B54288BF4FF46D
:104530007A750E7DFD84A6F11E053C2D88BF3C26B4
:10454000A6F11E053C2D88BF3C263E8544F620661C
:1045500040F22015BE650326C2F200053C46AE714E
:1045600040F22016B8F80070C2F2000686F87BC050
:104570003E0A4F7056FA87F7C8703844D8F868502A
:10458000104418448D71284440F22015C4E91223C8
:104590000A71C2F2000503384FF0FF328E704B7182
:1045A000C1F807201BE040F20111A5F83D100122DF
:1045B000594601F8082FB8F8003085F841204B70B3
:1045C0001A0A03EB13238A700022C8700A71184478
:1045D0004FF0FF320538C1F80520A1F80920D9F8BD
:1045E0000420C872501CC9F8040040F28820C2F2AE
:1045F00000000C220F2305F007F89BF817006179E3
:1046000088427FF435AE95F87B1001290AD1B8F8BD
:104610000210002902BF95F8411095F8552051EA83
:10462000020114D0D9F804000BF108010130C9F8D7
:10463000040040F28820C2F200000C220F2304F094
:10464000E3FF40F60411C2F20001FFF705BCD4E914
:1046500012329BF818709BF81910BB4285F85670FF
:1046600085F857102FD18A422FD10127594601F8DA
:10467000087FB8F80070C8703E0A4F7056FA87F786
:1046800095F82150384418444A7110444FF0FF32D5
:104690002844C1F80720D9F804200338C872501CF8
:1046A000C9F8040040F288200B71C2F200000C220D
:1046B0000F238E708D7104F0A7FF40F60411C2F233
:1046C0000001FFF7C9BB8A424FD10127594685F83F
:1046D000417040F2E04601F8087FB8F80070C2F27D
:1046E00000067360B2604F703E0A07EB1727C87070
:1046F000384418444A7110444FF0FF32C1F8072083
:10470000D9F804200338C872501CC9F8040040F2DC
:1047100088208E700B710026C2F200000C220F233D
:104720008E7104F071FF95F8550040F604110028D1
:10473000C2F200017FF490AB40F2F020C2F2000020
:10474000408800287FF488AB40F220110120C2F29B
:10475000000181F855004FF0FF3009F057FB40F69B
:104760000411C2F20001FFF777BB0027594601F898
:10477000087FB8F80070C8703E0A4F7056FA87F785
:1047800095F82150384418444A7110444FF0FF32D4
:104790002844C1F80720D9F804200438C872501CF6
:1047A000C9F8040040F288200B71C2F200000C220C
:1047B0000F238E708D7104F027FF40F60411C2F2B2
:1047C0000001FFF749BB40F2F0230029C2F20003C9
:1047D00060D09BF80820DFE0A97F01297AD101226F
:1047E000594601F8082FB8F8002099F814C04A700B
:1047F000130A02EB1222C87099F81570104499F848
:104800001660604499F817E0384499F8184030442D
:104810008B7099F81930704499F81A502044184454
:10482000284481F804C04F718E7181F807E00C7242
:104830004B728D7201305DE040F2F024C2F2000450
:104840009BF81820A36E6267934266D101235946F4
:1048500001F8083F2788C8704F703E0A07EB1727FA
:104860000A71384410444FF0FF32C1F806208A72B2
:10487000D9F804200338C872501CC9F8040040F26B
:1048800088204B71C2F200000C220F238E7004F0BE
:10489000BBFE6EE05988002977D1F17B327C737CB6
:1048A0001143194371D1317D01290BD140F22011FF
:1048B000C2F20001497B29B940F220120121C2F263
:1048C00000025173012240F220168BF80820C2F238
:1048D00000065DE00022594601F8082FB8F80030C4
:1048E000C8704B701F0A03EB13238F7018444A6083
:1048F000C1F80720D9F80420C872501CC9F8040078
:1049000040F28820C2F200000C220F2304F07CFE4B
:1049100040F22015C2F200052CE00126594601F8AC
:10492000086F2288C8704A70170A02EB12228F7033
:1049300010444FF0FF321844C1F806208A72D9F8AB
:1049400004200438C872501CC9F8040040F28820C2
:104950000B710027C2F200000C220F2385F8416082
:104960004F7104F051FE00F01DF9C8F87000C4E961
:104970001766A04640F20004C2F200049BF817003C
:10498000617988423FF43FAE72E400228BF8082040
:1049900040F2F023C2F200031B888BF80B001A448C
:1049A0001F0A02EB13228BF80A70377D10444FF078
:1049B000FF323844CBF80D20ABF81120D9F8042091
:1049C00006388BF81300501CC9F8040040F2882008
:1049D0008BF809300BF10801C2F200000C220F2302
:1049E0008BF80C7004F010FE40F60411C2F20001C6
:1049F000FFF732BA2DE9F04F82B00C68002C00F0BE
:104A0000C28047F67F72C0F22F0202EA90224FF076
:104A100001090092002200260027012501900FE0E5
:104A2000BCF1030F5FD100BF0C68083734FA05F3FF
:104A300005F1010506F1020602F1040200F0A3806F
:104A4000A5F1010A09FA0AFE14EA0E0BECD0D1F81E
:104A500004C04CF01004122C1FD16FF0030303EAC2
:104A60005A0402F01C0300EB0409D9F820C0584690
:104A7000D1F810B00F2404FA03F80BF00F042CEA5D
:104A8000080C04FA03F343EA0C0383460198C9F8BF
:104A90002030D1F804C04FF0010903680324B4406A
:104AA0006FEA0408A3430CF00304B4402343BCF1B1
:104AB000120F036017D809FA0CF313F0061FAFD0DA
:104AC0008368CC6803EA0803B440234383604368E7
:104AD0004FEA1C1423EA0E0304FA0AF42343BCF140
:104AE000030F4360A0D0C3688C6803EA0803B44096
:104AF00023435FEACC04C36096D542F200082AF053
:104B00000303C4F2024808EB030EDEF860C007F0AE
:104B100018040F23A3402CEA030C009B03FA04F4AF
:104B20004CEA0403CEF86030D8F800C0D1F804E0B5
:104B30004CEA0B035FEACE2458BF2CEA0B03C8F8FB
:104B40000030D8F804C05FEA8E234CEA0B0458BF4B
:104B50002CEA0B04C8F80440D8F884C05FEA8E330E
:104B60004CEA0B0458BF2CEA0B04C8F88440D8F870
:104B700080C05FEACE334CEA0B0458BF2CEA0B042A
:104B8000C8F8804050E702B0BDE8F08F00690840E7
:104B900018BF0120704700001823002A08BF2823EF
:104BA000C150704740F61860C2F2000000687047BC
:104BB00040F2780040F61861C2F20000C2F2000133
:104BC00000780A68104408607047000080B5032030
:104BD00000F086F801F03AFB40F62041C4F20241B1
:104BE000096845F2300201F00F01C0F60102515C84
:104BF000C84040F28001C2F2000108600F2000F0BE
:104C000009F800281CBF012080BD00F02BF800200F
:104C100080BD000070B540F27806C2F2000631781F
:104C2000002904BF012070BD044640F28000C2F29A
:104C300000004FF47A720068B2FBF1F1B0FBF1F0C2
:104C400002F0CCFA0F2C4FF0010508D838B94FF01C
:104C5000FF3021460022002500F016F87460284637
:104C600070BD000070470000002848BF704700F08A
:104C70001F01012202FA01F14EF200124009CEF2A8
:104C8000000242F82010704710B54EF60C5CCEF2D0
:104C9000000CDCF80030C3F3022E8EF00704042C65
:104CA00028BF0424BEF103034FF0FF3E38BF0023AA
:104CB0000EFA04F4A14399400EFA03F39A4300F06C
:104CC0000F03043B1143634409010C3300F16042BC
:104CD000B0F1FF3FC8BF02F56443197010BD00007A
:104CE0004EF60C51CEF200010A684FF6FF031A404F
:104CF00060F30A2242F0806040F0FD700860704767
:104D000008F0B0FC10B540F6284CC4F2024CDCF8B8
:104D10000CE0DCF80010DCF80030C3F30523DCF80D
:104D20000020DCF8104002F01002C4F3CC0404FBB5
:104D300002F200EE102AB8EE400A9BB301F0030124
:104D400003296FF35F2E32D0022939D001295CF894
:104D5000281C49F20002C1F3C101C0F2D03222FA8C
:104D600001F101EE101A02EE103AB8EE411AB8EE57
:104D7000422A4FF0645181EE021A02EE10EA03EE6D
:104D8000101AB8EE422A20EE030A30EE020AB7EEFD
:104D9000002A30EE022A5CF8281C22EE010A890162
:104DA00034D52FE00021C0E90011816010BD01EE73
:104DB000103A42F20041B8EE411AC4F6F42107E07D
:104DC00001EE103A42F20041B8EE411AC4F67421E5
:104DD00002EE101A4FF0645182EE012A01EE10EA41
:104DE00003EE101AB8EE411A20EE030A30EE010A63
:104DF000B7EE001A30EE011A5CF8281C22EE010A08
:104E0000890103D5DCF80010C90306D40021016034
:104E10005CF8281C890117D41AE0DCF80C10B7EEF6
:104E2000002AC1F3462101EE101AB8EE411A31EE04
:104E3000021A80EE011ABCEEC11A11EE101A0160BE
:104E40005CF8281C890103D5DCF80010890301D423
:104E5000002111E0DCF80C10B7EE002AC1F3064186
:104E600001EE101AB8EE411A31EE021A80EE011A64
:104E7000BCEEC11A11EE101A41605CF8281C8901C1
:104E800044BFDCF800105FEA413102D400218160A8
:104E900010BDDCF80C10B7EE002AC1F3066101EE7C
:104EA000101AB8EE411A31EE021A80EE010ABCEE79
:104EB000C00A10EE101A816010BD000010B540F657
:104EC0002C4CC4F2024CDCF810E0DCF80010DCF8EA
:104ED0000030C3F30523DCF80020DCF8144002F0B6
:104EE0001002C4F3CC0404FB02F200EE102AB8EE68
:104EF000400A9BB301F0030103296FF35F2E32D008
:104F0000022939D001295CF82C1C49F20002C1F3B6
:104F1000C101C0F2D03222FA01F101EE101A02EE04
:104F2000103AB8EE411AB8EE422A4FF0645181EEC1
:104F3000021A02EE10EA03EE101AB8EE422A20EE30
:104F4000030A30EE020AB7EE002A30EE022A5CF8BD
:104F50002C1C22EE010A090134D52FE00021C0E902
:104F60000011816010BD01EE103A42F20041B8EE2E
:104F7000411AC4F6F42107E001EE103A42F2004172
:104F8000B8EE411AC4F6742102EE101A4FF06451C3
:104F900082EE012A01EE10EA03EE101AB8EE411A71
:104FA00020EE030A30EE010AB7EE001A30EE011AC5
:104FB0005CF82C1C22EE010A090103D5DCF8001074
:104FC000C90306D4002101605CF82C1C090117D428
:104FD0001AE0DCF81010B7EE002AC1F3462101EE0A
:104FE000101AB8EE411A31EE021A80EE011ABCEE28
:104FF000C11A11EE101A01605CF82C1C090103D5CE
:10500000DCF80010890301D4002111E0DCF8101055
:10501000B7EE002AC1F3064101EE101AB8EE411AAC
:1050200031EE021A80EE011ABCEEC11A11EE101A0E
:1050300041605CF82C1C090144BFDCF800105FEAF9
:10504000413102D40021816010BDDCF81010B7EEB0
:10505000002AC1F3066101EE101AB8EE411A31EED2
:10506000021A80EE010ABCEEC00A10EE101A81602E
:1050700010BD000080B584B04FF6FF730246C0F249
:105080001F0300209B1A70EB01034FDA6FF060439F
:105090009B1A70EB0103C0F297806FF07C439B1A60
:1050A0004FF000038B4180F2E88082F080630B4375
:1050B00000F0A18182F000630B4300F0B18182F027
:1050C0008052114340F0D28240F60041C4F20241C6
:1050D000D1F8E000C0F3C202042A00F2EE820FF21F
:1050E000100000EB820348F20000C0F2BB009F46B4
:1050F00000F0F2BA00F0B4BA00F0DFBA00F0B6BACD
:1051000000F000B8D1F8E8000B6810F040420868E1
:1051100003D113F0020340F05383B2F1804F40F00B
:10512000778310F4007040F06D8371E341F6FF73F4
:105130009B1A70EB01036CDA4FF6FF739B1A4FF06A
:1051400000038B4180F2DB8082F480330B4300F05C
:10515000998182F400330B4300F0B08182F4802205
:10516000114340F0838240F60041C4F20241D1F87D
:10517000DC00C0F302320020052A00F277820FF231
:10518000080303EB82039F4600F08DBA00F068BA73
:1051900000F06CBA00F0B6BA00F0BCBA00F000B88B
:1051A000D1F8E8000B6810F04042086803D113F012
:1051B000020340F00583B2F1804F40F0298310F4E0
:1051C000007040F01F8323E30F2940F3C78081F074
:1051D0001003134300F0948181F40073134300F033
:1051E000AD8181F48051114340F0408240F600418E
:1051F000C4F20241D1F8E40000F04060B0F1806FE9
:1052000000F00A82002800F077810A68B0F1006F90
:105210004AE1D2F103034FF000038B41C0F2BD809D
:1052200082F001030B4300F09D8182F002021143E2
:1052300040F01C8240F60040C4F20240D0F8D81082
:1052400011F0380100F02F820268082903D112F012
:10525000006240F0358203680268182903D113F018
:10526000020340F01D82202903D112F4007240F0A5
:10527000C982D0F8F0002829B6E282F400130B436B
:1052800000F0938182F00072114340F0EF8140F60C
:105290000041C4F20241D1F8F000D1F8F02000F44E
:1052A0004070B0F5807F03D112F0020240F05681C9
:1052B000D1F8F020B0F5007F06D112F000621EBFD9
:1052C0004FF4FA4004B080BD0A68B0F5407F4FF05B
:1052D000000040F0CB8112F4003200F0C781C869B1
:1052E00010F4785F00F0E981C86941F20021C0F351
:1052F0000520C0F27A01B1FBF0F004B080BD82F469
:1053000000530B4300F0658182F48042114340F06A
:10531000AD8140F60040C4F20240D0F8E41001F440
:105320004021B1F5802F00F07781002900F0BB818A
:1053300002680068B1F5002F03D112F0020240F0BC
:105340003F8210F400701CBF40F60010C0F23D0018
:10535000B1F5402F18BF002004B080BD82F000538B
:105360000B4300F05F8181F00401114340F07E8126
:1053700040F60041C4F20241D1F8E800096810F497
:10538000407040F0948111F4003100F0908141F2BE
:105390000020C0F27A0004B080BD82F004030B4309
:1053A00000F0668182F48052114340F05F8140F644
:1053B0000040C4F20240D0F8E01001F0E061B1F129
:1053C000807F00F07D81002900F0968003680268EC
:1053D000B1F1407F03D113F0020340F06181B1F1DC
:1053E000806F03D112F4007240F00C82D0F8F0000C
:1053F000B1F1A06FF8E140F60040C4F20240D0F8ED
:10540000E810026811F0300140F0608112F400529F
:1054100000F05C8146F60040C0F2DC2004B080BDA4
:1054200040F60041C4F20241D1F8E00000F007026A
:10543000042A00F242810FF2100000EB820348F2CE
:105440000000C0F2BB009F4600F046B900F008B96A
:1054500000F033B900F00AB900F000B8D1F8E80064
:105460000B6810F04042086803D113F0020340F0CB
:10547000A781B2F1804F40F0CB8110F4007040F072
:10548000C181C5E140F60041C4F20241D1F8E40017
:1054900000F04070B0F1807F00F0BE80002800F086
:1054A00002810A68B0F1007F4FF0000040F0DE801A
:1054B00012F0020200F0DA80086881E140F6004153
:1054C000C4F20241D1F8DC00C0F302220020052A18
:1054D00000F2CC800FF2080303EB82039F4600BF6B
:1054E00000F00AB800F0BCB800F0C0B800F00AB98B
:1054F00000F010B900F05AB900F084FE04B080BD8D
:1055000040F60040C4F20240D0F8E41001F030014F
:10551000102900F0E1800268202903D112F0006216
:1055200040F0CE80006810F400501CBF46F60040EA
:10553000C0F2DC20302918BF002097E040F6004080
:10554000C4F20240D0F8E810D0F8F02011F00801C1
:1055500040F0C88012F0020200F0C4804FF4004016
:1055600004B080BD40F60040C4F20240D0F8D8102C
:1055700011F0070100F0C2800268012903D112F086
:10558000006240F09D8003680268032903D113F094
:10559000020340F08580042903D112F4007240F028
:1055A0003181D0F8F00005291EE140F60040C4F238
:1055B0000240D0F8E81001F0070102292CD001299F
:1055C00000F0B180002940F0B28000F0BBFD04B0D3
:1055D00080BD40F60040C4F20240D0F8E41001F46F
:1055E0004031B1F5803F17D000295CD002680068D7
:1055F000B1F5003F03D112F0020240F0E18010F457
:1056000000701CBF40F60010C0F23D00B1F5403FF5
:1056100018BF002004B080BD01A8FFF74FFC03981D
:1056200004B080BD40F60041C4F20241D1F8E00070
:10563000C0F38212042A40D80FF2100000EB82035C
:1056400048F20000C0F2BB009F4600BF00F044B823
:1056500000F006B800F031B800F008B800F095B8D6
:1056600001A8FFF72BFC019804B080BD04B080BDF9
:1056700040F60040C4F20240D0F8D81011F4E071B6
:1056800011D00268402902D112F0006218D10368DB
:105690000268C02940F09E8013F0020300F09A8057
:1056A000C2F3C1008EE000F065FD04B080BDB0F52E
:1056B000007F05D0B0F5807F0ED0002004B080BD03
:1056C00001A8FFF7FBFB029804B080BD0268102917
:1056D00047D112F0007244D001A8FFF713FB0298E3
:1056E00004B080BDD0F8F00010F0006018BF4FF497
:1056F000FA40002908BF084604B080BD00F05EFDF6
:1057000004B080BDD1F8F0004FF4004101EA8030D0
:1057100004B080BDD1F8F0004FF4FA41000101EA75
:10572000E07004B080BD00F091FD04B080BD02685F
:10573000032903D112F400327FF429AE0268006815
:10574000042902D112F002023AD110F400701CBFF9
:1057500040F60010C0F23D00052918BF002004B03B
:1057600080BDD0F8F020202903D112F002027FF48E
:10577000F5AED0F8F00010F0006018BF4FF4FA401A
:10578000302918BF002004B080BDD1F8E8000B68B4
:1057900010F04042086802D113F0020310D1B2F1B8
:1057A000804F35D110F400702CD131E0D1F8E800F1
:1057B0000B6810F0404208681ED113F002031BD0A2
:1057C000C0F3C10049F20001C0F2D03121FA00F06B
:1057D00004B080BDB1F5807F02D112F4007211D106
:1057E000D0F8F000B1F5A07F00F002024FF0000009
:1057F00008BF900304B080BDB2F1804F08D110F40F
:10580000007005D040F60010C0F23D0004B080BD2D
:10581000086810F400301CBF41F20020C0F27A008A
:10582000B2F1004F18BF002004B080BD2DE9F04751
:105830000446006840F62848C101C4F2024807D572
:10584000D8F8C010226B21F040411143C8F8C010B5
:10585000C00714D0606BC11E032909D340B10128D1
:1058600013D104F1080004F0A7FC064640B9606BB0
:10587000D8F8B01021F007010843C8F8B00000269E
:105880002078800705D4354621E00126207880075E
:10589000F9D5A06B6FF0020101EBF0013546032949
:1058A0000AD34FEAF000354630B1012830D104F177
:1058B000080004F081FC05462F464DB9D8F8B00029
:1058C000A16B20F0380008430025C8F8B000374627
:1058D0002078400721D5E06B6FF0020101EBB01199
:1058E000032909D34FEAB01030B1012836D104F1B1
:1058F000080004F061FC05462E467DB9D8F8B000DA
:10590000E16B20F4E07008430025C8F8B00004E023
:105910000125012720784007DDD43E466078C00687
:1059200021D5206C6FF0020101EB3061032909D30E
:105930004FEA306030B101283CD104F1080004F096
:105940003BFC05462F467DB9D8F8B800216C20F005
:10595000E06008430025C8F8B80004E001250126EE
:105960006078C006DDD437466078800627D5606C45
:105970006FF0010101EB3041022909D34FEA3040B9
:1059800030B1012810D104F1080004F015FC0546DF
:105990002E465DB9D8F8BC00616C20F44030084355
:1059A0000025C8F8BC000AE0012501266078400601
:1059B00009D424E00125012760788006D7D43E462B
:1059C000607840061BD5A06C6FF0010101EBB0417F
:1059D000022909D34FEAB04030B1012830D104F197
:1059E000080004F0E9FB05462F464DB9D8F8BC0085
:1059F000A16C20F4402008430025C8F8BC003746BD
:105A0000A078C00721D0E06C002818BFB0F1007F5B
:105A10000BD12E46D5B9D8F8BC00E16C20F040700F
:105A200008430025C8F8BC000FE0B0F1807F2DD1FD
:105A300004F1080004F0C0FB05462E4635B9EAE73C
:105A400001250127A078C007DDD13E466079C00658
:105A500021D5206D002818BFB0F1006F0BD12F4663
:105A6000D5B9D8F8BC00216D20F04060084300256E
:105A7000C8F8BC000FE0B0F1806F61D104F10800FC
:105A800004F09AFB05462F4635B9EAE701250126C1
:105A90006079C006DDD43746D4E9000140F61C4ADF
:105AA000C4F2024A09050CD5DAF8001021F40041CD
:105AB000CAF80010D4F88010DAF800201143CAF8B0
:105AC000001080031BD5606D6FF0020101EB3021E7
:105AD000032909D34FEA302030B1012833D104F132
