:020000040800F2
:10000000C8150020F902000821C9000875B60008CB
:10001000C1C3000869150008450701080000000079
:10002000000000000000000000000000D5DF000814
:10003000D52A000800000000B9CB0008D5EA000866
:100040001503000815030008150300080000000050
:100050001503000815030008150300080000000040
:10006000150300081503000800000000652E0008B5
:100070001503000815030008150300081503000800
:1000800015030008150300081503000815030008F0
:1000900015030008150300081503000815030008E0
:1000A000150300081503000815030008092F0008B0
:1000B000152F0008212F000815030008150300085C
:1000C00015030008150300081503000815030008B0
:1000D00000000000150300081503000815030008C0
:1000E0001503000815030008150300081503000890
:1000F0001503000881EB00088DEB000800000000EC
:100100000000000099EB0008A5EB000815030008AB
:10011000150300081503000815030008150300085F
:100120001503000815030008150300083907010826
:10013000150300080000000000000000150300087F
:10014000150300080000000000000000000000008F
:10015000000000000000000015030008000000007F
:10016000000000000000000015030008150300084F
:10017000000000000000000000000000000000007F
:10018000000000000000000000000000000000006F
:10019000000000000000000000000000000000005F
:1001A000000000000000000015030008150300080F
:1001B00015030008150300081503000815030008BF
:1001C00015030008150300080000000000000000EF
:1001D00000000000000000000000000015030008FF
:1001E00015030008000000000000000000000000EF
:1001F00000000000000000000000000000000000FF
:1002000000000000150300081503000800000000AE
:1002100000000000150300080000000000000000BE
:1002200000000000000000000000000015030008AE
:10023000150300080000000000000000000000009E
:10024000000000000000000000000000150300088E
:10025000150300081503000800F002F800F03CF850
:100260000AA090E8000C82448344AAF10107DA4511
:1002700001D100F031F8AFF2090EBAE80F0013F027
:10028000010F18BFFB1A43F001031847CC9501007A
:10029000EC950100103A24BF78C878C1FAD852070B
:1002A00024BF30C830C144BF04680C6070470000F0
:1002B0000023002400250026103A28BF78C1FBD86F
:1002C000520728BF30C148BF0B6070471FB519F0F7
:1002D00054F81FBD10B510BD00F03AF91146FFF7F4
:1002E000F5FF13F0C3F800F058F903B4FFF7F2FF7D
:1002F00003BC00F05BF900000A4880470A48004749
:10030000FEE7FEE7FEE7FEE7FEE7FEE7FEE7FEE7C5
:10031000FEE7FEE7FEE7000004480549054A064BF4
:1003200070470000D9EA000859020008C80F0020F1
:10033000C8150020C8110020C811002053EA020C83
:1003400000F069802DE9F04B4FF00006002B1FBF35
:10035000B3FA83F503FA05F424FA05F65E4012BFFA
:100360001643B2FA82F502FA05F4C5F120051EBF64
:1003700022FA05FC44EA0C04203556EA044C4FEA04
:10038000144418BF641C4FF000084FF0000990425D
:1003900071EB030C39D3002919BFB1FA81F701FAC7
:1003A00007F6B0FA80F700FA07F6C7F120071EBF7C
:1003B00020FA07FC46EA0C062037B6FBF4FCA7EB54
:1003C0000507103F07F01F0BCBF120062CFA06F6AD
:1003D0000CFA0BFB44BFB3460026202FA4BF5E4699
:1003E0004FF0000B5BEA060C08BF4FF0010B19EB56
:1003F0000B0948EB0608ABFB027C06FB02CC0BFBAF
:1004000003CCC01B71EB0C01C1E70B460246414611
:100410004846BDE8F08B13B5084318BF4FF0FF30D6
:100420000146AFF30080BDE81C40704710B5203A8C
:10043000C0F00B80B1E81850A0E81850B1E818508F
:10044000A0E81850203ABFF4F5AF5FEA027C24BF61
:10045000B1E81850A0E8185044BF18C918C0BDE84A
:1004600010405FEA827C24BF51F8043B40F8043B13
:1004700008BF7047D20728BF31F8023B48BF11F8C8
:10048000012B28BF20F8023B48BF00F8012B704722
:100490004FF000020429C0F0128010F0030C00F0AD
:1004A0001B80CCF1040CBCF1020F18BF00F8012B2B
:1004B000A8BF20F8022BA1EB0C0100F00DB85FEAF9
:1004C000C17C24BF00F8012B00F8012B48BF00F8C5
:1004D000012B70474FF0000200B513469446964634
:1004E000203922BFA0E80C50A0E80C50B1F1200147
:1004F000BFF4F7AF090728BFA0E80C5048BF0CC0F5
:100500005DF804EB890028BF40F8042B08BF704752
:1005100048BF20F8022B11F0804F18BF00F8012BC4
:10052000704770477047704710B500F009F80068D1
:1005300010BD10B5044600F003F8046010BD0000C3
:1005400000487047C000002000487047C0000020ED
:100550007546FFF7F9FFAE4605006946534620F0A1
:100560000700854618B020B5FFF7D6FEBDE820404D
:100570004FF000064FF000074FF000084FF0000B5F
:10058000AC46ACE8C009ACE8C009ACE8C009ACE8CE
:10059000C00921F007018D46704710B50446AFF33E
:1005A00000802046BDE81040FFF79FBE014918209B
:1005B000ABBEFEE726000200704700002DE9F041C7
:1005C0000446DDE9060C00254FF07E560527C4E9F8
:1005D0000155C4E90356C4E90556C4E90757FF2786
:1005E000DDF82080A784C4E90A5522866086C4E924
:1005F0000F1304F1500061464C2284F83850FFF785
:1006000015FF4FF0FF30B8F1000F08BF012084F84C
:100610009C00C4E92855C4E92A56206D84F8B050DE
:10062000016841F0800101604FF6FF71C162E16530
:10063000C4F8B150BDE8F0812DE9F04381B0044623
:1006400094ED030A4068A16820EE000A0F1A10EE2C
:10065000100A18F0C7FD054660690E4618F0C2FD85
:1006600002460B4617F078FF02460B4628463146F5
:1006700018F02EF818F0C0F94FB9012807DC002057
:10068000E061E060C4F8A00001B0BDE8F083012F94
:100690000BDBD4F8A080B8F1010FC0F29080874244
:1006A00013DD94F8B010B9B90FE0D4F8A080B7F119
:1006B000FF3F0EDC7942B8F1010FC0F28F80884213
:1006C00003DA94F8B010012906D1C0F10008C4F88B
:1006D000A080B8F1000F40D0D4F8A80018F082FD37
:1006E00002460B4606460F4617F036FF05464046C3
:1006F000894618F0DEF90023CCF21003002218F02E
:100700007BFA0023CBF6F073002217F025FF024698
:100710000B462846494617F0DBFF02460B4630469B
:10072000394617F019FF17F0E5FE00EE100ABDEE8E
:10073000C00A94ED2B1A10EE100ABDEEC11A11EE8C
:10074000101A8842C8BF014600EE101AB8EEC00A5F
:1007500094F8B00084ED2A0A0DE0D4F8A41000202B
:100760004FF00008002FC8BF0120C4F8A81000EE09
:10077000101A84F8B00042F20041C4F6741101EE80
:10078000101A08F1010181EE001AC4F8A01000212E
:10079000B5EE400ABCEEC02A00EE101AF1EE10FAD7
:1007A00084ED072A00FE010A002884ED030A04BF35
:1007B000B1EE400A84ED030A01B0BDE8F083874240
:1007C00087DDB8F1000F84D094F8B00001287FF4E1
:1007D00083AFC8F10008C4F8A0807DE78842BFF667
:1007E00078AFB8F1000F3FF474AF94F8B000002870
:1007F0007FF472AFEDE700004068704710B5044623
:100800008068884208BF10BD2046A160FFF714FF32
:1008100004F15000BDE8104009F0F2BBB0B5044649
:100820004068A168002581422DD0E3694FF00002A5
:10083000C8BF012284F8B0202BB300238142D8BF67
:1008400001234FF0FF31C8BF0121084494F89C10E8
:100850006060FF29206C618E08BF1A4606F026FFF3
:10086000E06B218E0122012506F020FF206A11F0A5
:1008700065FAE06B218E002206F018FF13F0BAFA39
:10088000C117C4E90A012846B0BD00000022C0F823
:10089000A020C261C0E90111C260704770B590ED3F
:1008A000041AB0EEC00AB4EE401AF1EE10FA08BF16
:1008B00070BD044642F2004084ED040AC4F6741090
:1008C00001EE100AD4F8A00081EE001A012884ED90
:1008D0002B1A20DB94ED030A20EE000A10EE100A1A
:1008E00018F080FC054660690E4618F07BFC024655
:1008F0000B4617F031FE02460B462846314617F0EC
:10090000E7FE18F079F801462046C4F8A010BDE8CB
:100910007040FFF791BE70BD2DE9F0412DED028BC7
:10092000B5EE400A0446F1EE10FA0AD094ED031A2F
:10093000B4EE401AF1EE10FA03D1BDEC028BBDE823
:10094000F08194ED041AB1EE412AB4EE402A81FE02
:10095000400AF1EE10FA32FE008A18EE100A18F082
:1009600041FCB5EE408AF1EE10FA0DD1002504F1FC
:100970005000E56109F074FB206D456284ED038A47
:10098000BDEC028BBDE8F081274657F8508F054635
:10099000D8F80C000E46C00704D1384609F030FBE9
:1009A000D7F8008048F28041C4F22E1100202A4678
:1009B0003346002717F08CFEFA0F62F3DF7118F050
:1009C0004BF800EE107AE061B4EE408AC8F82C00D3
:1009D000E065F1EE10FAC8BF012784F8B07084ED2D
:1009E000038ABDEC028BBDE8F0810000806870478F
:1009F000F0B581B02DED028B40F60004C4F2022464
:100A000006F05AFE05462046042106F049FE40F253
:100A1000E036C2F2000696F8301088421DD140F64A
:100A20006840C2F20000D0E9001240F28407C2F22E
:100A300000073F68691A4FF0000363EB0202791A5E
:100A400040F218214FF00100C2F2000173EB0202E4
:100A500081F83A0028BF00200DE040F21820C2F2D1
:100A60000000002180F83A1040F66840C2F2000011
:100A7000C0E90051002086F8310006F01DFE054651
:100A80002046022106F00CFE96F8301088421DD157
:100A900040F66840C2F20000D0E9021240F284073A
:100AA000C2F200077F68691A4FF0000363EB02028D
:100AB000791A40F218214FF00100C2F2000173EBE5
:100AC000020281F83B0028BF00200DE040F2182010
:100AD000C2F20000002180F83B1040F66840C2F2EC
:100AE0000000C0E90251002086F8320006F0E4FD63
:100AF000054620460121012406F0D2FD96F830106B
:100B000088421BD140F66840C2F20000D0E90401DF
:100B100040F28403C2F200039B68281A4FF00002DF
:100B200062EB0101181A40F21820C2F2000072EBC9
:100B3000010180F83C4028BF00240DE040F218205D
:100B4000C2F20000002180F83C1040F66840C2F27A
:100B500000000024C0E9045140F20007C2F200077F
:100B6000B87C86F83340844241D096F831108142F7
:100B70003DD096F83210814239D0307F01280ED115
:100B800040F65854C2F200042046FFF735FE0546F1
:100B90002046FFF72BFF854204BF0320B07496F870
:100BA0002100012804BF0420B07496F82A0001280F
:100BB00026D106F081FD40F26041C2F20001C98DEC
:100BC00019BB40F25852C2F20002126C801A4EF663
:100BD0008162C0F23602904217D340F2DC40C2F28A
:100BE0000000D0E9042010430FD10D207EE0012148
:100BF000844208BF0221B174307F0128C0D0CEE703
:100C000040F26040C2F20000C18D02291BD140F6C3
:100C10005850C2F20000FFF7EFFD002848BF4042E5
:100C200017F047FF97ED1C0B0D46002153EC102BDE
:100C30000446C4F22401002017F04AFD22462B4648
:100C400018F009FBE0B1B07C002800F09E80002184
:100C50000228317607D096F8270000284DD0B07CC6
:100C6000002854D174E040F6A04000EE101AC2F201
:100C70000000FFF751FE96F827000028EFD13CE076
:100C800040F65850C2F20000FFF7B6FD002848BFFA
:100C9000404217F00EFF97ED1C0B0D46002153EC60
:100CA000102B0446C4F23E01002017F011FD40F263
:100CB0006042C2F20002B2F94820012AC3DB40F2CE
:100CC0005852C2F2000292ED150A0022C4F27A5282
:100CD00001EE102AB4EE410AF1EE10FAB3DA224620
:100CE0002B4618F0CDFA0028ADD10E20B0740020AC
:100CF000307696F827000028B1D144F62060B86518
:100D00000320F072012086F82700B07C00B396F82B
:100D10003410E9B9012086F8340006F0CDFC40F229
:100D20005851C2F200018865002108EE101A40F601
:100D30005850B0EE480AC2F20000FFF7EDFD40F651
:100D40001060B0EE480AC2F20000FFF7E5FDB07C8B
:100D50000D281ED8012101FA00F042F214010842C8
:100D600017D0B07C0D2810D106F0A6FC40F25851E7
:100D7000C2F20001896D401A41F28831884204D3E1
:100D8000022086F82A000120F074BDEC028B01B02D
:100D9000F0BD96F835000028E3D1F07B0128E0D0C3
:100DA00006F08AFC40F25851C2F20001896D401AE7
:100DB000B0F5FA6FD5D33079797B884208BF06F059
:100DC00081FDCEE72DE9F04F81B02DED0A8B84B087
:100DD00040F2E038C2F2000898F87B1029B104B064
:100DE000BDEC0A8B01B0BDE8F08F40F2DC49C2F2E5
:100DF0000009D9F8401040F2201A0446C2F2000A55
:100E000011B1012947D06AE10120C9F8400006F07C
:100E100053FCCAF85800204617F062FE42F2FB135A
:100E20004AF2A872C4F20903C5F23D4217F0E4FE8B
:100E300040F20007C2F200070546786B0E4618F034
:100E4000D1F902460B462846314617F0D5FE97EDFC
:100E50001C0B05460E4648F2000351EC100BC4F281
:100E600076030022002717F0C7FE02460B462846ED
:100E7000314617F02DFCFA0F62F3DF7117F0BCFD5D
:100E800040F26042D9F84010C2F20002A2F87200AB
:100E9000012940F0248140F25850C2F2000090ED48
:100EA0000E8AB0EEC89A19EE100A18F09BF90546A2
:100EB00020460E4617F014FE04460F4628463146DB
:100EC00022463B4618F0D5F918B9092088F81200D7
:100ED00005E1B6EE000AB4EE409AF1EE10FA0BDA34
:100EE000012088F87B000020C9F8400004B0BDEC68
:100EF0000A8B01B0BDE8F08FB4EE409AF1EE10FA23
:100F0000C0F2ED802846314622463B4618F0A3F950
:100F1000002840F0E480B5EE408A8AED178AF1EEB1
:100F200010FA12DD40F260440220C2F20004B4F86C
:100F30007210C9F8400040F65850C2F20000FFF7A6
:100F40005DFCB4F87200414211E040F26044C2F22C
:100F500000040320B4F87210C9F8400040F658505D
:100F60004942C2F20000FFF749FCB4F8721040F6A3
:100F70001060C2F20000FFF741FC40F20000C2F234
:100F8000000090ED1C0B002156EC105BC4F23E01FA
:100F900000202A463346002417F09AFB17F0AAFADD
:100FA00044F2000108EE100A07460390C4F28F01D4
:100FB00000202A46334617F08BFB17F09BFA00EE11
:100FC000104A0024BFEE009AB4EE408AB7EE00AAA1
:100FD00040F2D45BF1EE10FAB8BF012499ED000A9B
:100FE000C2F2000B38EE400A99ED01BAB5EE400AA4
:100FF00005468BED080AF1EE10FA88F837403AFE04
:1010000009CACBF81870CBF81C008BED09CA18F090
:10101000E9F846F24D234AF6FC12C3F65073CDF2BE
:10102000F12217F0E9FD064602901CEE100A0F4669
:10103000019118F0D7F802460B463046394617F0B2
:10104000DBFD17F057FACBF828000120CBF814008D
:1010500040F67C10C2F2000040F250610768C2F214
:10106000000138EE4B0ACE6B786A8BED0E0A4FF416
:101070007A71B5EE400A06FB010040F29022F1EED3
:1010800010FAC2F200024FF00001C2E90601039813
:101090003AFE091ACBF8300011EE100A88F83840F1
:1010A0008BED0F1ACBF8345018F09CF802460B4623
:1010B000DDE9011017F0A0FD17F01CFACBF8400095
:1010C0000120CBF82C00786A4FF47A7106FB0100FE
:1010D00040F290220021C2F20002C2E90801D9F8D0
:1010E000400003281FD0022840F0B78040F258503B
:1010F000C2F2000090ED0E8A18EE100A18F072F895
:10110000B9EE040AB4EE408AF1EE10FA77DB49F644
:10111000991349F69A12C3F6C973C9F6991218F0D1
:101120009AF8E8B16BE040F25850C2F2000090ED3E
:101130000E8A18EE100A18F055F8B1EE040AB4EE53
:10114000408AF1EE10FA68DC49F6991349F69A12D2
:10115000CBF6C973C9F6991218F092F800285CD141
:1011600040F65854C2F20004002620460021C9F877
:101170004060FFF78BFB40F61065C2F20005284681
:101180000021FFF783FB20460021FFF737FB2846AD
:101190000021FFF733FB08EE106A2046B0EE480A44
:1011A000FFF7BAFBB0EE480A2846FFF7B5FB40F65A
:1011B0001420C2F2000001684FF6FF7240F660236F
:1011C000CA62C2F200031F68C26040F2D450C2F289
:1011D0000000FA62DA604E627E624661C66240F2E8
:1011E0005850C9E90066C2F200008667D9F840008D
:1011F0000121032888F87B100FD002282DD140F25E
:101200005850C2F2000090ED0E0A9AED171AB4EE93
:10121000410AF1EE10FA0DDC22E040F25850C2F221
:10122000000090ED0E0A9AED171AB4EE410AF1EEA5
:1012300010FA15DA0120C9F8400040F65850C2F201
:1012400000000021FFF722FB40F61060C2F2000010
:101250000021FFF71BFBD9F8400000283FF4BFAD89
:1012600006F02AFADAF85810401A40F6B8318842E7
:10127000FFF4B5ADD9F83800002804BF092088F87C
:10128000120004B0BDEC0A8B01B0BDE8F08F000085
:101290002DE9F0412DED028B40F2E036C2F200065E
:1012A00096F86A0018B1BDEC028BBDE8F08140F2FF
:1012B000DC48C2F20008D8F83C1041B101292AD01C
:1012C000022900F0E480002940F0F380EBE740F2CF
:1012D0000001C2F2000191ED1C0B0120002153EC32
:1012E000102BC8F83C00C4F23E01002017F0F0F9C2
:1012F00017F082FB40F26041C2F20001A1F87400D5
:1013000006F0DAF940F22012D8F83C10C2F20002DE
:1013100010660129D4D140F25850B3EE092AC2F226
:10132000000090ED0E0AB0EEC01AB4EE421AF1EED3
:1013300010FA5DDA40F25060C2F2000090ED1D1A22
:1013400096F87C2030EE010A40F220140221012A96
:10135000C2F20004C8F83C1084ED190A04D100213F
:101360006166416786F87C1040F65850C2F2000072
:101370000021FFF78BFA40F61060C2F20000002156
:10138000FFF784FA40F20000C2F2000090ED0B0A71
:1013900090ED0C1A90ED0D2AB8EEC00A0020C4F2B0
:1013A000B43022EE002A94ED190A03EE100A20EE62
:1013B000022A21EE031AB5EE400A82EE011AF1EE7E
:1013C00010FAB0EEC11A84ED1A1A14DDBDEEC10A8E
:1013D00040F6585010EE101AC2F20000FFF70EFA55
:1013E00094ED1A0ABDEEC00A10EE100A444226E03F
:1013F0001020B0745DE0B5EE400AF1EE10FA11DA9B
:10140000BDEEC10A10EE100A414240F65850C2F239
:101410000000FFF7F3F994ED1A0ABDEEC00A10EED2
:10142000104A0CE0B5EE400AF1EE10FA0ED140F68B
:101430005850C2F2000000210024FFF7DFF940F607
:101440001060C2F200002146FFF7D8F940F2604474
:10145000C2F20004B4F8740000EE100A40F65850CE
:10146000B8EE400AC2F20000FFF756FAB4F8740072
:1014700000EE100A40F61060B8EE400AC2F200001A
:10148000FFF74AFAD8F83C1002297FF41CAF40F667
:101490005854C2F200042046FFF7A8FA0546204639
:1014A000FFF7AAF9854211D0D8F83C1000293FF483
:1014B000FAAE06F001F940F22011C2F20001096E05
:1014C000401A40F6B8318842FFF4EDAE40F6585469
:1014D0000320C2F20004C8F83C0020460021002787
:1014E000FFF7D4F940F61065C2F200052846002146
:1014F000FFF7CCF920460021FFF780F928460021AC
:10150000FFF77CF908EE107A2046B0EE480AFFF7A4
:1015100003FAB0EE480A2846FFF7FEF940F6142019
:10152000C2F2000001684FF6FF7240F66023CA6203
:10153000C2F200031D68C26040F2D450C2F2000043
:10154000EA62DA604F626F624761C76240F25850E8
:10155000C2F2000087670120C8E9007786F86A00B8
:10156000BDEC028BBDE8F081FEE700002DE9F047FD
:1015700040F2004AC4F2022A06F09EF805465046A0
:101580004FF4804106F08CF840F2E037C2F20007D9
:1015900097F8301040F2182940F6684840F2840667
:1015A0008842C2F20009C2F20008C2F2000610D15D
:1015B000D8E906120023691AF5684FF0010063EBC1
:1015C0000202691A73EB020189F83D0028BF00206E
:1015D00005E0002089F83D00C8E90650002040F2EF
:1015E0000004C2F20004217D884207D197F82C0044
:1015F000002804BF40F20110A7F8420006F05CF892
:10160000054650464FF4005106F04AF897F830105E
:10161000884221D1D8E908123669691A4FF00003CF
:101620004FF0010063EB0202711A73EB020189F8BB
:101630003E0028BF0020217D884216D006F03CF8ED
:1016400040F2D451C2F20001C96E401AC82824BF2A
:10165000002087F847006CE0002089F83E00C8E9C8
:1016600008500020217D8842E8D197F847000028E3
:101670005FD140F26046C2F20006B6F85400013075
:10168000A6F85400012087F8470006F015F896F8F0
:10169000542097F83D1040F2D453C2F20003D20711
:1016A000D86626D1012944D10AF580602021002284
:1016B000002405F0FBFF40F6A0450120C2F2000522
:1016C00087F83E002846002187F84140FFF796F84A
:1016D000B6F84E0017F004FA46F26663C3F6E673F6
:1016E0004FF0663217F088FA16F004FF00EE100A89
:1016F0001CE001291DD10AF5806020210022002470
:1017000005F0D4FF40F6A0450120B6F84C10C2F217
:10171000000587F84100284687F83E40FFF76EF83D
:10172000B6F84E0000EE100AB8EE400A2846FFF761
:10173000F3F805F0C1FF054650464FF4805105F01F
:10174000AFFF97F83010884204D1012089F83F009C
:10175000BDE8F087002089F83F00C8E90A50BDE8DD
:10176000F08700002DE9F04F81B02DED0A8B84B099
:101770008A46B1EE602A41F26F21C3F68321B5EEAD
:10178000401AB0EE408A00EE101AF1EE10FA8346CD
:1017900000FE010AB1EE481A8BED012A10EE100A84
:1017A0008BED001A17F01EFD42F2FB134AF2A872ED
:1017B000C4F20903C5F23D4217F01EFA48F20003D5
:1017C000C4F2660300224FF0000916F081FF16F004
:1017D00091FE0746CBF8080018EE100A8BF86CA0B3
:1017E00017F000FD0646DBF82C000D4617F0FAFC5A
:1017F00004463846884617F0F5FC41EC100B15F00E
:1018000087F851EC100B2246434617F0F5F93246A3
:101810002B4617F0FDFB16F06DFECBF81C00DBE944
:101820000104DBF82C7017F0DDFC804638460E46CC
:1018300017F0D8FC074620460D4617F0D3FC41ECC4
:10184000100B15F099FF51EC100B3A462B4617F090
:10185000D3F94246334616F07FFE16F04BFECBF826
:101860002000DBF80000DBF80840DBF82C7017F0F4
:10187000B9FC804638460E4617F0B4FC07462046B1
:101880000D4617F0AFFC41EC100B15F041F851EC90
:10189000100B3A462B4617F0AFF902460B4640466E
:1018A000314617F0B5FB16F025FECBF82400DBE936
:1018B0000104DBF82C7017F095FC804638460E4684
:1018C00017F090FC074620460D4617F08BFC41ECC4
:1018D000100B15F051FF51EC100B3A462B4617F048
:1018E0008BF902460B4640463146574617F090FBAF
:1018F00016F000FE9BED000ABAF1020FCBF82800AB
:1019000023D1B5EE400A42F2FB15C4F20905F1EE0F
:1019100010FA40F0B680DBF80800DBF82C4020F02D
:101920000040CBE9104417F05DFC02464AF2A87073
:101930000B46C5F23D40294617F06AFB16F0DAFD6A
:1019400000EE104ACBF850004AE301EE109A002056
:10195000B4EE410A9BED010AF1EE10FA18BF012026
:10196000B4EE410AF1EE10FA18BF4FF0010950EA47
:10197000090027D1DBF80800DBF82C6017F032FCF7
:1019800004460D4600204FF0004122462B4617F03A
:101990003FFB42F2FB134AF2A872C3F6F973C5F299
:1019A0003D42002F04BF2946204616F0D5FD16F013
:1019B000A1FDCBF85000CBF8406000EE106ACBF8E8
:1019C00044600DE310EE100A20F0004017F00AFC0E
:1019D0000446DBF808000D4617F004FC41EC100B40
:1019E00014F096FF53EC102B2046294616F070FE9B
:1019F00016F080FD0446CBF86400DBF800009BED98
:101A0000018A17F0EFFB804620460E4617F0EAFBEE
:101A10000446DBF808000D4617F0E4FB41EC100B20
:101A200015F0AAFE51EC100B22462B4617F0E4F8F5
:101A300004460D4600204FF0004122462B4617F089
:101A4000E7FAB5EE408A42463346F1EE10FAA4BFFB
:101A50002946204616F080FD16F04CFD00EE100AD7
:101A6000CBF81400C7B1012F24D19BED01CA9BED27
:101A7000191AB5EE40CAF1EE10FA16DB31EE008A03
:101A800015E09BED028AB5EE408AF1EE10FA40F0C7
:101A9000AA809BED110AA3E29BED01CA9BED191AE6
:101AA000B5EE40CAF1EE10FAE8DB30EE418A8BED7C
:101AB000038A03E09BED01CA9BED038A9BED000ABC
:101AC0009BED08AA9BED07BA3AEE4C1A3BEE402A72
:101AD000B5EE40CA81EE021AF1EE10FA8BED0E8AD5
:101AE000039720EE012A21EE083A3CEE422A8BEDC4
:101AF0000C1A33EE029A8BED0D2A8BED0F9A14D14E
:101B0000DBF8080017F06EFB0246002F0F4600F0CE
:101B1000CD8042F2FB114AF2A870C3F6F971C5F20A
:101B20003D403B4617F074FACCE010EE100A17F077
:101B300059FB04461CEE100A0F4617F053FB814672
:101B400018EE100A029117F04DFB804619EE100AAC
:101B50008A4617F047FB05460E4620463946424660
:101B6000534617F055FA02460B4617F045F80F4654
:101B70000299044648462A46334617F049FA024677
:101B80000B4617F039F802460B462046394616F048
:101B9000E3FC41EC100B15F01BFF51EC100B16F0A1
:101BA000A9FC00EE100A9BED191ACBF8680081EE33
:101BB000000A10EE101A084617F014FB41EC100B47
:101BC00014F03AFD51EC100B0B46024616F0C4FC23
:101BD00016F090FC9BED07BA9BED08AA9BED0E8AD0
:101BE0009BED0F9A70E010EE100A20F0004017F005
:101BF000F9FA044618EE100A0D4620F0004017F0DE
:101C0000F1FA41EC100B15F0B7FD53EC102B204608
:101C1000294616F05DFD16F06DFC08EE100ACBF8B3
:101C20006400DBF8040017F0DDFA9BED029AB1EED8
:101C3000480A8046B5EE409A0E46F1EE10FA28FEAC
:101C4000000A9BED008A10EE100A17F0CBFA04464A
:101C500019EE100A0D4617F0C5FA41EC100B14F0FE
:101C600057FE51EC100B22462B4616F0C5FFB5EE81
:101C7000408A0246F1EE10FA0B4680F2A4804046FC
:101C8000314617F0C5F916F035FC9BED020A9BEDC5
:101C9000191AB5EE400AB1EE412AF1EE10FA00EE43
:101CA000100A21FE021A31EE008AA4E042F2FB1370
:101CB00010464AF2A872C3F6F9733946C5F23D429E
:101CC00016F04AFC16F016FCCBF8500018EE100A7D
:101CD00017F088FA044619EE100A0F4617F082FA38
:101CE00002901BEE100A8A4617F07CFA81461AEE23
:101CF000100A884617F076FA05460E462046394601
:101D00004A46434617F084F902460B4616F074FF24
:101D1000044602980F4651462A46334617F078F992
:101D200002460B4616F068FF02460B46204639462F
:101D300016F012FC41EC100B15F04AFE51EC100BA2
:101D400016F0D8FBCBF84000DBE90E06DBE90945CD
:101D500017F048FA074630468A4617F043FA0290D1
:101D60002046894617F03EFA04462846884617F072
:101D700039FA05460E46384651462246434617F084
:101D800047F902460B4616F037FF044602980F4605
:101D900049462A46334617F03BF902460B4616F0F1
:101DA0002BFF02460B462046394616F0D5FB41EC88
:101DB000100B15F00DFE51EC100B16F09BFB00EE16
:101DC000100A039F0AE1104619464246334616F0B0
:101DD000C3FB16F08FFB9BED020A9BED191AB5EEC3
:101DE000400AB1EE412AF1EE10FA00EE100A21FE8F
:101DF000021A30EE418A9BED001A9BED019A9BED91
:101E0000082A9BED073A32EE492A33EE413A11EEA9
:101E1000100A82EE032A8BED060A8BED048A8BED05
:101E20000F8A21EE023A8BED0C2A39EE433A38EE56
:101E3000434A8BED0D3A84EE02AA8BED0EAA17F001
:101E4000D1F9044619EE100A0D4617F0CBF90290AD
:101E50001AEE100A019117F0C5F9804618EE100A23
:101E600003978A4617F0BEF981460E46204629465A
:101E70004246534617F0CCF802460B4616F0BCFE1D
:101E800007460C46DDE901104A46334617F0C0F814
:101E900002460B4616F0B0FE3A46234616F05CFBAF
:101EA00041EC100B15F094FD51EC100B16F022FBD9
:101EB00000EE100A9BED191ACBF8680081EE000ABB
:101EC00010EE101A084617F08DF941EC100B14F0C3
:101ED000B3FB51EC100B0B46024616F03DFB16F01F
:101EE00009FBCBF85000DBE90E06DBE9074517F0EC
:101EF00079F907463046884617F074F9814620463E
:101F0000029117F06FF9044628468A4617F06AF9DD
:101F100005460E46384641462246534617F078F8A5
:101F200002460B4616F068FE0F46029904464846E4
:101F30002A46334617F06CF802460B4616F05CFE54
:101F400002460B462046394616F006FB41EC100BC4
:101F500015F03EFD51EC100B16F0CCFACBF840001A
:101F6000DBE90E06DBE9094517F03CF90746304688
:101F7000884617F037F9CDE90110204617F032F9FD
:101F8000044628468A4617F02DF981460E46384603
:101F90004146039F2246534617F03AF802460B4645
:101FA00016F02AFE04460D46DDE901104A46334686
:101FB00017F02EF802460B4616F01EFE02460B46A0
:101FC0002046294616F0C8FA41EC100B15F000FD2A
:101FD00051EC100B16F08EFA00EE100ACBF844000C
:101FE0009BED101A9BED142A21EE021A22EE000A34
:101FF0008BED121A8BED130A9FB19BED0B0A012F8B
:10200000B1EE401A19BF8BED171A8BED150A8BED47
:10201000180A8BED161A04B0BDEC0A8B01B0BDE8AE
:10202000F08F9BED0B0AB1EE401A8BED160A8BED8B
:10203000181A04B0BDEC0A8B01B0BDE8F08F0000A7
:102040002DE9F04F81B02DED048B40F2E030C2F26B
:1020500000000078012840F0288140F67C10C2F290
:10206000000040F250610068C2F20001CA6B416A90
:102070004FF47A7302FB031740F29021C2F2000181
:10208000D1E9046540F20008C2F20008D8F85040D7
:10209000BE1B4FF0000767EB0505361B75EBE476BA
:1020A000C0F0038102FB03F2406A40F25859104429
:1020B000C2F20009C1E90407D9E917010028024664
:1020C00048BF4242002948BF49428A42C8BFC9F8B6
:1020D000600040F2DC40D9E91964C2F2000000EE71
:1020E000106A01EE104AB8EEC00AB8EEC11A90EDBF
:1020F000002A90ED013A80EE010A83EE021A301BAD
:1021000089ED1B0A00EE100A89ED1C1AB8EEC00A10
:1021100010EE100A17F066F898ED1C0B02465AEC08
:10212000105B98ED1A8B0B462846514616F064FD5D
:1021300016F0E0F917F056F802460B4651EC180B72
:1021400016F05AFD16F0D6F907462846514616F005
:10215000D1F9002C48BF644200EE100A002E48BF9F
:102160007642A019400801EE100A08EE107AB8EE87
:10217000C11A21EE000A10EE100A17F033F80646D5
:1021800027F000400C4617F02DF848F2000AC4F280
:10219000660A02460B460020514616F039FF4AF205
:1021A000A87242F2FB13C5F23D42C4F2090307468E
:1021B0000D4616F021FD40F2000BC3F6E07B002235
:1021C0005B4616F019FD0022534616F081FA16F010
:1021D00091F917F007F841EC100B15F0CDFA51EC1E
:1021E000100B3246234616F007FD16F083F9D9E9A5
:1021F000191298ED1C9B0646114400EE101AB8EE19
:10220000C00A10EE100A16F0EDFF02460B4651EC24
:10221000190B16F0F1FC00225B4616F0EDFC0446AB
:1022200088463846294600225B4616F0E5FC4AF20D
:10223000A87242F2FB13C5F23D42C4F2090316F044
:10224000DBFC0022534616F043FA41EC100B14F06D
:102250005FFB51EC100B2246434616F0CDFC16F006
:1022600049F90021C4F2B43100EE101AB5EE408AEB
:10227000002138EE001ACCF2B431F1EE10FAB8BFFA
:10228000B0EE418AC9F8740001EE101AB4EE408A2B
:1022900038EE010AF1EE10FA40F2DC4130FE080A95
:1022A000C2F20001CE6081ED020ABDEC048B01B0E8
:1022B000BDE8F08F70B52DED088B044610EE900A46
:1022C000B0EE408A16F08EFF40F6805349F23B7222
:1022D000C4F20903C7F20A3216F08EFC48F200037A
:1022E000C4F26603002216F0F3F916F003F9B0EE1B
:1022F000C80AB2EE0E1AB4EE410A84ED000AF1EEFD
:1023000010FA55DB94ED070A94ED021A30EE000A3C
:1023100020F0004080EE01AA09EE100A94ED0F0AA9
:1023200094ED0CBA39EE000A10EE100A84ED0BAAF7
:1023300016F058FF4CF6CC434CF6CD42C3F6EC7386
:10234000CCF6CC4216F058FC05461AEE100A0E46A2
:1023500016F048FF02460B462846314616F0B8F9FB
:1023600016F0C8F8B0EE490A8BEE0AAA206414F001
:1023700033FB94ED0F1AB0EE409AB0EE410A14F020
:102380002BFB39EE400AB5EE408A2AEE000AF1EE48
:1023900010FA84ED130A10DD94ED050A94ED0C1A81
:1023A00031EE002A31EE400A84ED0E2A84ED0D0A4A
:1023B00094ED100ABDEC088B70BDB5EE408AF1EECD
:1023C00010FAF5DA94ED050A94ED0C1A31EE402A74
:1023D00031EE000A84ED0E2A84ED0D0A94ED100A08
:1023E000BDEC088B70BD000070B52DED0A8B044666
:1023F00010EE900AB0EE408A16F0F4FE40F68053DC
:1024000049F23B72C4F20903C7F20A3216F0F4FB38
:1024100048F20003C4F26603002216F059F916F0E0
:1024200069F8B0EEC8BAB2EE0E0AB4EE40BA84ED66
:1024300000BAF1EE10FA08DA94ED110AB5EE400A8E
:10244000F1EE10FA00F3B780B1E094ED070A94EDD5
:10245000021A30EE000A20F0004080EE010A09EE78
:10246000100A94ED0CAAF0EE490A204684ED0B0AFE
:10247000B0EE480AFFF71EFF94ED0F1A2AEE000A8D
:1024800039EE011A80EE01CAB0EE490A14F0A4FA3E
:1024900094ED0F1AB0EE40AAB0EE410A14F09CFA87
:1024A00094ED071A94ED022A31EE011A94ED0F9A79
:1024B00081EE021A3AEE400A84ED00BA2CEE00AA30
:1024C00094ED0CCA89EE012A84ED0B1A12EE100A63
:1024D00016F088FE4CF6CD454CF6CC43CCF6CC45F8
:1024E000C3F6F0732A4616F087FB16F003F8B5EE34
:1024F000408A00EE100AF1EE10FAA06406DD94EDB9
:10250000051A3CEE012A3CEE411A0AE0B5EE408A7B
:10251000F1EE10FA09DA94ED051A3CEE412A3CEE90
:10252000011A84ED0E2A84ED0D1A2CEE000A80EEBD
:10253000098AB0EE490A14F04FFABFEE001A30EEE5
:10254000010A28EE000A30EE4A0A3BEE000A10EEBD
:10255000100A16F047FE4CF6CC43C3F6EC732A463D
:1025600016F04AFB0546206B0E4616F03BFE02466F
:102570000B462846314616F0ABF894ED0F0A054697
:102580000E4615F05DF910EE100A16F02BFE02460D
:102590000B462846314616F09BF815F0ABFF00EECF
:1025A000100A6064B5EE400AF1EE10FA03DC002078
:1025B00000EE100A6064BDEC0A8B70BD10B52DED05
:1025C000028BB0EE408AB0EEC00AB2EE0E1AB4EE44
:1025D000410A044680ED000AF1EE10FA04DA94EDA7
:1025E000120ABDEC028B10BD94ED070A94ED021A9D
:1025F00030EE000A80EE010A94ED0F1A81EE001A07
:1026000084ED0B0A11EE100A16F0ECFD4CF6CC43EB
:102610004CF6CD42C3F6F073CCF6CC4216F0ECFA91
:1026200015F068FFB5EE408A00EE100AF1EE10FAE0
:10263000A0640EDD94ED051A94ED0C2A32EE013AF9
:1026400032EE411A84ED0E3A84ED0D1ABDEC028B88
:1026500010BDB5EE408AF1EE10FA0BDA94ED051AD2
:1026600094ED0C2A32EE413A32EE011A84ED0E3A24
:1026700084ED0D1ABDEC028B10BD00002DE9F04376
:1026800081B040F25853C2F20003002793ED070ACD
:10269000C4F2342701EE107AB0EEC00AB4EE410A5B
:1026A000F1EE10FA0EDA0546002093ED0B0AC4F2A3
:1026B000482001EE100AB0EEC02AB4EE412AF1EE35
:1026C00010FA08DD40F2E030C2F20000052181740A
:1026D00001B0BDE8F083BBEE0E1A40F2CC66B4EE5A
:1026E000410A40F26049F1EE10FAC2F20006D8BF8A
:1026F00086ED0B0AC2F20009B9F9480040F25068B1
:1027000000FB02F0C2F2000801EE100A88ED180A80
:102710000C46B8EEC11A30EE010A10EE100A86ED32
:102720001B0A16F05FFD40F20007C2F2000797EDAA
:102730001C0B53EC102B15F0CBFF16F05DF9B16CB0
:1027400001EE104A01FB05F1022200EE101A30637F
:10275000A9F82E20B8EEC00AF8EE410A0EF0D8FD16
:1027600004F0AAFFD7E91212706701EB810002EBB7
:10277000820140004900C6E9170140F67C10C2F210
:1027800000000068D8F83C10406A4FF47A7201FBF0
:10279000020040F29021C2F200010022C1E91002C1
:1027A00040F2E030C2F20000012180F85F1080F8B2
:1027B000691080F8631001B0BDE8F0832DE9F04F97
:1027C00089B040F26045C2F20005B5F864000138F6
:1027D000072800F232810FF2080101EB80018F46D9
:1027E00000F00EB800F055B800F079B800F080B8ED
:1027F00000F086B800F08CB800F09EB800F0FCB88D
:1028000040F2E036C2F2000696F85300012818D1D3
:1028100004F052FF40F2506140F60004C2F20001A1
:10282000C4F202248864204608210022002704F014
:102830003DFF04F580600421002204F037FF86F894
:102840005370F07B012840F21820C2F2000018D12A
:1028500040F20001C2F2000141F288328A65C26A88
:10286000D0F82F300121C0F833200022F172C0F8D7
:102870003630717786F87C1086F82F20F27086F853
:102880006B10002186F82510C162C0F82F100120BE
:1028900027E00020A5F8640040F20000C2F200002A
:1028A00040F2E031D0E91202C2F2000191F8587012
:1028B00040F25063C2F20003002F18655A6540F0E1
:1028C000BC80E88D002840F0B88001224FF0FF3036
:1028D00081F8582009B0BDE8F04F0EF005BC00218A
:1028E0000320A5F8641009B0BDE8F04F0EF0FCBB62
:1028F0000020A5F8640009B0BDE8F04F0EF042BF1B
:102900000020A5F8640009B0BDE8F04F0EF078BED5
:102910000F20FEF757FA40F2E030C2F2000090F8C4
:102920007B10012940F089800021A5F8641080F80F
:102930007B1009B0BDE8F08F40F2E036C2F200062D
:1029400096F87E00012878D104F0B6FE40F250647B
:1029500040F29C17C2F20004C2F20007A06440F2E9
:102960000009386E49F2507BC2F20009C0F6010B33
:102970000021D9F848205BF820300691029100919F
:1029800001219A4201914FF0030205914FF002019B
:1029900003920491CDE9072113D149F2747AC0F66C
:1029A000010AD9F84C105AF82020914209D1E98D3A
:1029B000002902BF96F84B1096F8522051EA020106
:1029C0003ED0092839D1B5F85E0002282BD13079E4
:1029D00099F80B10884226D10020A5F864003866CB
:1029E00040F60000C4F202204FF48071012204F08E
:1029F0005DFE09B0BDE8F08FFEF74AFC40F2E03022
:102A0000C2F2000090F86A10012916D1002180F866
:102A10006A1040F2DC40C2F20000A5F86410C16305
:102A200009B0BDE8F08F00246420A5F8644001F0EF
:102A300047F807203C66A5F8640009B0BDE8F08FB0
:102A400096F84500002804BF40F20110A6F84200A5
:102A5000642001F035F8396E481C07293866B0DC6F
:102A6000012186F85210694696F8532051F820004B
:102A700040F60008012AC4F20228A5F8660010D129
:102A800004F01AFEA064404608210022002404F04D
:102A90000DFE08F580600421002204F007FE86F890
:102AA000534040464FF48071002204F0FFFD386E21
:102AB00040F2DC445BF820105AF82000C2F2000417
:102AC000C4E909100AF07AF8386E01212161E16148
:102AD00077E70000704700002DE9F04F81B02DED41
:102AE000108B40F2D45AC2F2000ADAF8140001281E
:102AF00040F0B28140F65856C2F200063046FDF76B
:102B00007BFE002848BF404215F0D3FF8046304688
:102B10008946FDF76BFF002848BF404215F0C9FF0A
:102B200040F2000BC2F2000B0446DBF85C000D46DD
:102B300015F0BFFF9BED1C0B56EC107B33463A465D
:102B400015F0C6FD02460B462046294616F060FAEF
:102B500042464B4616F07FFB002840F0578140F27A
:102B6000E039C2F2000999F83900012840F04E819D
:102B700040F2DC48C2F20008D8F84000002840F0DB
:102B80004581D8F8000016F02DFB02460B4638466A
:102B9000314616F031F841EC100B4FF08040002127
:102BA00040EC181BB0EE481AF0EE681A13F0BCFFA8
:102BB00051EC100B15F09EFC09EE100ABBF82A0030
:102BC00015F08EFFB0EE481A41EC100BF0EE681ACB
:102BD00013F0AAFF51EC100B15F08CFC00EE100A5C
:102BE0009BED172A39EE400AB6EE001A20EE010AD4
:102BF000B8EEC21A9AED128A80EE010A9AED13AA73
:102C0000BBF82A00B0EECA1A02EE100AB0EEC0BA43
:102C1000B0EEC80AB4EE410A8AED11BAB8EE429A93
:102C2000F1EE10FA0ADA2AEE090A8AED149A80EE19
:102C3000081AB0EE490AB0EE419A05E028EE090AFA
:102C400080EE0A0A8AED140A10EE100A8AED159A2F
:102C500016F0C8FA9BED1C0B54EC105B23462A4679
:102C600015F036FD15F046FC06460DEE100A1BEE7B
:102C7000100A16F0B7FA2A46234615F029FD15F07A
:102C800039FC0021B7EE00EA0CEE101A0021B4EE78
:102C90004CDAF1EE10FAB8BF012198ED000A98ED78
:102CA00001FA3DEE400ABFEE00DA89F83710B5EEC2
:102CB000400ACAF818608AED080AF1EE10FACAF85C
:102CC0001C007EFE0D8ACAED098A16F08BFA4AF6C0
:102CD000FC1246F24D23CDF2F122C3F6507315F0EB
:102CE0008BFF064618EE900A0F4616F07BFA024656
:102CF0000B463046394615F07FFF15F0FBFBCAF84E
:102D000028000120CAF8140040F67C10C2F200002E
:102D100040F25061C846D0F80090C2F20001CF6B7B
:102D2000D9F824004FF47A7107FB010040F290219A
:102D3000C2F2000100222AEE0B0AC1E9060219EED6
:102D4000100A80EE088A16F04DFA2A46234615F03E
:102D5000BFFC15F0CFFB064609EE100A18EE100A6C
:102D600016F040FA2A46234615F0B2FC15F0C2FBD5
:102D7000B4EE4C9A39EE4F0AF1EE10FA4FF0000122
:102D8000B5EE400AB8BF012188F83810F1EE10FA0C
:102D9000CAF830603EFE0D8ACAF834008AED0E0A89
:102DA0008AED0F8A16F01EFA4AF6FC1246F24D23FF
:102DB000CDF2F122C3F6507315F01EFF044618EE53
:102DC000100A0D4616F00EFA02460B46204629461A
:102DD00015F012FF15F08EFB0122CAF84000CAF868
:102DE0002C20D9F824004FF47A7107FB010040F23F
:102DF00090230021C2F20003C3E9080141F28830A8
:102E0000CBF8580088F80B2088F8391040F6585451
:102E1000C2F200042046FDF7EFFC05462046FDF710
:102E2000E5FD854218D140F61064C2F20004204648
:102E3000FDF7E2FC05462046FDF7D8FD85420BD1A3
:102E40000020CAF81400CAF82C0040F2E030C2F2A8
:102E50000000012180F83A10BDEC108B01B0BDE8F4
:102E6000F08F0000012000F0A5BF000072B600BF87
:102E7000FEE7000070B542F220060446C4F20206E6
:102E800004F01AFC316811F00B0F20D0BCB30546DA
:102E9000601C11D1306810F00B0F18D0306810F0A2
:102EA0000B0F14D0306810F00B0F10D0306810F0FA
:102EB0000B0FEFD10BE000BF04F0FEFB401BA04264
:102EC00084BF032070BD306810F00B0FF4D1306860
:102ED00010F41E0009D040F2A001C2F200014A68BD
:102EE00002434A603061012070BD3068C0035CBF9E
:102EF000002070BD4FF480303061002070BD04F0C0
:102F0000DBFB032070BD000040F28470C2F20000C1
:102F100000F0F4BB40F2FC70C2F2000000F0EEBB27
:102F200040F67400C2F2000000F0E8BB00284FF049
:102F3000010218BF002901D110467047B0B5D0E991
:102F400004C2C369D0F818E01A43C36B1A4342EABB
:102F50000C0242EA0E020A6003789B0616D5D0E9FD
:102F600009C3D0F82CE04FF07C75846B05EB03535C
:102F70004FF47C7505EB0C1542EA0E0203F07C73EE
:102F8000224305F47C751A432A430A604268036BA6
:102F900040F2FF252A401A434A60C368B3F5007F18
:102FA00008D0B3F5806F08D103789B0605D542F4AD
:102FB000806201E042F400724A60436B1A434A6047
:102FC000436C43B1856C046C1A4305F03F05224302
:102FD00042EA05424A60B0F8682040F2000C8A607C
:102FE0000378C0F2FF7C9B0722D5C36C0CEB034334
:102FF00003EA0C031A438A60036D002B48BF02F1F9
:1030000080528A60436D002B48BF02F100528A60F3
:10301000836D22F08045002B48BF42F080458D60D3
:10302000C26D25F00043002A48BF45F000438B6085
:10303000026ECA60426E0A610278920720D5026D64
:103040000023002A48BF52426FF35F324A61456D48
:103050002C04002D48BFA3EB05440CF1C0552540BE
:103060002A444A61826D002A48BF524292B28A6164
:10307000C56D2C04002D48BFA3EB054422448A6192
:10308000006882074FF4E06258BF4FF4A06210431B
:1030900000220862BDE8B04010467047B0B5044653
:1030A00004F00AFB002C04BF0120B0BD002105463E
:1030B000206884F84C10022184F85410416941F0D2
:1030C000060141614169C90709D000BF04F0F4FA63
:1030D000401B052850D820684169C907F6D14FF632
:1030E000B072CBF6FD7202446FF01F03A16B03EBCD
:1030F000F213E56B082B41EA050103D34FEAF21204
:10310000072A01D8226C1143426922F44302114379
:10311000416100210164626C426441F24F32C4F2A9
:10312000020290428164C16401650CDC40F25031BE
:10313000C4F20201884212D040F2D031C4F202013E
:1031400088420CD00EE041F2D031C4F20201884234
:1031500005D041F25031C4F20201884202D100216F
:10316000416581650021C167A06C012220650020B6
:10317000A16584F85420B0BD012003221021A1656F
:1031800084F85420B0BD00002DE9F04300284FF032
:10319000010318BF002A02D11846BDE8F083436935
:1031A000012B04D1042101610120BDE8F0830568F1
:1031B00042EA01030F462B43002908BF1746002DA2
:1031C00018BF2F467B40B3F5803F08D265B195F814
:1031D000203061B191F82070BB42E3D107E00521B6
:1031E00001610120BDE8F08331B191F8203092F8FF
:1031F0002070BB42D6D100E0176A0223037300237C
:1032000040F2000C03617B08CFF6010C63F3596CAC
:1032100063F39A6C07F00203002D03F1050E47D00B
:10322000002950D0D0F808904FF6FC7311EA03043F
:103230004FF0000755D0B9F1000F4FF0000351D007
:103240004FF6FF739D4300274FF6FC78002345EAB5
:1032500007060746002B18BF06EB8E073F685E1C6B
:103260004E4507EA080737D2A74235D045EA070698
:1032700056F82E709E1C4E4507EA08072CD2A7422E
:103280002AD045EA070656F82E70DE1C4E4507EA9E
:10329000080721D2A7421FD045EA070656F82E603C
:1032A00004334B4506EA08071CD2A742CFD119E0E8
:1032B000A1B14FF6FC731A4042EA0C02016041F8DA
:1032C0002E2002212DE04FF6FC71294041EA0C012D
:1032D00042F82E10026022E0334603E00260012132
:1032E0001FE00023A74209D14B450DD143687BB1B4
:1032F0004FF6FC74234043EA0C0307E00621012348
:1033000001611846BDE8F08351F82E3042F82E30A6
:103310004FF6FC731A4042EA0C0241F82E208168F5
:103320000131816000230121036101731846BDE86A
:10333000F083000000284FF0010218BF002901D1DE
:103340001046704790F8543090F85420052B18BF61
:10335000022A06D140218165002180F84C1001200D
:1033600070470A7B022A03D1012210460A61704786
:10337000026841F24F33C4F202039A4208DC40F281
:103380005033C4F202039A420ED040F2D03307E029
:1033900041F25033C4F202039A4205D041F2D033D5
:1033A000C4F202039A420ED1036D4A68812B04D104
:1033B0002AB10022416710467047002AF9D0042044
:1033C0000861012070470A6892F820209207EBD527
:1033D00003200861012070472DE9F043002804BF55
:1033E0000120BDE8F083D0F800E0BEF1000F07D067
:1033F000416851B1714504BF0020BDE8F08307E08A
:10340000022101610120BDE8F0834169012904D155
:10341000042101610120BDE8F08302210173002134
:103420000161DEF8202040F2000C5308CFF6010CB9
:10343000846863F3596C02F0020263F39A6C02F140
:1034400005035CB14FF6FF72651E2EEA0202032DE2
:1034500004F0030804D20025002623E0002542E002
:10346000A4EB080900254FF6FC7400261543074617
:10347000002E18BF05EB83073D6804362540154331
:1034800055F82350B14505EA040545EA020555F80B
:10349000235005EA040545EA020555F8235005EADC
:1034A0000405E3D1B8F1000F1DD042EA050405463A
:1034B000002E18BF04EB83052D684FF6FC74B8F19D
:1034C000010F05EA04050ED0154355F82350B8F155
:1034D000020F05EA040506D02A4352F823204FF6CE
:1034E000FC7402EA04054FF6FF724FF6FC742EEAF4
:1034F000020204EA0E042A4344EA0C0742F823704D
:103500000122C0F804E0016102730846BDE8F083BF
:1035100080B5002856D0436F002B53D090F854103C
:10352000D0F800E00129DEF814C004D002294BD104
:103530001CF4803148D090F8541001293AD190F809
:103540004C1001294FF0020144D0012280F84C2098
:1035500080F854101973002181651961DEF8141088
:1035600041F4BA41CEF81410416E29B1DEF81410BE
:1035700041F40071CEF81410006F28B1DEF8140089
:1035800040F40050CEF8140018680022016ACFF60B
:103590000102490861F3596261F39A624FF6FF71C3
:1035A00020EA0101CEF800104FF6FC7108401044EB
:1035B000CEF87C00DEF8140040F00100CEF81400D4
:1035C000002080BD012080BD40218165002180F860
:1035D0004C100121084680BDB0B5044604F06CF8DB
:1035E000002C04BF0120B0BD054694F85400022809
:1035F0002DD12168486940F004004861052084F815
:1036000054000869800408D404F056F8401B0528CB
:1036100024D8216808698004F6D54869012240F061
:1036200002004861042084F854004FF4FE40C86052
:1036300084F8542094F8500000064FF0000002D5A2
:10364000636F1A738864002184F84C10B0BD202089
:10365000A0650120002184F84C10B0BDA06D40F0A1
:103660001000A065032084F8540094F85000000670
:103670004FF0010044BF616F0873002184F84C10C3
:10368000B0BD0000002804BF0120704790F854101E
:1036900002290AD1042180F85410006842F2040281
:1036A000416911434161002070472021816501205B
:1036B00070470000024600284FF0010008BF704725
:1036C000126802F57B63C3F3C41CCB065CBF002009
:1036D000704740F6FF7301F011019A43112900FA77
:1036E0000CF004D1516808435060002070475168C5
:1036F00021EA0000506000207047000010B5044629
:1037000000680C22034600F57B6162F30B03C1F3F2
:10371000C4111A6822FA01F1C90700F0A3800169F7
:10372000490544BF41695FEA41514BD4016909052C
:1037300044BF41695FEA01514CD40169C90444BFE7
:1037400041695FEAC1414DD40169490444BF4169FF
:103750005FEA41414ED40169890544BF41695FEA8E
:1037600081514FD40169890444BF41695FEA8141B5
:1037700052D40169C90544BF41695FEAC15172D49D
:10378000A06D002808BF10BD2068416941F002010A
:1037900041614069C0074FF0030008BF012084F871
:1037A000540094F85000000602D5606F01210173A7
:1037B000A16E0020002984F84C0053D02046BDE8BB
:1037C000104008474FF48061C160A16D41F00101D4
:1037D000A165ABE74FF40061C160A16D41F002014A
:1037E000A165AAE74FF48051C160A16D41F00401C9
:1037F000A165A9E74FF48041C160A16D41F00801C6
:10380000A165A8E74FF40071C160616E0029A9D0DD
:10381000204688472068A5E74FF40051C16094F81E
:10382000541004292AD1416921F4005141614169B0
:1038300041F0020141614169C9074FF0030108BF2E
:10384000012184F8541094F85010090604D5616FD2
:1038500001220A7300218164E16E0020002984F8AE
:103860004C00ABD110BD94F85010090611D4816CF6
:10387000002904BF012184F8541013E0052184F8C5
:103880005410216F00293FF474AF20468847206808
:103890006FE7C16F31B9816C21B9012184F85410EF
:1038A000626F11734FF44071C160216E00200029D6
:1038B00084F84C001CBF2046884761E7B0B5044639
:1038C00003F0FAFE002C04BF0120B0BD0021054624
:1038D000206884F84C10022184F85410416941F0AA
:1038E000060141614169C90709D000BF03F0E4FE48
:1038F000401B05284FD820684169C907F6D1216AC5
:10390000426904F1100C22F4430211434161E3695E
:103910009CE806101A4311434FF6B072CBF6FD72C5
:1039200083186FF01F0202EBF31541EA0C02082D19
:103930004FEAF31C28BFBCF1070F14D804F1240E82
:103940009EE828404FF07C7101EB05514FF47C75E7
:1039500005EB031301F07C7142EA0E0203F47C7361
:10396000114341EA03020264A1682279E36811432A
:10397000226BB3F5007F42EA010213D0B3F5806FEA
:1039800012D1ACF12001082928BFBCF1070F98BF64
:1039900042F4806208E0012003211022A26584F82D
:1039A0005410B0BD42F40072616B436C42F20015DA
:1039B000C3F6C0450A432B401A4341F24F33C4F2C9
:1039C000020342640022984282640CDC40F25032CE
:1039D000C4F20202904212D040F2D032C4F202028B
:1039E00090420CD00EE041F2D032C4F2020290427A
:1039F00005D041F25032C4F20202904202D10022BC
:103A0000426582650022C267216501210020A2650E
:103A100084F85410B0BD000010B500284DD090F8C7
:103A20004CC0BCF1010F04BF022010BD4FF0010CCF
:103A300080F84CC090F854C0BCF1010F38D14FF061
:103A4000020C80F854C04FF0000CC0F858C0D0F8F9
:103A500000C0D0F864E0DCF84840BEF1000FC3EAD3
:103A60000403CCF848304FF4FE43CCF80C30CCF8CB
:103A70004C10CCF85020DCF8141041F4BA41CCF8CA
:103A8000141005D0DCF8141041F40071CCF81410B7
:103A9000006F28B1DCF8140040F40050CCF814009A
:103AA000DCF8140040F00100CCF81400002010BD38
:103AB00040218165002180F84C10012010BD0000DC
:103AC000B0B5044603F0F8FD054640F27800C2F2B6
:103AD00000000078611C18BF044400BF03F0ECFD37
:103AE000401BA042FAD3B0BD2DE9F04F81B040F2A7
:103AF000A00BC2F2000B9BF80020012A02BF02209B
:103B000001B0BDE8F08F044601208BF800000026CC
:103B10004FF47A708946CBF80460FFF7ABF920B117
:103B20008BF8006001B0BDE8F08F206848F2080211
:103B300020F0004142F228079142C4F20207CBF87C
:103B4000080007D1606800F00301032936D148F26C
:103B5000200042E04FF0FF30C9F80000D4E90250E5
:103B60002844854241D24FF6D77A4EF23F08C7F635
:103B7000FF7AAE01C7F6FF786068414610F0010099
:103B8000386808BF6FF4FE514FF0240200EA0100CC
:103B90003860386808BF0AF14D023043104338607E
:103BA0004FF47A70FFF766F908BBD4E902010135DA
:103BB000403608448542DFD300201AE0C1074FF6A3
:103BC000D771C7F6FF7104D03A680A4042F0280264
:103BD0003A60800704D501F1510039680843386024
:103BE0004FF47A70FFF746F904E0002002E0C9F8CC
:103BF0000050002621684FF000423B6862EA010154
:103C0000194039608BF8006001B0BDE8F08F00000A
:103C100040F2A000C2F200004068704742F2280063
:103C2000C4F20200016841F0010101600068012155
:103C300021EA0000704700002DE9F04381B040F216
:103C4000A009C2F20009154699F80020012A02BF16
:103C5000022001B0BDE8F0838046012089F8000011
:103C6000002042F220040E46C4F20204C9F8040007
:103C700003F022FD216811F00B0F0BD0074600BFA7
:103C800003F01AFDC01BB0F57A7F14D8206810F03D
:103C90000B0FF5D1206810F41E0013D0D9F80410D2
:103CA0000143C9F8041020610120002189F80010A7
:103CB00001B0BDE8F0830320002189F8001001B0B5
:103CC000BDE8F0832068C00344BF4FF4803020611A
:103CD00028F000400228C9F8088017D1A06840F0F9
:103CE0000200A060EFF3108072B629683160696845
:103CF0007160A968B160E968F16080F3108803F031
:103D0000DBFC216811F00B0F0CD117E0A06840F02C
:103D10000200A0602888308003F0CEFC216811F0FA
:103D20000B0F0BD0054600BF03F0C6FC401BB0F5DF
:103D30007A7F0FD8206810F00B0FF5D1206810F4AF
:103D40001E0009D0D9F804100143C9F804102061FD
:103D5000012008E0032006E02068C00344BF4FF4C0
:103D60008030206100204FF02041A26861EA080104
:103D70001140A160002189F8001001B0BDE8F08376
:103D800042F20400C4F20200416AC90704BF0020E5
:103D9000704740F22311C4F26751016048F6AB113D
:103DA000CCF6EF510160406A00F00100704700005E
:103DB00070470000B0B542F20C05C4F20245296814
:103DC0000446014203D020462C6000F00BF86868DE
:103DD000204208BFB0BD20466C60BDE8B040FFF790
:103DE000E7BF00002DE9F04F81B040F28431C2F20C
:103DF0000001B1F8442040F2506840F67C1540F2D2
:103E0000083A40F2182B8242C2F20008C2F20005C2
:103E1000C2F2000AC2F2000B43F02A8340F260496A
:103E200040F2E032C2F20009C2F2000299F8090041
:103E300092F82420104343F01B832868D8F83C20D4
:103E4000406A4FF47A7302FB0300DAE90623002785
:103E5000801A01F1300467EB0302CAE908020AF193
:103E60003C0120460C2207F0DDFFDBF81010002398
:103E70000844CBF8100000BF0AEB070090F83C6044
:103E800090F83D2073405EB25D0090F83E10C6F39E
:103E9000C2166DB286EA4303C5F3C2165D0086EA18
:103EA00043036EB25D00C6F3C2166DB286EA4303E9
:103EB000C5F3C2165D0086EA43036EB25D00C6F329
:103EC000C2166DB286EA4303C5F3C2165D0086EAE8
:103ED00043036EB25D00C6F3C2166DB286EA4303B9
:103EE000C5F3C216082F86EA430382EA030253B2DF
:103EF0004FEA4206C3F3C21376B283EA4202C6F324
:103F0000C2134FEA420683EA420273B24FEA420604
:103F1000C3F3C21376B283EA4202C6F3C2134FEA76
:103F2000420683EA420273B24FEA4206C3F3C21367
:103F300076B283EA4202C6F3C2134FEA420683EA2C
:103F4000420273B24FEA4206C3F3C21376B283EA67
:103F50004202C6F3C21383EA420281EA02014AB274
:103F60004FEA4103C2F3C2125BB282EA4101C3F3DA
:103F7000C2124FEA410382EA41015AB24FEA4103B9
:103F8000C2F3C2125BB282EA4101C3F3C2124FEA2A
:103F9000410382EA41015AB24FEA4103C2F3C2121D
:103FA0005BB282EA4101C3F3C2124FEA410382EAE3
:103FB00041015AB24FEA4103C2F3C2125BB282EA34
:103FC0004101C3F3C21282EA410233D090F83F00AC
:103FD0000437504041B24200C1F3C21152B281EAEB
:103FE0004000C2F3C211420081EA400051B24200D7
:103FF000C1F3C21152B281EA4000C2F3C2114200C1
:1040000081EA400051B24200C1F3C21152B281EACA
:104010004000C2F3C211420081EA400051B24200A6
:10402000C1F3C21152B281EA4000C2F3C21181EA67
:10403000400321E79AF84700D1B240F67C1581424F
:10404000C2F20005009489F80A2043F01182B9F801
:104050002C309AF83D40D9B28C4243F009829AF84C
:104060003E00B0EB132F43F003829AF83C6089F8CE
:104070000D009AF84400DBF8147089F80B60BAF868
:10408000456089F8130040F2E03040F20008C2F2C7
:104090000000C2F20008013789F80C40A9F814604A
:1040A000067998F80A40CBF81470012789F809704E
:1040B0009AF83FC09AF840E09AF841709AF84200A6
:1040C000A6429AF8434089F80EC089F80FE089F8B3
:1040D000107089F8110089F8124089F8162036D13D
:1040E00098F80920464640F250689445C2F200080C
:1040F00043F0A78147EA0E2244EA002040F2E0356F
:10410000C2F20005A9F85820A0F5487295F8497048
:104110001B0AC82AA9F85A0000F23082009C002F1E
:1041200040F02D820120A5F8480040F60000C4F2BE
:1041300002204FF48071012203F0B8FAB9F82C0084
:1041400096F809C095F84970C1B2030A17E298F8C9
:104150000D0040F250688642C2F2000843F07181BF
:1041600040F2E030C2F2000090F87E0001280ED04C
:1041700040F20000C2F20000007A844507D040F20D
:104180000000C2F200008079844543F05A8103F0B8
:1041900093FACBF80C0003F08FFA40F2E036C2F24B
:1041A000000696F8531040F2585740F20004C2F24D
:1041B00000070129C2F2000478641ED19AF83F007A
:1041C000A179884219D003F077FA40F60005C4F2CD
:1041D0000225C8F84800284608210022002403F0E0
:1041E00065FA05F580600421002203F05FFA86F885
:1041F000534040F20004C2F200049AF83F00A17953
:10420000884207D003F058FAC8F8480003F054FA7F
:10421000C8F84400B07C40F67C150028C2F20005C6
:1042200079D097ED070A97ED0B1AB0EEC00AB646A3
:1042300097ED0E2ABDEEC00A99F8172010EE101A5D
:10424000B0EEC10A99F8183099F81970FF2A08BF22
:104250004FF0FF3189F81710BDEEC00AFF2B10EEAA
:10426000102AB0EEC20A08BF4FF0FF3289F81820BA
:10427000BDEEC00AFF2F10EE103A08BF4FF0FF331B
:1042800040F2DC479EF80650C2F200073F8C05F072
:104290000105A046B9F840406D03767945EA8737B5
:1042A00004F4706506F001062F44B9F82C5047EA73
:1042B000063CFF268AF830608AF831502E0AD8E989
:1042C00012578AF836104FEA1C21132889F8193042
:1042D0008AF832608AF833008AF834508AF83570E8
:1042E0008AF837208AF838308AF839408AF83A1044
:1042F00000F043821228009840F25068C2F2000891
:1043000040F04A8299F81A100AF137028AF83610FA
:1043100009F11B013EE29AF83F002178884240F003
:104320001E8396F84610DDF800C0002940F0268470
:10433000B9F82E10002940F0218499F81C100129A9
:1043400040F01C84D4E912579AF840209AF84210A1
:104350009AF841309542A9F8661089F81A2089F830
:104360001B3040F01B859F4240F01B858AF83300CC
:1043700040F2DC40C2F200008AF83620D0E9092081
:104380003446B9F82C608AF8382094F8282040F296
:10439000000401218AF83160360AC2F200048AF86A
:1043A00039008AF83A20002000228AF830108AF872
:1043B00032608AF834508AF835708AF837305140C4
:1043C0004AB24B00C2F3C2125BB282EA4101C3F3AC
:1043D000C2124B0082EA41015AB24B00C2F3C21230
:1043E0005BB282EA4101C3F3C2124B0082EA41018F
:1043F0005AB24B00C2F3C2125BB282EA4101C3F36C
:10440000C2124B0082EA41015AB24B00C2F3C212FF
:104410005BB282EA4101C3F3C212082882EA410377
:104420000AEB000191F8317091F8322083EA07031A
:104430005FB24FEA4306C7F3C21776B287EA430377
:10444000C6F3C2174FEA430687EA430377B24FEA3F
:104450004306C7F3C21776B287EA4303C6F3C2170F
:104460004FEA430687EA430377B24FEA4306C7F3AE
:10447000C21776B287EA4303C6F3C2174FEA430670
:1044800087EA430377B24FEA4306C7F3C21776B20F
:1044900087EA4303C6F3C21787EA430382EA0302AB
:1044A00053B24FEA4207C3F3C2137FB283EA420218
:1044B000C7F3C2134FEA420783EA42027BB24FEAD4
:1044C0004207C3F3C2137FB283EA4202C7F3C213A7
:1044D0004FEA420783EA42027BB24FEA4207C3F344
:1044E000C2137FB283EA4202C7F3C2134FEA420704
:1044F00083EA42027BB24FEA4207C3F3C2137FB2A0
:1045000083EA4202C7F3C21383EA420200F08986BB
:1045100091F8333091F834105A4053B25700C3F336
:10452000C2137FB283EA4202C7F3C213570083EA81
:1045300042027BB25700C3F3C2137FB283EA420246
:10454000C7F3C213570083EA42027BB25700C3F39A
:10455000C2137FB283EA4202C7F3C213570083EA51
:1045600042027BB25700C3F3C2137FB283EA420216
:10457000C7F3C213043083EA420220E7009C4FF0E5
:10458000FF3001228AF83110CAF83500AAF8390044
:10459000002000218AF830208AF832308AF833C0AF
:1045A0008AF8347051404AB24B00C2F3C2125BB277
:1045B00082EA4101C3F3C2124B0082EA41015AB2BE
:1045C0004B00C2F3C2125BB282EA4101C3F3C212D2
:1045D0004B0082EA41015AB24B00C2F3C2125BB2F5
:1045E00082EA4101C3F3C2124B0082EA41015AB28E
:1045F0004B00C2F3C2125BB282EA4101C3F3C212A2
:10460000082882EA41030AEB000191F8317091F821
:10461000322083EA07035FB24FEA4306C7F3C217AB
:1046200076B287EA4303C6F3C2174FEA430687EA26
:10463000430377B24FEA4306C7F3C21776B287EA5D
:104640004303C6F3C2174FEA430687EA430377B230
:104650004FEA4306C7F3C21776B287EA4303C6F3AD
:10466000C2174FEA430687EA430377B24FEA43068D
:10467000C7F3C21776B287EA4303C6F3C21787EAC5
:10468000430382EA030253B24FEA4207C3F3C21361
:104690007FB283EA4202C7F3C2134FEA420783EABA
:1046A00042027BB24FEA4207C3F3C2137FB283EAEE
:1046B0004202C7F3C2134FEA420783EA42027BB2C7
:1046C0004FEA4207C3F3C2137FB283EA4202C7F341
:1046D000C2134FEA420783EA42027BB24FEA420723
:1046E000C3F3C2137FB283EA4202C7F3C21383EA61
:1046F000420336D091F8337091F8342087EA0301F1
:104700004BB24F00C3F3C2137FB283EA4101C7F338
:10471000C2134F0083EA41017BB24F00C3F3C213BF
:104720007FB283EA4101C7F3C2134F0083EA41011C
:104730007BB24F00C3F3C2137FB283EA4101C7F3D8
:10474000C2134F0083EA41017BB24F00C3F3C2138F
:104750007FB283EA4101C7F3C213043083EA410107
:1047600020E7DBF818008AF83B3001300AF130010D
:10477000CBF81800204602F05CBE99F82E0040F2FB
:1047800050688AF8340000980AF135020EF12401CD
:10479000C2F20008097811700025FF21002200BF35
:1047A00051404AB24B00C2F3C2125BB282EA4101ED
:1047B000C3F3C2124B0082EA41015AB24B00C2F36A
:1047C000C2125BB282EA4101C3F3C2124B0082EA19
:1047D00041015AB24B00C2F3C2125BB282EA4101FC
:1047E000C3F3C2124B0082EA41015AB24B00C2F33A
:1047F000C2125BB282EA4101C3F3C212082D82EAFF
:1048000041030AEB050191F8317091F8322083EAF7
:1048100007035FB24FEA4306C7F3C21776B287EACF
:104820004303C6F3C2174FEA430687EA430377B24E
:104830004FEA4306C7F3C21776B287EA4303C6F3CB
:10484000C2174FEA430687EA430377B24FEA4306AB
:10485000C7F3C21776B287EA4303C6F3C2174FEA1B
:10486000430687EA430377B24FEA4306C7F3C2170A
:1048700076B287EA4303C6F3C21787EA430382EAA4
:10488000030253B24FEA4207C3F3C2137FB283EA73
:104890004202C7F3C2134FEA420783EA42027BB2E5
:1048A0004FEA4207C3F3C2137FB283EA4202C7F35F
:1048B000C2134FEA420783EA42027BB24FEA420741
:1048C000C3F3C2137FB283EA4202C7F3C2134FEAB3
:1048D000420783EA42027BB24FEA4207C3F3C213A4
:1048E0007FB283EA4202C7F3C21383EA420202F0B4
:1048F000978591F8333091F834105A4053B25700ED
:10490000C3F3C2137FB283EA4202C7F3C213570054
:1049100083EA42027BB25700C3F3C2137FB283EA39
:104920004202C7F3C213570083EA42027BB2570028
:10493000C3F3C2137FB283EA4202C7F3C213570024
:1049400083EA42027BB25700C3F3C2137FB283EA09
:104950004202C7F3C213043583EA420220E76178BA
:10496000DDF800C0884240F0108140F2DC47C2F21E
:1049700000077969002940F0708499F81C1001291A
:1049800040F06B84F17B012940F06284B9F82C205F
:104990008AF833008AF83120120A8AF832203A6AFB
:1049A0004FF0FF3001218AF83420CAF836008AF827
:1049B0003A00002000228AF830108AF83510514061
:1049C0004AB24B00C2F3C2125BB282EA4101C3F3A6
:1049D000C2124B0082EA41015AB24B00C2F3C2122A
:1049E0005BB282EA4101C3F3C2124B0082EA410189
:1049F0005AB24B00C2F3C2125BB282EA4101C3F366
:104A0000C2124B0082EA41015AB24B00C2F3C212F9
:104A10005BB282EA4101C3F3C212082882EA410371
:104A20000AEB000191F8317091F8322083EA070314
:104A30005FB24FEA4306C7F3C21776B287EA430371
:104A4000C6F3C2174FEA430687EA430377B24FEA39
:104A50004306C7F3C21776B287EA4303C6F3C21709
:104A60004FEA430687EA430377B24FEA4306C7F3A8
:104A7000C21776B287EA4303C6F3C2174FEA43066A
:104A800087EA430377B24FEA4306C7F3C21776B209
:104A900087EA4303C6F3C21787EA430382EA0302A5
:104AA00053B24FEA4207C3F3C2137FB283EA420212
:104AB000C7F3C2134FEA420783EA42027BB24FEACE
:104AC0004207C3F3C2137FB283EA4202C7F3C213A1
:104AD0004FEA420783EA42027BB24FEA4207C3F33E
:104AE000C2137FB283EA4202C7F3C2134FEA4207FE
:104AF00083EA42027BB24FEA4207C3F3C2137FB29A
:104B000083EA4202C7F3C21383EA420201F0AC8592
:104B100091F8333091F834105A4053B25700C3F330
:104B2000C2137FB283EA4202C7F3C213570083EA7B
:104B300042027BB25700C3F3C2137FB283EA420240
:104B4000C7F3C213570083EA42027BB25700C3F394
:104B5000C2137FB283EA4202C7F3C213570083EA4B
:104B600042027BB25700C3F3C2137FB283EA420210
:104B7000C7F3C213043083EA420220E7DBF81810BF
:104B8000042089F81E00481C6AE3A178884240F09E
:104B9000328296F8421096F8442096F84630114337
:104BA000194340F05A83B9F82C2040F201118AF8D9
:104BB0003120120A8AF832204FF0FF32A6F8421054
:104BC00001218AF833000020CAF83520AAF83920DC
:104BD000002286F846108AF830108AF834005140D6
:104BE0004AB24B00C2F3C2125BB282EA4101C3F384
:104BF000C2124B0082EA41015AB24B00C2F3C21208
:104C00005BB282EA4101C3F3C2124B0082EA410166
:104C10005AB24B00C2F3C2125BB282EA4101C3F343
:104C2000C2124B0082EA41015AB24B00C2F3C212D7
:104C30005BB282EA4101C3F3C212082882EA41034F
:104C40000AEB000191F8317091F8322083EA0703F2
:104C50005FB24FEA4306C7F3C21776B287EA43034F
:104C6000C6F3C2174FEA430687EA430377B24FEA17
:104C70004306C7F3C21776B287EA4303C6F3C217E7
:104C80004FEA430687EA430377B24FEA4306C7F386
:104C9000C21776B287EA4303C6F3C2174FEA430648
:104CA00087EA430377B24FEA4306C7F3C21776B2E7
:104CB00087EA4303C6F3C21787EA430382EA030283
:104CC00053B24FEA4207C3F3C2137FB283EA4202F0
:104CD000C7F3C2134FEA420783EA42027BB24FEAAC
:104CE0004207C3F3C2137FB283EA4202C7F3C2137F
:104CF0004FEA420783EA42027BB24FEA4207C3F31C
:104D0000C2137FB283EA4202C7F3C2134FEA4207DB
:104D100083EA42027BB24FEA4207C3F3C2137FB277
:104D200083EA4202C7F3C21383EA420201F09C8481
:104D300091F8333091F834105A4053B25700C3F30E
:104D4000C2137FB283EA4202C7F3C213570083EA59
:104D500042027BB25700C3F3C2137FB283EA42021E
:104D6000C7F3C213570083EA42027BB25700C3F372
:104D7000C2137FB283EA4202C7F3C213570083EA29
:104D800042027BB25700C3F3C2137FB283EA4202EE
:104D9000C7F3C213043083EA420220E79F4240F087
:104DA000658296F82800012840F06483F27B99F828
:104DB0001D30012A08BF002B21D142F21070A065DE
:104DC0000420F072202040F6000770700120C4F229
:104DD000022789F81D00384608210022654602F0A6
:104DE00065FC07F580600421002202F05FFC02F000
:104DF00063FCF27B99F81D30AC46CBF81C00B9F887
:104E00002C00E779AAF83100F0788AF833708AF834
:104E100034004FF6FF707778AAF83800FF200121A0
:104E20008AF835208AF83A00002000228AF83010EB
:104E30008AF836308AF8377051404AB24B00C2F3D4
:104E4000C2125BB282EA4101C3F3C2124B0082EA92
:104E500041015AB24B00C2F3C2125BB282EA410175
:104E6000C3F3C2124B0082EA41015AB24B00C2F3B3
:104E7000C2125BB282EA4101C3F3C2124B0082EA62
:104E800041015AB24B00C2F3C2125BB282EA410145
:104E9000C3F3C212082882EA41030AEB000191F829
:104EA000317091F8322083EA07035FB24FEA43067C
:104EB000C7F3C21776B287EA4303C6F3C2174FEAB5
:104EC000430687EA430377B24FEA4306C7F3C217A4
:104ED00076B287EA4303C6F3C2174FEA430687EA6E
:104EE000430377B24FEA4306C7F3C21776B287EAA5
:104EF0004303C6F3C2174FEA430687EA430377B278
:104F00004FEA4306C7F3C21776B287EA4303C6F3F4
:104F1000C21787EA430382EA030253B24FEA420709
:104F2000C3F3C2137FB283EA4202C7F3C2134FEA4C
:104F3000420783EA42027BB24FEA4207C3F3C2133D
:104F40007FB283EA4202C7F3C2134FEA420783EA01
:104F500042027BB24FEA4207C3F3C2137FB283EA35
:104F60004202C7F3C2134FEA420783EA42027BB20E
:104F70004FEA4207C3F3C2137FB283EA4202C7F388
:104F8000C21383EA420200F09E8291F8333091F816
:104F900034105A4053B25700C3F3C2137FB283EAAE
:104FA0004202C7F3C213570083EA42027BB25700A2
:104FB000C3F3C2137FB283EA4202C7F3C21357009E
:104FC00083EA42027BB25700C3F3C2137FB283EA83
:104FD0004202C7F3C213570083EA42027BB2570072
:104FE000C3F3C2137FB283EA4202C7F3C213043091
:104FF00083EA420220E7E178884240F07B82B9F8F8
:105000002E10002900F0CB8302218AF83010B9F865
:105010002C1096F85A208AF8330040F2CC608AF8B7
:105020003110090A012AC2F200008AF8321040F059
:10503000B285D0E91910CA1701EB12628AF8341050
:10504000110A8AF83510C11700EB11618AF8360091
:10505000080A8AF83700002002210022AAF8380046
:105060008AF83A0051404AB24B00C2F3C2125BB216
:1050700082EA4101C3F3C2124B0082EA41015AB2F3
:105080004B00C2F3C2125BB282EA4101C3F3C21207
:105090004B0082EA41015AB24B00C2F3C2125BB22A
:1050A00082EA4101C3F3C2124B0082EA41015AB2C3
:1050B0004B00C2F3C2125BB282EA4101C3F3C212D7
:1050C000082882EA41030AEB000191F8317091F857
:1050D000322083EA07035FB24FEA4306C7F3C217E1
:1050E00076B287EA4303C6F3C2174FEA430687EA5C
:1050F000430377B24FEA4306C7F3C21776B287EA93
:105100004303C6F3C2174FEA430687EA430377B265
:105110004FEA4306C7F3C21776B287EA4303C6F3E2
:10512000C2174FEA430687EA430377B24FEA4306C2
:10513000C7F3C21776B287EA4303C6F3C21787EAFA
:10514000430382EA030253B24FEA4207C3F3C21396
:105150007FB283EA4202C7F3C2134FEA420783EAEF
:1051600042027BB24FEA4207C3F3C2137FB283EA23
:105170004202C7F3C2134FEA420783EA42027BB2FC
:105180004FEA4207C3F3C2137FB283EA4202C7F376
:10519000C2134FEA420783EA42027BB24FEA420758
:1051A000C3F3C2137FB283EA4202C7F3C21383EA96
:1051B000420200F0E78591F8333091F834105A40FC
:1051C00053B25700C3F3C2137FB283EA4202C7F35C
:1051D000C213570083EA42027BB25700C3F3C213E3
:1051E0007FB283EA4202C7F3C213570083EA420246
:1051F0007BB25700C3F3C2137FB283EA4202C7F304
:10520000C213570083EA42027BB25700C3F3C213B2
:105210007FB283EA4202C7F3C213043083EA420238
:1052200020E7DBF818008AF83B2001300AF1300152
:10523000CBF8180060460C220F2306F05BFF40F607
:105240007C150920C2F2000589F8030001F01EBA9E
:1052500096F84610002900F0A083DBF81800013012
:10526000CBF818000AF1300101F007BA8AF83300D0
:1052700040F2DC40C2F200008AF83620D0E9092072
:105280001221B174B9F82C6000218AF83160360A15
:105290008AF83900FF208AF830108AF832608AF8DC
:1052A00034508AF835708AF837308AF838208AF80E
:1052B0003A000020002251404AB24B00C2F3C21211
:1052C0005BB282EA4101C3F3C2124B0082EA4101A0
:1052D0005AB24B00C2F3C2125BB282EA4101C3F37D
:1052E000C2124B0082EA41015AB24B00C2F3C21211
:1052F0005BB282EA4101C3F3C2124B0082EA410170
:105300005AB24B00C2F3C2125BB282EA4101C3F34C
:10531000C212082882EA41030AEB000191F83170B9
:1053200091F8322083EA07035FB24FEA4306C7F3DE
:10533000C21776B287EA4303C6F3C2174FEA4306A1
:1053400087EA430377B24FEA4306C7F3C21776B240
:1053500087EA4303C6F3C2174FEA430687EA4303CB
:1053600077B24FEA4306C7F3C21776B287EA430320
:10537000C6F3C2174FEA430687EA430377B24FEA00
:105380004306C7F3C21776B287EA4303C6F3C217D0
:1053900087EA430382EA030253B24FEA4207C3F3A8
:1053A000C2137FB283EA4202C7F3C2134FEA420735
:1053B00083EA42027BB24FEA4207C3F3C2137FB2D1
:1053C00083EA4202C7F3C2134FEA420783EA42026A
:1053D0007BB24FEA4207C3F3C2137FB283EA4202B1
:1053E000C7F3C2134FEA420783EA42027BB24FEA95
:1053F0004207C3F3C2137FB283EA4202C7F3C21368
:1054000083EA420200F0B48191F8333091F834100D
:105410005A4053B25700C3F3C2137FB283EA420229
:10542000C7F3C213570083EA42027BB25700C3F3AB
:10543000C2137FB283EA4202C7F3C213570083EA62
:1054400042027BB25700C3F3C2137FB283EA420227
:10545000C7F3C213570083EA42027BB25700C3F37B
:10546000C2137FB283EA4202C7F3C213043083EA55
:10547000420220E799F81D2072B1012A40F0F68718
:10548000654602F019F9DBF81C10AC46401A40F6EC
:10549000B731884240F2E687F07B0221012889F883
:1054A0001E1040F083840120707786F87C00002174
:1054B00086F86B0040F2DC5086F82F10F17089F806
:1054C0001D1000F075BCDBF818008AF83B20013095
:1054D0000AF13001CBF8180060460C220F2306F0C9
:1054E00009FE40F67C150120C2F2000589F81E0075
:1054F00001F0CCB82179884241F0C8809AF8421076
:105500009AF843206639B1FA81F140F2E036490950
:10551000C2F200069AF8443086F83510511E64270E
:1055200002FB07F21D2988BF4FF47A7240F6B831AA
:105530008A4288BF4FF47A72A3F11E01E2843C29AB
:1055400088BF3C23A3F11E013C29F17B88BF3C238B
:10555000238541B944F6206140F2E032A165032180
:10556000C2F20002D1728AF8330040F2DC40C2F28B
:105570000000006A9AF840209AF84130B9F82C707F
:105580008AF836004FF0FF30CAF837000098012142
:10559000C4E912238AF831703F0A8AF834200025C2
:1055A000002289F81C108AF830108AF832708AF8C4
:1055B000353051404AB24B00C2F3C2125BB282EAAC
:1055C0004101C3F3C2124B0082EA41015AB24B00BF
:1055D000C2F3C2125BB282EA4101C3F3C2124B00B2
:1055E00082EA41015AB24B00C2F3C2125BB282EAB4
:1055F0004101C3F3C2124B0082EA41015AB24B008F
:10560000C2F3C2125BB282EA4101C3F3C212082D97
:1056100082EA41030AEB050191F8317091F83220DA
:1056200083EA07035FB24FEA4306C7F3C21776B2B5
:1056300087EA4303C6F3C2174FEA430687EA4303E8
:1056400077B24FEA4306C7F3C21776B287EA43033D
:10565000C6F3C2174FEA430687EA430377B24FEA1D
:105660004306C7F3C21776B287EA4303C6F3C217ED
:105670004FEA430687EA430377B24FEA4306C7F38C
:10568000C21776B287EA4303C6F3C21787EA430319
:1056900082EA030253B24FEA4207C3F3C2137FB256
:1056A00083EA4202C7F3C2134FEA420783EA420287
:1056B0007BB24FEA4207C3F3C2137FB283EA4202CE
:1056C000C7F3C2134FEA420783EA42027BB24FEAB2
:1056D0004207C3F3C2137FB283EA4202C7F3C21385
:1056E0004FEA420783EA42027BB24FEA4207C3F322
:1056F000C2137FB283EA4202C7F3C21383EA4202B3
:1057000000F0498391F8333091F834105A4053B285
:105710005700C3F3C2137FB283EA4202C7F3C21336
:10572000570083EA42027BB25700C3F3C2137FB231
:1057300083EA4202C7F3C213570083EA42027BB2F4
:105740005700C3F3C2137FB283EA4202C7F3C21306
:10575000570083EA42027BB25700C3F3C2137FB201
:1057600083EA4202C7F3C213043583EA420220E708
:10577000DBF818008AF83B2001300AF13001CBF841
:10578000180060460C220F2306F0B4FC40F67C158E
:105790000A20C2F2000589F8030000F077BF96F8EE
:1057A0002510012940F03284B9F82C208AF8330002
:1057B0008AF83120120A8AF832209BF82C20BBF894
:1057C0002D008AF83420DBF82F200121AAF83500BB
:1057D000CAF83720002000228AF8301051404AB21F
:1057E0004B00C2F3C2125BB282EA4101C3F3C212A0
:1057F0004B0082EA41015AB24B00C2F3C2125BB2C3
:1058000082EA4101C3F3C2124B0082EA41015AB25B
:105810004B00C2F3C2125BB282EA4101C3F3C2126F
:105820004B0082EA41015AB24B00C2F3C2125BB292
:1058300082EA4101C3F3C212082882EA41030AEB5B
:10584000000191F8317091F8322083EA07035FB2CA
:105850004FEA4306C7F3C21776B287EA4303C6F39B
:10586000C2174FEA430687EA430377B24FEA43067B
:10587000C7F3C21776B287EA4303C6F3C2174FEAEB
:10588000430687EA430377B24FEA4306C7F3C217DA
:1058900076B287EA4303C6F3C2174FEA430687EAA4
:1058A000430377B24FEA4306C7F3C21776B287EADB
:1058B0004303C6F3C21787EA430382EA030253B2E3
:1058C0004FEA4207C3F3C2137FB283EA4202C7F32F
:1058D000C2134FEA420783EA42027BB24FEA420711
:1058E000C3F3C2137FB283EA4202C7F3C2134FEA83
:1058F000420783EA42027BB24FEA4207C3F3C21374
:105900007FB283EA4202C7F3C2134FEA420783EA37
:1059100042027BB24FEA4207C3F3C2137FB283EA6B
:105920004202C7F3C21383EA420200F05F8491F897
:10593000333091F834105A4053B25700C3F3C213B6
:105940007FB283EA4202C7F3C213570083EA4202DE
:105950007BB25700C3F3C2137FB283EA4202C7F39C
:10596000C213570083EA42027BB25700C3F3C2134B
:105970007FB283EA4202C7F3C213570083EA4202AE
:105980007BB25700C3F3C2137FB283EA4202C7F36C
:10599000C213043083EA420220E79AF840203B6AAF
:1059A00001219342FA6240F03C84B9F82C308AF825
:1059B00033004FF0FF308AF831301B0A8AF8342068
:1059C000CAF836008AF83A00002000228AF830101F
:1059D0008AF832308AF8351051404AB24B00C2F38F
:1059E000C2125BB282EA4101C3F3C2124B0082EAE7
:1059F00041015AB24B00C2F3C2125BB282EA4101CA
:105A0000C3F3C2124B0082EA41015AB24B00C2F307
:105A1000C2125BB282EA4101C3F3C2124B0082EAB6
:105A200041015AB24B00C2F3C2125BB282EA410199
:105A3000C3F3C212082882EA41030AEB000191F87D
:105A4000317091F8322083EA07035FB24FEA4306D0
:105A5000C7F3C21776B287EA4303C6F3C2174FEA09
:105A6000430687EA430377B24FEA4306C7F3C217F8
:105A700076B287EA4303C6F3C2174FEA430687EAC2
:105A8000430377B24FEA4306C7F3C21776B287EAF9
:105A90004303C6F3C2174FEA430687EA430377B2CC
:105AA0004FEA4306C7F3C21776B287EA4303C6F349
:105AB000C21787EA430382EA030253B24FEA42075E
:105AC000C3F3C2137FB283EA4202C7F3C2134FEAA1
:105AD000420783EA42027BB24FEA4207C3F3C21392
