:020000040800F2
:1000000068150020F9020008C9C5000811B30008EE
:1000100055C0000861150008050201080000000035
:10002000000000000000000000000000E9DA000805
:10003000812A00080000000041C8000899E5000876
:100040001503000815030008150300080000000050
:100050001503000815030008150300080000000040
:10006000150300081503000800000000312E0008E9
:100070001503000815030008150300081503000800
:1000800015030008150300081503000815030008F0
:1000900015030008150300081503000815030008E0
:1000A000150300081503000815030008D52E0008E5
:1000B000E12E0008ED2E00081503000815030008C6
:1000C00015030008150300081503000815030008B0
:1000D00000000000150300081503000815030008C0
:1000E0001503000815030008150300081503000890
:1000F0001503000845E6000851E60008000000006E
:10010000000000005DE6000869E60008150300082D
:10011000150300081503000815030008150300085F
:10012000150300081503000815030008F90101086C
:10013000150300080000000000000000150300087F
:10014000150300080000000000000000000000008F
:10015000000000000000000015030008000000007F
:10016000000000000000000015030008150300084F
:10017000000000000000000000000000000000007F
:10018000000000000000000000000000000000006F
:10019000000000000000000000000000000000005F
:1001A000000000000000000015030008150300080F
:1001B00015030008150300081503000815030008BF
:1001C00015030008150300080000000000000000EF
:1001D00000000000000000000000000015030008FF
:1001E00015030008000000000000000000000000EF
:1001F00000000000000000000000000000000000FF
:1002000000000000150300081503000800000000AE
:1002100000000000150300080000000000000000BE
:1002200000000000000000000000000015030008AE
:10023000150300080000000000000000000000009E
:10024000000000000000000000000000150300088E
:10025000150300081503000800F002F800F03CF850
:100260000AA090E8000C82448344AAF10107DA4511
:1002700001D100F031F8AFF2090EBAE80F0013F027
:10028000010F18BFFB1A43F001031847D480010087
:10029000F4800100103A24BF78C878C1FAD8520718
:1002A00024BF30C830C144BF04680C6070470000F0
:1002B0000023002400250026103A28BF78C1FBD86F
:1002C000520728BF30C148BF0B6070471FB517F0F9
:1002D000D8FD1FBD10B510BD00F03AF91146FFF76B
:1002E000F5FF12F0FDFC00F058F903B4FFF7F2FF40
:1002F00003BC00F05BF900000A4880470A48004749
:10030000FEE7FEE7FEE7FEE7FEE7FEE7FEE7FEE7C5
:10031000FEE7FEE7FEE7000004480549054A064BF4
:10032000704700009DE5000859020008680F002092
:1003300068150020681100206811002053EA020CA3
:1003400000F069802DE9F04B4FF00006002B1FBF35
:10035000B3FA83F503FA05F424FA05F65E4012BFFA
:100360001643B2FA82F502FA05F4C5F120051EBF64
:1003700022FA05FC44EA0C04203556EA044C4FEA04
:10038000144418BF641C4FF000084FF0000990425D
:1003900071EB030C39D3002919BFB1FA81F701FAC7
:1003A00007F6B0FA80F700FA07F6C7F120071EBF7C
:1003B00020FA07FC46EA0C062037B6FBF4FCA7EB54
:1003C0000507103F07F01F0BCBF120062CFA06F6AD
:1003D0000CFA0BFB44BFB3460026202FA4BF5E4699
:1003E0004FF0000B5BEA060C08BF4FF0010B19EB56
:1003F0000B0948EB0608ABFB027C06FB02CC0BFBAF
:1004000003CCC01B71EB0C01C1E70B460246414611
:100410004846BDE8F08B13B5084318BF4FF0FF30D6
:100420000146AFF30080BDE81C40704710B5203A8C
:10043000C0F00B80B1E81850A0E81850B1E818508F
:10044000A0E81850203ABFF4F5AF5FEA027C24BF61
:10045000B1E81850A0E8185044BF18C918C0BDE84A
:1004600010405FEA827C24BF51F8043B40F8043B13
:1004700008BF7047D20728BF31F8023B48BF11F8C8
:10048000012B28BF20F8023B48BF00F8012B704722
:100490004FF000020429C0F0128010F0030C00F0AD
:1004A0001B80CCF1040CBCF1020F18BF00F8012B2B
:1004B000A8BF20F8022BA1EB0C0100F00DB85FEAF9
:1004C000C17C24BF00F8012B00F8012B48BF00F8C5
:1004D000012B70474FF0000200B513469446964634
:1004E000203922BFA0E80C50A0E80C50B1F1200147
:1004F000BFF4F7AF090728BFA0E80C5048BF0CC0F5
:100500005DF804EB890028BF40F8042B08BF704752
:1005100048BF20F8022B11F0804F18BF00F8012BC4
:10052000704770477047704710B500F009F80068D1
:1005300010BD10B5044600F003F8046010BD0000C3
:1005400000487047C000002000487047C0000020ED
:100550007546FFF7F9FFAE4605006946534620F0A1
:100560000700854618B020B5FFF7D6FEBDE820404D
:100570004FF000064FF000074FF000084FF0000B5F
:10058000AC46ACE8C009ACE8C009ACE8C009ACE8CE
:10059000C00921F007018D46704710B50446AFF33E
:1005A00000802046BDE81040FFF79FBE014918209B
:1005B000ABBEFEE726000200704700002DE9F041C7
:1005C0000446DDE9060C00254FF07E560527C4E9F8
:1005D0000155C4E90356C4E90556C4E90757FF2786
:1005E000DDF82080A784C4E90A5522866086C4E924
:1005F0000F1304F1500061464C2284F83850FFF785
:1006000015FF4FF0FF30B8F1000F08BF012084F84C
:100610009C00C4E92855C4E92A56206D84F8B050DE
:10062000016841F0800101604FF6FF71C162E16530
:10063000C4F8B150BDE8F0812DE9F04381B0044623
:1006400094ED030A4068A16820EE000A0F1A10EE2C
:10065000100A17F04BFB054660690E4617F046FB83
:1006600002460B4616F0FCFC02460B462846314675
:1006700016F0B2FD16F044FF4FB9012807DC002048
:10068000E061E060C4F8A00001B0BDE8F083012F94
:100690000BDBD4F8A080B8F1010FC0F29080874244
:1006A00013DD94F8B010B9B90FE0D4F8A080B7F119
:1006B000FF3F0EDC7942B8F1010FC0F28F80884213
:1006C00003DA94F8B010012906D1C0F10008C4F88B
:1006D000A080B8F1000F40D0D4F8A80017F006FBB6
:1006E00002460B4606460F4616F0BAFC0546404643
:1006F000894616F062FF0023CCF21003002216F0A8
:10070000FFFF0023CBF6F073002216F0A9FC02468F
:100710000B462846494616F05FFD02460B4630461A
:10072000394616F09DFC16F069FC00EE100ABDEE8D
:10073000C00A94ED2B1A10EE100ABDEEC11A11EE8C
:10074000101A8842C8BF014600EE101AB8EEC00A5F
:1007500094F8B00084ED2A0A0DE0D4F8A41000202B
:100760004FF00008002FC8BF0120C4F8A81000EE09
:10077000101A84F8B00042F20041C4F6741101EE80
:10078000101A08F1010181EE001AC4F8A01000212E
:10079000B5EE400ABCEEC02A00EE101AF1EE10FAD7
:1007A00084ED072A00FE010A002884ED030A04BF35
:1007B000B1EE400A84ED030A01B0BDE8F083874240
:1007C00087DDB8F1000F84D094F8B00001287FF4E1
:1007D00083AFC8F10008C4F8A0807DE78842BFF667
:1007E00078AFB8F1000F3FF474AF94F8B000002870
:1007F0007FF472AFEDE700004068704710B5044623
:100800008068884208BF10BD2046A160FFF714FF32
:1008100004F15000BDE8104009F03EB9B0B50446FF
:100820004068A168002581422DD0E3694FF00002A5
:10083000C8BF012284F8B0202BB300238142D8BF67
:1008400001234FF0FF31C8BF0121084494F89C10E8
:100850006060FF29206C618E08BF1A4606F072FCAA
:10086000E06B218E0122012506F06CFC206A10F05D
:10087000C9FEE06B218E002206F064FC12F0D4FE6B
:10088000C117C4E90A012846B0BD00000022C0F823
:10089000A020C261C0E90111C260704770B590ED3F
:1008A000041AB0EEC00AB4EE401AF1EE10FA08BF16
:1008B00070BD044642F2004084ED040AC4F6741090
:1008C00001EE100AD4F8A00081EE001A012884ED90
:1008D0002B1A20DB94ED030A20EE000A10EE100A1A
:1008E00017F004FA054660690E4617F0FFF9024654
:1008F0000B4616F0B5FB02460B462846314616F06D
:100900006BFC16F0FDFD01462046C4F8A010BDE8C2
:100910007040FFF791BE70BD2DE9F0412DED028BC7
:10092000B5EE400A0446F1EE10FA0AD094ED031A2F
:10093000B4EE401AF1EE10FA03D1BDEC028BBDE823
:10094000F08194ED041AB1EE412AB4EE402A81FE02
:10095000400AF1EE10FA32FE008A18EE100A17F083
:10096000C5F9B5EE408AF1EE10FA0DD1002504F17B
:100970005000E56109F0C0F8206D456284ED038AFE
:10098000BDEC028BBDE8F081274657F8508F054635
:10099000D8F80C000E46C00704D1384609F07CF8A0
:1009A000D7F8008048F28041C4F22E1100202A4678
:1009B0003346002716F010FCFA0F62F3DF7116F0D1
:1009C000CFFD00EE107AE061B4EE408AC8F82C004A
:1009D000E065F1EE10FAC8BF012784F8B07084ED2D
:1009E000038ABDEC028BBDE8F0810000806870478F
:1009F000F0B581B02DED028B40F60004C4F2022464
:100A000006F0A6FB05462046042106F095FB40F2C1
:100A10007C36C2F2000696F82A1088421DD140F6B4
:100A20000840C2F20000D0E9001240F28407C2F28E
:100A300000073F68691A4FF0000363EB0202791A5E
:100A400040F2A0114FF00100C2F2000173EB02026C
:100A500081F84B0028BF00200DE040F2A010C2F248
:100A60000000002180F84B1040F60840C2F2000060
:100A7000C0E90051002086F82B0006F069FB05460E
:100A80002046022106F058FB96F82A1088421DD114
:100A900040F60840C2F20000D0E9021240F284079A
:100AA000C2F200077F68691A4FF0000363EB02028D
:100AB000791A40F2A0114FF00100C2F2000173EB6D
:100AC000020281F84C0028BF00200DE040F2A01087
:100AD000C2F20000002180F84C1040F60840C2F23B
:100AE0000000C0E90251002086F82C0006F030FB1F
:100AF000054620460121012406F01EFB96F82A1027
:100B000088421BD140F60840C2F20000D0E904013F
:100B100040F28403C2F200039B68281A4FF00002DF
:100B200062EB0101181A40F2A010C2F2000072EB51
:100B3000010180F84D4028BF00240DE040F2A010D4
:100B4000C2F20000002180F84D1040F60840C2F2C9
:100B500000000024C0E9045140F20007C2F200077F
:100B6000B87C86F82D40844240D096F82B10814204
:100B70003CD096F82C10814238D0F07D01280ED15F
:100B800040F6F844C2F200042046FFF735FE054661
:100B90002046FFF72BFF854204BF0320B073307F50
:100BA000012804BF0420B07396F82300012826D141
:100BB00006F0CEFA40F2FC31C2F20001898C19BB7A
:100BC00040F2F442C2F200029269801A4EF681624B
:100BD000C0F23602904217D340F27840C2F20000D1
:100BE000D0E9002010430FD10D2067E0012184429D
:100BF00008BF0221B173F07D0128C1D0CFE740F2D8
:100C0000FC30C2F20000818C02291BD140F6F84072
:100C1000C2F20000FFF7F0FD002848BF404216F086
:100C2000CCFC97ED1C0B0D46002153EC102B044619
:100C3000C4F22401002016F0CFFA22462B4617F00A
:100C40008EF828B1B07BD0BBBDEC028B01B0F0BDFB
:100C500040F6F840C2F20000FFF7CEFD002848BF82
:100C6000404216F0AAFC97ED1C0B0D46002153ECF8
:100C7000102B0446C4F23E01002016F0ADFA40F2FB
:100C8000FC32C2F20002B2F93E20012ADADB40F265
:100C9000F442C2F2000292ED0C0A0022C4F27A522F
:100CA00001EE102AB4EE410AF1EE10FACADA224639
:100CB0002B4617F05BF80028C4D00E20B073002438
:100CC00008EE104A40F6F840B0EE480AC2F20000C2
:100CD000FFF722FE40F6B050B0EE480AC2F2000024
:100CE000FFF71AFEB07B3475022805D096F8200075
:100CF00070B1B17BB1B923E040F64040B0EE480A94
:100D0000C2F20000FFF708FE96F820000028F0D19C
:100D100044F62060B86503203072012086F8200078
:100D2000B17B69B196F82E0050B9012086F82E00EB
:100D300006F00EFA40F2F442B17BC2F200025063B8
:100D40000D291FD80120884042F21401084219D011
:100D5000B07B0D287FF478AF06F0FAF940F2F44149
:100D6000C2F20001496B401A41F288318842FFF417
:100D70006BAF022086F823000120F073BDEC028BDC
:100D800001B0F0BD96F82F000028E1D1307E012897
:100D9000DED006F0DDF940F2F441C2F20001496B09
:100DA000401AB0F5FA6FD3D33079797B884208BF07
:100DB00006F0D4FACCE700002DE9F04F81B02DED1C
:100DC0000A8B84B040F27C38C2F2000898F87310A5
:100DD00029B104B0BDEC0A8B01B0BDE8F08F40F240
:100DE0007849C2F20009D9F8301040F2686A044626
:100DF000C2F2000A11B1012947D06AE10120C9F805
:100E0000300006F0A5F9CAF87400204616F0ECFB95
:100E100042F2FB134AF2A872C4F20903C5F23D4242
:100E200016F06EFC40F20007C2F200070546786B30
:100E30000E4616F05BFF02460B462846314616F07A
:100E40005FFC97ED1C0B05460E4648F2000351EC83
:100E5000100BC4F276030022002716F051FC024664
:100E60000B462846314616F0B7F9FA0F62F3DF71E8
:100E700016F046FB40F2FC32D9F83010C2F2000204
:100E8000A2F86200012940F0248140F2F44BC2F242
:100E9000000B9BED048AB0EEC89A19EE100A16F00A
:100EA00025FF054620460E4616F09EFB04460F46DB
:100EB0002846314622463B4616F05FFF18B9092006
:100EC00088F80E0005E1B6EE000AB4EE409AF1EEA5
:100ED00010FA0BDA012088F873000020C9F83000FE
:100EE00004B0BDEC0A8B01B0BDE8F08FB4EE409ABF
:100EF000F1EE10FAC0F2ED802846314622463B461C
:100F000016F02DFF002840F0E480B5EE408A8AED0F
:100F10001E8AF1EE10FA12DD40F2FC340220C2F219
:100F20000004B4F86210C9F8300040F6F840C2F28C
:100F30000000FFF763FCB4F86200414211E040F2A8
:100F4000FC34C2F200040320B4F86210C9F8300087
:100F500040F6F8404942C2F20000FFF74FFCB4F8F7
:100F6000621040F6B050C2F20000FFF747FC40F2BA
:100F70000000C2F2000090ED1C0B002156EC105B4B
:100F8000C4F23E0100202A46334616F025F916F039
:100F900035F844F20001074608EE100A0390C4F247
:100FA0008F0100202A46334616F016F916F026F86F
:100FB0000021BFEE00AA00EE101A0026B7EE00BA1C
:100FC000B4EE408A0546F1EE10FAB8BF012694ED62
:100FD0001B0A40F2705038EE400AC2F20000B5EE33
:100FE000400A94ED1C9AF1EE10FA88F831603BFE4D
:100FF0000ACA8BED1E0ACBF8707080ED00CA284635
:10100000CBF8745016F072FE46F24D234AF6FC12ED
:10101000C3F65073CDF2F12216F072FB0746029030
:101020001CEE100A0C46019116F060FE02460B46BB
:101030003846214616F064FB15F0E0FF40F270528E
:10104000C2F2000250600120CBF86C0040F618108C
:10105000C2F2000040F2EC510468C2F2000138EE26
:10106000490A8F69606A82ED050A4FF47A71B5EE1C
:10107000400A07FB010040F21821F1EE10FAC2F21B
:1010800000014FF0000BC1E90A0B03983BFE0A1A5E
:10109000D06011EE100A88F8326082ED061A1561F0
:1010A000154616F023FE02460B46DDE9011016F048
:1010B00027FB15F0A3FFE8610120A860606A4FF4E8
:1010C0007A7107FB010040F21821C2F20001C1E968
:1010D0000C0BD9F8300003281FD0022840F0BB8049
:1010E00040F2F440C2F2000090ED048A18EE100ABB
:1010F00016F0FCFDB9EE040AB4EE408AF1EE10FAE7
:101100007BDB49F6991349F69A12C3F6C973C9F6FF
:10111000991216F024FEE8B16FE040F2F440C2F2FA
:10112000000090ED048A18EE100A16F0DFFDB1EE13
:10113000040AB4EE408AF1EE10FA6CDC49F6991319
:1011400049F69A12CBF6C973C9F6991216F01CFE2D
:10115000002860D140F6F844C2F200040026204680
:101160000021C9F83060FFF791FB40F6B055C2F29C
:10117000000528460021FFF789FB20460021FFF7E4
:101180003DFB28460021FFF739FB08EE106A204698
:10119000B0EE480AFFF7C0FBB0EE480A2846FFF75A
:1011A000BBFB40F6B010C2F2000001684FF6FF72C0
:1011B00040F6FC13CA62C2F200031F68C26040F22C
:1011C000FC30C2F20000FA62DA604E627E62C0E970
:1011D0001B6640F2F440C2F20000C66640F2705155
:1011E0004665D9F83000C2F200018E600121032863
:1011F00088F873100FD002282DD140F2F440C2F2CB
:10120000000090ED040A9AED1E1AB4EE410AF1EEC8
:1012100010FA0DDC22E040F2F440C2F2000090ED42
:10122000040A9AED1E1AB4EE410AF1EE10FA15DA2C
:101230000120C9F8300040F6F840C2F20000002159
:10124000FFF724FB40F6B050C2F200000021FFF788
:101250001DFBD9F8300000283FF4BBAD05F078FF46
:10126000DAF87410401A40F6B8318842FFF4B1AD94
:10127000D9F82800002804BF092088F80E0004B01F
:10128000BDEC0A8B01B0BDE8F08F0000F0B581B075
:101290002DED028B40F27C36C2F2000696F85F001C
:1012A00018B1BDEC028B01B0F0BD40F27847C2F23C
:1012B0000007F96A41B1012928D0022900F0E08035
:1012C000002940F0EE80ECE740F20001C2F200019C
:1012D00091ED1C0B0120002153EC102BF862C4F29D
:1012E0003E01002015F078FF16F00AF940F2FC31BB
:1012F000C2F20001A1F8640005F02AFF40F22012BA
:10130000F96AC2F2000210600129D6D140F2F4401D
:10131000B3EE092AC2F2000090ED040AB0EEC01A42
:10132000B4EE421AF1EE10FA5CDA40F26860C2F2F2
:10133000000090ED081A96F8742030EE010A40F291
:1013400020140221012AC2F20004F96284ED010A8C
:1013500004D100216160016286F8741040F6F84003
:10136000C2F200000021FFF791FA40F6B050C2F23D
:1013700000000021FFF78AFA40F20000C2F20000EC
:1013800090ED0B0A90ED0C1A90ED0D2AB8EEC00A04
:101390000020C4F2B43022EE002A94ED010A03EEDC
:1013A000100A20EE022A21EE031AB5EE400A82EE60
:1013B000011AF1EE10FAB0EEC11A84ED021A14DD32
:1013C000BDEEC10A40F6F84010EE101AC2F200005D
:1013D000FFF714FA94ED020ABDEEC00A10EE100AEF
:1013E000444226E01020B0735BE0B5EE400AF1EE17
:1013F00010FA11DABDEEC10A10EE100A414240F6B1
:10140000F840C2F20000FFF7F9F994ED020ABDEED0
:10141000C00A10EE104A0CE0B5EE400AF1EE10FAE8
:101420000ED140F6F840C2F2000000210024FFF780
:10143000E5F940F6B050C2F200002146FFF7DEF9B0
:1014400040F2FC34C2F20004B4F8640000EE100A6A
:1014500040F6F840B8EE400AC2F20000FFF75CFA2E
:10146000B4F8640000EE100A40F6B050B8EE400A3E
:10147000C2F20000FFF750FAF96A02297FF420AFA8
:1014800040F6F844C2F200042046FFF7AFFA0546E2
:101490002046FFF7B1F9854210D0F96A00293FF4E0
:1014A00000AF05F055FE40F22011C2F200010968BC
:1014B000401A40F6B8318842FFF4F3AE40F6F844E3
:1014C0000320C2F20004F862204600210027FFF743
:1014D000DDF940F6B055C2F2000528460021FFF7BD
:1014E000D5F920460021FFF789F928460021FFF7AA
:1014F00085F908EE107A2046B0EE480AFFF70CFA9C
:10150000B0EE480A2846FFF707FA40F6B010C2F2DC
:10151000000001684FF6FF7240F6FC13CA62C2F287
:1015200000031D68C26040F2FC30C2F20000EA62B3
:10153000DA604F626F62C0E91B7740F2F440C2F29A
:10154000000040F27051C766C2F2000147650120F9
:101550008F6086F85F00BDEC028B01B0F0BD00002B
:10156000FEE700002DE9F04740F2004AC4F2022AEB
:1015700005F0EEFD054650464FF4804105F0DCFDD8
:1015800040F27C37C2F2000797F82A1040F2A01907
:1015900040F6084840F284068842C2F20009C2F2CE
:1015A0000008C2F2000610D1D8E906120023691A19
:1015B000F5684FF0010063EB0202691A73EB020158
:1015C00089F84E0028BF002005E0002089F84E0071
:1015D000C8E90650002040F20004C2F20004217D58
:1015E000884206D197F82500002804BF40F2011078
:1015F000B88705F0ADFD054650464FF4005105F0A3
:101600009BFD97F82A10884221D1D8E90812366943
:10161000691A4FF000034FF0010063EB0202711AE8
:1016200073EB020189F84F0028BF0020217D88421A
:1016300016D005F08DFD40F27051C2F20001896CA8
:10164000401AC82824BF002087F841006CE0002021
:1016500089F84F00C8E908500020217D8842E8D170
:1016600097F8410000285FD140F2FC36C2F2000634
:10167000B6F84A000130A6F84A00012087F8410078
:1016800005F066FD96F84A2097F8371040F270533F
:10169000C2F20003D207986426D1012944D10AF589
:1016A000806020210022002405F04CFD40F64045DA
:1016B0000120C2F2000587F838002846002187F88B
:1016C0003B40FFF79BF8B6F8440015F08DFF46F25B
:1016D0006663C3F6E6734FF0663216F011F815F044
:1016E0008DFC00EE100A1CE001291DD10AF5806076
:1016F00020210022002405F025FD40F64045012070
:10170000B6F84210C2F2000587F83B00284687F879
:101710003840FFF773F8B6F8440000EE100AB8EE50
:10172000400A2846FFF7F8F805F012FD0546504636
:101730004FF4805105F000FD97F82A10884204D13B
:10174000012089F85000BDE8F087002089F850009A
:10175000C8E90A50BDE8F0872DE9F04F81B02DEDC2
:101760000A8B84B08A46B1EE602A41F26F21C3F63B
:101770008321B5EE401AB0EE408A00EE101AF1EE69
:1017800010FA834600FE010AB1EE481A8BED012AD9
:1017900010EE100A8BED001A16F0A8FA42F2FB13B5
:1017A0004AF2A872C4F20903C5F23D4215F0A8FF3F
:1017B00048F20003C4F2660300224FF0000915F05E
:1017C0000BFD15F01BFC0746CBF8080018EE100ABD
:1017D0008BF86CA016F08AFA0646DBF82C000D4652
:1017E00016F084FA04463846884616F07FFA41EC33
:1017F000100B13F011FE51EC100B2246434615F06E
:101800007FFF32462B4616F087F915F0F7FBCBF831
:101810001C00DBE90104DBF82C7016F067FA804647
:1018200038460E4616F062FA074620460D4616F078
:101830005DFA41EC100B14F023FD51EC100B3A460D
:101840002B4615F05DFF4246334615F009FC15F0B6
:10185000D5FBCBF82000DBF80000DBF80840DBF814
:101860002C7016F043FA804638460E4616F03EFAC3
:10187000074620460D4616F039FA41EC100B13F0DE
:10188000CBFD51EC100B3A462B4615F039FF0246C2
:101890000B464046314616F03FF915F0AFFBCBF84A
:1018A0002400DBE90104DBF82C7016F01FFA8046F7
:1018B00038460E4616F01AFA074620460D4616F030
:1018C00015FA41EC100B14F0DBFC51EC100B3A460E
:1018D0002B4615F015FF02460B464046314657464B
:1018E00016F01AF915F08AFB9BED000ABAF1020F07
:1018F000CBF8280023D1B5EE400A42F2FB15C4F222
:101900000905F1EE10FA40F0B680DBF80800DBF8CC
:101910002C4020F00040CBE9104416F0E7F90246D5
:101920004AF2A8700B46C5F23D40294616F0F4F87D
:1019300015F064FB00EE104ACBF850004AE301EECC
:10194000109A0020B4EE410A9BED010AF1EE10FA64
:1019500018BF0120B4EE410AF1EE10FA18BF4FF0A3
:10196000010950EA090027D1DBF80800DBF82C60F8
:1019700016F0BCF904460D4600204FF00041224607
:101980002B4616F0C9F842F2FB134AF2A872C3F6CE
:10199000F973C5F23D42002F04BF2946204615F0D9
:1019A0005FFB15F02BFBCBF85000CBF8406000EE4E
:1019B000106ACBF844600DE310EE100A20F00040EE
:1019C00016F094F90446DBF808000D4616F08EF97F
:1019D00041EC100B13F020FD53EC102B2046294650
:1019E00015F0FAFB15F00AFB0446CBF86400DBF8AF
:1019F00000009BED018A16F079F9804620460E46DC
:101A000016F074F90446DBF808000D4616F06EF97E
:101A100041EC100B14F034FC51EC100B22462B4619
:101A200015F06EFE04460D4600204FF000412246A0
:101A30002B4616F071F8B5EE408A42463346F1EE79
:101A400010FAA4BF2946204615F00AFB15F0D6FA75
:101A500000EE100ACBF81400C7B1012F24D19BED82
:101A600001CA9BED191AB5EE40CAF1EE10FA16DB69
:101A700031EE008A15E09BED028AB5EE408AF1EE68
:101A800010FA40F0AA809BED110AA3E29BED01CA77
:101A90009BED191AB5EE40CAF1EE10FAE8DB30EE14
:101AA000418A8BED038A03E09BED01CA9BED038A1B
:101AB0009BED000A9BED08AA9BED07BA3AEE4C1A83
:101AC0003BEE402AB5EE40CA81EE021AF1EE10FA62
:101AD0008BED0E8A039720EE012A21EE083A3CEEA8
:101AE000422A8BED0C1A33EE029A8BED0D2A8BED08
:101AF0000F9A14D1DBF8080016F0F8F80246002F10
:101B00000F4600F0CD8042F2FB114AF2A870C3F6F6
:101B1000F971C5F23D403B4615F0FEFFCCE010EEFA
:101B2000100A16F0E3F804461CEE100A0F4616F0F1
:101B3000DDF8814618EE100A029116F0D7F88046BB
:101B400019EE100A8A4616F0D1F805460E462046D0
:101B500039464246534615F0DFFF02460B4615F064
:101B6000CFFD0F460299044648462A46334615F0F3
:101B7000D3FF02460B4615F0C3FD02460B46204636
:101B8000394615F06DFA41EC100B14F0A5FC51EC40
:101B9000100B15F033FA00EE100A9BED191ACBF872
:101BA000680081EE000A10EE101A084616F09EF842
:101BB00041EC100B13F0C4FA51EC100B0B4602462B
:101BC00015F04EFA15F01AFA9BED07BA9BED08AA2C
:101BD0009BED0E8A9BED0F9A70E010EE100A20F03C
:101BE000004016F083F8044618EE100A0D4620F067
:101BF000004016F07BF841EC100B14F041FB53EC65
:101C0000102B2046294615F0E7FA15F0F7F908EEF3
:101C1000100ACBF86400DBF8040016F067F89BEDBF
:101C2000029AB1EE480A8046B5EE409A0E46F1EEB1
:101C300010FA28FE000A9BED008A10EE100A16F03A
:101C400055F8044619EE100A0D4616F04FF841EC0F
:101C5000100B13F0E1FB51EC100B22462B4615F054
:101C60004FFDB5EE408A0246F1EE10FA0B4680F2C7
:101C7000A4804046314615F04FFF15F0BFF99BEDAB
:101C8000020A9BED191AB5EE400AB1EE412AF1EEB7
:101C900010FA00EE100A21FE021A31EE008AA4E0CA
:101CA00042F2FB1310464AF2A872C3F6F9733946A2
:101CB000C5F23D4215F0D4F915F0A0F9CBF850006B
:101CC00018EE100A16F012F8044619EE100A0F4624
:101CD00016F00CF802901BEE100A8A4616F006F871
:101CE00081461AEE100A884616F000F805460E46A0
:101CF000204639464A46434615F00EFF02460B463B
:101D000015F0FEFC044602980F4651462A4633461B
:101D100015F002FF02460B4615F0F2FC02460B4698
:101D20002046394615F09CF941EC100B14F0D4FB19
:101D300051EC100B15F062F9CBF84000DBE90E0610
:101D4000DBE9094515F0D2FF074630468A4615F013
:101D5000CDFF02902046894615F0C8FF044628466C
:101D6000884615F0C3FF05460E46384651462246C2
:101D7000434615F0D1FE02460B4615F0C1FC044661
:101D800002980F4649462A46334615F0C5FE0246DC
:101D90000B4615F0B5FC02460B462046394615F0B9
:101DA0005FF941EC100B14F097FB51EC100B15F0A0
:101DB00025F900EE100A039F0AE110461946424633
:101DC000334615F04DF915F019F99BED020A9BED1C
:101DD000191AB5EE400AB1EE412AF1EE10FA00EE02
:101DE000100A21FE021A30EE418A9BED001A9BED8B
:101DF000019A9BED082A9BED073A32EE492A33EE11
:101E0000413A11EE100A82EE032A8BED060A8BEDA1
:101E1000048A8BED0F8A21EE023A8BED0C2A39EE03
:101E2000433A38EE434A8BED0D3A84EE02AA8BED2D
:101E30000EAA15F05BFF044619EE100A0D4615F0C8
:101E400055FF02901AEE100A019115F04FFF8046DF
:101E500018EE100A03978A4615F048FF81460E4691
:101E6000204629464246534615F056FE02460B468A
:101E700015F046FC07460C46DDE901104A4633469C
:101E800015F04AFE02460B4615F03AFC3A46234648
:101E900015F0E6F841EC100B14F01EFB51EC100BA2
:101EA00015F0ACF800EE100A9BED191ACBF868009B
:101EB00081EE000A10EE101A084615F017FF41ECEB
:101EC000100B13F03DF951EC100B0B46024615F0C8
:101ED000C7F815F093F8CBF85000DBE90E06DBE904
:101EE000074515F003FF07463046884615F0FEFE0D
:101EF00081462046029115F0F9FE044628468A469E
:101F000015F0F4FE05460E46384641462246534635
:101F100015F002FE02460B4615F0F2FB0F46029941
:101F2000044648462A46334615F0F6FD02460B465F
:101F300015F0E6FB02460B462046394615F090F8B0
:101F400041EC100B14F0C8FA51EC100B15F056F8D8
:101F5000CBF84000DBE90E06DBE9094515F0C6FECB
:101F600007463046884615F0C1FECDE901102046EF
:101F700015F0BCFE044628468A4615F0B7FE814699
:101F80000E4638464146039F2246534615F0C4FD8F
:101F900002460B4615F0B4FB04460D46DDE9011080
:101FA0004A46334615F0B8FD02460B4615F0A8FB2D
:101FB00002460B462046294615F052F841EC100B1C
:101FC00014F08AFA51EC100B15F018F800EE100A14
:101FD000CBF844009BED101A9BED142A21EE021A57
:101FE00022EE000A8BED121A8BED130A9FB19BEDC6
:101FF0000B0A012FB1EE401A19BF8BED171A8BEDAA
:10200000150A8BED180A8BED161A04B0BDEC0A8B7D
:1020100001B0BDE8F08F9BED0B0AB1EE401A8BEDDD
:10202000160A8BED181A04B0BDEC0A8B01B0BDE89E
:10203000F08F00002DE9F04F81B02DED048B40F2C0
:102040007C30C2F200000078012840F0288140F680
:102050001810C2F2000040F2EC510068C2F2000118
:102060008A69416A4FF47A7302FB031740F2182120
:10207000C2F20001D1E9086540F20008C2F200088E
:10208000D8F85040BE1B4FF0000767EB0505361B24
:1020900075EBE476C0F0038102FB03F2406A40F284
:1020A000F4491044C2F20009C1E90807D9E90E0158
:1020B0000028024648BF4242002948BF49428A429E
:1020C000C8BFC9F83C0040F2FC30D9E91064C2F244
:1020D000000000EE106A01EE104AB8EEC00AB8EE39
:1020E000C11A90ED1B2A90ED1C3A80EE010A83EE96
:1020F000021A301B89ED120A00EE100A89ED131A3C
:10210000B8EEC00A10EE100A15F0F0FD98ED1C0BA9
:1021100002465AEC105B98ED1A8B0B462846514646
:1021200015F0EEFA14F06AFF15F0E0FD02460B46DA
:1021300051EC180B15F0E4FA14F060FF074628463E
:10214000514614F05BFF002C48BF644200EE100AB9
:10215000002E48BF7642A019400801EE100A08EE92
:10216000107AB8EEC11A21EE000A10EE100A15F02E
:10217000BDFD064627F000400C4615F0B7FD48F2BD
:10218000000AC4F2660A02460B460020514615F0CA
:10219000C3FC4AF2A87242F2FB13C5F23D42C4F2FC
:1021A000090307460D4615F0ABFA40F2000BC3F6E3
:1021B000E07B00225B4615F0A3FA0022534615F09F
:1021C0000BF814F01BFF15F091FD41EC100B14F00F
:1021D00057F851EC100B3246234615F091FA14F0E3
:1021E0000DFFD9E9101298ED1C9B0646114400EE34
:1021F000101AB8EEC00A10EE100A15F077FD02466C
:102200000B4651EC190B15F07BFA00225B4615F0DA
:1022100077FA044688463846294600225B4615F080
:102220006FFA4AF2A87242F2FB13C5F23D42C4F2C1
:10223000090315F065FA0022534614F0CDFF41EC76
:10224000100B13F0E9F851EC100B2246434615F041
:1022500057FA14F0D3FE0021C4F2B43100EE101A84
:10226000B5EE408A002138EE001ACCF2B431F1EE1E
:1022700010FAB8BFB0EE418AC9F8500001EE101A4A
:10228000B4EE408A38EE010AF1EE10FA40F2FC3169
:1022900030FE080AC2F200018E6781ED1D0ABDEC16
:1022A000048B01B0BDE8F08F70B52DED088B0446AE
:1022B00010EE900AB0EE408A15F018FD40F68053FB
:1022C00049F23B72C4F20903C7F20A3215F018FA58
:1022D00048F20003C4F26603002214F07DFF14F0FC
:1022E0008DFEB0EEC80AB2EE0E1AB4EE410A84EDCD
:1022F000000AF1EE10FA55DB94ED070A94ED021A8C
:1023000030EE000A20F0004080EE01AA09EE100A2B
:1023100094ED0F0A94ED0CBA39EE000A10EE100A93
:1023200084ED0BAA15F0E2FC4CF6CC434CF6CD4202
:10233000C3F6EC73CCF6CC4215F0E2F905461AEE82
:10234000100A0E4615F0D2FC02460B4628463146CE
:1023500014F042FF14F052FEB0EE490A8BEE0AAAC6
:10236000206413F0BDF894ED0F1AB0EE409AB0EE71
:10237000410A13F0B5F839EE400AB5EE408A2AEE6C
:10238000000AF1EE10FA84ED130A10DD94ED050A4F
:1023900094ED0C1A31EE002A31EE400A84ED0E2A3B
:1023A00084ED0D0A94ED100ABDEC088B70BDB5EEFE
:1023B000408AF1EE10FAF5DA94ED050A94ED0C1A64
:1023C00031EE402A31EE000A84ED0E2A84ED0D0A2A
:1023D00094ED100ABDEC088B70BD000070B52DEDBA
:1023E0000A8B044610EE900AB0EE408A15F07EFC8F
:1023F00040F6805349F23B72C4F20903C7F20A3235
:1024000015F07EF948F20003C4F26603002214F0CE
:10241000E3FE14F0F3FDB0EEC8BAB2EE0E0AB4EE6D
:1024200040BA84ED00BAF1EE10FA08DA94ED110A20
:10243000B5EE400AF1EE10FA00F3B780B1E094ED8A
:10244000070A94ED021A30EE000A20F0004080EEF8
:10245000010A09EE100A94ED0CAAF0EE490A204692
:1024600084ED0B0AB0EE480AFFF71EFF94ED0F1A39
:102470002AEE000A39EE011A80EE01CAB0EE490ACE
:1024800013F02EF894ED0F1AB0EE40AAB0EE410A08
:1024900013F026F894ED071A94ED022A31EE011A92
:1024A00094ED0F9A81EE021A3AEE400A84ED00BADA
:1024B0002CEE00AA94ED0CCA89EE012A84ED0B1AC9
:1024C00012EE100A15F012FC4CF6CD454CF6CC433A
:1024D000CCF6CC45C3F6F0732A4615F011F914F08A
:1024E0008DFDB5EE408A00EE100AF1EE10FAA06400
:1024F00006DD94ED051A3CEE012A3CEE411A0AE095
:10250000B5EE408AF1EE10FA09DA94ED051A3CEEC8
:10251000412A3CEE011A84ED0E2A84ED0D1A2CEEB0
:10252000000A80EE098AB0EE490A12F0D9FFBFEE28
:10253000001A30EE010A28EE000A30EE4A0A3BEE9D
:10254000000A10EE100A15F0D1FB4CF6CC43C3F68E
:10255000EC732A4615F0D4F80546206B0E4615F0AC
:10256000C5FB02460B462846314614F035FE94ED75
:102570000F0A05460E4613F0E7FE10EE100A15F09E
:10258000B5FB02460B462846314614F025FE14F0F2
:1025900035FD00EE100A6064B5EE400AF1EE10FA67
:1025A00003DC002000EE100A6064BDEC0A8B70BDF5
:1025B00010B52DED028BB0EE408AB0EEC00AB2EE3F
:1025C0000E1AB4EE410A044680ED000AF1EE10FA4C
:1025D00004DA94ED120ABDEC028B10BD94ED070AEB
:1025E00094ED021A30EE000A80EE010A94ED0F1A03
:1025F00081EE001A84ED0B0A11EE100A15F076FB3D
:102600004CF6CC434CF6CD42C3F6F073CCF6CC423C
:1026100015F076F814F0F2FCB5EE408A00EE100AE0
:10262000F1EE10FAA0640EDD94ED051A94ED0C2A7B
:1026300032EE013A32EE411A84ED0E3A84ED0D1A73
:10264000BDEC028B10BDB5EE408AF1EE10FA0BDA4C
:1026500094ED051A94ED0C2A32EE413A32EE011A4D
:1026600084ED0E3A84ED0D1ABDEC028B10BD000016
:102670002DE9F04381B040F27843C2F2000393EDBC
:102680001C0A0023C4F23423B0EEC00A01EE103A53
:10269000B4EE410AF1EE10FA12DA054640F2F440C7
:1026A000C2F2000090ED010A0020C4F24820B0EE12
:1026B000C02A01EE100AB4EE412AF1EE10FA08DD4C
:1026C00040F27C30C2F200000521817301B0BDE808
:1026D000F0830020CCF2202001EE100A40F2EC56EC
:1026E000B4EE410A40F2FC38F1EE10FAC2F20006F4
:1026F000D8BF86ED0F0AC2F20008B8F93E0040F2DA
:10270000686700FB02F0C2F2000701EE100A87EDD5
:10271000020A0C46B8EEC11A30EE010A10EE100A99
:1027200087ED000A15F0E2FA40F20009C2F2000952
:1027300099ED1C0B53EC102B14F04EFD14F0E0FE41
:10274000B16D01EE104A01FB05F1022200EE101AF4
:102750003064A8F82420B8EEC00AF8EE410A0EF062
:1027600045FA04F0F5FCD9E91212F86001EB81009A
:1027700002EB820140004900C6E91B0140F6181037
:10278000C2F200000068B169406A4FF47A7201FB3E
:10279000020040F21821C2F200010022C1E9140235
:1027A00040F27C30C2F20000012180F8511080F824
:1027B0005D1080F8551001B0BDE8F0832DE9F04FB1
:1027C00089B040F2FC35C2F20005B5F85A00013874
:1027D000072800F205810FF2080101EB80018F4606
:1027E00000F00EB800F046B800F04CB800F053B856
:1027F00000F059B800F05FB800F071B800F0CFB841
:1028000040F27C36C2F2000696F84C00012818D13E
:1028100004F09EFC40F2EC5140F60004C2F20001CC
:10282000C4F202244862204608210022002704F056
:1028300089FC04F580600421002204F083FC86F802
:102840004C70307E01280CD10020307640F2000020
:10285000C2F2000041F2883181650120307286F8B1
:10286000740000210120A5F85A1009B0BDE8F04F0E
:102870000EF0AEB80020A5F85A0009B0BDE8F04F40
:102880000EF068BA00210320A5F85A1009B0BDE87F
:10289000F04F0EF09DB80020A5F85A0009B0BDE831
:1028A000F04F0EF0DBBB0020A5F85A0009B0BDE8E0
:1028B000F04F0EF011BB0F20FEF77EFA40F27C3095
:1028C000C2F2000090F87310012940F089800021C5
:1028D000A5F85A1080F8731009B0BDE8F08F40F2E7
:1028E0007C36C2F2000696F87600012878D104F012
:1028F0002FFC40F2EC5440F2A017C2F20004C2F2E6
:102900000007606240F2000B386848F25829C2F2B2
:10291000000BC0F601090021DBF8482059F82030EF
:1029200006910291009101219A4201914FF0030218
:1029300005914FF0020103920491CDE9072113D1D3
:1029400048F27C2AC0F6010ADBF84C105AF8202025
:10295000914209D1A98C002902BF96F8451096F83A
:102960004B2051EA02013ED0092839D1B5F8540074
:1029700002282BD130799BF80B10884226D10020F9
:10298000A5F85A00386040F60000C4F202204FF467
:102990008071012204F0D6FB09B0BDE8F08FFEF78C
:1029A00075FC40F27C30C2F2000090F85F10012903
:1029B00016D1002180F85F1040F27840C2F200008A
:1029C000A5F85A10C16209B0BDE8F08F0024642058
:1029D000A5F85A4001F05CF807203C60A5F85A00C1
:1029E00009B0BDE8F08F96F83F00002804BF40F220
:1029F0000110B087642001F04BF83968481C0729A2
:102A00003860B1DC012186F84B10694696F84C20FD
:102A100051F8200040F60008012AC4F20228A5F867
:102A20005C0010D104F094FB606240460821002253
:102A3000002404F087FB08F580600421002204F0E4
:102A400081FB86F84C4040464FF48071002204F030
:102A500079FB40F27844C2F200042168386800290A
:102A60007FF482AF59F820105AF82000C4E905100D
:102A700009F0E8FE386801212160E16074E7000098
:102A8000704700002DE9F04F81B02DED108B40F222
:102A9000F44AC2F2000ADAF86C00012840F0C3815F
:102AA00040F6F844C2F200042046FDF7A5FE0028D7
:102AB00048BF404214F081FD804620468946FDF71C
:102AC00095FF002848BF404214F077FD40F2000B0C
:102AD000C2F2000B0546DBF85C000E4614F06DFDFB
:102AE0009BED1C0B54EC107B23463A4614F074FB10
:102AF00002460B462846314615F00EF842464B4634
:102B000015F02DF9002840F0658140F27C38C2F2C2
:102B1000000898F83300012840F05C8140F27840CA
:102B2000C2F20000006B002840F0548140F2FC30FB
:102B3000C2F20000C06E15F0D9F802460B463846C6
:102B4000214614F0DDFD41EC100B4FF080400021D8
:102B500040EC181BB0EE481AF0EE681A12F068FD4F
:102B600051EC100B14F04AFA09EE100ABBF82A00D7
:102B700014F03AFDB0EE481A41EC100BF0EE681A72
:102B800012F056FD51EC100B14F038FA00EE100A5A
:102B90009BED172A39EE400AB6EE001A40F2705942
:102BA00020EE010AB8EEC21AC2F2000980EE010A54
:102BB00099ED098A99ED0AAABBF82A00B0EECA1A63
:102BC00002EE100AB0EEC0BAB0EEC80AB4EE410A86
:102BD00089ED08BAB8EE429AF1EE10FA0ADA2AEE56
:102BE000090A89ED0B9A80EE081AB0EE490AB0EE98
:102BF000419A05E028EE090A80EE0A0A89ED0B0ADF
:102C000010EE100A89ED0C9A15F070F89BED1C0B74
:102C100054EC105B23462A4614F0DEFA14F0EEF969
:102C200006460DEE100A1BEE100A15F05FF82A4654
:102C3000234614F0D1FA14F0E1F90021B7EE00EACE
:102C40000CEE101A40F2FC32B4EE4CDA0021C2F263
:102C50000002F1EE10FAB8BF012188F8311092EDB0
:102C60001B0A92ED1CFA3DEE400ABFEE00DACAF8EC
:102C70007060B5EE400A8AED1E0ACAF87400F1EEE3
:102C800010FA7EFE0D8AC9ED008A15F02FF84AF67B
:102C9000FC1246F24D23CDF2F122C3F6507314F02C
:102CA0002FFD064618EE900A0F4615F01FF8024653
:102CB0000B463046394614F023FD14F09FF9C9F84D
:102CC00004000120CAF86C0040F61810C2F200009F
:102CD00040F2EC510768C2F20001D1F81880786A1E
:102CE0004FF47A7108FB010040F21821C2F2000192
:102CF00000222AEE0B0AC1E90A0219EE100A80EE40
:102D0000088A14F0F3FF2A46234614F065FA14F0FB
:102D100075F9064609EE100A18EE100A14F0E6FFDF
:102D20002A46234614F058FA14F068F9B4EE4C9A87
:102D300039EE4F0AF1EE10FA4FF00001B5EE400AFD
:102D4000B8BF012140F27C32F1EE10FAC2F200026B
:102D50003EFE0D8A82F8321089ED050AC9F80C6032
:102D600089ED068AC9F8100014F0C0FF4AF6FC127B
:102D700046F24D23CDF2F122C3F6507314F0C0FC9D
:102D8000044618EE100A0D4614F0B0FF02460B463A
:102D90002046294614F0B4FC14F030F90122C9F899
:102DA0001C00C9F80820786A4FF47A7108FB01000A
:102DB00040F218230021C2F20003C3E90C0141F2E2
:102DC0008830CBF8580040F27C30C2F2000002722A
:102DD00080F8331040F6F844C2F200042046FDF7B4
:102DE0000BFD05462046FDF701FE85421BD140F64E
:102DF000B054C2F200042046FDF7FEFC0546204612
:102E0000FDF7F4FD85420ED140F270510020C2F270
:102E10000001CAF86C00886040F27C30C2F2000009
:102E2000012180F83410BDEC108B01B0BDE8F08FAB
:102E3000012000F0A7BF000072B600BFFEE700004F
:102E400070B542F220060446C4F2020604F080F98E
:102E5000316811F00B0F20D0BCB30546601C11D1B6
:102E6000306810F00B0F18D0306810F00B0F14D032
:102E7000306810F00B0F10D0306810F00B0FEFD14E
:102E80000BE000BF04F064F9401BA04284BF0320A4
:102E900070BD306810F00B0FF4D1306810F41E00D4
:102EA00009D040F2A001C2F200014A6802434A6020
:102EB0003061012070BD3068C0035CBF002070BD70
:102EC0004FF480303061002070BD04F041F90320E0
:102ED00070BD000040F22070C2F2000000F0F6BBAE
:102EE00040F29870C2F2000000F0F0BB40F6100013
:102EF000C2F2000000F0EABB00284FF0010218BF48
:102F0000002901D110467047B0B5D0E904C2C369A9
:102F1000D0F818E01A43C36B1A4342EA0C0242EAA3
:102F20000E020A6003789B0616D5D0E909C3D0F8D3
:102F30002CE04FF07C75846B05EB03534FF47C75EC
:102F400005EB0C1542EA0E0203F07C73224305F4F4
:102F50007C751A432A430A604268036B40F2FF25DE
:102F60002A401A434A60C368B3F5007F08D0B3F51E
:102F7000806F08D103789B0605D542F4806201E09A
:102F800042F400724A60436B1A434A60436C43B197
:102F9000856C046C1A4305F03F05224342EA054262
:102FA0004A60B0F8682040F2000C8A600378C0F2F2
:102FB000FF7C9B0722D5C36C0CEB034303EA0C0395
:102FC0001A438A60036D002B48BF02F180528A6069
:102FD000436D002B48BF02F100528A60836D22F0DE
:102FE0008045002B48BF42F080458D60C26D25F0C2
:102FF0000043002A48BF45F000438B60026ECA6060
:10300000426E0A610278920720D5026D0023002AE1
:1030100048BF52426FF35F324A61456D2C04002D68
:1030200048BFA3EB05440CF1C05525402A444A6132
:10303000826D002A48BF524292B28A61C56D2C044B
:10304000002D48BFA3EB054422448A610068820733
:103050004FF4E06258BF4FF4A062104300220862B0
:10306000BDE8B04010467047B0B5044604F070F8B3
:10307000002C04BF0120B0BD00210546206884F863
:103080004C10022184F85410416941F0060141615D
:103090004169C90709D000BF04F05AF8401B052850
:1030A00050D820684169C907F6D14FF6B072CBF607
:1030B000FD7202446FF01F03A16B03EBF213E56B8B
:1030C000082B41EA050103D34FEAF212072A01D87F
:1030D000226C1143426922F44302114341610021F1
:1030E0000164626C426441F24F32C4F202029042C7
:1030F0008164C16401650CDC40F25031C4F202010C
:10310000884212D040F2D031C4F2020188420CD081
:103110000EE041F2D031C4F20201884205D041F202
:103120005031C4F20201884202D10021416581651B
:103130000021C167A06C012220650020A16584F8F0
:103140005420B0BD012003221021A16584F8542031
:10315000B0BD00002DE9F04300284FF0010318BF77
:10316000002A02D11846BDE8F0834369012B04D13F
:10317000042101610120BDE8F083056842EA0103F2
:103180000F462B43002908BF1746002D18BF2F46B6
:103190007B40B3F5803F08D265B195F8203061B12E
:1031A00091F82070BB42E3D107E0052101610120C5
:1031B000BDE8F08331B191F8203092F82070BB4225
:1031C000D6D100E0176A02230373002340F2000CFB
:1031D00003617B08CFF6010C63F3596C63F39A6CBF
:1031E00007F00203002D03F1050E47D0002950D04F
:1031F000D0F808904FF6FC7311EA03044FF0000773
:1032000055D0B9F1000F4FF0000351D04FF6FF73C6
:103210009D4300274FF6FC78002345EA0706074642
:10322000002B18BF06EB8E073F685E1C4E4507EA71
:10323000080737D2A74235D045EA070656F82E7060
:103240009E1C4E4507EA08072CD2A7422AD045EA21
:10325000070656F82E70DE1C4E4507EA080721D2F5
:10326000A7421FD045EA070656F82E6004334B45A7
:1032700006EA08071CD2A742CFD119E0A1B14FF648
:10328000FC731A4042EA0C02016041F82E20022130
:103290002DE04FF6FC71294041EA0C0142F82E1056
:1032A000026022E0334603E0026001211FE00023B8
:1032B000A74209D14B450DD143687BB14FF6FC7451
:1032C000234043EA0C0307E006210123016118466D
:1032D000BDE8F08351F82E3042F82E304FF6FC73E3
:1032E0001A4042EA0C0241F82E20816801318160C7
:1032F00000230121036101731846BDE8F08300003B
:1033000000284FF0010218BF002901D11046704774
:1033100090F8543090F85420052B18BF022A06D19B
:1033200040218165002180F84C10012070470A7B04
:10333000022A03D1012210460A617047026841F255
:103340004F33C4F202039A4208DC40F25033C4F215
:1033500002039A420ED040F2D03307E041F25033DC
:10336000C4F202039A4205D041F2D033C4F2020300
:103370009A420ED1036D4A68812B04D12AB10022F2
:10338000416710467047002AF9D0042008610120E7
:1033900070470A6892F820209207EBD50320086155
:1033A000012070472DE9F043002804BF0120BDE84B
:1033B000F083D0F800E0BEF1000F07D0416851B1B2
:1033C000714504BF0020BDE8F08307E002210161E0
:1033D0000120BDE8F0834169012904D10421016184
:1033E0000120BDE8F0830221017300210161DEF8B4
:1033F000202040F2000C5308CFF6010C846863F3E0
:10340000596C02F0020263F39A6C02F105035CB19D
:103410004FF6FF72651E2EEA0202032D04F0030828
:1034200004D20025002623E0002542E0A4EB080991
:1034300000254FF6FC74002615430746002E18BFE2
:1034400005EB83073D6804362540154355F82350A6
:10345000B14505EA040545EA020555F8235005EA99
:10346000040545EA020555F8235005EA0405E3D1B1
:10347000B8F1000F1DD042EA05040546002E18BF22
:1034800004EB83052D684FF6FC74B8F1010F05EAD3
:1034900004050ED0154355F82350B8F1020F05EA84
:1034A000040506D02A4352F823204FF6FC7402EAA2
:1034B00004054FF6FF724FF6FC742EEA020204EA8E
:1034C0000E042A4344EA0C0742F823700122C0F894
:1034D00004E0016102730846BDE8F08380B500286E
:1034E00056D0436F002B53D090F85410D0F800E022
:1034F0000129DEF814C004D002294BD11CF480311C
:1035000048D090F8541001293AD190F84C10012974
:103510004FF0020144D0012280F84C2080F8541072
:103520001973002181651961DEF8141041F4BA4164
:10353000CEF81410416E29B1DEF8141041F4007178
:10354000CEF81410006F28B1DEF8140040F40050DB
:10355000CEF8140018680022016ACFF6010249086B
:1035600061F3596261F39A624FF6FF7120EA01013B
:10357000CEF800104FF6FC7108401044CEF87C00E5
:10358000DEF8140040F00100CEF81400002080BDE9
:10359000012080BD40218165002180F84C1001216F
:1035A000084680BDB0B5044603F0D2FD002C04BF30
:1035B0000120B0BD054694F8540002282DD12168A1
:1035C000486940F004004861052084F85400086907
:1035D000800408D403F0BCFD401B052824D82168D2
:1035E00008698004F6D54869012240F0020048616C
:1035F000042084F854004FF4FE40C86084F854203E
:1036000094F8500000064FF0000002D5636F1A7363
:103610008864002184F84C10B0BD2020A0650120F2
:10362000002184F84C10B0BDA06D40F01000A065E2
:10363000032084F8540094F8500000064FF0010075
:1036400044BF616F0873002184F84C10B0BD0000C6
:10365000002804BF0120704790F8541002290AD1B5
:10366000042180F85410006842F2040241691143B9
:1036700041610020704720218165012070470000D2
:10368000024600284FF0010008BF7047126802F59B
:103690007B63C3F3C41CCB065CBF0020704740F6BD
:1036A000FF7301F011019A43112900FA0CF004D1C3
:1036B00051680843506000207047516821EA0000BB
:1036C0005060002070470000806D704710B50446C0
:1036D00000680C22034600F57B6162F30B03C1F323
:1036E000C4111A6822FA01F1C90700F0A380016928
:1036F000490544BF41695FEA41514BD4016909055D
:1037000044BF41695FEA01514CD40169C90444BF17
:1037100041695FEAC1414DD40169490444BF41692F
:103720005FEA41414ED40169890544BF41695FEABE
:1037300081514FD40169890444BF41695FEA8141E5
:1037400052D40169C90544BF41695FEAC15172D4CD
:10375000A06D002808BF10BD2068416941F002013A
:1037600041614069C0074FF0030008BF012084F8A1
:10377000540094F85000000602D5606F01210173D7
:10378000A16E0020002984F84C0053D02046BDE8EB
:10379000104008474FF48061C160A16D41F0010104
:1037A000A165ABE74FF40061C160A16D41F002017A
:1037B000A165AAE74FF48051C160A16D41F00401F9
:1037C000A165A9E74FF48041C160A16D41F00801F6
:1037D000A165A8E74FF40071C160616E0029A9D00E
:1037E000204688472068A5E74FF40051C16094F84F
:1037F000541004292AD1416921F4005141614169E1
:1038000041F0020141614169C9074FF0030108BF5E
:10381000012184F8541094F85010090604D5616F02
:1038200001220A7300218164E16E0020002984F8DE
:103830004C00ABD110BD94F85010090611D4816C26
:10384000002904BF012184F8541013E0052184F8F5
:103850005410216F00293FF474AF20468847206838
:103860006FE7C16F31B9816C21B9012184F854101F
:10387000626F11734FF44071C160216E0020002906
:1038800084F84C001CBF2046884761E7B0B5044669
:1038900003F05EFC002C04BF0120B0BD00210546F2
:1038A000206884F84C10022184F85410416941F0DA
:1038B000060141614169C90709D000BF03F048FC16
:1038C000401B05284FD820684169C907F6D1216AF5
:1038D000426904F1100C22F4430211434161E3698F
:1038E0009CE806101A4311434FF6B072CBF6FD72F6
:1038F00083186FF01F0202EBF31541EA0C02082D4A
:103900004FEAF31C28BFBCF1070F14D804F1240EB2
:103910009EE828404FF07C7101EB05514FF47C7517
:1039200005EB031301F07C7142EA0E0203F47C7391
:10393000114341EA03020264A1682279E36811435A
:10394000226BB3F5007F42EA010213D0B3F5806F1A
:1039500012D1ACF12001082928BFBCF1070F98BF94
:1039600042F4806208E0012003211022A26584F85D
:103970005410B0BD42F40072616B436C42F200150A
:10398000C3F6C0450A432B401A4341F24F33C4F2F9
:10399000020342640022984282640CDC40F25032FE
:1039A000C4F20202904212D040F2D032C4F20202BB
:1039B00090420CD00EE041F2D032C4F202029042AA
:1039C00005D041F25032C4F20202904202D10022EC
:1039D000426582650022C267216501210020A2653F
:1039E00084F85410B0BD000010B500284DD090F8F8
:1039F0004CC0BCF1010F04BF022010BD4FF0010C00
:103A000080F84CC090F854C0BCF1010F38D14FF091
:103A1000020C80F854C04FF0000CC0F858C0D0F829
:103A200000C0D0F864E0DCF84840BEF1000FC3EA03
:103A30000403CCF848304FF4FE43CCF80C30CCF8FB
:103A40004C10CCF85020DCF8141041F4BA41CCF8FA
:103A5000141005D0DCF8141041F40071CCF81410E7
:103A6000006F28B1DCF8140040F40050CCF81400CA
:103A7000DCF8140040F00100CCF81400002010BD68
:103A800040218165002180F84C10012010BD00000C
:103A9000B0B5044603F05CFB054640F27800C2F284
:103AA00000000078611C18BF044400BF03F050FB05
:103AB000401BA042FAD3B0BD2DE9F04F81B040F2D7
:103AC000A00BC2F2000B9BF80020012A02BF0220CB
:103AD00001B0BDE8F08F044601208BF800000026FD
:103AE0004FF47A708946CBF80460FFF7A9F920B14A
:103AF0008BF8006001B0BDE8F08F206848F2080242
:103B000020F0004142F228079142C4F20207CBF8AC
:103B1000080007D1606800F00301032936D148F29C
:103B2000200042E04FF0FF30C9F80000D4E9025015
:103B30002844854241D24FF6D77A4EF23F08C7F665
:103B4000FF7AAE01C7F6FF786068414610F00100C9
:103B5000386808BF6FF4FE514FF0240200EA0100FC
:103B60003860386808BF0AF14D02304310433860AE
:103B70004FF47A70FFF764F908BBD4E9020101350C
:103B8000403608448542DFD300201AE0C1074FF6D3
:103B9000D771C7F6FF7104D03A680A4042F0280294
:103BA0003A60800704D501F1510039680843386054
:103BB0004FF47A70FFF744F904E0002002E0C9F8FE
:103BC0000050002621684FF000423B6862EA010184
:103BD000194039608BF8006001B0BDE8F08F00003B
:103BE00040F2A000C2F200004068704742F2280094
:103BF000C4F20200016841F0010101600068012186
:103C000021EA0000704700002DE9F04381B040F246
:103C1000A009C2F20009154699F80020012A02BF46
:103C2000022001B0BDE8F0838046012089F8000041
:103C3000002042F220040E46C4F20204C9F8040037
:103C400003F086FA216811F00B0F0BD0074600BF76
:103C500003F07EFAC01BB0F57A7F14D8206810F00C
:103C60000B0FF5D1206810F41E0013D0D9F8041002
:103C70000143C9F8041020610120002189F80010D7
:103C800001B0BDE8F0830320002189F8001001B0E5
:103C9000BDE8F0832068C00344BF4FF4803020614A
:103CA00028F000400228C9F8088017D1A06840F029
:103CB0000200A060EFF3108072B629683160696875
:103CC0007160A968B160E968F16080F3108803F061
:103CD0003FFA216811F00B0F0CD117E0A06840F0FB
:103CE0000200A0602888308003F032FA216811F0C9
:103CF0000B0F0BD0054600BF03F02AFA401BB0F5AE
:103D00007A7F0FD8206810F00B0FF5D1206810F4DF
:103D10001E0009D0D9F804100143C9F8041020612D
:103D2000012008E0032006E02068C00344BF4FF4F0
:103D30008030206100204FF02041A26861EA080134
:103D40001140A160002189F8001001B0BDE8F083A6
:103D500042F20400C4F20200416AC90704BF002015
:103D6000704740F22311C4F26751016048F6AB116D
:103D7000CCF6EF510160406A00F00100704700008E
:103D800070470000B0B542F20C05C4F20245296844
:103D90000446014203D020462C6000F00BF868680E
:103DA000204208BFB0BD20466C60BDE8B040FFF7C0
:103DB000E7BF00002DE9F04F81B040F20C31C2F2B4
:103DC0000001B1F8582040F2EC5840F6181540F2C6
:103DD000902A40F2A01B8242C2F20008C2F2000503
:103DE000C2F2000AC2F2000B43F0C68040F2FC3976
:103DF00040F27C32C2F20009C2F2000299F80100DE
:103E000092F82720104343F0B7802868D8F818208C
:103E1000406A4FF47A7302FB0300DAE90A230027B1
:103E2000801A67EB0302CAE90C0201F144000AF1AF
:103E30004C010C22009007F03FFEDBF82C10002311
:103E40000844CBF82C0000BF0AEB070090F84C6048
:103E500090F84D2073405EB25D0090F84E10C6F3AE
:103E6000C2166DB286EA4303C5F3C2165D0086EA48
:103E700043036EB25D00C6F3C2166DB286EA430319
:103E8000C5F3C2165D0086EA43036EB25D00C6F359
:103E9000C2166DB286EA4303C5F3C2165D0086EA18
:103EA00043036EB25D00C6F3C2166DB286EA4303E9
:103EB000C5F3C216082F86EA430382EA030253B20F
:103EC0004FEA4206C3F3C21376B283EA4202C6F354
:103ED000C2134FEA420683EA420273B24FEA420635
:103EE000C3F3C21376B283EA4202C6F3C2134FEAA7
:103EF000420683EA420273B24FEA4206C3F3C21398
:103F000076B283EA4202C6F3C2134FEA420683EA5C
:103F1000420273B24FEA4206C3F3C21376B283EA97
:103F20004202C6F3C21383EA420281EA02014AB2A4
:103F30004FEA4103C2F3C2125BB282EA4101C3F30A
:103F4000C2124FEA410382EA41015AB24FEA4103E9
:103F5000C2F3C2125BB282EA4101C3F3C2124FEA5A
:103F6000410382EA41015AB24FEA4103C2F3C2124D
:103F70005BB282EA4101C3F3C2124FEA410382EA13
:103F800041015AB24FEA4103C2F3C2125BB282EA64
:103F90004101C3F3C21282EA410233D090F84F00CC
:103FA0000437504041B24200C1F3C21152B281EA1B
:103FB0004000C2F3C211420081EA400051B2420007
:103FC000C1F3C21152B281EA4000C2F3C2114200F1
:103FD00081EA400051B24200C1F3C21152B281EAFB
:103FE0004000C2F3C211420081EA400051B24200D7
:103FF000C1F3C21152B281EA4000C2F3C21181EA98
:10400000400321E79AF85700D1B240F618158142D3
:10401000C2F2000589F8022042F0AE87B9F82230DA
:104020009AF84D40D9B28C4242F0A6879AF84E00D9
:10403000B0EB132F42F0A0879AF84C6089F8050086
:104040009AF85400DBF8307089F80360BAF85560CC
:1040500089F80B0040F27C3040F20008C2F2000008
:10406000C2F20008013789F80440A9F80C6006790B
:1040700098F80A40CBF83070012789F801709AF857
:104080004FC09AF850E09AF851709AF85200A64240
:104090009AF8534089F806C089F807E089F8087053
:1040A00089F8090089F80A4089F80E2040F0268135
:1040B00098F80920464640F2EC589445C2F20008B0
:1040C00042F0438747EA0E2244EA002040F27C3463
:1040D000C2F20004A9F84E20A0F5487294F843708B
:1040E0001B0AC82AA9F8500014D89FB90120A4F8C7
:1040F000420040F60000C4F202204FF48071012219
:1041000003F020F8B9F8220096F809C094F843703B
:10411000C1B2030A4FF0FF3001228AF84110CAF8F9
:104120004500AAF84900002000218AF840208AF8BA
:1041300042308AF843C08AF8447000BF51404AB206
:104140004B00C2F3C2125BB282EA4101C3F3C21256
:104150004B0082EA41015AB24B00C2F3C2125BB279
:1041600082EA4101C3F3C2124B0082EA41015AB212
:104170004B00C2F3C2125BB282EA4101C3F3C21226
:104180004B0082EA41015AB24B00C2F3C2125BB249
:1041900082EA4101C3F3C212082882EA41030AEB12
:1041A000000191F8417091F8422083EA07035FB261
:1041B0004FEA4306C7F3C21776B287EA4303C6F352
:1041C000C2174FEA430687EA430377B24FEA430632
:1041D000C7F3C21776B287EA4303C6F3C2174FEAA2
:1041E000430687EA430377B24FEA4306C7F3C21791
:1041F00076B287EA4303C6F3C2174FEA430687EA5B
:10420000430377B24FEA4306C7F3C21776B287EA91
:104210004303C6F3C21787EA430382EA030253B299
:104220004FEA4207C3F3C2137FB283EA4202C7F3E5
:10423000C2134FEA420783EA42027BB24FEA4207C7
:10424000C3F3C2137FB283EA4202C7F3C2134FEA39
:10425000420783EA42027BB24FEA4207C3F3C2132A
:104260007FB283EA4202C7F3C2134FEA420783EAEE
:1042700042027BB24FEA4207C3F3C2137FB283EA22
:104280004202C7F3C21383EA420300F00D8191F8A2
:10429000437091F8442087EA03014BB24F00C3F307
:1042A000C2137FB283EA4101C7F3C2134F0083EA0E
:1042B00041017BB24F00C3F3C2137FB283EA4101D5
:1042C000C7F3C2134F0083EA41017BB24F00C3F32F
:1042D000C2137FB283EA4101C7F3C2134F0083EADE
:1042E00041017BB24F00C3F3C2137FB283EA4101A5
:1042F000C7F3C213043083EA41011FE798F80D00A9
:104300008642464640F2EC58C2F2000842F01D8652
:1043100040F27C30C2F2000090F87600012806D00E
:10432000307A844503D0B079844542F00E8602F09D
:104330000FFFCBF8280002F00BFF40F27C34C2F2F2
:10434000000494F84C1040F2F447C2F2000701292F
:10435000F86122D19AF84F00B17988421DD002F05D
:10436000F7FE40F60005C4F20225C8F824002846EE
:1043700008210022002402F0E5FE05F580600421FA
:10438000002202F0DFFE40F27C30C2F2000080F832
:104390004C4040F27C34C2F200049AF84F00B179EC
:1043A000884207D002F0D4FEC8F8240002F0D0FE04
:1043B000C8F82000A07B00287AD040F27843C2F2EF
:1043C000000393ED1C0AA646B0EEC00ABDEEC00A7B
:1043D00099F80F2010EE101A99F8106099F8115002
:1043E000FF2A08BF4FF0FF3197ED010A97ED041A3D
:1043F000B0EEC00A89F80F10BDEEC00AFF2E10EE15
:10440000102AB0EEC10A08BF4FF0FF3289F8102021
:10441000BDEEC00AFF2D10EE107A08BF4FF0FF3737
:10442000A5791B8A05F001056679B9F836406D0358
:1044300045EA833304F4706506F001062B4443EA31
:10444000063CB9F8225040F20003FF26C2F20003F6
:104450008AF840608AF841502E0AD3E912538AF84C
:1044600046104FEA1C21132889F811708AF842601F
:104470008AF843008AF844508AF845308AF8472081
:104480008AF848708AF849408AF84A1000F040815A
:10449000122840F0478199F8120009F113018AF8B7
:1044A00046000AF147003BE18AF84B3002F03DBD7F
:1044B0009AF84F003178884240F0178294F8401003
:1044C000002940F08485B9F82410002940F07F8548
:1044D00099F81410012940F07A85D6E912EC9AF87F
:1044E00050309AF852109AF851209E45A9F85C1065
:1044F00089F8123089F8132040F00E84944540F07A
:104500000E848AF8430040F27840C2F200008AF834
:104510004720D0E90520B9F8224035468AF84140C5
:10452000240A8AF8424040F27C348AF84900FE208E
:104530000121C2F200048AF848208AF84A000020CB
:1045400000228AF840108AF844E08AF845C08AF8C8
:10455000463051404AB24B00C2F3C2125BB282EA0B
:104560004101C3F3C2124B0082EA41015AB24B002F
:10457000C2F3C2125BB282EA4101C3F3C2124B0022
:1045800082EA41015AB24B00C2F3C2125BB282EA24
:104590004101C3F3C2124B0082EA41015AB24B00FF
:1045A000C2F3C2125BB282EA4101C3F3C21208280D
:1045B00082EA41030AEB000191F8417091F8422030
:1045C00083EA07035FB24FEA4306C7F3C21776B226
:1045D00087EA4303C6F3C2174FEA430687EA430359
:1045E00077B24FEA4306C7F3C21776B287EA4303AE
:1045F000C6F3C2174FEA430687EA430377B24FEA8E
:104600004306C7F3C21776B287EA4303C6F3C2175D
:104610004FEA430687EA430377B24FEA4306C7F3FC
:10462000C21776B287EA4303C6F3C21787EA430389
:1046300082EA030253B24FEA4207C3F3C2137FB2C6
:1046400083EA4202C7F3C2134FEA420783EA4202F7
:104650007BB24FEA4207C3F3C2137FB283EA42023E
:10466000C7F3C2134FEA420783EA42027BB24FEA22
:104670004207C3F3C2137FB283EA4202C7F3C213F5
:104680004FEA420783EA42027BB24FEA4207C3F392
:10469000C2137FB283EA4202C7F3C21383EA420223
:1046A00000F07F8491F8433091F844105A4053B29F
:1046B0005700C3F3C2137FB283EA4202C7F3C213A7
:1046C000570083EA42027BB25700C3F3C2137FB2A2
:1046D00083EA4202C7F3C213570083EA42027BB265
:1046E0005700C3F3C2137FB283EA4202C7F3C21377
:1046F000570083EA42027BB25700C3F3C2137FB272
:1047000083EA4202C7F3C213043083EA420220E77D
:1047100099F824000EF127018AF844000AF14500B7
:10472000097801700020FF21002200BF51404AB2E9
:104730004B00C2F3C2125BB282EA4101C3F3C21260
:104740004B0082EA41015AB24B00C2F3C2125BB283
:1047500082EA4101C3F3C2124B0082EA41015AB21C
:104760004B00C2F3C2125BB282EA4101C3F3C21230
:104770004B0082EA41015AB24B00C2F3C2125BB253
:1047800082EA4101C3F3C212082882EA41030AEB1C
:10479000000191F8417091F8422083EA07035FB26B
:1047A0004FEA4306C7F3C21776B287EA4303C6F35C
:1047B000C2174FEA430687EA430377B24FEA43063C
:1047C000C7F3C21776B287EA4303C6F3C2174FEAAC
:1047D000430687EA430377B24FEA4306C7F3C2179B
:1047E00076B287EA4303C6F3C2174FEA430687EA65
:1047F000430377B24FEA4306C7F3C21776B287EA9C
:104800004303C6F3C21787EA430382EA030253B2A3
:104810004FEA4207C3F3C2137FB283EA4202C7F3EF
:10482000C2134FEA420783EA42027BB24FEA4207D1
:10483000C3F3C2137FB283EA4202C7F3C2134FEA43
:10484000420783EA42027BB24FEA4207C3F3C21334
:104850007FB283EA4202C7F3C2134FEA420783EAF8
:1048600042027BB24FEA4207C3F3C2137FB283EA2C
:104870004202C7F3C21383EA420202F0548391F862
:10488000433091F844105A4053B25700C3F3C21357
:104890007FB283EA4202C7F3C213570083EA42029F
:1048A0007BB25700C3F3C2137FB283EA4202C7F35D
:1048B000C213570083EA42027BB25700C3F3C2130C
:1048C0007FB283EA4202C7F3C213570083EA42026F
:1048D0007BB25700C3F3C2137FB283EA4202C7F32D
:1048E000C213043083EA420220E77178884240F024
:1048F0000A8140F27847C2F200077968002940F047
:10490000668399F81410012940F06183217E012902
:1049100040F05883B9F822208AF843008AF84120F1
:10492000120A8AF842203A694FF0FF3035460121D9
:104930008AF84420CAF846008AF84A00002000227B
:104940008AF840108AF8451051404AB24B00C2F331
:10495000C2125BB282EA4101C3F3C2124B0082EA87
:1049600041015AB24B00C2F3C2125BB282EA41016A
:10497000C3F3C2124B0082EA41015AB24B00C2F3A8
:10498000C2125BB282EA4101C3F3C2124B0082EA57
:1049900041015AB24B00C2F3C2125BB282EA41013A
:1049A000C3F3C212082882EA41030AEB000191F81E
:1049B000417091F8422083EA07035FB24FEA430651
:1049C000C7F3C21776B287EA4303C6F3C2174FEAAA
:1049D000430687EA430377B24FEA4306C7F3C21799
:1049E00076B287EA4303C6F3C2174FEA430687EA63
:1049F000430377B24FEA4306C7F3C21776B287EA9A
:104A00004303C6F3C2174FEA430687EA430377B26C
:104A10004FEA4306C7F3C21776B287EA4303C6F3E9
:104A2000C21787EA430382EA030253B24FEA4207FE
:104A3000C3F3C2137FB283EA4202C7F3C2134FEA41
:104A4000420783EA42027BB24FEA4207C3F3C21332
:104A50007FB283EA4202C7F3C2134FEA420783EAF6
:104A600042027BB24FEA4207C3F3C2137FB283EA2A
:104A70004202C7F3C2134FEA420783EA42027BB203
:104A80004FEA4207C3F3C2137FB283EA4202C7F37D
:104A9000C21383EA420200F0748291F8433091F825
:104AA00044105A4053B25700C3F3C2137FB283EA93
:104AB0004202C7F3C213570083EA42027BB2570097
:104AC000C3F3C2137FB283EA4202C7F3C213570093
:104AD00083EA42027BB25700C3F3C2137FB283EA78
:104AE0004202C7F3C213570083EA42027BB2570067
:104AF000C3F3C2137FB283EA4202C7F3C213043086
:104B000083EA420220E7B178884240F0278194F896
:104B10003C1094F83E2094F840301143194340F083
:104B20005682B9F8222040F201118AF84120120A77
:104B30008AF842204FF0FF323546A18701218AF8DA
:104B400043000020CAF84520AAF84920002284F832
:104B500040108AF840108AF8440051404AB24B0095
:104B6000C2F3C2125BB282EA4101C3F3C2124B002C
:104B700082EA41015AB24B00C2F3C2125BB282EA2E
:104B80004101C3F3C2124B0082EA41015AB24B0009
:104B9000C2F3C2125BB282EA4101C3F3C2124B00FC
:104BA00082EA41015AB24B00C2F3C2125BB282EAFE
:104BB0004101C3F3C212082882EA41030AEB000153
:104BC00091F8417091F8422083EA07035FB24FEAFF
:104BD0004306C7F3C21776B287EA4303C6F3C21788
:104BE0004FEA430687EA430377B24FEA4306C7F327
:104BF000C21776B287EA4303C6F3C2174FEA4306E9
:104C000087EA430377B24FEA4306C7F3C21776B287
:104C100087EA4303C6F3C2174FEA430687EA430312
:104C200077B24FEA4306C7F3C21776B287EA430367
:104C3000C6F3C21787EA430382EA030253B24FEA7C
:104C40004207C3F3C2137FB283EA4202C7F3C2131F
:104C50004FEA420783EA42027BB24FEA4207C3F3BC
:104C6000C2137FB283EA4202C7F3C2134FEA42077C
:104C700083EA42027BB24FEA4207C3F3C2137FB218
:104C800083EA4202C7F3C2134FEA420783EA4202B1
:104C90007BB24FEA4207C3F3C2137FB283EA4202F8
:104CA000C7F3C21383EA420200F06B8191F84330EC
:104CB00091F844105A4053B25700C3F3C2137FB265
:104CC00083EA4202C7F3C213570083EA42027BB26F
:104CD0005700C3F3C2137FB283EA4202C7F3C21381
:104CE000570083EA42027BB25700C3F3C2137FB27C
:104CF00083EA4202C7F3C213570083EA42027BB23F
:104D00005700C3F3C2137FB283EA4202C7F3C21350
:104D1000043083EA420220E7944540F0FF85217E7B
:104D2000012940F00087012140F27C3584F85A10B7
:104D300084F874100024C2F2000585F8294040F27E
:104D40007C35C2F20005EC7040F27C34C2F2000403
:104D500084F8611040F2DC5100F0E7BEF17888423F
:104D600041F01980B9F82410002901F0998202213C
:104D70008AF84010B9F8221094F84F208AF84110B0
:104D8000090A012A35468AF842108AF8430041F0A0
:104D90008384D8E91D01C21700EB12628AF844002F
:104DA000100A8AF84500C81701EB10608AF846100F
:104DB000000A8AF84700002002210022AAF84800D1
:104DC0008AF84A0051404AB24B00C2F3C2125BB2A9
:104DD00082EA4101C3F3C2124B0082EA41015AB296
:104DE0004B00C2F3C2125BB282EA4101C3F3C212AA
:104DF0004B0082EA41015AB24B00C2F3C2125BB2CD
:104E000082EA4101C3F3C2124B0082EA41015AB265
:104E10004B00C2F3C2125BB282EA4101C3F3C21279
:104E2000082882EA41030AEB000191F8417091F8E9
:104E3000422083EA07035FB24FEA4306C7F3C21773
:104E400076B287EA4303C6F3C2174FEA430687EAFE
:104E5000430377B24FEA4306C7F3C21776B287EA35
:104E60004303C6F3C2174FEA430687EA430377B208
:104E70004FEA4306C7F3C21776B287EA4303C6F385
:104E8000C2174FEA430687EA430377B24FEA430665
:104E9000C7F3C21776B287EA4303C6F3C21787EA9D
:104EA000430382EA030253B24FEA4207C3F3C21339
:104EB0007FB283EA4202C7F3C2134FEA420783EA92
:104EC00042027BB24FEA4207C3F3C2137FB283EAC6
:104ED0004202C7F3C2134FEA420783EA42027BB29F
:104EE0004FEA4207C3F3C2137FB283EA4202C7F319
:104EF000C2134FEA420783EA42027BB24FEA4207FB
:104F0000C3F3C2137FB283EA4202C7F3C21383EA38
:104F1000420201F0B88491F8433091F844105A40AD
:104F200053B25700C3F3C2137FB283EA4202C7F3FE
:104F3000C213570083EA42027BB25700C3F3C21385
:104F40007FB283EA4202C7F3C213570083EA4202E8
:104F50007BB25700C3F3C2137FB283EA4202C7F3A6
:104F6000C213570083EA42027BB25700C3F3C21355
:104F70007FB283EA4202C7F3C213043083EA4202DB
:104F800020E7DBF834008AF84B200130CBF83400FE
:104F900000980AF140010C220F2306F0F5FE2E4680
:104FA00021E0DBF834008AF84B200130CBF83400E4
:104FB00000980AF140010C220F2306F0E5FE0920BB
:104FC00001F031B894F84010002901F06782DBF855
:104FD00034000AF140010130CBF8340000980C2273
:104FE0000F2306F0D1FE9AF84F00717940F618159C
:104FF0008842C2F2000540F01A8199F81410012984
:1050000041F09387B9F82410002902BF94F84010AA
:1050100094F8572051EA020141F08787D6E912320D
:105020009AF850709AF85110BB4284F8587084F87E
:10503000591040F04D838A4240F04D838AF8430076
:1050400094F82100B9F822708AF846004FF0FF303A
:1050500001218AF841703F0A8AF84520CAF84700C2
:10506000002000228AF840108AF842708AF8443002
:1050700051404AB24B00C2F3C2125BB282EA410114
:10508000C3F3C2124B0082EA41015AB24B00C2F391
:10509000C2125BB282EA4101C3F3C2124B0082EA40
:1050A00041015AB24B00C2F3C2125BB282EA410123
:1050B000C3F3C2124B0082EA41015AB24B00C2F361
:1050C000C2125BB282EA4101C3F3C212082882EA2B
:1050D00041030AEB000191F8417091F8422083EA04
:1050E00007035FB24FEA4306C7F3C21776B287EAF7
:1050F0004303C6F3C2174FEA430687EA430377B276
:105100004FEA4306C7F3C21776B287EA4303C6F3F2
:10511000C2174FEA430687EA430377B24FEA4306D2
:10512000C7F3C21776B287EA4303C6F3C2174FEA42
:10513000430687EA430377B24FEA4306C7F3C21731
:1051400076B287EA4303C6F3C21787EA430382EACB
:10515000030253B24FEA4207C3F3C2137FB283EA9A
:105160004202C7F3C2134FEA420783EA42027BB20C
:105170004FEA4207C3F3C2137FB283EA4202C7F386
:10518000C2134FEA420783EA42027BB24FEA420768
:10519000C3F3C2137FB283EA4202C7F3C2134FEADA
:1051A000420783EA42027BB24FEA4207C3F3C213CB
:1051B0007FB283EA4202C7F3C21383EA420201F0DC
:1051C000B28691F8433091F844105A4053B25700D8
:1051D000C3F3C2137FB283EA4202C7F3C21357007C
:1051E00083EA42027BB25700C3F3C2137FB283EA61
:1051F0004202C7F3C213570083EA42027BB2570050
:10520000C3F3C2137FB283EA4202C7F3C21357004B
:1052100083EA42027BB25700C3F3C2137FB283EA30
:105220004202C7F3C213043083EA420220E7B17995
:10523000884240F0078199F81510002941F08586D1
:10524000B9F822208AF843008AF84120120A8AF825
:10525000422040F27C32C2F2000292F8210092F821
:105260002220D9F83A308AF84900FF2001218AF833
:1052700044208AF84A000020002289F815108AF894
:105280004010CAF8453051404AB24B00C2F3C21236
:105290005BB282EA4101C3F3C2124B0082EA4101D0
:1052A0005AB24B00C2F3C2125BB282EA4101C3F3AD
:1052B000C2124B0082EA41015AB24B00C2F3C21241
:1052C0005BB282EA4101C3F3C2124B0082EA4101A0
:1052D0005AB24B00C2F3C2125BB282EA4101C3F37D
:1052E000C212082882EA41030AEB000191F84170DA
:1052F00091F8422083EA07035FB24FEA4306C7F3FF
:10530000C21776B287EA4303C6F3C2174FEA4306D1
:1053100087EA430377B24FEA4306C7F3C21776B270
:1053200087EA4303C6F3C2174FEA430687EA4303FB
:1053300077B24FEA4306C7F3C21776B287EA430350
:10534000C6F3C2174FEA430687EA430377B24FEA30
:105350004306C7F3C21776B287EA4303C6F3C21700
:1053600087EA430382EA030253B24FEA4207C3F3D8
:10537000C2137FB283EA4202C7F3C2134FEA420765
:1053800083EA42027BB24FEA4207C3F3C2137FB201
:1053900083EA4202C7F3C2134FEA420783EA42029A
:1053A0007BB24FEA4207C3F3C2137FB283EA4202E1
:1053B000C7F3C2134FEA420783EA42027BB24FEAC5
:1053C0004207C3F3C2137FB283EA4202C7F3C21398
:1053D00083EA420200F0658191F8433091F844106D
:1053E0005A4053B25700C3F3C2137FB283EA42025A
:1053F000C7F3C213570083EA42027BB25700C3F3DC
:10540000C2137FB283EA4202C7F3C213570083EA92
:1054100042027BB25700C3F3C2137FB283EA420257
:10542000C7F3C213570083EA42027BB25700C3F3AB
:10543000C2137FB283EA4202C7F3C213043083EA85
:10544000420220E7F179884240F01181217E012952
:1054500017D194F82910A1B9202040F600076070F8
:105460000120C4F2022784F82900384608210022CE
:1054700001F068FE07F580600421002201F062FE61
:10548000F079B9F822208AF843008AF84120120AFC
:105490008AF84220E2784FF0FF3001218AF8442058
:1054A000CAF84500AAF84900002000228AF84010F6
:1054B00051404AB24B00C2F3C2125BB282EA4101D0
:1054C000C3F3C2124B0082EA41015AB24B00C2F34D
:1054D000C2125BB282EA4101C3F3C2124B0082EAFC
:1054E00041015AB24B00C2F3C2125BB282EA4101DF
:1054F000C3F3C2124B0082EA41015AB24B00C2F31D
:10550000C2125BB282EA4101C3F3C212082882EAE6
:1055100041030AEB000191F8417091F8422083EABF
:1055200007035FB24FEA4306C7F3C21776B287EAB2
:105530004303C6F3C2174FEA430687EA430377B231
:105540004FEA4306C7F3C21776B287EA4303C6F3AE
:10555000C2174FEA430687EA430377B24FEA43068E
:10556000C7F3C21776B287EA4303C6F3C2174FEAFE
:10557000430687EA430377B24FEA4306C7F3C217ED
:1055800076B287EA4303C6F3C21787EA430382EA87
:10559000030253B24FEA4207C3F3C2137FB283EA56
:1055A0004202C7F3C2134FEA420783EA42027BB2C8
:1055B0004FEA4207C3F3C2137FB283EA4202C7F342
:1055C000C2134FEA420783EA42027BB24FEA420724
:1055D000C3F3C2137FB283EA4202C7F3C2134FEA96
:1055E000420783EA42027BB24FEA4207C3F3C21387
:1055F0007FB283EA4202C7F3C21383EA420201F098
:10560000928491F8433091F844105A4053B25700B5
:10561000C3F3C2137FB283EA4202C7F3C213570037
:1056200083EA42027BB25700C3F3C2137FB283EA1C
:105630004202C7F3C213570083EA42027BB257000B
:10564000C3F3C2137FB283EA4202C7F3C213570007
:1056500083EA42027BB25700C3F3C2137FB283EAEC
:105660004202C7F3C213043083EA420220E7317AD0
:10567000884241F06A849AF8501040F27C36012941
:10568000C2F2000640F0CD8596F82320022A00F0F1
:10569000C885F17BB27D114301F00781012101F042
:1056A0004EBBDBF834008AF84B200130CBF83400D5
:1056B00000980AF140010C220F2306F065FB40F62A
:1056C00018150020C2F2000589F8150001F03DBC54
:1056D0008A4240F0AD84B9F82270C8E90B328AF8EA
:1056E00045204FF0FF3201218AF841703F0A8AF8C5
:1056F00043000020CAF84720002284F840108AF8AE
:1057000040108AF842708AF844308AF846005140C6
:105710004AB24B00C2F3C2125BB282EA4101C3F348
:10572000C2124B0082EA41015AB24B00C2F3C212CC
:105730005BB282EA4101C3F3C2124B0082EA41012B
:105740005AB24B00C2F3C2125BB282EA4101C3F308
:10575000C2124B0082EA41015AB24B00C2F3C2129C
:105760005BB282EA4101C3F3C212082882EA410314
:105770000AEB000191F8417091F8422083EA070397
:105780005FB24FEA4306C7F3C21776B287EA430314
:10579000C6F3C2174FEA430687EA430377B24FEADC
:1057A0004306C7F3C21776B287EA4303C6F3C217AC
:1057B0004FEA430687EA430377B24FEA4306C7F34B
:1057C000C21776B287EA4303C6F3C2174FEA43060D
:1057D00087EA430377B24FEA4306C7F3C21776B2AC
:1057E00087EA4303C6F3C21787EA430382EA030248
:1057F00053B24FEA4207C3F3C2137FB283EA4202B5
:10580000C7F3C2134FEA420783EA42027BB24FEA70
:105810004207C3F3C2137FB283EA4202C7F3C21343
:105820004FEA420783EA42027BB24FEA4207C3F3E0
:10583000C2137FB283EA4202C7F3C2134FEA4207A0
:1058400083EA42027BB24FEA4207C3F3C2137FB23C
:1058500083EA4202C7F3C21383EA420235D091F8C9
:10586000433091F844105A4053B25700C3F3C21367
:105870007FB283EA4202C7F3C213570083EA4202AF
:105880007BB25700C3F3C2137FB283EA4202C7F36D
:10589000C213570083EA42027BB25700C3F3C2131C
:1058A0007FB283EA4202C7F3C213570083EA42027F
:1058B0007BB25700C3F3C2137FB283EA4202C7F33D
:1058C000C213043083EA420221E7DBF834008AF88D
:1058D0004B200130CBF8340000980AF140010C2233
:1058E0000F2306F051FA94F8570040F61815C2F24B
:1058F0000005002841F02983B9F82400002841F070
:10590000248340F27C310120C2F2000181F857006B
:105910004FF0FF300BF05CF801F013BB8AF8430046
:1059200040F27840C2F200008AF84720D0E9052012
:105930001221A173B9F8224000218AF84140240ABB
:105940008AF84900FF2035468AF840108AF842401C
:105950008AF844E08AF845C08AF846308AF8482038
:105960008AF84A000020002251404AB24B00C2F39C
:10597000C2125BB282EA4101C3F3C2124B0082EA57
:1059800041015AB24B00C2F3C2125BB282EA41013A
:10599000C3F3C2124B0082EA41015AB24B00C2F378
:1059A000C2125BB282EA4101C3F3C2124B0082EA27
:1059B00041015AB24B00C2F3C2125BB282EA41010A
:1059C000C3F3C212082882EA41030AEB000191F8EE
:1059D000417091F8422083EA07035FB24FEA430621
:1059E000C7F3C21776B287EA4303C6F3C2174FEA7A
:1059F000430687EA430377B24FEA4306C7F3C21769
:105A000076B287EA4303C6F3C2174FEA430687EA32
:105A1000430377B24FEA4306C7F3C21776B287EA69
:105A20004303C6F3C2174FEA430687EA430377B23C
:105A30004FEA4306C7F3C21776B287EA4303C6F3B9
:105A4000C21787EA430382EA030253B24FEA4207CE
:105A5000C3F3C2137FB283EA4202C7F3C2134FEA11
:105A6000420783EA42027BB24FEA4207C3F3C21302
:105A70007FB283EA4202C7F3C2134FEA420783EAC6
:105A800042027BB24FEA4207C3F3C2137FB283EAFA
:105A90004202C7F3C2134FEA420783EA42027BB2D3
:105AA0004FEA4207C3F3C2137FB283EA4202C7F34D
:105AB000C21383EA420200F0A38291F8433091F8C6
:105AC00044105A4053B25700C3F3C2137FB283EA63
:105AD0004202C7F3C213570083EA42027BB2570067
