:020000040800F2
:1000000000140020F9020008019E0008C58B0008BA
:10001000159900088519000821D200080000000089
:100020000000000000000000000000001DAC0008FF
:10003000A92D00080000000061A00008C9B5000853
:100040001503000815030008150300080000000050
:100050001503000815030008150300080000000040
:10006000150300081503000800000000AD2D00086E
:100070001503000815030008150300081503000800
:1000800015030008150300081503000815030008F0
:1000900015030008150300081503000815030008E0
:1000A000150300081503000815030008512E000869
:1000B0005D2E0008692E00081503000815030008CE
:1000C00015030008150300081503000815030008B0
:1000D00000000000150300081503000815030008C0
:1000E0001503000815030008150300081503000890
:1000F0001503000875B6000881B60008000000006E
:10010000000000001503000815030008150300088F
:10011000150300081503000815030008150300085F
:1001200015030008150300081503000815D2000880
:10013000150300080000000000000000150300087F
:10014000150300080000000000000000000000008F
:10015000000000000000000015030008000000007F
:10016000000000000000000015030008150300084F
:10017000000000000000000000000000000000007F
:10018000000000000000000000000000000000006F
:10019000000000000000000000000000000000005F
:1001A000000000000000000015030008150300080F
:1001B00015030008150300081503000815030008BF
:1001C00015030008150300080000000000000000EF
:1001D00000000000000000000000000015030008FF
:1001E00015030008000000000000000000000000EF
:1001F00000000000000000000000000000000000FF
:1002000000000000150300081503000800000000AE
:1002100000000000150300080000000000000000BE
:1002200000000000000000000000000015030008AE
:10023000150300080000000000000000000000009E
:10024000000000000000000000000000150300088E
:10025000150300081503000800F002F800F03CF850
:100260000AA090E8000C82448344AAF10107DA4511
:1002700001D100F031F8AFF2090EBAE80F0013F027
:10028000010F18BFFB1A43F0010318473C49010056
:100290005C490100103A24BF78C878C1FAD85207E7
:1002A00024BF30C830C144BF04680C6070470000F0
:1002B0000023002400250026103A28BF78C1FBD86F
:1002C000520728BF30C148BF0B6070471FB514F0FC
:1002D0001CFA1FBD10B510BD00F008F91146FFF75C
:1002E000F5FF0FF019F900F026F903B4FFF7F2FF5C
:1002F00003BC00F029F900000A4880470A4800477B
:10030000FEE7FEE7FEE7FEE7FEE7FEE7FEE7FEE7C5
:10031000FEE7FEE7FEE7000004480549054A064BF4
:1003200070470000CDB5000859020008000E0020FB
:1003300000140020001000200010002053EA020CDE
:1003400000F069802DE9F04B4FF00006002B1FBF35
:10035000B3FA83F503FA05F424FA05F65E4012BFFA
:100360001643B2FA82F502FA05F4C5F120051EBF64
:1003700022FA05FC44EA0C04203556EA044C4FEA04
:10038000144418BF641C4FF000084FF0000990425D
:1003900071EB030C39D3002919BFB1FA81F701FAC7
:1003A00007F6B0FA80F700FA07F6C7F120071EBF7C
:1003B00020FA07FC46EA0C062037B6FBF4FCA7EB54
:1003C0000507103F07F01F0BCBF120062CFA06F6AD
:1003D0000CFA0BFB44BFB3460026202FA4BF5E4699
:1003E0004FF0000B5BEA060C08BF4FF0010B19EB56
:1003F0000B0948EB0608ABFB027C06FB02CC0BFBAF
:1004000003CCC01B71EB0C01C1E70B460246414611
:100410004846BDE8F08B13B5084318BF4FF0FF30D6
:100420000146AFF30080BDE81C4070474FF000026A
:100430000429C0F0128010F0030C00F01B80CCF1F6
:10044000040CBCF1020F18BF00F8012BA8BF20F864
:10045000022BA1EB0C0100F00DB85FEAC17C24BFB8
:1004600000F8012B00F8012B48BF00F8012B704762
:100470004FF0000200B5134694469646203922BF3D
:10048000A0E80C50A0E80C50B1F12001BFF4F7AF88
:10049000090728BFA0E80C5048BF0CC05DF804EB6A
:1004A000890028BF40F8042B08BF704748BF20F8D8
:1004B000022B11F0804F18BF00F8012B70477047D6
:1004C0007047704710B500F009F8006810BD10B50E
:1004D000044600F003F8046010BD000000487047B7
:1004E000C800002000487047C80000207546FFF78C
:1004F000F9FFAE4605006946534620F007008546E1
:1005000018B020B5FFF708FFBDE820404FF0000607
:100510004FF000074FF000084FF0000BAC46ACE87E
:10052000C009ACE8C009ACE8C009ACE8C00921F0DA
:1005300007018D46704710B50446AFF30080204692
:10054000BDE81040FFF7D1BE01491820ABBEFEE761
:1005500026000200704700002DE9F04F81B02DED1C
:10056000108B40F2D04AC2F2000ADAF86400012887
:1005700040F0478240F2D830C2F2000090ED120AFB
:100580009AED1E2A9AED1A1A30EE020A9AED1D2AE9
:1005900031EE403A80ED120A23EE022AB5EE402AEF
:1005A000F1EE10FA07DA40F2D830B0EE410AC2F2AA
:1005B000000080ED121ABDEEC00A40F6304610EE83
:1005C000100AC2F20006002848BF404200EE100A9E
:1005D0003046B8EEC00A00F0E3FB304600F010FBF6
:1005E000002848BF404213F02CFC80463046894624
:1005F00000F070FC002848BF404213F022FC044683
:1006000040F20000C2F20000806D0D4613F019FCAC
:1006100040F2800BC2F2000B9BED000B56EC107BFE
:1006200033463A4613F01CFA02460B46204629464A
:1006300013F0B6FE42464B4613F0D5FF40F2583851
:100640000028C2F2000840F05F8198F837000128C6
:1006500040F05A8140F25440C2F20000806A002803
:1006600040F0528140F2D830C2F20000806C13F0AA
:1006700081FF02460B463846314613F085FC41ECBB
:10068000100B4FF08040002140EC181BB0EE481AD0
:10069000F0EE681A11F010FC51EC100B13F0F2F8A8
:1006A00040F20004C2F2000409EE100AE08C13F0DC
:1006B000DFFBB0EE481A41EC100BF0EE681A11F0B7
:1006C000FBFB51EC100B13F0DDF800EE100A94ED7B
:1006D000162A39EE400AB6EE001A40F24C5920EEC6
:1006E000010AB8EEC21AC2F2000980EE010A99EDC1
:1006F000078A99ED08AAE08CB0EECA1A02EE100A39
:10070000B0EEC0BAB0EEC80AB4EE410A89ED06BA3E
:10071000B8EE429AF1EE10FA0ADA2AEE090A89EDE9
:10072000099A80EE081AB0EE490AB0EE419A05E047
:1007300028EE090A80EE0A0A89ED090A10EE100A6D
:1007400089ED0A9A13F016FF9BED000B54EC105B39
:1007500023462A4613F084F913F094F806460DEE6A
:10076000100A1BEE100A13F005FF2A46234613F069
:1007700077F913F087F80021B7EE00EA0CEE101AB3
:1007800040F2D832B4EE4CDA0021C2F20002F1EEAF
:1007900010FAB8BF012188F8351092ED120A92EDD7
:1007A00013FA3DEE400ABFEE00DACAF86860B5EE13
:1007B000400ACAF86C008AED1C0AF1EE10FA7EFEBF
:1007C0000D8ACAED1D8A13F0D5FE4AF6FC1246F2D8
:1007D0004D23CDF2F122C3F6507313F0D5FB06463C
:1007E00018EE900A0F4613F0C5FE02460B4630463F
:1007F000394613F0C9FB13F045F8CAF87800012018
:10080000CAF8640040F6BC10C2F2000040F2C851C1
:10081000D0F800B0C2F200018F6ADBF82400322168
:1008200007FB010040F2A011C2F2000100222AEEF3
:100830000B0AC1E9060219EE100A80EE088A13F0CD
:1008400099FE2A46234613F00BF913F01BF80646CF
:1008500009EE100A18EE100A13F08CFE2A46234601
:1008600013F0FEF813F00EF8B4EE4C9A39EE4F0A7E
:10087000F1EE10FA4FF00001B5EE400AB8BF0121C9
:1008800088F83610F1EE10FAC9F804603EFE0D8AC1
:10089000C9F8080089ED030A89ED048A13F06AFE9D
:1008A0004AF6FC1246F24D23CDF2F122C3F6507304
:1008B00013F06AFB044618EE100A0D4613F05AFEB8
:1008C00002460B462046294613F05EFB12F0DAFF83
:1008D0000123C9F81400C9F80030DBF824003221E4
:1008E00007FB010040F2A0110022C2F20001C1E9A1
:1008F000080240F2000141F28830C2F2000148656E
:1009000088F8083088F8372040F63044C2F20004F6
:10091000204600F075F90546204600F0DBFA8542D6
:100920001ED198F8380001281AD140F2D8310020A1
:10093000C2F2000188F83800886C40F24C54C96C4F
:10094000C2F20004C4E90B0140F69840C2F2000074
:1009500000F056F900EE100AB8EEC00A84ED0D0A58
:1009600040F69844C2F20004204600F049F90546DA
:10097000204600F0AFFA85421ED198F839000128D0
:100980001AD140F2D8310020C2F2000188F83900B3
:10099000886C40F24C54C96CC2F20004C4E90E01E8
:1009A00040F63040C2F2000000F02AF900EE100AD2
:1009B000B8EEC00A84ED100A40F63044C2F20004DA
:1009C000204600F01DF90546204600F083FA8542D6
:1009D00017D140F69844C2F20004204600F010F906
:1009E0000546204600F076FA85420AD140F24C5185
:1009F0000020C2F20001CAF864000860012088F8F3
:100A00003A00BDEC108B01B0BDE8F08F70B5DDE9A8
:100A100004CE01700021FF268684C0E90A110386F6
:100A2000A0F832E0C0E90F2C46F286624FF07E5407
:100A30000325C4F6691280F8381080F86410C0E904
:100A40001412C0E916140166C0E90111C0E90314CB
:100A5000C0E90544C0E90715BDE87040AFF3008068
:100A60002DE9F04381B0044694ED030A4068A16883
:100A700020EE000A0F1A10EE100A13F07BFD054657
:100A800060690E4613F076FD02460B4612F02CFF0D
:100A900002460B462846314612F0E2FF13F074F985
:100AA00047B9012806DC0020E061E060206501B064
:100AB000BDE8F083012F0BDBD4F85080B8F1010FB3
:100AC000C0F28380874213DD94F86010B9B90FE05B
:100AD000D4F85080B7F1FF3F0EDC7942B8F1010F36
:100AE000C0F28180884203DA94F86010012906D1AF
:100AF000C0F10008C4F85080B8F1000F3FD0A06DDD
:100B000013F038FD02460B4606460F4612F0ECFE87
:100B100005464046894613F094F90023CCF21003B1
:100B2000002213F031FA0023CBF6F073002212F00A
:100B3000DBFE02460B462846494612F091FF02466C
:100B40000B463046394612F0CFFE12F09BFE00EE07
:100B5000100ABDEEC00A94ED171A10EE100ABDEE91
:100B6000C11A11EE101A8842C8BF014600EE101AD1
:100B7000B8EEC00A94F8600084ED160A0BE0616DCF
:100B800000204FF00008002FC8BF0120A16500EE33
:100B9000101A84F8600042F20041C4F6741101EEAC
:100BA000101A08F1010181EE001A2165BCEEC00A9D
:100BB000002884ED070A84ED031A04BFB1EE410A50
:100BC00084ED030A01B0BDE8F083874294DDB8F1FB
:100BD000000F91D094F86000012890D1C8F100086E
:100BE000C4F850808BE78842BFF686AFB8F1000F9B
:100BF0003FF482AF94F8600000287FF480AFEDE707
:100C00004068704782688A4214BF81607047FFF76E
:100C100027BF000070B504464068A16881424FF0CC
:100C2000000008BF70BDE2694FF00001C8BF01219C
:100C300084F86010F2B10FF081FA0546D4E90A0198
:100C4000E269EE17281A66EB0101801A71F10000C3
:100C50003CBF002070BD94F860006168012818BF97
:100C60004FF0FF3008446060204600F0E3F80120B8
:100C7000C4E90A5670BD000010B52DED028BB5EE2B
:100C8000400AF1EE10FA02D1BDEC028B10BD90EDDE
:100C9000051AB0EEC08A0446B4EE481AF1EE10FA16
:100CA000F2D081EE080A94ED141A18EE100AB8EE8C
:100CB000C11A20EE010ABDEEC00A84ED140A13F039
:100CC00059FC02460B4600204FF0804112F0C8FE4E
:100CD00041EC100B12F044F851EC100B4AF2CA131D
:100CE00041F26F22C3F6E573CCF2830213F04CF9A4
:100CF00048F28043C4F22E13002213F045F912F09B
:100D0000C1FD014684ED058A20466165BDEC028B7C
:100D1000BDE81040FFF7A4BE00220265C261C0E931
:100D20000111C2607047000070B590ED041AB0EE7A
:100D3000C00AB4EE401AF1EE10FA08BF70BD0446C6
:100D400042F2004084ED040AC4F6741001EE100A69
:100D5000206D81EE001A012884ED171A1FDB94ED37
:100D6000030A20EE000A10EE100A13F003FC0546F9
:100D700060690E4613F0FEFB02460B4612F0B4FD0E
:100D800002460B462846314612F06AFE12F0FCFF7E
:100D9000014620462165BDE87040FFF761BE70BD89
:100DA000B0B52DED028B90ED031AB4EE401AF1EEC2
:100DB00010FA02D1BDEC028BB0BD90ED041A0446CE
:100DC000B1EE412A0025B4EE402A81FE400AF1EE40
:100DD00010FA32FE008AB5EE408AF1EE10FA05D123
:100DE000E56184ED038ABDEC028BB0BD18EE100AFC
:100DF00013F0C0FB0B4648F280410246C4F22E11AC
:100E0000002012F02DFEEA0F62F3DF7112F0ECFF0A
:100E100000EE105AB4EE408AF1EE10FAC8BF012578
:100E200084F860500546E56184ED038ABDEC028BD1
:100E3000B0BD0000B0B590F860500446002D18BF5A
:100E40000125C06B94F86120218E002A18BF012271
:100E500003F054FE94F86220206C618E002A18BFC3
:100E600001226A4003F04AFE94F86050002D18BF3A
:100E7000012594F86120E06B218EB2FA82F25209CA
:100E800003F03CFE94F86220206C618E002A18BFAB
:100E900001226A4003F032FE03200DF015F994F8A8
:100EA0006050002D18BF0125E06B94F86120218E61
:100EB000002A18BF012203F021FE94F86220206C62
:100EC000618E002A18BF01226A40BDE8B04003F0DD
:100ED00015BE0000806870472DE9F0412DED028BB2
:100EE00040F60004C4F2022403F00EFE054620463C
:100EF000042103F0FDFD40F25836C2F2000696F8D8
:100F00002F1088421DD140F2F020C2F20000D0E93B
:100F10000C1240F28007C2F20007BF68691A4FF056
:100F2000000363EB0202791A40F228114FF001002E
:100F3000C2F2000173EB020281F83B0028BF0020DF
:100F40000DE040F22810C2F20000002180F83B10B2
:100F500040F2F020C2F20000C0E90C51002086F8F7
:100F6000300003F0D1FD05462046022103F0C0FD0C
:100F700096F82F1088421DD140F2F020C2F20000F6
:100F8000D0E90E1240F28007C2F20007FF68691A2A
:100F90004FF0000363EB0202791A40F228114FF080
:100FA0000100C2F2000173EB020281F83C0028BF8D
:100FB00000200DE040F22810C2F20000002180F86D
:100FC0003C1040F2F020C2F20000C0E90E510020B7
:100FD00086F8310003F098FD0546204601210124E2
:100FE00003F086FD96F82F1088421BD140F2F020C6
:100FF000C2F20000D0E9100140F28003C2F2000307
:101000001B69281A4FF0000262EB0101181A40F226
:101010002810C2F2000072EB010180F83D4028BFA9
:1010200000240DE040F22810C2F20000002180F8F8
:101030003D1040F2F020C2F200000024C0E910513F
:1010400040F20008C2F2000898F80F0096F830103D
:1010500096F831300A1A40F2D83718BF01221B1A0D
:10106000C2F2000718BF0123F988844286F8324093
:101070001FBF1A40B1FA81F35B0952EA030204D19F
:101080000122844208BF0222F273707E012808BF49
:10109000002904D1F86D002804BF0320F073B07F4D
:1010A00040F2D045012804BF0420F07396F82700D1
:1010B000C2F20005012812D103F026FDF98871B9AA
:1010C000A969401A4EF68161C0F23601884206D302
:1010D000D7E91601084302D10D20F07302E0F07B3E
:1010E000002854D0002108EE101A40F63040B0EE2F
:1010F000480AC2F20000FFF753FE40F69840B0EEF7
:10110000480AC2F20000FFF74BFEF07B022805D030
:1011100096F8240070B1F17BB9B920E040F6C830F0
:10112000B0EE480AC2F20000FFF73AFE96F824003B
:101130000028F0D144F62060C8F854000320307233
:10114000012086F82400F17B49B196F8330030B9CC
:10115000012086F8330003F0D7FCF17BE8620D290B
:1011600019D80120884043F21401084213D0F07BC3
:101170000D280CD103F0C8FCE96A401A41F288310D
:10118000884204D3022086F8270001203074BDEC89
:10119000028BBDE8F08196F834000028E7D1B07EDC
:1011A0000128E4D003F0B0FCE96A401AB0F5FA6F08
:1011B000DDD3307998F80B10884218BF03F052FD48
:1011C000D5E700002DE9F04F81B02DED0A8B82B0FC
:1011D00040F25837C2F2000797F86D0028B102B00C
:1011E000BDEC0A8B01B0BDE8F08F40F2D044B6EE02
:1011F000002AC2F2000494ED020A40F25448B0EE14
:10120000C01AC2F20008B4EE421AD8F8280040F220
:10121000C069F1EE10FAC2F20009C0F2E5800028C0
:1012200040F0E28089ED070A03F06EFC94ED020ABB
:10123000C9F82000B5EE400A4FF00009F1EE10FAAF
:1012400087F86E9040F3F5800120C8F8280040F63A
:101250003040C2F200004FF49671FFF7D3FC40F625
:1012600098404FF6D461C2F20000CFF6FF71FFF74D
:10127000C9FC40F28000C2F2000090ED000B00219A
:1012800056EC105BC4F23E0100202A46334612F0B1
:10129000E7FB12F0F7FA44F2000108EE100A80466C
:1012A0000190C4F28F0100202A46334612F0D8FB89
:1012B00012F0E8FA00EE109A8346BFEE009AB4EE00
:1012C000408A40F2D830B7EE00AAA246F1EE10FAFA
:1012D0004FF00004C2F20000B8BF012490ED120AE2
:1012E00090ED13BA38EE400A5846B5EE400A87F83A
:1012F00035408AED1C0AF1EE10FACAF868803AFE11
:1013000009CACAF86CB08AED1DCA13F033F946F267
:101310004D234AF6FC12C3F65073CDF2F12212F0BF
:1013200033FE81461CEE100A0025884613F022F990
:1013300002460B464846414612F026FE12F0A2FA3B
:10134000CAF878000120CAF8640040F6BC10C2F266
:10135000000040F2C8510768C2F200018E6A786A44
:10136000322138EE4B0A06FB010040F2A011C2F216
:101370000001B5EE400AC1E9060540F25830F1EE31
:1013800010FAC2F2000040F24C5580F83640019845
:101390003AFE091AC2F20005686085ED030A11EEF3
:1013A000100AC5F808B085ED041A544613F0E2F8A7
:1013B00002460B46484640F2C069414640F2544856
:1013C000C2F20009C2F2000812F0DEFD12F05AFA71
:1013D000686101202860786A40F258373221C2F2F1
:1013E000000706FB0100F6E0002800F0018102285A
:1013F00000F00681012840F0558194ED028A18EE34
:10140000100A13F0B7F8B9EE040AB4EE408AF1EE10
:1014100010FAC0F24B8149F6991349F69A12C3F6B5
:10142000C973C9F6991213F0DEF8002800F00181A3
:101430003CE10220C8F8280040F630404FF6D46165
:10144000C2F20000CFF6FF71FFF7DCFB40F69840D8
:10145000C2F200004FF49671FFF7D4FB40F2800017
:10146000C2F2000090ED000B002156EC105BC4F2BC
:101470003E0100202A46334612F0F2FA12F002FA38
:1014800044F2000108EE100A80460190C4F28F0178
:1014900000202A46334612F0E3FA12F0F3F900EE88
:1014A000109A0546BFEE009AB4EE408A40F2D8305A
:1014B000B7EE00AA4FF0000AF1EE10FAC2F20000F7
:1014C000B8BF4FF0010A90ED120A90ED13BA38EE52
:1014D000400A2846B5EE400A87F835A084ED1C0A7C
:1014E000F1EE10FAC4F868803AFE09CAE56684EDA8
:1014F0001DCA13F03FF846F24D234AF6FC12C3F61C
:101500005073CDF2F12212F03FFD06461CEE100A98
:101510000F4613F02FF802460B463046394612F0BC
:1015200033FD12F0AFF9A0670120606640F6BC10F1
:10153000C2F2000040F2C851D0F80080C2F20001AF
:10154000D1F82890D8F82400322138EE4B0A09FB54
:10155000010040F2A0110022C2F20001B5EE400AE3
:10156000C1E9060240F25830F1EE10FAC2F2000072
:1015700040F24C5B80F836A001983AFE091AC2F29C
:10158000000BCBF804008BED030A11EE100ACBF828
:1015900008508BED041A12F0EDFF02460B46304660
:1015A000394640F25837C2F2000712F0EDFC12F053
:1015B00069F9CBF814000120CBF80000D8F824001A
:1015C000322140F2544809FB010040F2C069C2F2E6
:1015D0000008C2F2000940F2A0120021C2F200028B
:1015E000C2E90801D8F8280002287FF403AF07E019
:1015F000012087F86D00D8F8280002287FF4FAAEA1
:1016000094ED028A18EE100A12F0B4FFB1EE040A4B
:10161000B4EE408AF1EE10FA52DC49F6991349F61D
:101620009A12CBF6C973C9F6991212F0F1FF00288D
:1016300046D140F6304AC2F2000A00265046002148
:10164000C8F82860FFF768FB40F69845C2F200052D
:1016500028460021FFF760FB50460021FFF7D2FA31
:1016600028460021FFF7CEFA08EE106A5046B0EE89
:10167000480AFFF795FBB0EE480A2846FFF790FBB3
:1016800040F2D830C2F20000C0E9126640F24C507D
:10169000C2F200000660D8F8280001216666E66400
:1016A00087F86D1002280BD0012825D194ED020A8D
:1016B00099ED071AB4EE410AF1EE10FA09DC1EE0CA
:1016C00094ED020A99ED071AB4EE410AF1EE10FA10
:1016D00015DA0020C8F8280040F63040C2F20000B9
:1016E0000021FFF719FB40F69840C2F200000021EC
:1016F000FFF712FBD8F8280000283FF470AD03F084
:1017000003FAD9F82010401A40F6B8318842FFF4A5
:1017100066ADD8F81400002804BF0920F87302B0A1
:10172000BDEC0A8B01B0BDE8F08F0000F0B581B0D0
:101730002DED028B40F25836C2F2000696F85E009C
:1017400018B1BDEC028B01B0F0BD40F25447C2F2BB
:101750000007B869012804D0002840F0B5800120B6
:10176000B86140F2D040B3EE092AC2F2000090ED19
:10177000020AB0EEC01AB4EE421AF1EE10FA5CDAC8
:1017800040F24460C2F2000090ED131A96F8712006
:1017900030EE010A40F2C0640221012AC2F20004C4
:1017A000B96184ED090A04D100216162C16486F83F
:1017B000711040F63040C2F200000021FFF7ACFA91
:1017C00040F69840C2F200000021FFF7A5FA40F26F
:1017D0000000C2F2000090ED0A0A90ED0B1A90EDA5
:1017E0000C2AB8EEC00A0020C4F2B43022EE002A5F
:1017F00094ED090A03EE100A20EE022A21EE031AE4
:10180000B5EE400A82EE011AF1EE10FAB0EEC11AFE
:1018100084ED0A1A17DDBDEEC10A40F6304010EE25
:10182000101AC2F20000FFF7EDF994ED0A0ABDEEBE
:10183000C00A10EE100A444229E00920F073BDEC02
:10184000028B01B0F0BDB5EE400AF1EE10FA11DAEC
:10185000BDEEC10A10EE100A414240F63040C2F21D
:101860000000FFF7CFF994ED0A0ABDEEC00A10EEB2
:10187000104A0CE0B5EE400AF1EE10FA0ED140F637
:101880003040C2F2000000210024FFF7BBF940F60F
:101890009840C2F200002146FFF7B4F90021C4F2DB
:1018A000C82108EE101A40F63040B0EE480AC2F2E5
:1018B0000000FFF775FA40F69840B0EE480AC2F211
:1018C0000000FFF76DFAB86902287FF43AAF40F6DE
:1018D0003044C2F200042046FFF7FCFA05462046D9
:1018E000FFF78EF985427FF42CAF40F69844C2F2A0
:1018F00000042046FFF7EEFA05462046FFF780F980
:1019000085427FF41EAF40F630440320C2F200044B
:10191000B861204600210027FFF7FEF940F6984500
:10192000C2F2000528460021FFF7F6F92046002103
:10193000FFF768F928460021FFF764F908EE107AEE
:101940002046B0EE480AFFF72BFAB0EE480A2846C8
:10195000FFF726FA40F2D830C2F20000C0E9127751
:1019600040F2D040C2F2000040F24C514766C2F251
:101970000001C76401200F6086F85E00BDEC028B99
:1019800001B0F0BDFEE700002DE9F04F8BB040F252
:10199000004BC4F2022B03F0B7F8064658464FF44A
:1019A000804103F0A5F840F25837C2F2000797F8DB
:1019B0002F1040F2281840F2F02940F280048842AB
:1019C000C2F20008C2F20009C2F2000410D1D9E943
:1019D00012120023711A66694FF0010063EB0202D4
:1019E000711A73EB020188F83E0028BF002005E061
:1019F000002088F83E00C9E91260002040F2000A89
:101A0000C2F2000A9AF81110884207D197F829000B
:101A1000002804BF40F20110A7F8420003F074F858
:101A2000064658464FF4005103F062F897F82F101D
:101A3000884221D1D9E914120023711AA6694FF006
:101A4000010063EB0202711A73EB020188F83F0098
:101A500028BF00209AF81110884217D003F054F8DC
:101A600040F24C51C2F20001896D401AC82824BFCF
:101A7000002087F8470068E0002088F83F00C9E9A7
:101A8000146000209AF811108842E7D197F84700B7
:101A900000285AD140F2D836C2F20006F08C01304C
:101AA000F084012087F8470003F02EF896F82620EE
:101AB00097F83D1040F24C53C2F20003D2079865EC
:101AC00025D1012941D10BF580602021002200257C
:101AD00003F014F887F8415040F6C8350120C2F2EF
:101AE000000587F83E0028460021FFF78BF8308C70
:101AF00012F0BEF946F26663C3F6E6734FF0663243
:101B000012F042FA11F0BEFE00EE100A1AE00129AE
:101B10001BD10BF5806020210022002502F0EEFF92
:101B200087F83E5040F6C8350120F18BC2F200051F
:101B300087F841002846FFF765F8308C00EE100A60
:101B4000B8EE400A2846FFF72BF902F0DDFF064603
:101B500058464FF4805102F0CBFF97F82F1088427F
:101B600015D1D9E91601E369301A4FF0000262EB92
:101B70000101181A4FF0010072EB010188F84000D2
:101B800028BF00209AF81110884252D109E00020A5
:101B900088F84000C9E9166000209AF811108842C0
:101BA00047D168460EF0DAFA9DE88F00DDE9056559
:101BB00089E88F00DDE90801079CC9E90565C9F8D6
:101BC0001C40C9E9080140F6E000C2F20000C9F873
:101BD00018000BF58060C9F800001020A9F8040077
:101BE000ABF58061A9F80C000120C9F80810BAF81B
:101BF0001210A9F8140089F826000A20C7F6FF0081
:101C0000C9F8201040F60711C9F828004846C9F85D
:101C100010B0A9F8241007F071FC484607F09AF9B3
:101C200040F2D831C2F20001A1F84400484607F062
:101C3000E7FC0BB0BDE8F08F2DE9F04F81B02DED42
:101C40000A8B84B08A46B1EE602A41F26F21C3F656
:101C50008321B5EE401AB0EE408A00EE101AF1EE84
:101C600010FA834600FE010AB1EE481A8BED012AF4
:101C700010EE100A8BED001A12F07CFC42F2FB13FE
:101C80004AF2A872C4F20903C5F23D4212F07CF98F
:101C900048F20003C4F2660300224FF0000911F07D
:101CA000DFFE11F0EFFD0746CBF8080018EE100A32
:101CB0008BF86CA012F05EFC0646DBF82C000D469B
:101CC00012F058FC04463846884612F053FC41ECAA
:101CD000100B0FF0E5FF51EC100B2246434612F0BB
:101CE00053F932462B4612F05BFB11F0CBFDCBF8DB
:101CF0001C00DBE90104DBF82C7012F03BFC804691
:101D000038460E4612F036FC074620460D4612F0C5
:101D100031FC41EC100B10F0F7FE51EC100B3A4681
:101D20002B4612F031F94246334611F0DDFD11F039
:101D3000A9FDCBF82000DBF80000DBF80840DBF859
:101D40002C7012F017FC804638460E4612F012FC3A
:101D5000074620460D4612F00DFC41EC100B0FF02B
:101D60009FFF51EC100B3A462B4612F00DF902463C
:101D70000B464046314612F013FB11F083FDCBF8C1
:101D80002400DBE90104DBF82C7012F0F3FB804641
:101D900038460E4612F0EEFB074620460D4612F07E
:101DA000E9FB41EC100B10F0AFFE51EC100B3A4682
:101DB0002B4612F0E9F802460B464046314657469C
:101DC00012F0EEFA11F05EFD9BED000ABAF1020F7F
:101DD000CBF8280023D1B5EE400A42F2FB15C4F23D
:101DE0000905F1EE10FA40F0B680DBF80800DBF8E8
:101DF0002C4020F00040CBE9104412F0BBFB02461F
:101E00004AF2A8700B46C5F23D40294612F0C8FAC6
:101E100011F038FD00EE104ACBF850004AE301EE15
:101E2000109A0020B4EE410A9BED010AF1EE10FA7F
:101E300018BF0120B4EE410AF1EE10FA18BF4FF0BE
:101E4000010950EA090027D1DBF80800DBF82C6013
:101E500012F090FB04460D4600204FF00041224650
:101E60002B4612F09DFA42F2FB134AF2A872C3F617
:101E7000F973C5F23D42002F04BF2946204611F0F8
:101E800033FD11F0FFFCCBF85000CBF8406000EEC2
:101E9000106ACBF844600DE310EE100A20F0004009
:101EA00012F068FB0446DBF808000D4612F062FBF6
:101EB00041EC100B0FF0F4FE53EC102B204629469A
:101EC00011F0CEFD11F0DEFC0446CBF86400DBF827
:101ED00000009BED018A12F04DFB804620460E4625
:101EE00012F048FB0446DBF808000D4612F042FBF6
:101EF00041EC100B10F008FE51EC100B22462B4663
:101F000012F042F804460D4600204FF000412246F0
:101F10002B4612F045FAB5EE408A42463346F1EEC2
:101F200010FAA4BF2946204611F0DEFC11F0AAFCED
:101F300000EE100ACBF81400C7B1012F24D19BED9D
:101F400001CA9BED191AB5EE40CAF1EE10FA16DB84
:101F500031EE008A15E09BED028AB5EE408AF1EE83
:101F600010FA40F0AA809BED110AA3E29BED01CA92
:101F70009BED191AB5EE40CAF1EE10FAE8DB30EE2F
:101F8000418A8BED038A03E09BED01CA9BED038A36
:101F90009BED000A9BED08AA9BED07BA3AEE4C1A9E
:101FA0003BEE402AB5EE40CA81EE021AF1EE10FA7D
:101FB0008BED0E8A039720EE012A21EE083A3CEEC3
:101FC000422A8BED0C1A33EE029A8BED0D2A8BED23
:101FD0000F9A14D1DBF8080012F0CCFA0246002F59
:101FE0000F4600F0CD8042F2FB114AF2A870C3F612
:101FF000F971C5F23D403B4612F0D2F9CCE010EE4B
:10200000100A12F0B7FA04461CEE100A0F4612F03E
:10201000B1FA814618EE100A029112F0ABFA80462E
:1020200019EE100A8A4612F0A5FA05460E46204619
:1020300039464246534612F0B3F902460B4611F0B8
:10204000A3FF0F460299044648462A46334612F03B
:10205000A7F902460B4611F097FF02460B462046B1
:10206000394611F041FC41EC100B10F079FE51ECB7
:10207000100B11F007FC00EE100A9BED191ACBF8BB
:10208000680081EE000A10EE101A084612F072FA8B
:1020900041EC100B0FF098FC51EC100B0B46024674
:1020A00011F022FC11F0EEFB9BED07BA9BED08AAA4
:1020B0009BED0E8A9BED0F9A70E010EE100A20F057
:1020C000004012F057FA044618EE100A0D4620F0B0
:1020D000004012F04FFA41EC100B10F015FD53ECDC
:1020E000102B2046294611F0BBFC11F0CBFB08EE6B
:1020F000100ACBF86400DBF8040012F03BFA9BED09
:10210000029AB1EE480A8046B5EE409A0E46F1EECC
:1021100010FA28FE000A9BED008A10EE100A12F059
:1021200029FA044619EE100A0D4612F023FA41EC82
:10213000100B0FF0B5FD51EC100B22462B4611F0A1
:1021400023FFB5EE408A0246F1EE10FA0B4680F20C
:10215000A4804046314612F023F911F093FB9BED29
:10216000020A9BED191AB5EE400AB1EE412AF1EED2
:1021700010FA00EE100A21FE021A31EE008AA4E0E5
:1021800042F2FB1310464AF2A872C3F6F9733946BD
:10219000C5F23D4211F0A8FB11F074FBCBF85000E2
:1021A00018EE100A12F0E6F9044619EE100A0F466E
:1021B00012F0E0F902901BEE100A8A4612F0DAF9EA
:1021C00081461AEE100A884612F0D4F905460E46EA
:1021D000204639464A46434612F0E2F802460B468C
:1021E00011F0D2FE044602980F4651462A46334665
:1021F00012F0D6F802460B4611F0C6FE02460B4618
:102200002046394611F070FB41EC100B10F0A8FD90
:1022100051EC100B11F036FBCBF84000DBE90E0659
:10222000DBE9094512F0A6F9074630468A4612F066
:10223000A1F902902046894612F09CF904462846EE
:10224000884612F097F905460E4638465146224612
:10225000434612F0A5F802460B4611F095FE0446DF
:1022600002980F4649462A46334612F099F802462C
:102270000B4611F089FE02460B462046394611F006
:1022800033FB41EC100B10F06BFD51EC100B11F017
:10229000F9FA00EE100A039F0AE110461946424679
:1022A000334611F021FB11F0EDFA9BED020A9BED94
:1022B000191AB5EE400AB1EE412AF1EE10FA00EE1D
:1022C000100A21FE021A30EE418A9BED001A9BEDA6
:1022D000019A9BED082A9BED073A32EE492A33EE2C
:1022E000413A11EE100A82EE032A8BED060A8BEDBD
:1022F000048A8BED0F8A21EE023A8BED0C2A39EE1F
:10230000433A38EE434A8BED0D3A84EE02AA8BED48
:102310000EAA12F02FF9044619EE100A0D4612F01B
:1023200029F902901AEE100A019112F023F9804661
:1023300018EE100A03978A4612F01CF981460E46E1
:10234000204629464246534612F02AF802460B46DA
:1023500011F01AFE07460C46DDE901104A463346E5
:1023600012F01EF802460B4611F00EFE3A462346C6
:1023700011F0BAFA41EC100B10F0F2FC51EC100B1A
:1023800011F080FA00EE100A9BED191ACBF86800E4
:1023900081EE000A10EE101A084612F0EBF841EC3C
:1023A000100B0FF011FB51EC100B0B46024611F015
:1023B0009BFA11F067FACBF85000DBE90E06DBE977
:1023C000074512F0D7F807463046884612F0D2F893
:1023D00081462046029112F0CDF8044628468A46EE
:1023E00012F0C8F805460E46384641462246534686
:1023F00011F0D6FF02460B4611F0C6FD0F460299BA
:10240000044648462A46334611F0CAFF02460B46A8
:1024100011F0BAFD02460B462046394611F064FA27
:1024200041EC100B10F09CFC51EC100B11F02AFA4F
:10243000CBF84000DBE90E06DBE9094512F09AF81B
:1024400007463046884612F095F8CDE9011020463F
:1024500012F090F8044628468A4612F08BF881461E
:102460000E4638464146039F2246534611F098FFD8
:1024700002460B4611F088FD04460D46DDE90110C9
:102480004A46334611F08CFF02460B4611F07CFDA4
:1024900002460B462046294611F026FA41EC100B65
:1024A00010F05EFC51EC100B11F0ECF900EE100A8C
:1024B000CBF844009BED101A9BED142A21EE021A72
:1024C00022EE000A8BED121A8BED130A9FB19BEDE1
:1024D0000B0A012FB1EE401A19BF8BED171A8BEDC5
:1024E000150A8BED180A8BED161A04B0BDEC0A8B99
:1024F00001B0BDE8F08F9BED0B0AB1EE401A8BEDF9
:10250000160A8BED181A04B0BDEC0A8B01B0BDE8B9
:10251000F08F00002DE9F04F81B02DED048B40F2DB
:102520005830C2F200000078012840F02B8140F6BC
:10253000BC10C2F2000040F2C8510068C2F20001B3
:102540008A6A416A322302FB031740F2A011C2F2E9
:102550000001D1E9046540F2000BC2F2000BBC1B84
:10256000DBF848704FF0000666EB0505E41B75EBE1
:10257000E777C0F0078102FB03F2406A40F2D049DE
:102580001044C2F20009C1E90406D9E90C0100288F
:10259000024648BF4242002948BF49428A42C8BF5A
:1025A000C9F8340040F2D830D9E90E64C2F2000014
:1025B00000EE106A01EE104AB8EEC00AB8EEC11A79
:1025C00090ED122A90ED133A80EE010A83EE021A82
:1025D000301B89ED100A00EE100A89ED111AB8EED1
:1025E000C00A10EE100A11F0C5FF40F28008C2F2D6
:1025F000000898ED000B02465AEC105B0B4628468B
:10260000514611F0C1FC11F03DF99BED1C8B11F00E
:10261000B1FF02460B4651EC180B11F0B5FC11F05E
:1026200031F907462846514611F02CF9002C48BFD5
:10263000644200EE100A002E48BF7642A0194008FE
:1026400001EE100A08EE107AB8EEC11A21EE000A67
:1026500010EE100A11F08EFF064627F000400C46DF
:1026600011F088FF48F2000AC4F2660A02460B46DF
:102670000020514611F094FE4AF2A87242F2FB1378
:10268000C5F23D42C4F2090307460D4611F07CFC39
:1026900040F2000BC3F6E07B00225B4611F074FCB5
:1026A0000022534611F0DCF911F0ECF811F062FF52
:1026B00041EC100B10F028FA51EC100B3246234677
:1026C00011F062FC11F0DEF8D9E90E1298ED009BD2
:1026D0000646114400EE101AB8EEC00A10EE100AB9
:1026E00011F048FF02460B4651EC190B11F04CFC5F
:1026F00000225B4611F048FC0446884638462946CD
:1027000000225B4611F040FC4AF2A87242F2FB1331
:10271000C5F23D42C4F2090311F036FC00225346D3
:1027200011F09EF941EC100B0FF0BAFA51EC100BBE
:102730002246434611F028FC11F0A4F80021C4F20F
:10274000B43100EE101AB5EE408A002138EE001ABE
:10275000CCF2B431F1EE10FAB8BFB0EE418AC9F84C
:10276000480001EE101AB4EE408A38EE010AF1EE8C
:1027700010FA40F2D83130FE080AC2F200014E656C
:1027800081ED140ABDEC048B01B0BDE8F08F0000B0
:1027900070B52DED088B044610EE900AB0EE408A1D
:1027A00011F0E8FE40F6805349F23B72C4F209038F
:1027B000C7F20A3211F0E8FB48F20003C4F26603E4
:1027C000002211F04DF911F05DF8B0EEC80AB2EE3A
:1027D0000E1AB4EE410A84ED000AF1EE10FA55DB50
:1027E00094ED070A94ED021A30EE000A20F0004042
:1027F00080EE01AA09EE100A94ED0F0A94ED0CBACE
:1028000039EE000A10EE100A84ED0BAA11F0B2FEA8
:102810004CF6CC434CF6CD42C3F6EC73CCF6CC422E
:1028200011F0B2FB05461AEE100A0E4611F0A2FE98
:1028300002460B462846314611F012F911F022F8F3
:10284000B0EE490A8BEE0AAA20640FF08DFA94EDDF
:102850000F1AB0EE409AB0EE410A0FF085FA39EE49
:10286000400AB5EE408A2AEE000AF1EE10FA84ED35
:10287000130A10DD94ED050A94ED0C1A31EE002ACE
:1028800031EE400A84ED0E2A84ED0D0A94ED100A13
:10289000BDEC088B70BDB5EE408AF1EE10FAF5DAAA
:1028A00094ED050A94ED0C1A31EE402A31EE000A3F
:1028B00084ED0E2A84ED0D0A94ED100ABDEC088B10
:1028C00070BD000070B52DED0A8B044610EE900A25
:1028D000B0EE408A11F04EFE40F6805349F23B7252
:1028E000C4F20903C7F20A3211F04EFB48F20003AA
:1028F000C4F26603002211F0B3F810F0C3FFB0EE8B
:10290000C8BAB2EE0E0AB4EE40BA84ED00BAF1EEE7
:1029100010FA08DA94ED110AB5EE400AF1EE10FA59
:1029200000F3B780B1E094ED070A94ED021A30EE9F
:10293000000A20F0004080EE010A09EE100A94ED32
:102940000CAAF0EE490A204684ED0B0AB0EE480AC4
:10295000FFF71EFF94ED0F1A2AEE000A39EE011A56
:1029600080EE01CAB0EE490A0FF0FEF994ED0F1A9D
:10297000B0EE40AAB0EE410A0FF0F6F994ED071A56
:1029800094ED022A31EE011A94ED0F9A81EE021AAB
:102990003AEE400A84ED00BA2CEE00AA94ED0CCA7F
:1029A00089EE012A84ED0B1A12EE100A11F0E2FDF5
:1029B0004CF6CD454CF6CC43CCF6CC45C3F6F07383
:1029C0002A4611F0E1FA10F05DFFB5EE408A00EE04
:1029D000100AF1EE10FAA06406DD94ED051A3CEE43
:1029E000012A3CEE411A0AE0B5EE408AF1EE10FAF7
:1029F00009DA94ED051A3CEE412A3CEE011A84ED09
:102A00000E2A84ED0D1A2CEE000A80EE098AB0EE33
:102A1000490A0FF0A9F9BFEE001A30EE010A28EEBC
:102A2000000A30EE4A0A3BEE000A10EE100A11F0DE
:102A3000A1FD4CF6CC43C3F6EC732A4611F0A4FA80
:102A40000546206B0E4611F095FD02460B462846C2
:102A5000314611F005F894ED0F0A05460E4610F0C8
:102A6000B7F810EE100A11F085FD02460B46284615
:102A7000314610F0F5FF10F005FF00EE100A60641B
:102A8000B5EE400AF1EE10FA03DC002000EE100A69
:102A90006064BDEC0A8B70BD10B52DED028BB0EEFD
:102AA000408AB0EEC00AB2EE0E1AB4EE410A0446F5
:102AB00080ED000AF1EE10FA04DA94ED120ABDEC92
:102AC000028B10BD94ED070A94ED021A30EE000A55
:102AD00080EE010A94ED0F1A81EE001A84ED0B0AC4
:102AE00011EE100A11F046FD4CF6CC434CF6CD42E7
:102AF000C3F6F073CCF6CC4211F046FA10F0C2FEE9
:102B0000B5EE408A00EE100AF1EE10FAA0640EDD78
:102B100094ED051A94ED0C2A32EE013A32EE411A88
:102B200084ED0E3A84ED0D1ABDEC028B10BDB5EEAE
:102B3000408AF1EE10FA0BDA94ED051A94ED0C2AA6
:102B400032EE413A32EE011A84ED0E3A84ED0D1A5E
:102B5000BDEC028B10BD00002DE9F0418CB001F0FE
:102B6000D3FF40F22814C2F20004A16940F25838A1
:102B7000401A41F288318842C2F2000806D298F821
:102B80007B00032819D20CB0BDE8F08140F2F020A0
:102B9000C2F20000422106F0ADFB122888F87C004A
:102BA00004D098F87B00013088F87B0001F0ACFF7E
:102BB000A06198F87B000328E5D301A80DF0CEFAB8
:102BC00001AFEFCF40F2F024C2F2000484E8EF003E
:102BD000DDE90901DDF820C0C4F81CC0C4E9080122
:102BE00040F6E000C2F20000A0610020C4F2022022
:102BF00000F5006121601021A180A060A18100F595
:102C0000806040F2000120610120C2F20001498A87
:102C1000A08284F826000A20C7F6FF00216240F651
:102C20000711A0622046A18406F068FC204606F049
:102C300091F940F2D831C2F20001A1F844002046D7
:102C400006F0DEFC002088F87B000CB0BDE8F081C7
:102C5000F0B581B040F25443C2F20003002793ED77
:102C60001A0AC4F2342701EE107AB0EEC00AB4EEAC
:102C7000410AF1EE10FA0EDA0546002093ED1E0A25
:102C8000C4F2482001EE100AB0EEC02AB4EE412A88
:102C9000F1EE10FA07DD40F25830C2F200000521D3
:102CA000C17301B0F0BDBBEE0E1A40F2C857B4EECE
:102CB000410A40F2D830B1EE402AF1EE10FAC2F2E9
:102CC0000007D8BF87ED1C0AC2F20000B0F940002F
:102CD0000C4600FB02F140F2446601EE101AC2F20B
:102CE0000006B0F1FF3F86ED0E0AB8EEC11A30FEC5
:102CF000020A30EE010A10EE100A86ED0C0A11F0FD
:102D000039FC40F28002C2F2000292ED000B53EC5B
:102D1000102B10F0A5FE11F037F8716801EE104A83
:102D200001FB05F1306000EE101AB8EEC00AF8EEB3
:102D3000410A0AF0F7FD01F0E7FEF06340F20000FF
:102D4000C2F20000D0E90F10322201EB810140F203
:102D5000A01300EB800049004000C6E9071040F6D0
:102D6000BC10C2F200000068B96A406AC2F20003F7
:102D700001FB020000223168C3E91A0240F630402C
:102D8000C2F20000FDF73EFF316840F69840C2F203
:102D90000000FDF737FF40F25830C2F20000012179
:102DA00080F8551001B0F0BD70470000012000F020
:102DB000A7BF000072B600BFFEE7000070B542F288
:102DC00020060446C4F2020601F09EFE316811F0AE
:102DD0000B0F20D0BCB30546601C11D1306810F039
:102DE0000B0F18D0306810F00B0F14D0306810F0B3
:102DF0000B0F10D0306810F00B0FEFD10BE000BFBD
:102E000001F082FE401BA04284BF032070BD3068E9
:102E100010F00B0FF4D1306810F41E0009D040F20E
:102E2000A801C2F200014A6802434A6030610120F1
:102E300070BD3068C0035CBF002070BD4FF48030AF
:102E40003061002070BD01F05FFE032070BD000006
:102E500040F27870C2F2000000F0F6BB40F2F07071
:102E6000C2F2000000F0F0BB40F66800C2F20000C1
:102E700000F0EABB00284FF0010218BF002901D181
:102E800010467047B0B5D0E904C2C369D0F818E065
:102E90001A43C36B1A4342EA0C0242EA0E020A606A
:102EA00003789B0616D5D0E909C3D0F82CE04FF083
:102EB0007C75846B05EB03534FF47C7505EB0C15A7
:102EC00042EA0E0203F07C73224305F47C751A4338
:102ED0002A430A604268036B40F2FF252A401A43E6
:102EE0004A60C368B3F5007F08D0B3F5806F08D19E
:102EF00003789B0605D542F4806201E042F400723B
:102F00004A60436B1A434A60436C43B1856C046C5E
:102F10001A4305F03F05224342EA05424A60B0F8F1
:102F2000682040F2000C8A600378C0F2FF7C9B07A7
:102F300022D5C36C0CEB034303EA0C031A438A60EB
:102F4000036D002B48BF02F180528A60436D002B55
:102F500048BF02F100528A60836D22F08045002B49
:102F600048BF42F080458D60C26D25F00043002AC5
:102F700048BF45F000438B60026ECA60426E0A6132
:102F80000278920720D5026D0023002A48BF5242E2
:102F90006FF35F324A61456D2C04002D48BFA3EBEF
:102FA00005440CF1C05525402A444A61826D002A2F
:102FB00048BF524292B28A61C56D2C04002D48BFB1
:102FC000A3EB054422448A61006882074FF4E06263
:102FD00058BF4FF4A062104300220862BDE8B04021
:102FE00010467047B0B5044601F08EFD002C04BFBA
:102FF0000120B0BD00210546206884F84C10022154
:1030000084F85410416941F0060141614169C907E2
:1030100009D000BF01F078FD401B052850D820687A
:103020004169C907F6D14FF6B072CBF6FD72024482
:103030006FF01F03A16B03EBF213E56B082B41EA62
:10304000050103D34FEAF212072A01D8226C11437B
:10305000426922F443021143416100210164626C20
:10306000426441F24F32C4F2020290428164C16470
:1030700001650CDC40F25031C4F20201884212D0EA
:1030800040F2D031C4F2020188420CD00EE041F28D
:10309000D031C4F20201884205D041F25031C4F26D
:1030A0000201884202D10021416581650021C1678A
:1030B000A06C012220650020A16584F85420B0BDD9
:1030C000012003221021A16584F85420B0BD000026
:1030D0002DE9F04300284FF0010318BF002A02D168
:1030E0001846BDE8F0834369012B04D10421016136
:1030F0000120BDE8F083056842EA01030F462B4337
:10310000002908BF1746002D18BF2F467B40B3F596
:10311000803F08D265B195F8203061B191F82070F8
:10312000BB42E3D107E0052101610120BDE8F08346
:1031300031B191F8203092F82070BB42D6D100E036
:10314000176A02230373002340F2000C03617B081B
:10315000CFF6010C63F3596C63F39A6C07F002032A
:10316000002D03F1050E47D0002950D0D0F808906B
:103170004FF6FC7311EA03044FF0000755D0B9F184
:10318000000F4FF0000351D04FF6FF739D4300270F
:103190004FF6FC78002345EA07060746002B18BFC8
:1031A00006EB8E073F685E1C4E4507EA080737D2DC
:1031B000A74235D045EA070656F82E709E1C4E45AC
:1031C00007EA08072CD2A7422AD045EA070656F894
:1031D0002E70DE1C4E4507EA080721D2A7421FD0F9
:1031E00045EA070656F82E6004334B4506EA080701
:1031F0001CD2A742CFD119E0A1B14FF6FC731A40FF
:1032000042EA0C02016041F82E2002212DE04FF627
:10321000FC71294041EA0C0142F82E10026022E0C4
:10322000334603E0026001211FE00023A74209D1D9
:103230004B450DD143687BB14FF6FC74234043EA04
:103240000C0307E00621012301611846BDE8F08365
:1032500051F82E3042F82E304FF6FC731A4042EAF5
:103260000C0241F82E208168013181600023012188
:10327000036101731846BDE8F083000000284FF099
:10328000010218BF002901D11046704790F8543050
:1032900090F85420052B18BF022A06D140218165E1
:1032A000002180F84C10012070470A7B022A03D1CC
:1032B000012210460A617047026841F24F33C4F29E
:1032C00002039A4208DC40F25033C4F202039A42ED
:1032D0000ED040F2D03307E041F25033C4F2020383
:1032E0009A4205D041F2D033C4F202039A420ED181
:1032F000036D4A68812B04D12AB100224167104630
:103300007047002AF9D004200861012070470A683C
:1033100092F820209207EBD5032008610120704726
:103320002DE9F043002804BF0120BDE8F083D0F868
:1033300000E0BEF1000F07D0416851B1714504BFF4
:103340000020BDE8F08307E0022101610120BDE813
:10335000F0834169012904D1042101610120BDE804
:10336000F0830221017300210161DEF8202040F288
:10337000000C5308CFF6010C846863F3596C02F01B
:10338000020263F39A6C02F105035CB14FF6FF721F
:10339000651E2EEA0202032D04F0030804D2002564
:1033A000002623E0002542E0A4EB080900254FF6A3
:1033B000FC74002615430746002E18BF05EB830753
:1033C0003D6804362540154355F82350B14505EABC
:1033D000040545EA020555F8235005EA040545EAC7
:1033E000020555F8235005EA0405E3D1B8F1000FB2
:1033F0001DD042EA05040546002E18BF04EB8305E4
:103400002D684FF6FC74B8F1010F05EA04050ED0E3
:10341000154355F82350B8F1020F05EA040506D00C
:103420002A4352F823204FF6FC7402EA04054FF6B3
:10343000FF724FF6FC742EEA020204EA0E042A43DD
:1034400044EA0C0742F823700122C0F804E001614D
:1034500002730846BDE8F08380B5002856D0436F5C
:10346000002B53D090F85410D0F800E00129DEF87A
:1034700014C004D002294BD11CF4803148D090F8FC
:10348000541001293AD190F84C1001294FF0020153
:1034900044D0012280F84C2080F854101973002188
:1034A00081651961DEF8141041F4BA41CEF81410A8
:1034B000416E29B1DEF8141041F40071CEF81410F9
:1034C000006F28B1DEF8140040F40050CEF814006C
:1034D00018680022016ACFF60102490861F35962B7
:1034E00061F39A624FF6FF7120EA0101CEF80010F5
:1034F0004FF6FC7108401044CEF87C00DEF8140052
:1035000040F00100CEF81400002080BD012080BDF5
:1035100040218165002180F84C100121084680BDC2
:10352000B0B5044601F0F0FA002C04BF0120B0BD94
:10353000054694F8540002282DD12168486940F0CE
:1035400004004861052084F854000869800408D408
:1035500001F0DAFA401B052824D8216808698004A4
:10356000F6D54869012240F002004861042084F841
:1035700054004FF4FE40C86084F8542094F8500082
:1035800000064FF0000002D5636F1A7388640021B3
:1035900084F84C10B0BD2020A0650120002184F8E3
:1035A0004C10B0BDA06D40F01000A065032084F861
:1035B000540094F8500000064FF0010044BF616FC2
:1035C0000873002184F84C10B0BD0000002804BF2F
:1035D0000120704790F8541002290AD1042180F884
:1035E0005410006842F20402416911434161002015
:1035F00070472021816501207047000002460028A5
:103600004FF0010008BF7047126802F57B63C3F3F7
:10361000C41CCB065CBF0020704740F6FF7301F06E
:1036200011019A43112900FA0CF004D151680843A2
:10363000506000207047516821EA0000506000206F
:1036400070470000806D704710B5044600680C227A
:10365000034600F57B6162F30B03C1F3C4111A68E2
:1036600022FA01F1C90700F0A3800169490544BFAE
:1036700041695FEA41514BD40169090544BF416981
:103680005FEA01514CD40169C90444BF41695FEA52
:10369000C1414DD40169490444BF41695FEA4141D8
:1036A0004ED40169890544BF41695FEA81514FD415
:1036B0000169890444BF41695FEA814152D40169CB
:1036C000C90544BF41695FEAC15172D4A06D0028A9
:1036D00008BF10BD2068416941F0020141614069A5
:1036E000C0074FF0030008BF012084F8540094F88D
:1036F0005000000602D5606F01210173A16E002009
:10370000002984F84C0053D02046BDE810400847FB
:103710004FF48061C160A16D41F00101A165ABE78B
:103720004FF40061C160A16D41F00201A165AAE7FB
:103730004FF48051C160A16D41F00401A165A9E77A
:103740004FF48041C160A16D41F00801A165A8E777
:103750004FF40071C160616E0029A9D020468847EE
:103760002068A5E74FF40051C16094F85410042973
:103770002AD1416921F400514161416941F00201BE
:1037800041614169C9074FF0030108BF012184F875
:10379000541094F85010090604D5616F01220A7381
:1037A00000218164E16E0020002984F84C00ABD137
:1037B00010BD94F85010090611D4816C002904BF83
:1037C000012184F8541013E0052184F85410216F6E
:1037D00000293FF474AF2046884720686FE7C16F27
:1037E00031B9816C21B9012184F85410626F1173D1
:1037F0004FF44071C160216E0020002984F84C0014
:103800001CBF2046884761E7B0B5044601F07CF94B
:10381000002C04BF0120B0BD00210546206884F8BB
:103820004C10022184F85410416941F006014161B5
:103830004169C90709D000BF01F066F9401B05289E
:103840004FD820684169C907F6D1216A426904F15D
:10385000100C22F4430211434161E3699CE8061015
:103860001A4311434FF6B072CBF6FD7283186FF016
:103870001F0202EBF31541EA0C02082D4FEAF31C7C
:1038800028BFBCF1070F14D804F1240E9EE828408D
:103890004FF07C7101EB05514FF47C7505EB031380
:1038A00001F07C7142EA0E0203F47C73114341EA99
:1038B00003020264A1682279E3681143226BB3F525
:1038C000007F42EA010213D0B3F5806F12D1ACF150
:1038D0002001082928BFBCF1070F98BF42F480627D
:1038E00008E0012003211022A26584F85410B0BD25
:1038F00042F40072616B436C42F20015C3F6C0459E
:103900000A432B401A4341F24F33C4F2020342648C
:103910000022984282640CDC40F25032C4F202026F
:10392000904212D040F2D032C4F2020290420CD047
:103930000EE041F2D032C4F20202904205D041F2D0
:103940005032C4F20202904202D1002242658265E6
:103950000022C267216501210020A26584F854106D
:10396000B0BD000010B500284DD090F84CC0BCF19F
:10397000010F04BF022010BD4FF0010C80F84CC0B5
:1039800090F854C0BCF1010F38D14FF0020C80F810
:1039900054C04FF0000CC0F858C0D0F800C0D0F8A8
:1039A00064E0DCF84840BEF1000FC3EA0403CCF841
:1039B00048304FF4FE43CCF80C30CCF84C10CCF827
:1039C0005020DCF8141041F4BA41CCF8141005D0A2
:1039D000DCF8141041F40071CCF81410006F28B119
:1039E000DCF8140040F40050CCF81400DCF81400AB
:1039F00040F00100CCF81400002010BD402181658A
:103A0000002180F84C10012010BD0000B0B5044624
:103A100001F07AF8054640F27800C2F20000007822
:103A2000611C18BF044400BF01F06EF8401BA042A7
:103A3000FAD3B0BD2DE9F04F81B040F2A80BC2F22D
:103A4000000B9BF80020012A02BF022001B0BDE854
:103A5000F08F044601208BF8000000264FF47A70A6
:103A60008946CBF80460FFF7A9F920B18BF8006014
:103A700001B0BDE8F08F206848F2080220F0004154
:103A800042F228079142C4F20207CBF8080007D19E
:103A9000606800F00301032936D148F2200042E0BB
:103AA0004FF0FF30C9F80000D4E9025028448542A5
:103AB00041D24FF6D77A4EF23F08C7F6FF7AAE01F1
:103AC000C7F6FF786068414610F00100386808BF0B
:103AD0006FF4FE514FF0240200EA010038603868AC
:103AE00008BF0AF14D023043104338604FF47A703A
:103AF000FFF764F908BBD4E90201013540360844F8
:103B00008542DFD300201AE0C1074FF6D771C7F610
:103B1000FF7104D03A680A4042F028023A608007F8
:103B200004D501F151003968084338604FF47A70C8
:103B3000FFF744F904E0002002E0C9F80050002635
:103B400021684FF000423B6862EA01011940396088
:103B50008BF8006001B0BDE8F08F000040F2A800D3
:103B6000C2F200004068704742F22800C4F202002E
:103B7000016841F0010101600068012121EA0000B3
:103B8000704700002DE9F04381B040F2A809C2F26D
:103B90000009154699F80020012A02BF022001B051
:103BA000BDE8F0838046012089F80000002042F241
:103BB00020040E46C4F20204C9F8040000F0A4FF79
:103BC000216811F00B0F0BD0074600BF00F09CFFDF
:103BD000C01BB0F57A7F14D8206810F00B0FF5D118
:103BE000206810F41E0013D0D9F804100143C9F85E
:103BF000041020610120002189F8001001B0BDE807
:103C0000F0830320002189F8001001B0BDE8F083A3
:103C10002068C00344BF4FF48030206128F000408A
:103C20000228C9F8088017D1A06840F00200A060FF
:103C3000EFF3108072B62968316069687160A96815
:103C4000B160E968F16080F3108800F05DFF2168E1
:103C500011F00B0F0CD117E0A06840F00200A0603B
:103C60002888308000F050FF216811F00B0F0BD036
:103C7000054600BF00F048FF401BB0F57A7F0FD823
:103C8000206810F00B0FF5D1206810F41E0009D049
:103C9000D9F804100143C9F804102061012008E09C
:103CA000032006E02068C00344BF4FF48030206149
:103CB00000204FF02041A26861EA08011140A16094
:103CC000002189F8001001B0BDE8F08342F2040041
:103CD000C4F20200416AC90704BF0020704740F2E5
:103CE0002311C4F26751016048F6AB11CCF6EF51D5
:103CF0000160406A00F0010070470000704700005A
:103D0000B0B542F20C05C4F20245296804460142EE
:103D100003D020462C6000F00BF86868204208BFF2
:103D2000B0BD20466C60BDE8B040FFF7E7BF0000C3
:103D30002DE9F04F81B040F2F021C2F20001898AF2
:103D400040F2C85B40F6BC1840F2182940F2281A2D
:103D50008142C2F2000BC2F20008C2F20009C2F2B4
:103D6000000A57D1D8F80000DBF82810406A322248
:103D700001FB0200D9E91012401A4FF000019141F5
:103D8000C9E9120100F0C0FECAF8180040F2F020A4
:103D900009F16401C2F200000C2205F0EDFADAF834
:103DA0001C1099F86550084499F8641099F8664019
:103DB00099F867C02944214499F86830614499F81A
:103DC0006960CA1899F86AE0324499F86B70CAF8C9
:103DD0001C00724499F86C003A44104499F86D2024
:103DE00099F86E101044084499F86F10C2B29142CD
:103DF00040F25831C2F2000181F87D000AD140F250
:103E0000D830C2F200008288D0B2854208BFB4EB3D
:103E1000122F12D0DAF82400DBF828100130CAF88B
:103E20002400D8F800003222406A01FB0200002181
:103E3000C9E9140101B0BDE8F08F40F20004C2F2FC
:103E400000040D79A07A85424ED1607A8445E1D193
:103E500046EA032091F8493040F2D8350C4647EA4B
:103E60000E21160AC2F200056885A985D3B9A1F50D
:103E7000487080B2C82815D80120A4F8480040F640
:103E80000000C4F202204FF48071012200F036FEDF
:103E900040F20000AA88C2F2000090F809C094F82D
:103EA0004930160A0120494601F8580F90194A7006
:103EB00060444FF0FF321844C1F80520A1F80920F2
:103EC000DAF820200538C872501CCAF8200040F2E9
:103ED000F0200B71C2F200000C220F238E7081F8CB
:103EE00003C005F0B1FB95E7607B854292D191F864
:103EF0007300012802D0207A84458BD10C4600F053
:103F000003FECBF8300000F0FFFD94F8511040F2B2
:103F1000000440F2D042C2F20004C2F200020129C1
:103F2000D06122D199F86700A17988421DD000F0B4
:103F3000EBFD40F60007C4F20227CBF83400384608
:103F400008210022002400F0D9FD07F5806004213B
:103F5000002200F0D3FD40F25830C2F2000080F899
:103F6000514040F20004C2F2000499F86700A179C0
:103F700040F2D8358842C2F2000503D000F0C4FDFB
:103F8000CBF8340040F25830C2F20000C07B00B3DE
:103F9000FF22494601F8582FAA88C8704A70130AB0
:103FA00002EB12228B7010444FF0FF324A60C1F8CE
:103FB0000720DAF820200838C872501CCAF8200000
:103FC00040F2F020C2F200000C220F2305F03CFB6F
:103FD00020E799F86700217888424DD140F25831A6
:103FE000C2F2000191F84610002940F05581E9889D
:103FF000002940F0518140F25831C2F2000191F89D
:104000007E10012940F04881D4E90F6799F86820B3
:1040100099F8693099F86A1096422A7029876B706E
:1040200040F08B809F4240F08B800122494601F88E
:10403000582FAA88C8704A70130A02EB12228B709C
:10404000104430443844DAF8202005384FF0FF336C
:10405000C872501CC1F80630FE23CAF8200040F296
:10406000F0208B72C2F200000C220F230E714F71F0
:1040700005F0EAFA09203BE1617888422BD1E96D2D
:10408000002940F0098140F25831C2F2000191F854
:104090007E10012940F0008140F25832C2F2000245
:1040A000917E012940F0F3800122494601F8582F02
:1040B000AB88C8704B701F0A03EB13238F70AF6E71
:1040C00018444A7138444FF0FF320F710338C1F879
:1040D00006208A7271E1A178884240F0908040F217
:1040E0005833C2F2000393F8421093F8442093F837
:1040F00046301143194340F0CF8040F2583740F228
:104100000111C2F20007A7F842100122494601F846
:10411000582FAB8887F846204B701A0A03EB1323FD
:104120008A700022C8700A7118444FF0FF320538B7
:10413000C1F80520A1F809203FE19F4240F0B2807C
:1041400040F25834C2F20004A17E012907D10021B7
:104150000127A17684F8717084F82D10E17040F287
:10416000000C41F28831C2F2000C40F2D835CCF894
:10417000541001274946C2F2000501F8587FAD8866
:104180000026277284F8226084F8467084F8507004
:104190004D702C0A05EB1525C87028440A7110448F
:1041A0004FF0FF321844C1F806208A72DAF8202056
:1041B0000438C872501CCAF8200040F2F0204B713D
:1041C00040F2D835C2F200000C220F23CAF8346046
:1041D000CAF837608C706446C2F2000505F034FA04
:1041E00028786978C5E91B0105F03CFF40F254408E
:1041F000C2F20000AF656F6606606664EBE0E178CE
:1042000088427CD1E988002900F0AC82022249462C
:1042100040F2583301F8582FAA88C2F2000340F246
:10422000446693F85430C2F200064FEA122C06F1AD
:104230001C054A7081F802C0C870012B08BF06F146
:1042400028052D685CFA82F2EC1705EB14640D71F9
:1042500027124F7106F12007012B08BF06F12C072A
:104260003B6810442844DF1700EB242003EB17675A
:1042700018443E1200EB2720CE71002640F2D835BC
:104280008B71C2F200050E818E7202300CE392F83F
:104290004610002900F09F82DAF8200009F1580149
:1042A00001308EE00022494601F8582FAA88C870D4
:1042B0004A70130A02EB12228B70104430443844C7
:1042C000DAF8202006384FF0FF33C872501CC1F8CE
:1042D0000630FE23CAF8200040F2F0208B72C2F2B2
:1042E00000000C220F230E714F7105F0ADF90A206A
:1042F00040F25831C2F2000181F877006BE0217979
:10430000884268D14FF0010C494601F858CF40F27D
:1043100058378E7CCD7C663EB6FA86F67609C2F2B8
:104320000007642487F834606E1E05FB04F50A7CE0
:104330004B7C1D2E88BF4FF47A7540F6B83640F29C
:104340000004B54288BF4FF47A750E7DC2F20004B6
:104350006584A6F11E053C2D88BF3C26A6F11E05EE
:104360003C2D88BF3C26A68444F62066666503265D
:104370003E7287F87EC040F2D837C2F20007BF888D
:1043800040F2D8353E0A4F7056FA87F7C870C2F22D
:1043900000053844AD6E104418448D71284440F235
:1043A000D835E2630A71C2F2000503384FF0FF32DC
:1043B00023648E704B71C1F80720DAF82020C87290
:1043C000501CCAF8200040F2F020C2F200000C227B
:1043D0000F2305F039F999F867006179884227D1F0
:1043E00040F25831C2F2000191F87E1001290FD13C
:1043F000E988002901BF40F25832C2F2000292F867
:10440000461092F85A2008BF51EA020100F0A0803D
:10441000DAF8200009F158010130CAF8200040F212
:10442000F020C2F200000C220F2305F00DF9F1E498
:10443000A179884240D1A978002940F25831C2F2CE
:1044400000017FF4E7AC40F2D83401220F46494620
:10445000C2F2000401F8582FA388A2704B701A0A08
:1044600003EB13238A7097F82620C870268B184414
:1044700010443044658B00EB162097F825702844D3
:104480000A71FF2200EB15208A72DAF820203844E6
:10449000C872501CCAF8200040F2F020C2F200009E
:1044A0000C220F23A1F80560A1F807504F7205F008
:1044B000CBF80020A070ADE4E179884240F087801D
:1044C00040F25834C2F20004A17E01291BD194F8B5
:1044D0002D10C1B9202040F6000760700120C4F201
:1044E000022784F82D0038460821002200F006FB40
:1044F00007F580600421002200F000FB40F200007C
:10450000C2F20000C0790122494601F8582FAA885A
:10451000C8704A70130A02EB12228B70E3781044C1
:104520004FF0FF321844C1F80520A1F80920DAF84D
:1045300020200538C872501CCAF8200040F2F02034
:104540000B71C2F200000C220F2305F07DF861E42C
:10455000D4E90F3299F8687099F8691040F258362A
:10456000C2F20006BB4286F85B7086F85C104ED142
:104570008A424ED10127494601F8587FAF8840F260
:1045800058353E0A4F7056FA87F7C870C2F20005D8
:10459000384495F8255018444A7110444FF0FF32C2
:1045A0002844C1F80720DAF820200338C872501CCC
:1045B000CAF8200040F2F0200B71C2F200000C2279
:1045C0000F238E708D7105F03FF8FFF723BC217A21
:1045D00088427FF41FAC99F86810012940F08B8065
:1045E00040F25832C2F2000292F82720022A00F06C
:1045F000828040F25832C2F20002D17D013918BFE8
:10460000012149001174012289F8582078E08A427A
:1046100044D140F258340127C2F20004494684F8DC
:10462000467001F8587FAF88C8704F703E0A07EB9C
:104630001727CBF83C20384418444A7110444FF0F7
:10464000FF32C1F80720DAF820200338C872501C66
:10465000CAF8200040F2F020CBF838308E700B7191
:104660000026C2F200000C220F238E7104F0ECFF32
:1046700094F85A0000287FF4CDAB40F2D830C2F253
:104680000000C08800287FF4C5AB012084F85A00E0
:104690004FF0FF3009F066F8FFF7BCBB0027494632
:1046A00001F8587FAF8840F258353E0A4F7056FAED
:1046B00087F7C870C2F20005384495F825501844B1
:1046C0004A7110444FF0FF322844C1F80720DAF84D
:1046D00020200438C872501CCAF8200040F2F02094
:1046E0000B71C2F200000C220F238E708D7104F04A
:1046F000ABFFFFF78FBB002900F0898099F85820A5
:1047000040F2D831C2F200018B8889F85B001F0AA1
:1047100089F85A7040F258371A44C2F2000702EB87
:104720001322FF7D10444FF0FF323844C9F85D205A
:10473000A9F86120DAF82020063889F86300501CB7
:10474000CAF8200040F2F02089F8593009F15801E8
:10475000C2F200000C220F2389F85C7004F074FF91
:10476000FFF758BB40F25831C2F2000191F8221015
:10477000012940F08A800122494601F8582FAA8871
:104780009AF834C04A70130A02EB1222C8709AF8E1
:10479000357010449AF8366060449AF837E038442F
:1047A0009AF8384030448B709AF8393070449AF84F
:1047B0003A50204418448D72284440F2D83581F88C
:1047C00004C04F718E7181F807E00C724B72C2F217
:1047D0000005013068E099F86820AB6E6A67934283
:1047E00075D10123494601F8583FAF88C8704F7012
:1047F0003E0A07EB17270A71384410444FF0FF3286
:104800008E704B710338C1F806208A724CE040F27A
:10481000D831C2F20001C988002940F09B8040F2E3
:104820005833C2F20003997CDA7C1B7D1143194393
:1048300040F0908040F25831C2F20001C97D012958
:104840007FF4E1AE40F25831C2F20001097C012947
:104850003FF4D9AE40F60007C4F2022738460821DB
:104860000122012400F04AF907F5806004210122A9
:1048700000F044F940F20000C2F20000007A40F279
:104880005831C2F200010C74BDE60022494601F81D
:10489000582FAB88C8704B701F0A03EB13238F701F
:1048A00018444A60C1F80720DAF82020C872501C6A
:1048B000CAF8200040F2F020C2F200000C220F23C0
:1048C00004F0C2FE40F20004C2F2000483E50124B9
:1048D000494601F8584FAA8840F25837C2F20007FB
:1048E00087F846404A70170A02EB1222C87010443B
:1048F0004FF0FF321844C1F806208A72DAF82020FF
:104900000438C872501CCAF8200040F2F0200B7125
:104910000025C2F200000C220F238F704D7104F0AD
:1049200093FE40F2D830C2F20000C46540F2D830A5
:10493000C2F20000046640F2544040F20004C2F2A9
:104940000000C2F200040560656440F2D835C2F28E
:10495000000540E5002257E62DE9F04F82B00C68D3
:10496000002C00F0C28047F67F72C0F22F0202EAEC
:1049700090224FF001090092002200260027012515
:1049800001900FE0BCF1030F5FD100BF0C68083746
:1049900034FA05F305F1010506F1020602F10402FD
:1049A00000F0A380A5F1010A09FA0AFE14EA0E0B31
:1049B000ECD0D1F804C04CF01004122C1FD16FF0D1
:1049C000030303EA5A0402F01C0300EB0409D9F8BC
:1049D00020C05846D1F810B00F2404FA03F80BF0A9
:1049E0000F042CEA080C04FA03F343EA0C03834691
:1049F0000198C9F82030D1F804C04FF001090368CC
:104A00000324B4406FEA0408A3430CF00304B44049
:104A10002343BCF1120F036017D809FA0CF313F00B
:104A2000061FAFD08368CC6803EA0803B440234371
:104A3000836043684FEA1C1423EA0E0304FA0AF465
:104A40002343BCF1030F4360A0D0C3688C6803EA22
:104A50000803B44023435FEACC04C36096D542F216
:104A600000082AF00303C4F2024808EB030EDEF844
:104A700060C007F018040F23A3402CEA030C009B2E
:104A800003FA04F44CEA0403CEF86030D8F800C00E
:104A9000D1F804E04CEA0B035FEACE2458BF2CEABD
:104AA0000B03C8F80030D8F804C05FEA8E234CEA44
:104AB0000B0458BF2CEA0B04C8F80440D8F884C093
:104AC0005FEA8E334CEA0B0458BF2CEA0B04C8F89B
:104AD0008440D8F880C05FEACE334CEA0B0458BF5C
:104AE0002CEA0B04C8F8804050E702B0BDE8F08F14
:104AF0000069084018BF0120704700001823002AF1
:104B000008BF2823C150704740F60050C2F2000091
:104B10000068704740F2780040F60051C2F2000091
:104B2000C2F2000100780A68104408607047000073
:104B300080B5032000F086F801F03AFB40F62041F2
:104B4000C4F20241096844F6783201F00F01C0F660
:104B50000102515CC84040F2A401C2F200010860A9
:104B60000F2000F009F800281CBF012080BD00F0D4
:104B70002BF8002080BD000070B540F27806C2F22C
:104B800000063178002904BF012070BD044640F2C0
:104B9000A400C2F200004FF47A720068B2FBF1F197
:104BA000B0FBF1F002F0CCFA0F2C4FF0010508D861
:104BB00038B94FF0FF3021460022002500F016F8EA
:104BC0007460284670BD000070470000002848BF90
:104BD000704700F01F01012202FA01F14EF20012AB
:104BE0004009CEF2000242F82010704710B54EF690
:104BF0000C5CCEF2000CDCF80030C3F3022E8EF019
:104C00000704042C28BF0424BEF103034FF0FF3E29
:104C100038BF00230EFA04F4A14399400EFA03F3BF
:104C20009A4300F00F03043B1143634409010C3322
:104C300000F16042B0F1FF3FC8BF02F56443197054
:104C400010BD00004EF60C51CEF200010A684FF67E
:104C5000FF031A4060F30A2242F0806040F0FD70CA
:104C60000860704708F0DEFA10B540F6284CC4F230
:104C7000024CDCF80CE0DCF80010DCF80030C3F388
:104C80000523DCF80020DCF8104002F01002C4F329
:104C9000CC0404FB02F200EE102AB8EE400A9BB3EB
:104CA00001F0030103296FF35F2E32D0022939D0BE
:104CB00001295CF8281C49F20002C1F3C101C0F2CD
:104CC000D03222FA01F101EE101A02EE103AB8EEDB
:104CD000411AB8EE422A4FF0645181EE021A02EEF8
:104CE00010EA03EE101AB8EE422A20EE030A30EE64
:104CF000020AB7EE002A30EE022A5CF8281C22EEE7
:104D0000010A890134D52FE00021C0E9001181603A
:104D100010BD01EE103A42F20041B8EE411AC4F65D
:104D2000F42107E001EE103A42F20041B8EE411AD8
:104D3000C4F6742102EE101A4FF0645182EE012A7B
:104D400001EE10EA03EE101AB8EE411A20EE030A43
:104D500030EE010AB7EE001A30EE011A5CF8281C9A
:104D600022EE010A890103D5DCF80010C90306D43C
:104D7000002101605CF8281C890117D41AE0DCF8D6
:104D80000C10B7EE002AC1F3462101EE101AB8EE5E
:104D9000411A31EE021A80EE011ABCEEC11A11EE70
:104DA000101A01605CF8281C890103D5DCF800109A
:104DB000890301D4002111E0DCF80C10B7EE002AC1
:104DC000C1F3064101EE101AB8EE411A31EE021A93
:104DD00080EE011ABCEEC11A11EE101A41605CF8A7
:104DE000281C890144BFDCF800105FEA413102D47D
:104DF0000021816010BDDCF80C10B7EE002AC1F371
:104E0000066101EE101AB8EE411A31EE021A80EE78
:104E1000010ABCEEC00A10EE101A816010BD00003D
:104E200010B540F62C4CC4F2024CDCF810E0DCF873
:104E30000010DCF80030C3F30523DCF80020DCF8B8
:104E4000144002F01002C4F3CC0404FB02F200EEA2
:104E5000102AB8EE400A9BB301F0030103296FF357
:104E60005F2E32D0022939D001295CF82C1C49F27E
:104E70000002C1F3C101C0F2D03222FA01F101EE09
:104E8000101A02EE103AB8EE411AB8EE422A4FF06C
:104E9000645181EE021A02EE10EA03EE101AB8EE27
:104EA000422A20EE030A30EE020AB7EE002A30EE64
:104EB000022A5CF82C1C22EE010A090134D52FE0ED
:104EC0000021C0E90011816010BD01EE103A42F2EC
:104ED0000041B8EE411AC4F6F42107E001EE103AA1
:104EE00042F20041B8EE411AC4F6742102EE101AE3
:104EF0004FF0645182EE012A01EE10EA03EE101A1F
:104F0000B8EE411A20EE030A30EE010AB7EE001A9D
:104F100030EE011A5CF82C1C22EE010A090103D5BF
:104F2000DCF80010C90306D4002101605CF82C1CD9
:104F3000090117D41AE0DCF81010B7EE002AC1F30B
:104F4000462101EE101AB8EE411A31EE021A80EE37
:104F5000011ABCEEC11A11EE101A01605CF82C1C8B
:104F6000090103D5DCF80010890301D4002111E008
:104F7000DCF81010B7EE002AC1F3064101EE101A5A
:104F8000B8EE411A31EE021A80EE011ABCEEC11AD7
:104F900011EE101A41605CF82C1C090144BFDCF8CA
:104FA00000105FEA413102D40021816010BDDCF8BD
:104FB0001010B7EE002AC1F3066101EE101AB8EE28
:104FC000411A31EE021A80EE010ABCEEC00A10EE60
:104FD000101A816010BD000080B584B04FF6FF73D9
:104FE0000246C0F21F0300209B1A70EB01034FDA48
:104FF0006FF060439B1A70EB0103C0F297806FF073
:105000007C439B1A4FF000038B4180F2E88082F0D2
:1050100080630B4300F0A18182F000630B4300F03A
:10502000B18182F08052114340F0D28240F60041BB
:10503000C4F20241D1F8E000C0F3C202042A00F237
:10504000EE820FF2100000EB820348F20000C0F283
:10505000BB009F4600F0F2BA00F0B4BA00F0DFBA2D
:1050600000F0B6BA00F000B8D1F8E8000B6810F014
:105070004042086803D113F0020340F05383B2F1B9
:10508000804F40F0778310F4007040F06D8371E33F
:1050900041F6FF739B1A70EB01036CDA4FF6FF7356
:1050A0009B1A4FF000038B4180F2DB8082F4803347
:1050B0000B4300F0998182F400330B4300F0B08180
:1050C00082F48022114340F0838240F60041C4F212
:1050D0000241D1F8DC00C0F302320020052A00F2C0
:1050E00077820FF2080303EB82039F4600F08DBA2C
:1050F00000F068BA00F06CBA00F0B6BA00F0BCBAC2
:1051000000F000B8D1F8E8000B6810F040420868E1
:1051100003D113F0020340F00583B2F1804F40F059
:10512000298310F4007040F01F8323E30F2940F31C
:10513000C78081F01003134300F0948181F4007361
:10514000134300F0AD8181F48051114340F040825F
:1051500040F60041C4F20241D1F8E40000F04060A2
:10516000B0F1806F00F00A82002800F077810A68B1
:10517000B0F1006F4AE1D2F103034FF000038B411D
:10518000C0F2BD8082F001030B4300F09D8182F0EC
:105190000202114340F01C8240F60040C4F202407B
:1051A000D0F8D81011F0380100F02F8202680829D9
:1051B00003D112F0006240F03582036802681829BA
:1051C00003D113F0020340F01D82202903D112F411
:1051D000007240F0C982D0F8F0002829B6E282F4CB
:1051E00000130B4300F0938182F00072114340F0F2
:1051F000EF8140F60041C4F20241D1F8F000D1F84D
:10520000F02000F44070B0F5807F03D112F002026C
:1052100040F05681D1F8F020B0F5007F06D112F0B1
:1052200000621EBF4FF4FA4004B080BD0A68B0F5BA
:10523000407F4FF0000040F0CB8112F4003200F0CC
:10524000C781C86910F4785F00F0E981C86941F24C
:105250000021C0F30520C0F27A01B1FBF0F004B0E8
:1052600080BD82F400530B4300F0658182F48042DC
:10527000114340F0AD8140F60040C4F20240D0F846
:10528000E41001F44021B1F5802F00F0778100296E
:1052900000F0BB8102680068B1F5002F03D112F065
:1052A000020240F03F8210F400701CBF40F6001074
:1052B000C0F23D00B1F5402F18BF002004B080BD02
:1052C00082F000530B4300F05F8181F00401114331
:1052D00040F07E8140F60041C4F20241D1F8E8007E
:1052E000096810F4407040F0948111F4003100F02E
:1052F000908141F20020C0F27A0004B080BD82F0BB
:1053000004030B4300F0668182F48052114340F0A5
:105310005F8140F60040C4F20240D0F8E01001F096
:10532000E061B1F1807F00F07D81002900F096807E
:1053300003680268B1F1407F03D113F0020340F02B
:105340006181B1F1806F03D112F4007240F00C82E0
:10535000D0F8F000B1F1A06FF8E140F60040C4F2DF
:105360000240D0F8E810026811F0300140F060818E
:1053700012F4005200F05C8146F60040C0F2DC20DE
:1053800004B080BD40F60041C4F20241D1F8E00013
:1053900000F00702042A00F242810FF2100000EB35
:1053A000820348F20000C0F2BB009F4600F046B9FD
:1053B00000F008B900F033B900F00AB900F000B805
:1053C000D1F8E8000B6810F04042086803D113F0F0
:1053D000020340F0A781B2F1804F40F0CB8110F47E
:1053E000007040F0C181C5E140F60041C4F20241C5
:1053F000D1F8E40000F04070B0F1807F00F0BE8092
:10540000002800F002810A68B0F1007F4FF0000030
:1054100040F0DE8012F0020200F0DA80086881E1DC
:1054200040F60041C4F20241D1F8DC00C0F3022290
:105430000020052A00F2CC800FF2080303EB820360
:105440009F4600BF00F00AB800F0BCB800F0C0B83A
:1054500000F00AB900F010B900F05AB900F084FE6B
:1054600004B080BD40F60040C4F20240D0F8E41021
:1054700001F03001102900F0E1800268202903D1F9
:1054800012F0006240F0CE80006810F400501CBFA3
:1054900046F60040C0F2DC20302918BF002097E01B
:1054A00040F60040C4F20240D0F8E810D0F8F020F6
:1054B00011F0080140F0C88012F0020200F0C48030
:1054C0004FF4004004B080BD40F60040C4F20240FA
:1054D000D0F8D81011F0070100F0C280026801294D
:1054E00003D112F0006240F09D8003680268032936
:1054F00003D113F0020340F08580042903D112F494
:10550000007240F03181D0F8F00005291EE140F62C
:105510000040C4F20240D0F8E81001F0070102296F
:105520002CD0012900F0B180002940F0B28000F0B9
:10553000BBFD04B080BD40F60040C4F20240D0F88C
:10554000E41001F44031B1F5803F17D000295CD060
:1055500002680068B1F5003F03D112F0020240F08A
:10556000E18010F400701CBF40F60010C0F23D0056
:10557000B1F5403F18BF002004B080BD01A8FFF77F
:105580004FFC039804B080BD40F60041C4F20241D4
:10559000D1F8E000C0F38212042A40D80FF21000C4
:1055A00000EB820348F20000C0F2BB009F4600BF40
:1055B00000F044B800F006B800F031B800F008B8C8
:1055C00000F095B801A8FFF72BFC019804B080BD4E
:1055D00004B080BD40F60040C4F20240D0F8D810BC
:1055E00011F4E07111D00268402902D112F000627A
:1055F00018D103680268C02940F09E8013F00203AE
:1056000000F09A80C2F3C1008EE000F065FD04B0A6
:1056100080BDB0F5007F05D0B0F5807F0ED00020B2
:1056200004B080BD01A8FFF7FBFB029804B080BD69
:105630000268102947D112F0007244D001A8FFF788
:1056400013FB029804B080BDD0F8F00010F00060A9
:1056500018BF4FF4FA40002908BF084604B080BDC7
:1056600000F05EFD04B080BDD1F8F0004FF40041C1
:1056700001EA803004B080BDD1F8F0004FF4FA4167
:10568000000101EAE07004B080BD00F091FD04B0BB
:1056900080BD0268032903D112F400327FF429AEE1
:1056A00002680068042902D112F002023AD110F413
:1056B00000701CBF40F60010C0F23D00052918BF65
:1056C000002004B080BDD0F8F020202903D112F0D2
:1056D00002027FF4F5AED0F8F00010F0006018BFC1
:1056E0004FF4FA40302918BF002004B080BDD1F833
:1056F000E8000B6810F04042086802D113F0020382
:1057000010D1B2F1804F35D110F400702CD131E0BE
:10571000D1F8E8000B6810F0404208681ED113F081
:1057200002031BD0C0F3C10049F20001C0F2D03126
:1057300021FA00F004B080BDB1F5807F02D112F4EF
:10574000007211D1D0F8F000B1F5A07F00F0020294
:105750004FF0000008BF900304B080BDB2F1804F4D
:1057600008D110F4007005D040F60010C0F23D00E2
:1057700004B080BD086810F400301CBF41F2002066
:10578000C0F27A00B2F1004F18BF002004B080BD13
:105790002DE9F0470446006840F62848C101C4F2EC
:1057A000024807D5D8F8C010226B21F040411143C0
:1057B000C8F8C010C00714D0606BC11E032909D3FC
:1057C00040B1012813D104F1080004F0CDFC0646D5
:1057D00040B9606BD8F8B01021F007010843C8F851
:1057E000B00000262078800705D4354621E0012648
:1057F00020788007F9D5A06B6FF0020101EBF00172
:10580000354603290AD34FEAF000354630B1012866
:1058100030D104F1080004F0A7FC05462F464DB92D
:10582000D8F8B000A16B20F0380008430025C8F874
:10583000B00037462078400721D5E06B6FF00201B9
:1058400001EBB011032909D34FEAB01030B10128A0
:1058500036D104F1080004F087FC05462E467DB9D8
:10586000D8F8B000E16B20F4E07008430025C8F8D8
:10587000B00004E00125012720784007DDD43E4632
:105880006078C00621D5206C6FF0020101EB306119
:10589000032909D34FEA306030B101283CD104F12B
:1058A000080004F061FC05462F467DB9D8F8B80021
:1058B000216C20F0E06008430025C8F8B80004E03F
:1058C000012501266078C006DDD437466078800661
:1058D00027D5606C6FF0010101EB3041022909D33B
:1058E0004FEA304030B1012810D104F1080004F033
:1058F0003BFC05462E465DB9D8F8BC00616C20F42F
:10590000403008430025C8F8BC000AE00125012604
:105910006078400609D424E00125012760788006DC
:10592000D7D43E46607840061BD5A06C6FF00101CD
:1059300001EBB041022909D34FEAB04030B1012850
:1059400030D104F1080004F00FFC05462F464DB994
:10595000D8F8BC00A16C20F4402008430025C8F80A
:10596000BC003746A078C00721D0E06C002818BFE3
:10597000B0F1007F0BD12E46D5B9D8F8BC00E16C50
:1059800020F0407008430025C8F8BC000FE0B0F1DB
:10599000807F2DD104F1080004F0E6FB05462E4679
:1059A00035B9EAE701250127A078C007DDD13E46D9
:1059B0006079C00621D5206D002818BFB0F1006FB6
:1059C0000BD12F46D5B9D8F8BC00216D20F040602E
:1059D00008430025C8F8BC000FE0B0F1806F61D12A
:1059E00004F1080004F0C0FB05462F4635B9EAE78C
:1059F000012501266079C006DDD43746D4E90001CF
:105A000040F61C4AC4F2024A09050CD5DAF8001027
:105A100021F40041CAF80010D4F88010DAF8002010
:105A20001143CAF8001080031BD5606D6FF00201AE
:105A300001EB3021032909D34FEA302030B101288E
:105A400033D104F1080004F08FFB05462E464DB912
:105A5000D8F8B400616D20F4E06008430025C8F870
:105A6000B4003E46A078400724D5A06D6FF0020137
:105A700001EB3031032909D34FEA303030B101282E
:105A800028D104F1080004F06FFB05462F4695B9B4
:105A9000D8F8B400A16D20F4E04008430025C8F810
:105AA000B40007E001250127A8E701250126A07819
:105AB0004007DAD43746A078800610D5606E0528F6
:105AC00028D802282DD029469DB3D4E9000292059A
:105AD0000AD43CE001250127A0788006EED439469F
