:020000040800F2
:10000000880B0020F902000835530008594E0008FB
:1000100031530008A10600085D6C000800000000D4
:1000200000000000000000000000000081560008F1
:10003000A506000800000000695300088556000866
:100040001503000815030008150300080000000050
:100050001503000815030008150300080000000040
:100060001503000815030008000000001503000830
:100070001503000815030008150300081503000800
:1000800015030008150300081503000815030008F0
:1000900015030008150300081503000815030008E0
:1000A00015030008150300081503000815030008D0
:1000B00015030008150300081503000815030008C0
:1000C00015030008150300081D07000815030008A4
:1000D00000000000150300081503000815030008C0
:1000E0001503000815030008315700081503000820
:1000F00015030008150300083D5700080000000024
:100100000000000049570008150300081503000807
:10011000150300081503000815030008150300085F
:100120001503000815030008456C0008516C000811
:10013000150300080000000000000000150300087F
:10014000150300080000000000000000000000008F
:10015000000000000000000015030008000000007F
:10016000000000000000000015030008150300084F
:10017000000000000000000000000000000000007F
:10018000000000000000000000000000000000006F
:10019000000000000000000000000000000000005F
:1001A000000000000000000015030008150300080F
:1001B00015030008150300081503000815030008BF
:1001C00015030008150300080000000000000000EF
:1001D00000000000000000000000000015030008FF
:1001E00015030008000000000000000000000000EF
:1001F00000000000000000000000000000000000FF
:1002000000000000150300081503000800000000AE
:1002100000000000150300080000000000000000BE
:1002200000000000000000000000000015030008AE
:10023000150300080000000000000000000000009E
:10024000000000000000000000000000150300088E
:10025000150300081503000800F002F800F03CF850
:100260000AA090E8000C82448344AAF10107DA4511
:1002700001D100F031F8AFF2090EBAE80F0013F027
:10028000010F18BFFB1A43F0010318478C8E0000C2
:10029000AC8E0000103A24BF78C878C1FAD8520753
:1002A00024BF30C830C144BF04680C6070470000F0
:1002B0000023002400250026103A28BF78C1FBD86F
:1002C000520728BF30C148BF0B6070471FB508F008
:1002D000D0FE1FBD10B510BD00F0E6F81146FFF7C7
:1002E000F5FF07F073F900F004F903B4FFF7F2FF2C
:1002F00003BC00F007F900000A4880470A4800479D
:10030000FEE7FEE7FEE7FEE7FEE7FEE7FEE7FEE7C5
:10031000FEE7FEE7FEE7000004480549054A064BF4
:10032000704700008956000859020008880500201F
:10033000880B0020880700208807002053EA020C61
:1003400000F069802DE9F04B4FF00006002B1FBF35
:10035000B3FA83F503FA05F424FA05F65E4012BFFA
:100360001643B2FA82F502FA05F4C5F120051EBF64
:1003700022FA05FC44EA0C04203556EA044C4FEA04
:10038000144418BF641C4FF000084FF0000990425D
:1003900071EB030C39D3002919BFB1FA81F701FAC7
:1003A00007F6B0FA80F700FA07F6C7F120071EBF7C
:1003B00020FA07FC46EA0C062037B6FBF4FCA7EB54
:1003C0000507103F07F01F0BCBF120062CFA06F6AD
:1003D0000CFA0BFB44BFB3460026202FA4BF5E4699
:1003E0004FF0000B5BEA060C08BF4FF0010B19EB56
:1003F0000B0948EB0608ABFB027C06FB02CC0BFBAF
:1004000003CCC01B71EB0C01C1E70B460246414611
:100410004846BDE8F08B13B5084318BF4FF0FF30D6
:100420000146AFF30080BDE81C4070474FF000026A
:1004300000B5134694469646203922BFA0E80C50DA
:10044000A0E80C50B1F12001BFF4F7AF090728BFB5
:10045000A0E80C5048BF0CC05DF804EB890028BF31
:1004600040F8042B08BF704748BF20F8022B11F05A
:10047000804F18BF00F8012B7047704770477047D6
:1004800010B500F009F8006810BD10B5044600F082
:1004900003F8046010BD00000048704720000020F1
:1004A00000487047200000207546FFF7F9FFAE4670
:1004B00005006946534620F00700854618B020B570
:1004C000FFF72AFFBDE820404FF000064FF000077D
:1004D0004FF000084FF0000BAC46ACE8C009ACE8A8
:1004E000C009ACE8C009ACE8C00921F007018D469D
:1004F000704710B50446AFF300802046BDE81040B9
:10050000FFF7F3BE01491820ABBEFEE7260002004C
:10051000704700000146C06D836D826D13F0500F6F
:1005200007D0D20648BF00F0F3BA006D826E0846CD
:10053000104742F40071816501680B68CA681B07A7
:1005400010D491070CD4816D21F480718165816D87
:10055000C90448BF00F0D8BA816D41F0010181653E
:1005600000F0D2BA12F4406FFAD1C9688904F7D406
:10057000816D21F480718165816DC904F0D4816D34
:1005800041F00101816500F0BFBA0000C06D816DCE
:1005900041F040018165C16D41F00401C16500F089
:1005A000B7BA0000C06D00F0B1BA000070B582B0FB
:1005B00004460020019021688A68D20740D14FF696
:1005C000C076C7F6FF76886806F17F0210420AD02F
:1005D000A06D40F01000A065E06D40F00100E06506
:1005E000012002B070BD8868304040F00100886092
:1005F00048F20830C4F202200068000222D401F060
:100600001FF921680A68D2071EBF002002B070BD22
:10061000054602E00868C00711D18868C00704D108
:100620008868304040F00100886001F009F9401B03
:1006300021680328EED30868C007EBD1C8E7002083
:1006400002B070BD40F21000C2F20000006842F635
:1006500063518009C0F23E51A0FB010188090221CB
:1006600001EB4000019001980028C8D001980138A2
:10067000019001980028C2D001980138019001989A
:100680000028BCD001980138019001980028B6D00C
:1006900001980138019001980028E7D1AFE70000E8
:1006A000FEE700007047000040F21040C2F2000078
:1006B00003F03ABB72B600BFFEE7000010B501328E
:1006C0000023B3EB520F28D04FEA520C4FF0000E2C
:1006D000002400BF44F0010292B230F81E3094456D
:1006E0000B801AD944F002039BB230F812209C45CB
:1006F0004A8012D944F0030292B230F81330944584
:100700008B8098BF10BD043430F812201FFA84FE8D
:10071000CA80F44501F10801DCD810BD40F2AC20DC
:10072000C2F2000000F0B6BDF0B581B00022009228
:1007300090F85420012A03D10221084601B0F0BDEF
:100740000123076880F85430BB685B0743D40B680B
:1007500048F2083C012BC4F2022C09D14FF6C056D6
:10076000CFF6FF765CF8065045F001054CF80650D0
:100770004E681F22C6F3012506F01F0607EB85050C
:10078000B2402C6BC3F3846324EA0202B3401A43E1
:100790002A63BA68BB68DB0843EA9202D20740F0DA
:1007A000BB800A688D68C2F3406407F11403042615
:1007B00006EAD25E53F82460C2F304540722A24032
:1007C000B5F1004F26EA02060BD143F80E601A6815
:1007D00042F000430DE0816D41F02001816501216F
:1007E0008CE105FA04F2324343F80E201A6822F035
:1007F00000437B61D1E90435FE68042B5FD13A6E7A
:100800003A6EC2F384620B6893FAA3F4B4FA84F5E7
:10081000C3F3846E6FF31F532C46002B08BF74463E
:10082000A2424FF6FF74C0F20F040CD13A6E22F0D0
:1008300000423A660A6802EA0403C2F3846E92FA3E
:10084000A2F2B2FA82F57A6E7A6E002BC2F384625B
:100850002E4608BF7646B2420CD17A6E22F0004294
:100860007A660A6802EA0403C2F3846E92FAA2F27C
:10087000B2FA82F5BA6EBA6E002BC2F384622E46CB
:1008800008BF7646B2420CD1BA6E22F00042BA6678
:100890000A6802EA0403C2F3846E92FAA2F2B2FA80
:1008A00082F5FA6EFA6E002BC2F3846208BF7546B9
:1008B000AA4231D1FA6E22F00042FA662CE00622FA
:1008C00002EA960207F16004D1F800E054F82360D0
:1008D00005FA02F24FF20005C0F2FF3535400EF086
:1008E000F84632432A4342F0004244F823200A6982
:1008F0008B6954F8226026F08076334344F8223026
:100900000A690B7F54F82260012B26F0007608BF9D
:1009100006F1007644F82260BA68D20757D10D6814
:10092000CA68D7F8B0602B466FF31F5326EA030E50
:100930004FF6FF7602F01804C0F20F0626FA04F410
:100940001C4044EA0E060024C4F27F04A242C7F809
:10095000B0603CD195FAA5F2B2FA82F42246002B9F
:1009600008BFAA0E013202F01E02092A4FEA95655D
:100970000CD8002B14BF621C6A1C02F01F0301225A
:1009800003EB43069A4042EA065312E0002B14BFE1
:10099000621C6A1C02F01F0303EB43020025CFF622
:1009A0002065012605EB025206FA03F31A4342F0D2
:1009B00000738A68C3F34066072407EB86067569EF
:1009C000C3F304539C40A5439A402A4372610B68C9
:1009D0000021C8F208010B422ED0DCF800500021A3
:1009E000CCF221318B4205F0E07108BF15F4000212
:1009F00024D00422C8F66002934208BF15F080722A
:100A000022D00022CCF25272934208BF15F4800229
:100A100020D0ACF542718F424FF000016ED04022E1
:100A2000C9F62012934269D1D7F8C81041F00201EB
:100A3000C7F8C810002161E000215FE0ACF5427208
:100A400097420DD0002159E0ACF5427297423BD05D
:100A5000002153E0ACF5427297423DD000214DE0B9
:100A6000DCF8002022F0E072114341F40001CCF8E0
:100A7000001040F21001C2F20001096842F6635210
:100A80008909C0F23E52A1FB02129109022202EB37
:100A900041010091009951B30099013900910099E9
:100AA00039B3009901390091009921B300990139B6
:100AB0000091009909B3009901390091009900292A
:100AC0004FF00001E8D119E0DCF8002022F0E072DC
:100AD000114341F0807106E0DCF8002022F0E07262
:100AE000114341F48001CCF80010002106E0002100
:100AF00004E0002102E0002100E00021002280F853
:100B00005420084601B0F0BD704700007047000057
:100B100070470000B0B582B00446002001904CB18F
:100B2000A06D50B121688868800011D48868C00029
:100B300018D54AE0012002B0B0BD204600F0EAF826
:100B40000020E06584F85400216888688000EDD5B5
:100B500088684FF6C072C5F6FF72104088608868DA
:100B6000C00032D44FF6C0728868C5F6FF7202F139
:100B70008052104000F18050886040F21000C2F2B4
:100B80000000006842F663528009C0F23E52A0FBAA
:100B900002029009022202EB400001900198A0B1EC
:100BA000019801380190019878B1019801380190BD
:100BB000019850B1019801380190019828B101982D
:100BC0000138019001980028EAD18868C00009D452
:100BD000A06D40F01000A065E06D40F00100E06500
:100BE000012000E000208A68C2F38002A36D03F0B8
:100BF0001003D218A26D05D042F010010120A165AA
:100C000002B0B0BD22F481720232A2658A68D207B6
:100C100012D148F208324FF60053C4F20222CFF646
:100C2000FF73D358DB0707D1D4F804C0136823F44B
:100C30007C1343EA0C031360627EA36B43EA4232E7
:100C4000D4E902C31A4394F8203042EA0C0242EA83
:100C5000034E012B08D1D4F824C00023CFF6FE7335
:100C600003EB4C434EEA030EA36A3BB103F47873E3
:100C7000D4F82CC043EA0E0242EA0C0ECB6844F2D0
:100C80000702CFF6F0721A4042EA0E02CA600A6901
:100C9000236B22F040621A430A618A68120727D444
:100CA00094F83430227E5B0094F83CC043EA823EE4
:100CB000CB6844F2020223EA020242EA0E02CA6050
:100CC0000A69BCF1010F10D140F2FD7322EA030C56
:100CD000D4E91032D4E912E543EA0C031A4342EA9C
:100CE0000E022A4342F0010201E022F001020A61F1
:100CF00022690B6B012A23F00F0202BFE369013B5B
:100D00001A430A63A16D012262F30101A16502B0D9
:100D1000B0BD00002DE9F043A9B00446002640F222
:100D2000000902A88821CDE92766CDE92566C4F22D
:100D300002292496FFF77AFB206809F500418842D2
:100D400002D029B0BDE8F0834FF4001002900220D9
:100D50004FF00108252103960490CDF81480CDE9C9
:100D600006100421099108210890CDE90A164FF4D4
:100D700080510C914FF480211B9002A80D9101F03D
:100D800005FE002818BFFFF795FC40F68C40C4F222
:100D90000240016824AE41F48061016001680325CE
:100DA00001F48061019101990168002741F001017E
:100DB0000160016801F0010101910199016841F0B0
:100DC000020101600068314600F0020001900198C4
:100DD000F220249048462595269700F051FC09F50D
:100DE00080603146CDE92455269700F049FC40F259
:100DF000AC2540F2D031C2F200054FF40020C4F21D
:100E000002014FF48032C5E90017C5E90277C5E950
:100E100004702846C5E90682C5E90878C5E90A874D
:100E2000C5E90C7700F016FB002818BFFFF742FC5D
:100E3000284610212565EC6500F004FA002818BF4B
:100E4000FFF738FC29B0BDE8F083000070B59CB016
:100E5000044600688068400703D494F854000128D1
:100E600002D102201CB070BD012084F8540020463D
:100E700016460D46FFF79AFB20B1002184F8541066
:100E80001CB070BDA06D40F60171884300F5807004
:100E9000A065A06D40F21553C0044FF0000044BFA0
:100EA000E06D20F00600E065206DC0F600032168CB
:100EB00040F2A552036640F28D53C0F60002C0F620
:100EC00000034FF0000CC0E919231C220A6084F8CB
:100ED00054C04A6842F010024A60CA6842F00102F7
:100EE000CA6090F85020120606D48269012A0ED0FA
:100EF000022A08BFB6000BE0406F28B1016819B1A3
:100F000001A800F029F898B101201CB070BD76004E
:100F100040312A46334600F04BFB21684FF6C07340
:100F20008A68C7F6FF731A4004328A601CB070BD2D
:100F30000798012803D0022808BFB60000E0760019
:100F4000206D2268416F40320968C1E902620D617B
:100F500000F0A6F8E1E7000080B500284FF001029C
:100F600018BF002901D1104680BD91F820C042F27F
:100F70000002C0F800C00B68C0F6004203F008038E
:100F800003610B6803F4002343610B6803F0030360
:100F900083610B6803F44033C3610B68C3F305132B
:100FA000013343620B68C3F30553013383620B685B
:100FB00003F04023C3620B681A4082630A6802F49C
:100FC000C052C2634B689A0508D4DAB242604A79CB
:100FD000520754BF00224FF4806202E04FF40072C7
:100FE0004260C2604A6802F4006282604A6802F4A9
:100FF000404202644A6802F040724264CA8802F0C9
:101000003F0282644A6802F0404202630B891CF08E
:10101000020283660FBF01234B896FF3DF23013385
:10102000C364CB6803660B69436632B90022C0E92A
:101030001422C0E91622104680BD4B696FF35F335E
:101040000365B1F816C06FF35F3CC0F854C0D1F827
:1010500008E05FEACE0203D55A420265D1F808E003
:101060005FEA8E0244BFCCF100024265B1F818E09D
:10107000C0F858E08A694FEA124CC0F85CC08A6830
:10108000530003D5CEF1000282658A68B2F1FF3FBA
:10109000C4BF002080BDCCF10001C165002080BD2F
:1010A00080B5002856D0436F002B53D090F85410D1
:1010B000D0F800E00129DEF814C004D002294BD199
:1010C0001CF4803148D090F8541001293AD190F89E
:1010D0004C1001294FF0020144D0012280F84C202D
:1010E00080F854101973002181651961DEF814101D
:1010F00041F4BA41CEF81410416E29B1DEF8141053
:1011000041F40071CEF81410006F28B1DEF814001D
:1011100040F40050CEF8140018680022016ACFF69F
:101120000102490861F3596261F39A624FF6FF7157
:1011300020EA0101CEF800104FF6FC71084010447F
:10114000CEF87C00DEF8140040F00100CEF8140068
:10115000002080BD012080BD40218165002180F8F4
:101160004C100121084680BDB0B5044600F068FB74
:10117000002C04BF0120B0BD054694F8540002289D
:101180002DD12168486940F004004861052084F8A9
:1011900054000869800408D400F052FB401B052865
:1011A00024D8216808698004F6D54869012240F0F6
:1011B00002004861042084F854004FF4FE40C860E7
:1011C00084F8542094F8500000064FF0000002D537
:1011D000636F1A738864002184F84C10B0BD20201E
:1011E000A0650120002184F84C10B0BDA06D40F036
:1011F0001000A065032084F8540094F85000000605
:101200004FF0010044BF616F0873002184F84C1057
:10121000B0BD0000002804BF0120704790F85410B2
:1012200002290AD1042180F85410006842F2040215
:1012300041691143416100207047202181650120EF
:1012400070470000024600284FF0010008BF7047B9
:10125000126802F57B63C3F3C41CCB065CBF00209D
:10126000704740F6FF7301F011019A43112900FA0B
:101270000CF004D151680843506000207047516859
:1012800021EA0000506000207047000090F85400F0
:101290007047000010B5044600680C22034600F5B4
:1012A0007B6162F30B03C1F3C4111A6822FA01F1E6
:1012B000C90700F0A3800169490544BF41695FEA9D
:1012C00041514BD40169090544BF41695FEA0151AD
:1012D0004CD40169C90444BF41695FEAC1414DD49E
:1012E0000169490444BF41695FEA41414ED4016943
:1012F000890544BF41695FEA81514FD4016989047E
:1013000044BF41695FEA814152D40169C90544BFC4
:1013100041695FEAC15172D4A06D002808BF10BDB9
:101320002068416941F0020141614069C0074FF006
:10133000030008BF012084F8540094F85000000610
:1013400002D5606F01210173A16E0020002984F88D
:101350004C0053D02046BDE8104008474FF4806150
:10136000C160A16D41F00101A165ABE74FF40061DF
:10137000C160A16D41F00201A165AAE74FF480515F
:10138000C160A16D41F00401A165A9E74FF480415E
:10139000C160A16D41F00801A165A8E74FF400719B
:1013A000C160616E0029A9D0204688472068A5E762
:1013B0004FF40051C16094F8541004292AD14169B6
:1013C00021F400514161416941F0020141614169EB
:1013D000C9074FF0030108BF012184F8541094F8A5
:1013E0005010090604D5616F01220A73002181643F
:1013F000E16E0020002984F84C00ABD110BD94F8B8
:101400005010090611D4816C002904BF012184F811
:10141000541013E0052184F85410216F00293FF483
:1014200074AF2046884720686FE7C16F31B9816C7F
:1014300021B9012184F85410626F11734FF4407187
:10144000C160216E0020002984F84C001CBF20469A
:10145000884761E7B0B5044600F0F2F9002C04BFFC
:101460000120B0BD00210546206884F84C100221FF
:1014700084F85410416941F0060141614169C9078E
:1014800009D000BF00F0DCF9401B05284FD82068C8
:101490004169C907F6D1216A426904F1100C22F4AE
:1014A000430211434161E3699CE806101A4311436A
:1014B0004FF6B072CBF6FD7283186FF01F0202EB8D
:1014C000F31541EA0C02082D4FEAF31C28BFBCF1CA
:1014D000070F14D804F1240E9EE828404FF07C71C9
:1014E00001EB05514FF47C7505EB031301F07C71A2
:1014F00042EA0E0203F47C73114341EA03020264E0
:10150000A1682279E3681143226BB3F5007F42EAB8
:10151000010213D0B3F5806F12D1ACF1200108297C
:1015200028BFBCF1070F98BF42F4806208E0012099
:1015300003211022A26584F85410B0BD42F4007259
:10154000616B436C42F20015C3F6C0450A432B4061
:101550001A4341F24F33C4F202034264002298421C
:1015600082640CDC40F25032C4F20202904212D08B
:1015700040F2D032C4F2020290420CD00EE041F2AE
:10158000D032C4F20202904205D041F25032C4F28D
:101590000202904202D10022426582650022C267A7
:1015A000216501210020A26584F85410B0BD00001F
:1015B00010B500284DD090F84CC0BCF1010F04BF0D
:1015C000022010BD4FF0010C80F84CC090F854C0C0
:1015D000BCF1010F38D14FF0020C80F854C04FF02D
:1015E000000CC0F858C0D0F800C0D0F864E0DCF8B7
:1015F0004840BEF1000FC3EA0403CCF848304FF472
:10160000FE43CCF80C30CCF84C10CCF85020DCF871
:10161000141041F4BA41CCF8141005D0DCF81410C1
:1016200041F40071CCF81410006F28B1DCF81400FC
:1016300040F40050CCF81400DCF8140040F0010035
:10164000CCF81400002010BD40218165002180F8F5
:101650004C10012010BD0000B0B5044600F0F0F8B9
:10166000054640F20800C2F200000078611C18BF75
:10167000044400BF00F0E4F8401BA042FAD3B0BD20
:101680002DE9F04F82B00C68002C00F0C28047F6C4
:101690007F72C0F22F0202EA90224FF001090092FD
:1016A000002200260027012501900FE0BCF1030F66
:1016B0005FD100BF0C68083734FA05F305F1010566
:1016C00006F1020602F1040200F0A380A5F1010A6E
:1016D00009FA0AFE14EA0E0BECD0D1F804C04CF063
:1016E0001004122C1FD16FF0030303EA5A0402F016
:1016F0001C0300EB0409D9F820C05846D1F810B0FB
:101700000F2404FA03F80BF00F042CEA080C04FA77
:1017100003F343EA0C0383460198C9F82030D1F85B
:1017200004C04FF0010903680324B4406FEA0408C1
:10173000A3430CF00304B4402343BCF1120F036035
:1017400017D809FA0CF313F0061FAFD08368CC68E2
:1017500003EA0803B4402343836043684FEA1C1440
:1017600023EA0E0304FA0AF42343BCF1030F436097
:10177000A0D0C3688C6803EA0803B44023435FEA3F
:10178000CC04C36096D542F200082AF00303C4F2E9
:10179000024808EB030EDEF860C007F018040F23C0
:1017A000A3402CEA030C009B03FA04F44CEA040364
:1017B000CEF86030D8F800C0D1F804E04CEA0B0352
:1017C0005FEACE2458BF2CEA0B03C8F80030D8F8E3
:1017D00004C05FEA8E234CEA0B0458BF2CEA0B04CA
:1017E000C8F80440D8F884C05FEA8E334CEA0B0492
:1017F00058BF2CEA0B04C8F88440D8F880C05FEAD0
:10180000CE334CEA0B0458BF2CEA0B04C8F88040D6
:1018100050E702B0BDE8F08F0069084018BF012012
:1018200070470000426902EA0103914341EA034123
:10183000816170471823002A08BF2823C1507047D0
:1018400040F28450C2F200000068704790F84120D6
:10185000202A03D190F84020012A01D102207047AC
:10186000242280F841200268136823F001031360EA
:10187000136823F4805313601368194311601168CF
:1018800041F001011160202180F84110002180F811
:10189000401008467047000090F84120202A03D1EC
:1018A00090F84020012A01D102207047242280F8BC
:1018B00041200268136823F001031360136823F4C6
:1018C000706343EA01211160116841F00101116068
:1018D000202180F84110002180F840100846704710
:1018E000002804BF0120704710B5044690F841005D
:1018F00028B9002084F84000204600F0F1F92420A7
:1019000084F8410094E80910E2680168012A21F096
:101910000101016023F070610161816821F40041DF
:10192000816006D14CF400418160014651F8043FCA
:101930000AE04CF404418160014651F8043F022A58
:1019400002D143F4006201E023F400620A604168BE
:1019500004F1100341F0007141F400414160C1689D
:1019600021F40041C1600ECB114341EA0321E26939
:10197000C160216A11430160016841F00101016009
:1019800000202021606484F84110206384F8420024
:1019900010BD00002DE9F04782B0044690F84100E8
:1019A000202803D194F84000012803D1022002B07E
:1019B000BDE8F08701201F461546884684F84000A0
:1019C000FFF73EFF216806468A69120425D42220CB
:1019D00084F84100102084F84200002060646562B1
:1019E00067856063608D40F2000AB0F5807F49F63C
:1019F0000000CFF60040C0F2FF1A24D351F8043F94
:101A000042466FF39F22034013430AF51057FF220B
:101A100027E000BF88690004D9D5FFF711FF801BBC
:101A200021681A28F6D388690004F3D5606C40F069
:101A300020006064202084F84100002084F84200E7
:101A400084F8400061E0628D43466FF39F23D7B274
:101A500051F8045F43EA074305EA00073B430AF5F0
:101A600092373B430B602285618D0A9F002946D047
:101A70006FF39F284FF0FF0900F5806510E000BF6D
:101A8000618D20682185C9B250F8042F48EA0141D0
:101A90002A4011434FF0007211430160608D70B312
:101AA00020463946324603F00FFB70BB2068616A5E
:101AB000406A0870606A218D0130013960622185B9
:101AC000608D0904A0F101006085608DE6D10028D9
:101AD000E4D02046802100223B46009603F074FAB1
:101AE00098B9608DB0F5807FCAD32068A4F828909B
:101AF00050F8041F5246294041EA0801CCE720462D
:101B00003946324603F04AFB18B1012002B0BDE865
:101B1000F08720682021C16142684EF60003CFF6AD
:101B200000631A404260002084F8411084F84200AB
:101B300084F8400002B0BDE8F08700002DE9F047CE
:101B400082B0044690F84100202803D194F8400068
:101B5000012803D1022002B0BDE8F08701201F4612
:101B60001546884684F84000FFF76AFE216806465D
:101B70008A69120425D4212084F84100102084F8B9
:101B8000420000206064656267856063608D40F29A
:101B9000000AB0F5807F49F60000CFF60040C0F2A1
:101BA000FF1A24D351F8043F42466FF39F220340AB
:101BB00013430AF50057FF2227E000BF886900049D
:101BC000D9D5FFF73DFE801B21681A28F6D3886916
:101BD0000004F3D5606C40F020006064202084F89D
:101BE0004100002084F8420084F840005FE0628DEC
:101BF00043466FF39F23D7B251F8045F43EA07438C
:101C000005EA00073B430AF590373B430B6022850A
:101C1000618D0A9F002944D06FF39F284FF0FF0980
:101C200000F5806510E000BF618D20682185C9B294
:101C300050F8042F48EA01412A4011434FF0007246
:101C400011430160608D60B320463946324603F08F
:101C5000E5FA60BB606A226810F8011B916260625D
:101C6000608D01386085208D411E2185608D0904BD
:101C7000E8D10028E6D02046802100223B4600968D
:101C800003F0A2F998B9608DB0F5807FCCD32068BD
:101C9000A4F8289050F8041F5246294041EA080150
:101CA000CEE720463946324603F078FA18B10120D3
:101CB00002B0BDE8F08720682021C16142684EF67D
:101CC0000003CFF600631A404260002084F8411000
:101CD00084F8420084F8400002B0BDE8F0870000BC
:101CE000B0B5AAB00446002502A888212995CDE9FF
:101CF0002755CDE92555FEF799FB206845F20041AF
:101D0000C4F20001884201D02AB0B0BD4FF40050A7
:101D1000029002A80395139500F038FE002818BF22
:101D2000FEF7C8FC40F68C44C4F20244206825A9A2
:101D300040F002002060206800F00200019001984D
:101D4000C0202590122026900020CDE927000420F5
:101D5000299040F20040C4F20220FFF791FC206974
:101D600040F400102061206900F4001001900198F7
:101D70002AB0B0BD40F20041C4F20301086840F04F
:101D8000010200200A60704740F2080040F28451CE
:101D9000C2F20000C2F2000100780A681044086034
:101DA0007047000080B5032000F086F801F0FEFACD
:101DB00040F62041C4F20241096849F2D80201F01C
:101DC0000F01C0F60002515CC84040F21001C2F29F
:101DD000000108600F2000F009F800281CBF012056
:101DE00080BD00F02BF8002080BD000070B540F2EF
:101DF0000806C2F200063178002904BF012070BD38
:101E0000044640F21000C2F200004FF47A720068FB
:101E1000B2FBF1F1B0FBF1F001F06EFE0F2C4FF0D0
:101E2000010508D838B94FF0FF30214600220025BF
:101E300000F016F87460284670BD0000704700007E
:101E4000002848BF704700F01F01012202FA01F18B
:101E50004EF200124009CEF2000242F82010704704
:101E600010B54EF60C5CCEF2000CDCF80030C3F37B
:101E7000022E8EF00704042C28BF0424BEF10303B5
:101E80004FF0FF3E38BF00230EFA04F4A1439940FF
:101E90000EFA03F39A4300F00F03043B114363442B
:101EA00009010C3300F16042B0F1FF3FC8BF02F5F9
:101EB0006443197010BD00004EF60C51CEF20001C3
:101EC0000A684FF6FF031A4060F30A2242F080606E
:101ED00040F0FD700860704710B540F6284CC4F221
:101EE000024CDCF80CE0DCF80010DCF80030C3F346
:101EF0000523DCF80020DCF8104002F01002C4F3E7
:101F0000CC0404FB02F200EE102AB8EE400A8BB3B8
:101F100001F0030103296FF35F2E30D0022933D083
:101F200001295CF8281C49F20002C1F3C101C0F28A
:101F3000D03222FA01F101EE101A02EE103AB8EE98
:101F4000411AB8EE422A9FED4D3A81EE021A02EE96
:101F500010EA20EE030AB8EE422A30EE020AB7EE8B
:101F6000002A30EE022A5CF8281C22EE010A8901C0
:101F70002AD525E00021C0E90011816010BD01EEE5
:101F8000103A9FED3D2A03E001EE103A9FED3C2A06
:101F9000B8EE411A82EE012A01EE10EA9FED373ABF
:101FA000B8EE411A20EE030A30EE010AB7EE001A2D
:101FB00030EE011A5CF8281C22EE010A890103D5D3
:101FC000DCF80010C90306D4002101605CF8281C6D
:101FD000890117D41AE0DCF80C10B7EE002AC1F31F
:101FE000462101EE101AB8EE411A31EE021A80EEC7
:101FF000011ABCEEC11A11EE101A01605CF8281C1F
:10200000890103D5DCF80010890301D4002111E017
:10201000DCF80C10B7EE002AC1F3064101EE101AED
:10202000B8EE411A31EE021A80EE011ABCEEC11A66
:1020300011EE101A41605CF8281C890144BFDCF8DD
:1020400000105FEA413102D40021816010BDDCF84C
:102050000C10B7EE002AC1F3066101EE101AB8EEBB
:10206000411A31EE021A80EE010ABCEEC00A10EEEF
:10207000101A816010BD00BF0024F44A000000392E
:102080000024744A10B540F62C4CC4F2024CDCF823
:1020900010E0DCF80010DCF80030C3F30523DCF8B6
:1020A0000020DCF8144002F01002C4F3CC0404FB5E
:1020B00002F200EE102AB8EE400A8BB301F00301E1
:1020C00003296FF35F2E30D0022933D001295CF849
:1020D0002C1C49F20002C1F3C101C0F2D03222FA35
:1020E00001F101EE101A02EE103AB8EE411AB8EE04
:1020F000422A9FED4D3A81EE021A02EE10EA20EEDE
:10210000030AB8EE422A30EE020AB7EE002A30EE99
:10211000022A5CF82C1C22EE010A09012AD525E0CE
:102120000021C0E90011816010BD01EE103A9FED61
:102130003D2A03E001EE103A9FED3C2AB8EE411A29
:1021400082EE012A01EE10EA9FED373AB8EE411A0D
:1021500020EE030A30EE010AB7EE001A30EE011A43
:102160005CF82C1C22EE010A090103D5DCF80010F2
:10217000C90306D4002101605CF82C1C090117D4A6
:102180001AE0DCF81010B7EE002AC1F3462101EE88
:10219000101AB8EE411A31EE021A80EE011ABCEEA6
:1021A000C11A11EE101A01605CF82C1C090103D54C
:1021B000DCF80010890301D4002111E0DCF81010D4
:1021C000B7EE002AC1F3064101EE101AB8EE411A2B
:1021D00031EE021A80EE011ABCEEC11A11EE101A8D
:1021E00041605CF82C1C090144BFDCF800105FEA78
:1021F000413102D40021816010BDDCF81010B7EE2F
:10220000002AC1F3066101EE101AB8EE411A31EE50
:10221000021A80EE010ABCEEC00A10EE101A8160AC
:1022200010BD00BF0024F44A000000390024744AA5
:1022300080B584B04FF6FF730246C0F21F03002042
:102240009B1A70EB010347DA6FF060439B1A70EB47
:102250000103C0F286806FF07C439B1A4FF00003AD
:102260008B4180F2D78082F080630B4300F0908135
:1022700082F000630B4300F0A08182F08052114392
:1022800040F0A48240F60041C4F20241D1F8E000DF
:10229000C0F3C202042A00F2C08248F20000C0F279
:1022A000BB00DFE812F0C9028D02BA0293020500FA
:1022B000D1F8E8000B6810F04042086803D113F031
:1022C000020340F02D83B2F1804F40F0518310F4AF
:1022D000007040F047834BE341F6FF739B1A70EBAD
:1022E000010363DA4FF6FF739B1A4FF000038B4133
:1022F00080F2D28082F480330B4300F0888182F434
:1023000000330B4300F09F8182F48022114340F0A0
:102310005D8240F60041C4F20241D1F8DC00C0F316
:1023200002320020052A00F25182DFE812F06C022E
:1023300049024F029B02A3020600D1F8E8000B6895
:1023400010F04042086803D113F0020340F0E88225
:10235000B2F1804F40F00C8310F4007040F0028323
:1023600006E30F2940F3C78081F01003134300F008
:10237000828181F40073134300F09B8181F48051CA
:10238000114340F0238240F60041C4F20241D1F8EB
:10239000E40000F04060B0F1806F00F0F8810028A8
:1023A00000F065810A68B0F1006F42E1D2F10303E9
:1023B0004FF000038B41C0F2BD8082F001030B435C
:1023C00000F08B8182F00202114340F0FF8140F661
:1023D0000040C4F20240D0F8D81011F0380100F0EB
:1023E00012820268082903D112F0006240F01882BC
:1023F00003680268182903D113F0020340F0008239
:10240000202903D112F4007240F0AC82D0F8F00021
:10241000282999E282F400130B4300F0818182F0B5
:102420000072114340F0D28140F60041C4F20241F3
:10243000D1F8F000D1F8F02000F44070B0F5807FC2
:1024400003D112F0020240F04481D1F8F020B0F53F
:10245000007F06D112F000621EBF4FF4FA4004B0B4
:1024600080BD0A68B0F5407F4FF0000040F0AE81BB
:1024700012F4003200F0AA81C86910F4785F00F00D
:10248000CC81C86941F20021C0F30520C0F27A0175
:10249000B1FBF0F004B080BD82F400530B4300F0B8
:1024A000538182F48042114340F0908140F6004015
:1024B000C4F20240D0F8E41001F44021B1F5802FBD
:1024C00000F06581002900F09E8102680068B1F586
:1024D000002F03D112F0020240F0228210F40070AB
:1024E0001CBF40F60010C0F23D00B1F5402F18BFF0
:1024F000002004B080BD82F000530B4300F04D81FA
:1025000081F00401114340F0618140F60041C4F2C2
:102510000241D1F8E800096810F4407040F077817A
:1025200011F4003100F0738141F20020C0F27A0012
:1025300004B080BD82F004030B4300F0498182F4B3
:102540008052114340F0428140F60040C4F2024004
:10255000D0F8E01001F0E061B1F1807F00F060811F
:10256000002900F0848003680268B1F1407F03D144
:1025700013F0020340F04481B1F1806F03D112F4F3
:10258000007240F0EF81D0F8F000B1F1A06FDBE114
:1025900040F60040C4F20240D0F8E810026811F0A2
:1025A000300140F0438112F4005200F03F8146F6C2
:1025B0000040C0F2DC2004B080BD40F60041C4F20F
:1025C0000241D1F8E00000F00702042A00F2258160
:1025D00048F20000C0F2BB00DFE812F02E01F2006A
:1025E0001F01F8000500D1F8E8000B6810F0404228
:1025F000086803D113F0020340F09281B2F1804FDA
:1026000040F0B68110F4007040F0AC81B0E140F6CB
:102610000041C4F20241D1F8E40000F04070B0F192
:10262000807F00F0B480002800F0ED800A68B0F1EF
:10263000007F4FF0000040F0C98012F0020200F06D
:10264000C58008686CE140F60041C4F20241D1F84F
:10265000DC00C0F302220020052A00F2B780DFE888
:1026600012F00600AF00B50001010901550100F0AC
:1026700079FE04B080BD40F60040C4F20240D0F8BC
:10268000E41001F03001102900F0D6800268202902
:1026900003D112F0006240F0C380006810F40050D3
:1026A0001CBF46F60040C0F2DC20302918BF0020D5
:1026B0008CE040F60040C4F20240D0F8E810D0F8B8
:1026C000F02011F0080140F0BD8012F0020200F08D
:1026D000B9804FF4004004B080BD40F60040C4F221
:1026E0000240D0F8D81011F0070100F0B78002685E
:1026F000012903D112F0006240F092800368026861
:10270000032903D113F0020340F07A80042903D196
:1027100012F4007240F02681D0F8F000052913E190
:1027200040F60040C4F20240D0F8E81001F0070182
:1027300002292CD0012900F0A680002940F0A780B2
:1027400000F0B0FD04B080BD40F60040C4F202408D
:10275000D0F8E41001F44031B1F5803F17D00029E2
:1027600051D002680068B1F5003F03D112F00202B7
:1027700040F0D68010F400701CBF40F60010C0F28C
:102780003D00B1F5403F18BF002004B080BD01A856
:10279000FFF778FC039804B080BD40F60041C4F216
:1027A0000241D1F8E000C0F38212042A35D848F281
:1027B0000000C0F2BB00DFE802F03F0330099800E0
:1027C00001A8FFF75FFC019804B080BD04B080BD94
:1027D00040F60040C4F20240D0F8D81011F4E07185
:1027E00011D00268402902D112F0006218D10368AA
:1027F0000268C02940F09E8013F0020300F09A8026
:10280000C2F3C1008EE000F065FD04B080BDB0F5FC
:10281000007F05D0B0F5807F0ED0002004B080BDD1
:1028200001A8FFF72FFC029804B080BD02681029B0
:1028300047D112F0007244D001A8FFF74DFB029877
:1028400004B080BDD0F8F00010F0006018BF4FF465
:10285000FA40002908BF084604B080BD00F05EFDC4
:1028600004B080BDD1F8F0004FF4004101EA80309F
:1028700004B080BDD1F8F0004FF4FA41000101EA44
:10288000E07004B080BD00F091FD04B080BD02682E
:10289000032903D112F400327FF446AE02680068C7
:1028A000042902D112F002023AD110F400701CBFC8
:1028B00040F60010C0F23D00052918BF002004B00A
:1028C00080BDD0F8F020202903D112F002027FF45D
:1028D00000AFD0F8F00010F0006018BF4FF4FA40DD
:1028E000302918BF002004B080BDD1F8E8000B6883
:1028F00010F04042086802D113F0020310D1B2F187
:10290000804F35D110F400702CD131E0D1F8E800BF
:102910000B6810F0404208681ED113F002031BD070
:10292000C0F3C10049F20001C0F2D03121FA00F039
:1029300004B080BDB1F5807F02D112F4007211D1D4
:10294000D0F8F000B1F5A07F00F002024FF00000D7
:1029500008BF900304B080BDB2F1804F08D110F4DD
:10296000007005D040F60010C0F23D0004B080BDFC
:10297000086810F400301CBF41F20020C0F27A0059
:10298000B2F1004F18BF002004B080BD2DE9F04720
:102990000446006840F62848C101C4F2024807D541
:1029A000D8F8C010226B21F040411143C8F8C01084
:1029B000C00714D0606BC11E032909D340B10128A0
:1029C00013D104F1080002F0D1FC064640B9606B57
:1029D000D8F8B01021F007010843C8F8B00000266D
:1029E0002078800705D4354621E00126207880072D
:1029F000F9D5A06B6FF0020101EBF0013546032918
:102A00000AD34FEAF000354630B1012830D104F145
:102A1000080002F0ABFC05462F464DB9D8F8B000CF
:102A2000A16B20F0380008430025C8F8B0003746F5
:102A30002078400721D5E06B6FF0020101EBB01167
:102A4000032909D34FEAB01030B1012836D104F17F
:102A5000080002F08BFC05462E467DB9D8F8B00080
:102A6000E16B20F4E07008430025C8F8B00004E0F2
:102A70000125012720784007DDD43E466078C00656
:102A800021D5206C6FF0020101EB3061032909D3DD
:102A90004FEA306030B101283CD104F1080002F067
:102AA00065FC05462F467DB9D8F8B800216C20F0AA
:102AB000E06008430025C8F8B80004E001250126BD
:102AC0006078C006DDD437466078800627D5606C14
:102AD0006FF0010101EB3041022909D34FEA304088
:102AE00030B1012810D104F1080002F03FFC054686
:102AF0002E465DB9D8F8BC00616C20F44030084324
:102B00000025C8F8BC000AE00125012660784006CF
:102B100009D424E00125012760788006D7D43E46F9
:102B2000607840061BD5A06C6FF0010101EBB0414D
:102B3000022909D34FEAB04030B1012830D104F165
:102B4000080002F013FC05462F464DB9D8F8BC002A
:102B5000A16C20F4402008430025C8F8BC0037468B
:102B6000A078C00721D0E06C002818BFB0F1007F2A
:102B70000BD12E46D5B9D8F8BC00E16C20F04070DE
:102B800008430025C8F8BC000FE0B0F1807F2DD1CC
:102B900004F1080002F0EAFB05462E4635B9EAE7E3
:102BA00001250127A078C007DDD13E466079C00627
:102BB00021D5206D002818BFB0F1006F0BD12F4632
:102BC000D5B9D8F8BC00216D20F04060084300253D
:102BD000C8F8BC000FE0B0F1806F61D104F10800CB
:102BE00002F0C4FB05462F4635B9EAE70125012668
:102BF0006079C006DDD43746D4E9000140F61C4AAE
:102C0000C4F2024A09050CD5DAF8001021F400419B
:102C1000CAF80010D4F88010DAF800201143CAF87E
:102C2000001080031BD5606D6FF0020101EB3021B5
:102C3000032909D34FEA302030B1012833D104F100
:102C4000080002F093FB05462E464DB9D8F8B400B3
:102C5000616D20F4E06008430025C8F8B4003E46EA
:102C6000A078400724D5A06D6FF0020101EB303150
:102C7000032909D34FEA303030B1012828D104F1BB
:102C8000080002F073FB05462F4695B9D8F8B4004A
:102C9000A16D20F4E04008430025C8F8B40007E027
:102CA00001250127A8E701250126A0784007DAD4ED
:102CB0003746A078800610D5606E052828D80228EF
:102CC0002DD029469DB3D4E9000292050AD43CE0F8
:102CD00001250127A0788006EED43946D4E9000208
:102CE000920532D5A26E42F00803082B0AD1A946FC
:102CF0005DB9D8F8C030002523F008031A43C8F89E
:102D0000C02022E001254FF00109800120D47AE0A3
:102D100001250121D4E900029205E3D415E004F174
:102D2000080002F023FB0546002D2946CBD1D8F838
:102D3000C000616E20F0070008430025C8F8C000FD
:102D40003946D4E900029205CCD4894680015AD58F
:102D50004FF60847CFF6FF775AF8070040F001001A
:102D60004AF80700FEF76CFD064600BF5AF8070058
:102D7000C00707D1FEF764FD801B0228F6D90325A2
:102D8000032041E0002D28463ED1D8F8C80010F4B9
:102D9000407017D0A16F884211D0D8F8C800D8F879
:102DA000C81020F4407041F48031C8F8C810D8F839
:102DB000C81021F48031C8F8C810C8F8C800C0078E
:102DC00040F02A81A06FDAF800104FF6CF7300F4BC
:102DD000407221F47C51C0F2FF0303EA1013B2F5F4
:102DE000407F08BF1943CAF80010D8F8C8106FF325
:102DF0001F3021F44071C8F8C810D8F8C810002559
:102E00000843C8F8C800484621684A011BD5226E0D
:102E10006FF0010303EB3213022B0AD34FEA321394
:102E20003BB1012B2ED1D8F8003043F40033C8F861
:102E300000302F4645B9D8F8C030002523F03003C4
:102E40001A43C8F8C020074608011FD5E06EC11E0E
:102E500002290BD3012800F0B880002840F0BF8081
:102E6000D8F8000040F40030C8F800002E4675B9CC
:102E7000D8F8B800E16E20F0070008430025C8F834
:102E8000B80003E0012501270801DFD43E46E078C1
:102E9000C0061FD5206F6FF0020101EBF00102297F
:102EA0000DD34FEAF000012800F09C80002840F08C
:102EB000A380D8F8000040F40030C8F800002F4686
:102EC0004DB9D8F8B800216F20F03800084300252C
:102ED000C8F8B8003746E07880061FD5606F6FF0FD
:102EE000020101EBB01102290DD34FEAB010012805
:102EF00000F08580002840F08C80D8F8000040F475
:102F00000030C8F800002E464DB9D8F8B800616FFF
:102F100020F4E07008430025C8F8B8003E46207948
:102F2000400720D5E06D58B1B0F5007F0BD0B0F56B
:102F3000807F47D1D8F8000040F40030C8F8000086
:102F40002F468DB906E004F1080002F00FFA05469D
:102F50002F464DB9D8F8C000E16D20F44070084309
:102F60000025C8F8C00037462079C0065CBF384647
:102F7000BDE8F087E06F30280DD020280FD0102852
:102F80001EBF01252846BDE8F087D8F8000040F4B0
:102F90000030C8F800004DB12846BDE8F08704F1C4
:102FA000080002F0E3F90546002DF5D1D8F8BC0081
:102FB000E16F20F0300008433D46C8F8BC002846C9
:102FC000BDE8F08701250127CEE704F1080002F0F3
:102FD000CDF90546002D2E467FF459AF48E701256F
:102FE000012654E704F1080002F0C0F90546002D5F
:102FF0002F467FF470AF64E7012501276BE704F1EA
:10300000080002F0B3F90546002D2E467FF487AF85
:103010007BE70125012682E7FEF712FC064641F216
:1030200088370325D8F8C80080073FF5CBAEFEF7F8
:1030300007FC801BB8424FF00300F3D9E4E6000020
:103040002DE9F04381B0002800F0CA8042F2000868
:10305000C4F202080446D8F800000D4600F00F0044
:1030600088420DD2D8F8000020F00F002843C8F89D
:103070000000D8F8000000F00F00A84240F0B08037
:10308000206840F62047C106C4F202470CD56169AA
:103090003A68702303EA1222914205D93A6822F471
:1030A000E04242EA0121396001070CD521693A6802
:1030B000702303EA1212914205D93A6822F4E062C1
:1030C00042EA0111396041070AD5E1683A6802F025
:1030D0007002914204D93A6822F0700211433960BB
:1030E00081070AD5A1683A6802F00F02914204D91B
:1030F0003A6822F00F0211433960C00767D1206897
:1031000081070AD5A1683A6802F00F02914204D201
:103110003A6822F00F0211433960D8F8001001F02C
:103120000F01A9420CD9D8F8001021F00F01294352
:10313000C8F80010D8F8001001F00F01A9424FD1D3
:1031400041070AD5E1683A6802F07002914204D260
:103150003A6822F070021143396001070CD52169E9
:103160003A68702303EA1212914205D23A6822F4B7
:10317000E06242EA01113960C0060CD56069396825
:10318000702202EA1121884205D2396821F4E04117
:1031900041EA0020386000F009F9396849F2D802A4
:1031A00001F00F01C0F60002525C40F20C01C2F2C5
:1031B0000001096840F2100320FA02F2C2F2000393
:1031C00008461A6001B0BDE8F043FEF70FBE606824
:1031D000022809D003285BD157F8201C890107D4A5
:1031E000012001B0BDE8F08357F8201C8903F7D512
:1031F00057F8041C21F00301084347F8040CFEF7BC
:103200001FFB61680646032941F288392BD0022949
:1032100037D0012910D100BF57F8040C00F0180076
:1032200008283FF46CAFFEF70BFB801B48454FF0BE
:103230000300F1D90DE000BF57F8040C10F0180F8F
:103240003FF45DAFFEF7FCFA801B48454FF00300EA
:10325000F2D901B0BDE8F083FEF7F2FA801B4845D1
:103260004FF00300F5D857F8040C00F018001828A8
:10327000F2D144E7FEF7E4FA801B48454FF0030023
:10328000E7D857F8040C00F018001028F2D136E700
:1032900057F8201C012802D18905A1D5A8E7890784
:1032A0009ED5A5E780B500F081F840F62041C4F234
:1032B0000241096849F2D80201F00F01C0F600028C
:1032C000515C01F01F01C84040F21001C2F2000140
:1032D000086080BD80B500F069F840F62041C4F276
:1032E00002410A6849F2D80302F00F02C0F6000357
:1032F0009A5C02F01F02D04040F21002C2F20002BB
:103300001060096849F2E802C1F30211C0F6000238
:10331000515C01F01F01C84080BD000080B500F085
:1033200045F840F62041C4F202410A6849F2D80348
:1033300002F00F02C0F600039A5C02F01F02D040B8
:1033400040F21002C2F200021060096849F2E8027D
:10335000C1F30221C0F60002515C01F01F01C84018
:1033600080BD000080B500F021F840F62041C4F295
:1033700002410A6849F2D80302F00F02C0F60003C6
:103380009A5C02F01F02D04040F21002C2F200022A
:103390001060096849F2E802C1F30231C0F6000288
:1033A000515C01F01F01C84080BD000080B540F6AF
:1033B0000041C4F20241C86900F01800082802BFA9
:1033C00040F60010C0F23D0080BDC86910F0180F33
:1033D00034D0C86900F01800102802BF41F2002064
:1033E000C0F27A0080BDC86900F01800182849F2C0
:1033F0000000C0F2D03063D1D1F828E08A6AC2F36D
:10340000052C8A6ABCF1000FC2F300128B6BC3F368
:10341000CC0303FB02F200EE102AB8EE400A04BF10
:10342000002080BD0EF00303032B14D0012B15D117
:103430000A68920615D49FED241A1AE008688006DF
:1034400049F20000C0F2D03058BF80BD0968C1F316
:10345000C101C84080BD9FED1B1A0AE09FED1B1AF9
:1034600007E00A68C2F3C102D04001EE100AB8EECC
:10347000411A02EE10CA9FED163AB8EE422A486B86
:1034800081EE021A6FF35F2002EE100A20EE030AAB
:10349000B8EE422A486B30EE020AB7EE002AC0F3BB
:1034A000462030EE020A013021EE000A01EE100A39
:1034B000B8EE411A80EE010ABCEEC00A10EE100A06
:1034C00080BD00BF0024F44A0024744C0024744AD8
:1034D000000000392DE9F04381B0002800F0388168
:1034E00040F6004740F6F0490446C4F20247C4F2F1
:1034F0000249F86959F8C81C227800F01808D0066B
:1035000001F0030628D5B8F1080F1AD0B8F1180F4A
:1035100008BF022E15D0E1693868002900F09381B8
:1035200040F480703860FEF78BF9054638688005F6
:103530000BD4FEF785F9401B02284FF00300F5D9A4
:1035400048E2E069002800F00381B869216A20F4AC
:103550007C1040EA0140B8612078C00731D0B8F152
:10356000100F2AD0B8F1180F08BF032E25D06568B8
:10357000B5F5A02F00F0C081B5F5803F00F0CF81F8
:10358000002D40F0C181386820F480303860386800
:1035900020F480103860386820F480203860FEF70E
:1035A0004FF90546386880030BD5FEF749F9401BF3
:1035B00064284FF00300F5D90CE26068002800F0A1
:1035C000C7802078800765D5B8F1000F21D0B8F109
:1035D000180F08BF012E1CD0E1683868002900F0E0
:1035E0006781216920F0180008433860386840F08E
:1035F00001003860FEF724F9054600BF38688007EF
:1036000041D4FEF71DF9401B02284FF00300F5D905
:10361000E0E1E068002800F09B80B8F1000F26D1BF
:103620003968206901F01801814220D0396821F001
:10363000180108433860FFF7B9FE396A49F2D80229
:1036400001F00F01C0F60002515C40F2100201F0DF
:103650001F0120FA01F140F20C00C2F200000068E4
:10366000C2F200021160FEF7C1FB002870D1FEF724
:10367000E7F805463868800705D4FEF7E1F8401BF7
:103680000228F7D97DE03869616920F4FE0040EA3C
:1036900001403861207800075ED42078400774D458
:1036A0002078800600F1A380A56A002D00F01F821B
:1036B000B8F1180F40F0DA8059F8C81C59F8BC0C62
:1036C000012D45D0E26A01F00303934240D1C1F3DA
:1036D0000521226B91423BD1626B01466FF35F2162
:1036E000013A914234D1C0F34621A26B013A914292
:1036F0002ED1C0F30641E26B013A914228D1C0F3CA
:103700000660216C0139884222D159F8B80CC0F307
:10371000CC00E16C884200F0EA8159F8C80C20F036
:10372000100049F8C80CFEF78BF80546FEF788F83C
:10373000A842FBD0E06CC00049F8B80C59F8C80C9E
:1037400040F0100049F8C80C002001B0BDE8F0833B
:10375000012001B0BDE8F083A169D9F8000000297B
:103760005CD040F08060C9F80000FEF769F80546BB
:10377000D9F80000000190D4FEF762F8401B02283F
:10378000F6D9032001B0BDE8F0834FF62446CFF60A
:10379000FF76B859C00712D1B85940F00100B851AE
:1037A000FEF74EF8054600BFB859C00707D1FEF72F
:1037B00047F8401B02284FF00300F5D90AE1A06842
:1037C000002800F0BF80052800F0E180012800F00B
:1037D000EA80D9F80010852840F0108141F00400FB
:1037E000C9F80000D9F8000040F08000D9E0616A13
:1037F000386800296ED040F480503860FEF720F819
:10380000054600BF386880043FF54EAFFEF718F854
:10381000401B02284FF00300F4D9DBE020F0806069
:10382000C9F80000FEF70CF8054600BFD9F8000003
:1038300000017FF532AFFEF703F8401B02284FF07E
:103840000300F3D9C6E020F480703860FDF7F8FF7C
:10385000054600BF386880057FF57EAEFDF7F0FFB6
:10386000401B02284FF00300F4D9B3E0386820F081
:1038700080703860FDF7E4FF022D05460CD100BFD3
:103880003868800140F1C980FDF7DAFF401B02284B
:103890004FF00300F4D99DE03868800140F11E81AB
:1038A000FDF7CEFF401B02284FF00300F4D991E052
:1038B00020F001003860FDF7C3FF05463868800737
:1038C0007FF5E8AEFDF7BCFF401B02284FF0030078
:1038D000F4D97FE020F480503860FDF7B1FF054651
:1038E000386880047FF5E0AEFDF7AAFF401B022890
:1038F0004FF00300F4D96DE0386840F48020386060
:10390000386820F4801009E03868B5F5A81F64D144
:1039100040F480203860386840F48010386038689F
:1039200040F480303860FDF78BFF0546386880032F
:103930003FF547AEFDF784FF401B64284FF00300BE
:10394000F4D947E0D9F8000020F00100C9F80000E0
:10395000D9F8000020F08000C9F80000D9F8000074
:1039600020F00400C9F80000FDF76AFF054641F2A7
:10397000883600BFD9F8000080077FF591AEFDF7CB
:103980005FFF401BB0424FF00300F3D922E0D9F8AB
:10399000000040F00400C9F80000D9F8000020F051
:1039A0008000C9F80000D9F8000040F00100C9F813
:1039B0000000FDF745FF054641F28836D9F80000C2
:1039C00080073FF56DAEFDF73BFF401BB0424FF067
:1039D0000300F3D901B0BDE8F08320F480303860F3
:1039E000386820F480203860386820F4801038600F
:1039F000FDF726FF002D054698D1D3E521F0010003
:103A0000C9F80000D9F8000020F00400C9F800004F
:103A1000D9F8000020F08000C9E759F8C80C43F637
:103A2000037104F12C0388430ECB084340EA0220C3
:103A3000A16B49F8C80C4FF47E4202EB4121E26BC6
:103A4000581E4FF4FE0389B203EB02426FF35F206E
:103A5000084402F4FE01226C4FF0FE4303EB0262C5
:103A6000084402F0FE41084449F8BC0C59F8C80C5F
:103A700020F0100049F8C80CE06CC00049F8B80C00
:103A800059F8C80C40F0100049F8C80C59F8C80C97
:103A9000616C20F00C00084349F8C80C59F8C80CB8
:103AA000A16C20F02000084349F8C80C59F8C80C54
:103AB00040F4803049F8C80C386840F080703860B5
:103AC000FDF7BEFE04463868800110D4FDF7B8FE4D
:103AD000001B02284FF00300F5D97BE759F8C80C0A
:103AE0004FF6FC71CFF6F871084049F8C80C002079
:103AF00001B0BDE8F0830000411E0020B0EB116F63
:103B00001CBF012070474EF21002CEF2000251603D
:103B10004EF62351CEF20001F0230B700721906086
:103B20001160704770470000704700007047000048
:103B3000704700007047000070470000B0B590F873
:103B40003C20012A4FF0020231D0012380F83C30A2
:103B500080F83D20026842F6004C5368D2F808E035
:103B6000C4F2010C624503D14C6823F47003234373
:103B70004FF68F74CFF6FF540D6823402B43B2F1FC
:103B8000804F536018BF624505D189682EF08003CD
:103B90001943916005E040F20043C4F200039A42E9
:103BA000F3D00121002280F83D1080F83C2010461F
:103BB000B0BD000070470000002804BF012070471E
:103BC00010B5044690F83D0028B9002084F83C0068
:103BD000204600F055F8022084F83D00206842F6A7
:103BE000004C0268B0F1804FC4F2010C18BF604570
:103BF00004D1A36822F070021A4305E040F20043AA
:103C0000C4F200039842F4D0B0F1804F18BF604571
:103C100004D1236922F440721A4305E040F20043C4
:103C2000C4F200039842F4D0A16922F08002D4F8D3
:103C300004E0E368114360450160C362C0F828E016
:103C400002D16169CCF8301001214161002084F873
:103C5000481084F83E1084F83F1084F8401084F82F
:103C6000411084F8421084F8431084F8441084F81A
:103C7000451084F8461084F8471084F83D1010BDB4
:103C800010B584B0006840F20041C4F200018842DF
:103C90001FD041F20001C4F2000188422BD042F64D
:103CA0000041C4F2010188421CBF04B010BD40F6BF
:103CB0009C40C4F202408168002241F400618160AE
:103CC0008068032100F40060039003982A202A24CE
:103CD00022E040F69C40C4F202400168002241F01C
:103CE000020101600068032100F0020002900298C6
:103CF0002E202E2410E040F69C40C4F202400168C1
:103D0000002241F0100101600068022100F0100063
:103D10000190019831203124FEF7A2F8204604B02A
:103D2000BDE81040FEF78CB890F83D1001291CBF8B
:103D300001207047022180F83D100168C868B1F188
:103D4000804F40F00100C8600BD042F60040C4F242
:103D50000100814205D040F20040C4F200008142DF
:103D60000CD188680722C0F201020240062A4FF0F7
:103D7000000018BFB2F5803F00D17047086840F0DE
:103D8000010008600020704780B590F83C20012AAF
:103D90004FF0020200F09C80012380F83C3080F854
:103DA0003D20D0F800C08822DCF80830CFF6CE7273
:103DB0001A40CCF808200B68B3F5005F0FDB3F22F8
:103DC000C0F21002934217DCB3F1101F2EDB6CD04F
:103DD0002021C0F210018B4267D030215CE03F2BE4
:103DE0001DDD5F2B2ADD602B74D0702B00F09480DA
:103DF000B3F5805F65D0D7E05F21C0F210018B4240
:103E000044DD6021C0F210018B424ED07021C0F21F
:103E100010018B4218BFB3F5001F46D0C4E01F2B22
:103E20003FDC002B41D0102B3FD0BDE0B3F5005F4D
:103E300000F08580B3F5801F37D0B5E0402B00F04F
:103E40009180502B40F0B080D1F804E0C968DCF8D4
:103E50002030DCF8202022F00102CCF82020DCF811
:103E6000182022F0F00242EA011123F00A0242EA8D
:103E70000E02CCF81810CCF82020DCF808104FF611
:103E80008872CFF6CF721140573118E04021C0F24E
:103E900010018B4209D05021C0F210018B4204D096
:103EA00082E0202B01D0302B7ED1DCF808104FF6B9
:103EB0008872CFF6CF721140194341F00701CCF858
:103EC00008100022012180F83D10002180F83C10EC
:103ED000104680BDD1F804E0C968DCF82030DCF879
:103EE000202022F01002CCF82020DCF8182022F448
:103EF000704242EA013123F0A00242EA0E12CCF8ED
:103F00001810CCF82020DCF808104FF68872CFF695
:103F1000CF7211406731D2E7D1E901E3C968DCF81B
:103F2000082043EA0E0343EA012122F47F421143B1
:103F3000CCF80810DCF8081041F07701BFE7D1E9B0
:103F400001E3C968DCF8082043EA0E0343EA0121D3
:103F500022F47F421143CCF80810DCF8081041F439
:103F60008041ACE7D1F804E0C968DCF82030DCF827
:103F7000202022F00102CCF82020DCF8182022F0CA
:103F8000F00242EA011123F00A0242EA0E02CCF8E2
:103F90001810CCF82020DCF808104FF68872CFF605
:103FA000CF72114047318AE701228BE7704700004A
:103FB000F0B581B004460068C768066906EA0705DF
:103FC000A90737D468074FD4280769D4E80600F159
:103FD0008480E80740F09F80280607F0800700F102
:103FE000A680002F18BF16F4807040F0AD806806E0
:103FF00000F1B480A80600F1BB80E80200F1C280A5
:10400000A80200F1C980680206D520686FF480011B
:1040100001612046FFF790FD28025CBF01B0F0BDB2
:1040200021686FF4000220460A6101B0BDE8F0404B
:10403000FFF7C0BD6FF002010161012121778069A6
:10404000800707D02046FFF7B1FF002020776807E0
:10405000BAD509E0204600F0ABF8204600F0AAF8F7
:10406000002020776807AFD520686FF00401016158
:1040700002212177806910F4407F07D02046FFF7A6
:1040800095FF002020772807A0D509E0204600F002
:104090008FF8204600F08EF800202077280795D56D
:1040A00020686FF00801016104212177C069800751
:1040B00008D02046FFF77AFF00202077E8067FF53A
:1040C00088AF0AE0204600F073F8204600F072F84E
:1040D00000202077E8067FF57CAF20686FF01001A4
:1040E000016108212177C06910F4407F08D0204683
:1040F000FFF75CFF00202077E8073FF46DAF0AE090
:10410000204600F055F8204600F054F800202077B3
:10411000E8073FF461AF20686FF0010101612046BC
:1041200000F04AF8280607F080077FF55AAF2068AC
:104130006FF0800101612046FFF7F6FC002F18BFE9
:1041400016F480703FF453AF20686FF48071016102
:104150002046FFF7E7FC68067FF54CAF20686FF05C
:1041600040010161204600F0A3F8A8067FF545AFA5
:1041700020686FF0200101612046FFF7D7FCE802BC
:104180007FF53EAF20686FF4801101612046FFF794
:10419000D1FCA8027FF537AF20686FF400110161F0
:1041A0002046FFF7C5FC68027FF536AF2DE700001B
:1041B0007047000070470000B0B50446006840F248
:1041C0000041C4F20001884212D042F60041C4F21C
:1041D0000101884205D140F28801C2F200010122AA
:1041E0000A7041F20001C4F2000188421CD0B0BD47
:1041F00040F28C05C2F2000540F2941140F2BC126C
:10420000C2F200012846C2F2000203F027FD284650
:1042100002F0D6FE284602F023FD206841F200019C
:10422000C4F200018842E2D140F24020C2F2000014
:1042300001680131016040F28100C2F200000178A2
:104240000131017040F23C20C2F2000001780131DE
:10425000017040F28C00C2F2000090F8641001314D
:1042600080F8641040F28501C2F200010878421C17
:1042700040F28700C2F2000003780A7040F2840125
:10428000002BC2F200014FF001020A70AFD040F2E1
:104290009211C2F200010A88013293B20A80B3F58A
:1042A000FA6F38BFB0BD00220A800270B0BD0000B6
:1042B0007047000090F88410012904BF0220704765
:1042C0002421C0F8881002681168136823F00103E4
:1042D000136021F000530021416613602022C0F8D2
:1042E000882080F88410084670470000704700005E
:1042F00070470000B0B590F88420012A04BF022066
:10430000B0BD0123242280F88430C0F888200268E0
:10431000D0F864E0D2F800C01468BEF1000F24F0B9
:1043200001041460946824F0606441EA040191601F
:1043300019D0916849F2081EC1F342619368C0F632
:10434000000E5B0F49F210151EF80340C0F6000581
:10435000EB5CE400B4FBF3F31EF80140695CE5009C
:10436000B5FBF1F100E00121A0F868102021A0F8D0
:104370006A30C2F800C0C0F88810002180F88410AC
:104380000846B0BDB0B590F88420012A04BF0220D1
:10439000B0BD0123242280F88430C0F88820026850
:1043A000D0F864E0D2F800C01468BEF1000F24F029
:1043B00001041460946824F0604441EA04019160AF
:1043C00019D0916849F2081EC1F342619368C0F6A2
:1043D000000E5B0F49F210151EF80340C0F60005F1
:1043E000EB5CE400B4FBF3F31EF80140695CE5000C
:1043F000B5FBF1F100E00121A0F868102021A0F840
:104400006A30C2F800C0C0F88810002180F884101B
:104410000846B0BD704700007047000070470000BC
:1044200070B501680446CA6940F62F000E68D1F8DD
:1044300008E0104020280BD106F020000EF0805339
:10444000C01822D0616FC9B32046BDE8704008474C
:1044500040F60F00024218D00120C1F200000EEA1F
:10446000000C40F22010C0F20040304010EB0C0075
:104470000BD0D00718BF16F4807040F0638190070E
:104480000EF0010300F16A8171E1E06E06EA0203B9
:10449000DD0614D5012812D1102008628868400674
:1044A00000F19B80B4F85C00B4F85E20B4F85E3094
:1044B000002B1CBF801A5FEA00422BD170BDD002D6
:1044C00040F124811EF4800000F020814FF480121E
:1044D00020460A62BDE87040FFF79EBF216851E8A0
:1044E000001F226821F4907142E80013DBB12168BB
:1044F00051E8001F226821F4907142E8001393B143
:10450000216851E8001F226821F4907142E80013ED
:104510004BB1216851E8001F226821F4907142E8F4
:104520000013002BDAD14FF6FE71CEF6FF7100BFFB
:10453000226852E8022F23680A4043E80226C6B1E7
:10454000226852E8022F23680A4043E8022686B117
:10455000226852E8022F23680A4043E8022646B147
:10456000226852E8022F23680A4043E80226002E00
:10457000DED12021C4F88C100021E166616700BF04
:10458000216851E8001F226821F0100142E8001361
:10459000DBB1216851E8001F226821F0100142E8D8
:1045A000001393B1216851E8001F226821F0100127
:1045B00042E800134BB1216851E8001F226821F046
:1045C000100142E80013002BDAD1022281B220460A
:1045D0002267BDE87040FFF789BED4F880201068DC
:1045E000836C9DB2002D3FF469AFB4F85C00854246
:1045F000BFF464AFA4F85E30126D812A7BD051E81D
:10460000000F216820F4807041E80002CAB32068DE
:1046100050E8000F216820F4807041E8000282B366
:10462000206850E8000F216820F4807041E8000203
:104630003AB3206850E8000F216820F4807041E808
:104640000002F2B1206850E8000FDAE7206850E875
:10465000020F216820F0010041E80202DAB120686F
:1046600050E8020F216820F0010041E8020292B1F7
:10467000206850E8020F216820F0010041E80202A2
:104680004AB1206850E8020F216820F0010041E89B
:104690000202002ADAD12020C4F88C000020E06653
:1046A000206850E8000F216820F0100041E8000267
:1046B000DAB1206850E8000F216820F0100041E8CE
:1046C000000292B1206850E8000F216820F010002D
:1046D00041E800024AB1206850E8000F216820F04C
:1046E000100041E80002002ADAD1D4F88000FCF77B
:1046F0003BFDB4F85C0002212167B4F85E10401A5B
:1047000081B22046BDE87040FFF7F0BD10060AD523
:1047100006F080000EF40005401904D0A16F0029B6
:104720007FF492AECAE6580600F10281100240F111
:10473000388116F0804000F034812046BDE870409A
:10474000FFF768BE01200862D4F8900040F0010035
:10475000C4F8900090070EF0010308D53BB1022089
:104760000862D4F8900040F00400C4F890005007AC
:1047700008D53BB104200862D4F8900040F0020054
:10478000C4F8900010070CD506F0200050EA0C0089
:1047900007D008200862D4F8900040F00800C4F860
:1047A000900010050BD516F0806008D04FF4006023
:1047B0000862D4F8900040F02000C4F89000D4F8CB
:1047C000900000283FF47AAE12F020001EBF06F0E1
:1047D00020000EF0805210EB020040F0DA80D4F896
:1047E00090008A6800F0280002F04002801800F073
:1047F000988051E8000F00BF216820F4907041E8D4
:104800000002F2B1206850E8000F216820F4907097
:1048100041E80002AAB1206850E8000F216820F4A6
:10482000907041E8000262B1206850E8000F2168F2
:1048300020F4907041E800021AB1206850E8000F9F
:10484000DAE74FF6FE70CEF6FF7000BF216851E840
:10485000021F2268014042E80213C3B1216851E8F7
:10486000021F2268014042E8021383B1216851E827
:10487000021F2268014042E8021343B1216851E857
:10488000021F2268014042E80213002BDED1E06ED5
:10489000012824D1206850E8000F216820F0100082
:1048A00041E80002DAB1206850E8000F216820F0EA
:1048B000100041E8000292B1206850E8000F216822
:1048C00020F0100041E800024AB1206850E8000FD3
:1048D000216820F0100041E80002002ADAD12020EF
:1048E000C4F88C000020E066216860678868400694
:1048F00012D5D4F8800078B145F6DD11C0F600017C
:10490000C166FCF787FC00283FF4D8ADD4F88000DE
:10491000C16EBDE8704008472046BDE87040FFF713
:104920007DBD2046FFF77AFD0020C4F8900070BDE1
:1049300051E8000F216820F0400041E80002F2B188
:10494000206850E8000F216820F0400041E8000294
:10495000AAB1206850E8000F216820F0400041E82B
:10496000000262B1206850E8000F216820F040008A
:1049700041E800021AB1206850E8000FDAE7202071
:104980000021C4F888002046A167BDE8704000F00F
:10499000BDB9626F002A3FF422AF204690472168DC
:1049A0001DE7D0017FF58AADB6F1FF3FC8BF70BDEE
:1049B0002046BDE87040FFF79BBC000010B5E0B199
:1049C0000446D0F8880028B9002084F884002046E6
:1049D00000F028F82420C4F888002068A16A026842
:1049E000002922F0010202601CBF204600F0CCFE2C
:1049F000204601F0A9FD012801D1012010BD216848
:104A0000486820F490404860886820F02A00886058
:104A1000086840F0010220460A60BDE8104000F03E
:104A200027BF0000B0B5AAB00446002502A888211F
:104A30002995CDE92755CDE92555FBF7F7FC2068E9
:104A400044F20041C4F2000188422BD043F6000139
:104A5000C4F2010188425ED10020039001210F9031
:104A600002A80291FDF792FF002818BFFBF722FE73
:104A700040F68C40C4F2024081693A2441F48041FE
:104A80008161816901F4804101910199016841F0DE
:104A900001010160006800F00100019001984FF4ED
:104AA000C06022E00220029002A803951095FDF755
:104AB0006DFF002818BFFBF7FDFD40F68C40C4F2E7
:104AC000024001693B2441F400310161016901F4B4
:104AD000003101910199016841F001010160006814
:104AE00000F00100019001980C20259002202690F2
:104AF0000020CDE92700072029900020C4F20220E1
:104B000025A9FCF7BDFD204601210022FDF7A8F9EB
:104B10002046FDF795F92AB0B0BD000080B5D0F869
:104B20008C30202B1CBF022080BD00294FF00103D8
:104B300018BF002A01D1184680BD0023C366D0F8F3
:104B400000C0DCF808305B0605D5DCF8083023F03F
:104B50004003CCF8083042F20043C4F200439C45C5
:104B600003D0DCF804301B0204D401F0CBFD002399
:104B7000184680BD5CE800CFD0F800E04CF08063C0
:104B80004EE8003CBCF1000FEFD0036853E800CFC3
:104B9000D0F800E04CF080634EE8003CBCF1000F20
:104BA000E3D0036853E800CFD0F800E04CF0806316
:104BB0004EE8003CBCF1000FD7D0036853E800CFAB
:104BC000D0F800E04CF080634EE8003CBCF1000FF0
:104BD000CBD0036853E800CFCEE7000070B50446A1
:104BE000006844F20046C4F20006B0420CD140F224
:104BF000F400C2F2000000F12805284600F05EFC37
:104C0000284600F085F8206806F57441884218BFF0
:104C100070BD40F2F404C2F20004204600F010FF20
:104C20002046BDE8704000F0E1BE00002DE9F041F3
:104C300082B00446D0F8880020281EBF022002B0AF
:104C4000BDE8F0810E4600294FF001001CBF174659
:104C5000002A02D102B0BDE8F08120681D468168BB
:104C6000090603D5816821F0800181604FF00008BA
:104C70002120C4F89080C4F88800FCF7E1FDA4F876
:104C80005470A4F85670A1680746B1F5805F10D142
:104C90002069002814BF3046B046064609E000BF30
:104CA00016F8010B21688862B4F856000138A4F8A0
:104CB0005600B4F8560088B12046802100223B46B9
:104CC000009501F04FFEC8B9002EE9D138F8020B6B
:104CD00021686FF35F2088620026E5E720464021C7
:104CE00000223B46009501F03DFE2021C4F88810CB
:104CF000002818BF032002B0BDE8F0812020C4F8CE
:104D00008800032002B0BDE8F08100007047000079
:104D1000B0B5044690F82000012818BFB0BD0020AF
:104D2000E17884F8200040F2B810C2F2000001706F
:104D300040F20040C4F202204FF40051012201254C
:104D4000FCF778FD84F82150B0BD00004FF6FE213D
:104D500001820321817440F2B811C2F2000140F2D5
:104D600086020978C2F200021278C17440F28C0106
:104D70000275C2F2000191ED160A9FED361A40F25B
:104D8000870320EE010AC2F20003BDEEC00A10EE56
:104D9000102A427591ED150A20EE010ABDEEC00AF7
:104DA00010EE102A120A827591ED150A20EE010A02
:104DB000B2EE041ABDEEC00A10EE102AC27591EDD3
:104DC000100A91ED052A20EE010ABDEEC00A10EE90
:104DD000102A027691ED170A20EE010ABDEEC00AF4
:104DE00091ED043A10EE102A23EE010A4276BDEE50
:104DF000C00A10EE102A22EE010A8276BDEEC00A29
:104E000010EE102AC27691ED060A20EE010ABDEEE0
:104E1000C00A10EE102A027791ED070A20EE010A6F
:104E2000BDEEC00A1B7810EE102A002B42774FF619
:104E3000FB72C2831CBF6E22027691F861100129B9
:104E400005D0022918BF70470A2101767047462114
:104E5000017670470000C842FEE7000070B50446C6
:104E6000006815468369DA0602D4002100226AE050
:104E70000E461021C1618169890660D4711C54D02D
:104E800046BBFCF7DDFC2068426894F8423081693B
:104E9000202B0DD012F480420AD111F4004107D02A
:104EA000416841F480414160FCF7CAFC054600BFFF
:104EB00020688169890605D4FCF7C2FC401B1A28CA
:104EC000F6D32AE081698906DBD538E0206881695C
:104ED000890634D4FCF7B4FC401BB042F6D92068F4
:104EE000426894F842308169202B0DD012F4804240
:104EF0000AD111F4004107D0416841F4804141607A
:104F0000FCF79EFC054600BF206880698006DDD462
:104F1000FCF796FC401B1A28F6D320680122816911
:104F2000242110E08169890609D48169890606D4A3
:104F3000816989065CBF81695FEA8161F2D52021C0
:104F4000C161012204218369DE0508D45E050ED407
:104F50009B0514D4002A04BF002070BD14E04FF458
:104F6000807241F00101C26101225E05F0D54FF46B
:104F7000806241F00801C26101229B05EAD541F03F
:104F800002014FF40072C2618269920744BF00229D
:104F900082628269D20703D1826942F00102826192
:104FA00042684EF60003CFF600631A404260606C20
:104FB00008436064202084F84100002084F8420007
:104FC00084F84000012070BD2DE9F04106460068DC
:104FD000144682690D461140491BB1FA81F1490915
:104FE000A14240D11F46591C1AD0002F3ED100BF0C
:104FF000FCF726FC306881692940491BB1FA81F130
:105000004909A14250D080692840401BB0FA80F085
:105010004009A0421CBF0020BDE8F081E8E700BFC6
:1050200081692940491BB1FA81F14909A1421CBF9C
:105030000020BDE8F08181692940491BB1FA81F166
:105040004909A1420FD181692940491BB1FA81F177
:105050004909A14207D181692940491BB1FA81F16F
:105060004909A142DCD00020BDE8F081DDF81880BC
:105070000BE000BF80692840401BB0FA80F0400977
:10508000A0421CBF0020BDE8F081FCF7D9FBA0EBDB
:1050900008013068B942EDD981692940491BB1FA4C
:1050A00081F14909A142E5D1706C40F020007064A3
:1050B000202086F84100002086F8420086F8400053
:1050C0000120BDE8F081000070B5044600688069E9
:1050D00040073DD415460E4619B930E080694007B7
:1050E00036D4204631462A46FFF7B8FE70BB20680A
:1050F000816989062ED4FCF7A3FB411B2068B142CD
:10510000ECD981694907E9D4606C40F02000606403
:10511000202084F84100002084F84000012070BD68
:1051200020688169890615D4FCF78AFB20688169AB
:105130004907E9D58069400744BF002070BD20467B
:1051400000212A46FFF78AFE0028E9D0012070BD21
:10515000002070BD8169490704D5218D00291CBF3D
:10516000002070BD82694EF60006D2064FF00002A4
:1051700042BF1022C261042262642022C2614368DD
:10518000CFF60066334000214360012084F84120BF
:1051900084F8421084F8401070BD000070B50446D9
:1051A00000688069800637D415460E4619B92AE092
:1051B0008069800630D4204631462A46FFF74EFEED
:1051C00040BBFCF73DFB411B2068B142F0D981692F
:1051D0008906EDD4606C40F020006064202084F8E3
:1051E0004100002084F8420084F84000012070BD96
:1051F000FCF726FB206881698906EBD5806980066B
:1052000044BF002070BD204600212A46FFF726FE3D
:105210000028EDD0012070BD002070BD70B504469F
:105220000068806980074CD415460E46481C1DD086
:105230004EBB00BF204600212A46FFF70FFE002884
:105240001CBF012070BDFCF7FBFA2068816989074B
:1052500029D58069800744BF002070BDEAE700BF00
:1052600020688069800744BF002070BD20464FF051
:10527000FF312A46FFF7F2FD0028F1D0012070BD72
:10528000806980071DD4204631462A46FFF7E6FD97
:105290000028F3D1FCF7D4FA411B2068B142EFD9C2
:1052A00081698907ECD4606C40F0200060642020A4
:1052B00084F84100002084F8420084F84000012076
:1052C00070BD002070BD0000002180ED000A8160EB
:1052D000C0ED010A016180ED031A4161C0ED061ABB
:1052E000C161704790ED001A90ED062A90ED013AE9
:1052F00032EE011AC16880ED040A31EE032A03EE92
:10530000101A81EE022A30EE434A80ED051A8160C0
:1053100022EE044A80ED072A34EE030A21EE023A17
:1053200080ED030A31EE431A80ED061A7047000043
:10533000FEE70000FEE7000080B582B00420ADF873
:10534000050000208DF8070040F224304FF0640C77
:10535000C2F200000DF1050294210323CDF800C034
:10536000FCF7ECFB02B080BD7047000070B540F662
:105370002C46C4F2024656F82C1C044621F08060EC
:1053800046F82C0CFCF75CFA054656F82C0C00018C
:105390000BD500BFFCF754FA401B022884BF032042
:1053A00070BD56F82C0C0001F4D4306843F603713C
:1053B000884394E80E00084340EA0220E168306028
:1053C0004FF47E4202EB41212269581E4FF4FE0346
:1053D00089B203EB02426FF35F20084402F4FE013E
:1053E00062694FF0FE4303EB0262084402F0FE41A3
:1053F000084430613068A16920F00C000843306037
:105400003068E16920F0200008433060606A31684C
:105410000843306030684FF6F87120F010003060BB
:105420007069226A884340EAC2007061306840F0C7
:105430001000306056F82C0C40F0806046F82C0CC0
:10544000FCF7FEF9044600BF56F82C0C000144BFDF
:10545000002070BDFCF7F4F9001B032824BF0320D3
:1054600070BDF1E7B0B5054640F200400C46C4F20D
:1054700002204FF40051FCF7DDF900204FF47E428A
:105480002862AA84C5F82B00C5F82700FF222860EF
:105490006860A860E86028616861A861E86140F21E
:1054A000F04005F1230185F82620C2F20000012218
:1054B0002C86BDE8B040FFF731BB000010B50146B7
:1054C00011F8232F8B789A4207D10270012280F8BD
:1054D0002220002280F824204EE090F82230012B78
:1054E0004AD190F82430013380F82430DBB2C25422
:1054F00090F802C0028E90F82430624535D110F841
:1055000003E090F8262096452FD10278437890F852
:1055100003E01A44047962447244437922441A44F1
:105520008379C4791A44037A2244447A1A44837AE8
:105530002244C47A1A44037B2244447B1A44837B6A
:1055400002EB040CC27B63441A44121BD2B2A24287
:1055500005D1828D01328285012280F8202000222F
:1055600080F8222080F8242006E00F2B04D30022AC
:1055700080F8222080F8242040F2F040C2F200009F
:105580000122BDE81040FFF7C9BA0000B0B50446DB
:1055900090F82100012818BFB0BD002084F8210038
:1055A0002046FFF7D3FB0120FCF756F840F2F04508
:1055B000C2F2000504F11001284610224FF0FF331B
:1055C000FFF734FB286800BFC16949065CBFC169A9
:1055D0005FEA416105D4C169490602D4C16949063F
:1055E000F2D5208D013020850A2001F0AFFC40F279
:1055F0000040C4F202204FF400510022FCF71AF9D7
:1056000040F2F04004F12301C2F200000122BDE8A3
:10561000B040FFF783BA000070B582B040F2243585
:1056200004460020C2F200058DF8070064260DF143
:1056300007022846942101230096FCF77FFA0DF11A
:1056400005022846942102230096FCF7A3F9BDF831
:105650000500000400BA000903F0ECF99FED060B09
:1056600053EC102B03F076FA02F06AFF206002B0D0
:1056700070BD00BF00BF00BF000000000000B03FD1
:1056800070470000FCF780BB4EF6885CCEF2000C41
:10569000DCF80000012240F47000CCF8000040F675
:1056A0000040C4F2024002600022C261026203684C
:1056B0004EF6E321CFF6E2211940016040F280214D
:1056C000C0F201118262C26241638263C1630264FB
:1056D000016821F48021016002654FF0006142F20F
:1056E0001C00C4F202004CF8801C50F8041C4A0F45
:1056F000062A05D801F06041B1F1404F18BF70474C
:105700000168C9070BD042F63B21C0F6190140F8E9
:10571000101C46F67F61C4F65D4140F8101C01681C
:1057200041F002010160016841F001010160704730
:1057300040F27830C2F20000FEF73ABC40F2C430CA
:10574000C2F20000FEF734BC40F21040C2F200008A
:10575000FEF72EBC80B582B042F20100ADF8050024
:1057600000208DF8070040F224304FF0640CC2F2A4
:1057700000000DF1050294210323CDF800C0FCF7D1
:10578000DDF902B080BD000080B5816A0A070CD443
:10579000CA0715D18A071ED44A0727D4CA0630D4AF
:1057A0008A0639D44A0657D541E00268D0F838C095
:1057B000536823F4004343EA0C035360CA07E9D05B
:1057C0000268D0F82CC0536823F4003343EA0C037A
:1057D00053608A07E0D50268D0F830C0536823F4DC
:1057E000803343EA0C0353604A07D7D50268D0F8E8
:1057F00034C0536823F4802343EA0C035360CA0681
:10580000CED50268D0F83CC0936823F4805343EAB5
:105810000C0393608A06C5D50268D0F840C093682F
:1058200023F4005343EA0C0393604A0614D502683C
:10583000D0F844C05368BCF5801F23F4801343EABA
:105840000C03536008D1D2F804C0D0F848E02CF41F
:10585000C00343EA0E035360090658BF80BD0168C8
:10586000C06C4A6822F400221043486080BD0000EA
:10587000B0B582B004460020C4F89000FBF7E0FF0A
:10588000216805460A68120736D56FF07E4C20461F
:105890004FF4001100222B46CDF800C001F062F851
:1058A00048B300BF206850E8000F216820F0800056
:1058B00041E80002DAB1206850E8000F216820F0CA
:1058C000800041E8000292B1206850E8000F216892
:1058D00020F0800041E800024AB1206850E8000F43
:1058E000216820F0800041E80002002ADAD120205F
:1058F000C4F888005EE021680868400760D56FF052
:105900007E4C20464FF4800100222B46CDF800C08B
:1059100001F028F8002853D0206850E8000F2168D3
:1059200020F4907041E80002BAB3206850E8000FFC
:10593000216820F4907041E8000272B3206850E8BA
:10594000000F216820F4907041E800022AB320681B
:1059500050E8000F216820F4907041E80002002A0E
:10596000DAD11AE0206850E8020F216820F0010027
:1059700041E80202DAB1206850E8020F216820F005
:10598000010041E8020292B1206850E8020F21684C
:1059900020F0010041E802024AB1206850E8020FFD
:1059A000216820F0010041E80202002ADAD120201B
:1059B000C4F88C000320002184F8841002B0B0BD2C
:1059C0002020C4F88800C4F88C000020E06620671E
:1059D000002184F8841002B0B0BD0000C06D002129
:1059E000A0F85E10A0F85610FEF718BD017E002941
:1059F00008BF70474FF480718278018340F29010A5
:105A0000C2F20000027070478C46034600F11B0191
:105A100000200022986158611861D8609860586031
:105A20001860CFF6AB721862988440F25C40DA617D
:105A3000C2F20000012283F826C0FFF76FB8000011
:105A4000817E02290AD0A1BBC17E827F914230D1E2
:105A5000002201700221828381762AE0818BC27E3E
:105A600001318BB28183C254818B0B2921D3017800
:105A70004278837890F803C0114419440279614454
:105A80001144427983791144C2791944037A11444B
:105A9000427A1944837A11441944C27AC9B29142B4
:105AA00004D1818C0131818401210176002181831F
:105AB000817600F11B0140F25C40C2F2000001223D
:105AC000FFF72CB8B0F860200168D0F88C30222B9A
:105AD00040F0CD80D1F824C0836D02EA0C0223F897
