:020000040800F2
:10000000800E0020F9020008217600081976000809
:100010001D760008E107000825A100080000000087
:10002000000000000000000000000000258900081A
:10003000792E000800000000BD7F00082989000813
:100040001503000815030008150300080000000050
:100050001503000815030008150300080000000040
:100060001503000815030008000000001503000830
:100070001503000815030008150300081503000800
:1000800015030008150300081503000815030008F0
:1000900015030008150300081503000815030008E0
:1000A000150300081503000815030008852E000835
:1000B00015030008150300081503000815030008C0
:1000C0001503000815030008912E00081503000809
:1000D00000000000150300081503000815030008C0
:1000E0001503000815030008150300081503000890
:1000F00015030008D5890008E18900080000000008
:10010000000000001503000815030008150300088F
:10011000150300081503000815030008150300085F
:1001200015030008150300080DA1000819A1000817
:10013000150300080000000000000000150300087F
:10014000150300080000000000000000000000008F
:10015000000000000000000015030008000000007F
:10016000000000000000000015030008150300084F
:10017000000000000000000000000000000000007F
:10018000000000000000000000000000000000006F
:10019000000000000000000000000000000000005F
:1001A000000000000000000015030008150300080F
:1001B00015030008150300081503000815030008BF
:1001C00015030008150300080000000000000000EF
:1001D00000000000000000000000000015030008FF
:1001E00015030008000000000000000000000000EF
:1001F00000000000000000000000000000000000FF
:1002000000000000150300081503000800000000AE
:1002100000000000150300080000000000000000BE
:1002200000000000000000000000000015030008AE
:10023000150300080000000000000000000000009E
:10024000000000000000000000000000150300088E
:10025000150300081503000800F002F800F03CF850
:100260000AA090E8000C82448344AAF10107DA4511
:1002700001D100F031F8AFF2090EBAE80F0013F027
:10028000010F18BFFB1A43F001031847D8C4000040
:10029000F8C40000103A24BF78C878C1FAD85207D1
:1002A00024BF30C830C144BF04680C6070470000F0
:1002B0000023002400250026103A28BF78C1FBD86F
:1002C000520728BF30C148BF0B6070471FB50CF004
:1002D0001AF91FBD10B510BD00F086F91146FFF7E1
:1002E000F5FF0AF099F900F0A4F903B4FFF7F2FF63
:1002F00003BC00F0A7F900000A4880470A480047FD
:10030000FEE7FEE7FEE7FEE7FEE7FEE7FEE7FEE7C5
:10031000FEE7FEE7FEE7000004480549054A064BF4
:10032000704700002D89000859020008800800204D
:10033000800E0020800A0020800A002053EA020C70
:1003400000F069802DE9F04B4FF00006002B1FBF35
:10035000B3FA83F503FA05F424FA05F65E4012BFFA
:100360001643B2FA82F502FA05F4C5F120051EBF64
:1003700022FA05FC44EA0C04203556EA044C4FEA04
:10038000144418BF641C4FF000084FF0000990425D
:1003900071EB030C39D3002919BFB1FA81F701FAC7
:1003A00007F6B0FA80F700FA07F6C7F120071EBF7C
:1003B00020FA07FC46EA0C062037B6FBF4FCA7EB54
:1003C0000507103F07F01F0BCBF120062CFA06F6AD
:1003D0000CFA0BFB44BFB3460026202FA4BF5E4699
:1003E0004FF0000B5BEA060C08BF4FF0010B19EB56
:1003F0000B0948EB0608ABFB027C06FB02CC0BFBAF
:1004000003CCC01B71EB0C01C1E70B460246414611
:100410004846BDE8F08B13B5084318BF4FF0FF30D6
:100420000146AFF30080BDE81C407047032A40F24C
:10043000308010F0030C00F0158011F8013BBCF186
:10044000020F624498BF11F801CB00F8013B38BF9E
:1004500011F8013BA2F1040298BF00F801CB38BFAC
:1004600000F8013B11F0030300F08480083AC0F06B
:10047000088051F8043B083A51F804CBA0E8081072
:10048000F5E7121D5CBF51F8043B40F8043BAFF3A5
:100490000080D20724BF11F8013B11F801CB48BFFF
:1004A00011F8012B24BF00F8013B00F801CB48BF35
:1004B00000F8012B704702F0FF0343EA032242EAEF
:1004C000024200F024B84FF000020429C0F012806C
:1004D00010F0030C00F01B80CCF1040CBCF1020FF7
:1004E00018BF00F8012BA8BF20F8022BA1EB0C01CC
:1004F00000F00DB85FEAC17C24BF00F8012B00F8C2
:10050000012B48BF00F8012B70474FF0000200B5E7
:10051000134694469646203922BFA0E80C50A0E826
:100520000C50B1F12001BFF4F7AF090728BFA0E8D4
:100530000C5048BF0CC05DF804EB890028BF40F8A0
:10054000042B08BF704748BF20F8022B11F0804FE2
:1005500018BF00F8012B704770477047704710B5FF
:1005600000F03AF8006810BD10B5044600F034F809
:10057000046010BD10B5203AC0F00B80B1E81850EF
:10058000A0E81850B1E81850A0E81850203ABFF47D
:10059000F5AF5FEA027C24BFB1E81850A0E818501C
:1005A00044BF18C918C0BDE810405FEA827C24BF70
:1005B00051F8043B40F8043B08BF7047D20728BFFE
:1005C00031F8023B48BF11F8012B28BF20F8023B4D
:1005D00048BF00F8012B70470048704728000020F2
:1005E00000487047280000207546FFF7F9FFAE4627
:1005F00005006946534620F00700854618B020B52F
:10060000FFF78AFEBDE820404FF000064FF00007DC
:100610004FF000084FF0000BAC46ACE8C009ACE866
:10062000C009ACE8C009ACE8C00921F007018D465B
:10063000704710B50446AFF300802046BDE8104077
:10064000FFF753BE01491820ABBEFEE726000200AB
:10065000704700000146C06D836D826D13F0500F2E
:1006600007D0D20648BF02F00DBE006D826E08466C
:10067000104742F40071816501680B68CA681B0766
:1006800010D491070CD4816D21F480718165816D46
:10069000C90448BF02F0F2BD816D41F001018165DE
:1006A00002F0ECBD12F4406FFAD1C9688904F7D4A6
:1006B000816D21F480718165816DC904F0D4816DF3
:1006C00041F00101816502F0D9BD0000C06D816D6E
:1006D00041F040018165C16D41F00401C16502F046
:1006E000D1BD0000C06D02F0CBBD000070B582B07E
:1006F00004460020019021688A68D20740D14FF655
:10070000C076C7F6FF76886806F17F0210420AD0ED
:10071000A06D40F01000A065E06D40F00100E065C4
:10072000012002B070BD8868304040F00100886050
:1007300048F20830C4F202200068000222D403F01C
:1007400033FC21680A68D2071EBF002002B070BDCA
:10075000054602E00868C00711D18868C00704D1C7
:100760008868304040F00100886003F01DFC401BA9
:1007700021680328EED30868C007EBD1C8E7002042
:1007800002B070BD40F21800C2F20000006842F6EC
:1007900063518009C0F23E51A0FB0101880902218A
:1007A00001EB4000019001980028C8D00198013861
:1007B000019001980028C2D0019801380190019859
:1007C0000028BCD001980138019001980028B6D0CB
:1007D00001980138019001980028E7D1AFE70000A7
:1007E000FEE70000000000002DE9F04F81B02DED84
:1007F000108BC8B040F21011C2F2000148780028F6
:1008000000F00A8640F20023C2F20003988800221A
:1008100000EE100A4A70C1E91122CA640A65B8EEF6
:10082000401A988C40F2602100EE100AC2F20001DA
:10083000B8EE402A888800EE100AB8EE403AB3F8C5
:10084000440000EE100AB8EE400AD8888DED1D0A6B
:1008500000EE100AB8EE400AD88C8DED1C0A00EEAE
:10086000100AB8EE400AC8888DED1B0A00EE100A87
:10087000B8EE400AB3F846008DED1A0A00EE100AF1
:10088000B8EE400A18898DED190A00EE100AB8EE8C
:10089000400A188D8DED180A00EE100AB8EE400AD5
:1008A00008898DED170A00EE100AB8EE400AB3F879
:1008B00048008DED160A00EE100AB8EE400A58897D
:1008C0008DED150A00EE100AB8EE400A588D8DED38
:1008D000140A00EE100AB8EE400A48898DED130A9A
:1008E00000EE100AB8EE400AB3F84A008DED120A85
:1008F00000EE100AB8EE400A98898DED110A00EE5C
:10090000100AB8EE400A988D8DED100A00EE100A1C
:10091000B8EE400A88898DED0F0A00EE100AB8EE95
:10092000400AB3F84C008DED0E0A00EE100AB8EE46
:10093000400AD8898DED0D0A00EE100AB8EE400A83
:10094000D88D8DED0C0A00EE100AB8EE40DAC88999
:1009500000EE100AB8EE40EAB3F84E0000EE100ABE
:10096000B8EE40FA188A00EE100AF8EE408A188EA7
:1009700000EE100AF8EE409A088A00EE100AF8EE2F
:1009800040AAB3F8500000EE100AF8EE40BAB3F8EF
:1009900012C000EE10CAF8EE40CA588E00EE100ADF
:1009A000F8EE40DA488A00EE100AF8EE40EAB3F8B2
:1009B000520000EE100AF8EE40FAB3F814E000EE30
:1009C00010EAB8EE40BA988E00EE100AB8EE40AACF
:1009D000888A00EE100AB8EE409AB3F8540000EE90
:1009E000100AB8EE408AB3F816A000EE10AAF8EE8E
:1009F000407AD88E00EE100AF8EE406AC88A00EEFF
:100A0000100AF8EE405AB3F8560000EE100AF8EE5D
:100A1000404AB3F8188000EE108AF8EE403A188F7A
:100A200000EE100AF8EE402A088B00EE100AF8EEED
:100A3000401AB3F8580000EE100AF8EE400A588B3E
:100A400000EE100A2C90B8EE407A588F00EE100A93
:100A50002D90B8EE406A488B00EE100AB8EE405A6E
:100A6000B3F85A0000EE100AB8EE404AB3F806B0E8
:100A700098885A46B3F808902B905845CDF8A0B006
:100A800088BF02465E894F464A45CDF89C904796FE
:100A900088BF17469D89B742469588BF3E46DC8988
:100AA000AE42459488BF3546198AA542449188BF15
:100AB0002C468C4288BF214688B24390604598BF3F
:100AC000614688B2CDF894C04290704598BF714697
:100AD00088B2CDF890E04190504598BF514688B219
:100AE000CDF814A04090404598BF4146CDF8108005
:100AF0002B9889B258454FF0030088BF02204A4521
:100B00004FF0040298BF1046479A97424FF00502F3
:100B100098BF1046469A96424FF0060298BF10467C
:100B2000459A95424FF0070298BF1046449A944266
:100B30004FF0080298BF1046439A62454FF00902F1
:100B400098BF1046429A72454FF00A0298BF10466D
:100B5000419A52454FF00B0298BF1046409A4245C9
:100B60004FF00C0298BF10462C9A9F8CB3F826A029
:100B700091424FF00D012A97CDF80CA198BF08467D
:100B80001E8D0B905745429688BFBA465D8DB24583
:100B9000419588BF56469C8DAE423E9488BF3546EF
:100BA000D88DA542409088BF2C46198E84423F9133
:100BB00088BF2046884288BF01468FB2B3F8329082
:100BC0003D974F4598BF49468FB29A8ECDF8889091
:100BD0003C97974298BF11461FFA81FCB3F836E064
:100BE0002392CDF8ECC0F44598BF71461FFA81F806
:100BF000B3F838C0CDF808E0E04598BF6146CDF8BD
:100C00000CC017462A9ADDF80CB15A454FF0030282
:100C100088BF0222429B9A454FF0040398BF1A46B0
:100C2000419B9E424FF0050398BF1A463E9B9D4252
:100C30004FF0060398BF1A46409B9C424FF00703B3
:100C400098BF1A463F9B98424FF0080098BF024653
:100C50003D980D2348454FF0090098BF02463C9847
:100C600040F26029B8424FF00A0098BF02463B9814
:100C7000C2F2000970454FF00B0098BF024688B2DF
:100C80000C21E04598BF0A462D99B9F806E0884244
:100C9000B9F8040098BF1A46B9F808800A923C9047
:100CA000CDF8E4E07045CDF8E88088BF8646B9F815
:100CB0000AC0C645CDF8F4C088BFF046B9F80C505C
:100CC000E0453B9588BFC446B9F80E40AC45379423
:100CD00088BF6546B9F81030A542369388BF2C46C8
:100CE000B9F812009C42389088BF2346B9F814B076
:100CF000834288BF18465E46B9F816A05845CDF81D
:100D000084B088BF0646B9F8189056455746CDF8C6
:100D100080A0CDF8A49088BF37464F4588BFB9461C
:100D20003C99399A91424FF0030188BF02213A9AC7
:100D300096454FF0040298BF11463D9A90454FF0FA
:100D4000050298BF11463B9A94454FF0060298BFA2
:100D50001146379A95424FF0070298BF1146369ACE
:100D600094424FF0080298BF1146389A93424FF0D0
:100D7000090298BF114658454FF00A0098BF014636
:100D80000B20564598BF014629980C22874240F215
:100D90006020C2F20000408B4FF00D03069098BF18
:100DA000114640F20022C2F200028145B2F84470BE
:100DB000B2F846002697349098BF194609918742A9
:100DC0000146B2F84800339088BF3946B2F84A80ED
:100DD0008142CDF8D48088BF0846B2F84CC0404567
:100DE000CDF8C4C088BF8046B2F84E40E04530948C
:100DF00088BFC446B2F850E0A445CDF8C8E088BF2B
:100E00006446B2F852B07445CDF8B8B088BFA64673
:100E1000B2F854A0DE4588BFF346B2F85670564685
:100E2000D345CDF87CA02F9788BF5E46B2F8589086
:100E3000BE4288BF37464A464F45CDF8789088BFB6
:100E40003A46269D349B9D424FF0030588BF0225FC
:100E5000339B99424FF0040198BF0D463599884263
:100E60004FF0050098BF054631980C2180454FF0A2
:100E7000060098BF0546309884454FF0070098BF9C
:100E80000546329884424FF0080098BF05462E98D8
:100E900086454FF0090098BF05460A20D34598BF04
:100EA00005462F9886424FF00B0098BF054640F24A
:100EB0000020C2F20000B0F85A004F45079098BFDA
:100EC0000D4682424FF00D0098BF05460895DDF8AB
:100ED000AC90289DA94538BF4D46279B9D4238BF01
:100EE0002B46DDF81CC1634538BF9C46DDF818E190
:100EF000F44538BFE646DDF81481C64538BFF046F4
:100F00004499884538BF414688B20190259A90425D
:100F100028BF11461FFA81FB2498834528BF01464C
:100F20008AB2059CA24228BF21468EB2049886420E
:100F300028BF0146DDF8A0A0D1454FF0030938BF16
:100F40004FF00209279FBD424FF0040528BFA94674
:100F5000479DAB424FF0050328BF9946469B9C45F1
:100F60004FF0060328BF9946459B9E454FF0070367
:100F700028BF9946449B98454FF0080328BF9946DF
:100F8000019B259FBB424FF0090328BF9946249B34
:100F90009B454FF00A0328BF9946A2424FF00B022F
:100FA00028BF9146864288B24FF00C0128BF89467F
:100FB0002C9988424FF00D0028BF8146CDF8B090A3
:100FC000DDF8A8B0439CA34538BF5C46429B9C42D9
:100FD00038BF2346DDF804C1634538BF9C46DDF8C1
:100FE000F8E0F44538BFE646DDF80081C64538BF75
:100FF000F0463F99884538BF414688B24790229ACB
:10100000904228BF11468FB22398874228BF0146DD
:101010008EB2029DAE4228BF29468AB20398824210
:1010200028BF0146DDF80CA1D3454FF0030A38BFB5
:101030004FF0020ADDF808B15C454FF0040428BF08
:10104000A246419CA3424FF0050328BF9A463E9B0F
:101050009C454FF0060328BF9A46409B9E454FF0A3
:10106000070328BF9A463F9B98454FF0080328BFC7
:101070009A46479B229CA3424FF0090328BF9A46F9
:10108000239B9F424FF00A0328BF9A46AE424FF07F
:101090000B0328BF9A46824288B24FF00C0128BF4A
:1010A0008A462D9988424FF00D0028BF82463C9811
:1010B0003999884238BF01463A9A914238BF0A4668
:1010C0003D9B9A4238BF13463B9FBB4238BF1F46E9
:1010D000379EB74238BF3E46DDF8D8904E4538BF00
:1010E000B146389DA94538BF4D46219CA54238BF21
:1010F0002C46DDF880C0644538BFA446DDF8A4E086
:10110000F046F44538BFE046CDF81C81DDF8E4B088
:101110003C9858454FF0030B38BF4FF0020BDDF8F9
:10112000E880092041454FF0040128BF8B463D99D6
:101130008A424FF0050128BF8B463B998B424FF006
:10114000060128BF8B4637998F424FF0070128BF11
:101150008B4636998E424FF0080128BF8B4638994E
:10116000894528BF8346219885424FF00A0028BF51
:101170008346209884424FF00B0028BF83460C2002
:10118000F44528BF83460698479981424FF00D00E9
:1011900028BF83462698349A8646904238BF024636
:1011A000339B9A4238BF1346359FBB4238BF1F4618
:1011B000319EB74238BF3E46309DAE4238BF3546BD
:1011C000329CA54238BF2C46DDF8B8C0644538BF14
:1011D000A4461F998C4538BF6146DDF8BC80414567
:1011E00038BF88461E98804538BF4046479034989F
:1011F00086454FF0030E38BF4FF0020E33988242FF
:101200004FF0040228BF964635980522834228BF36
:10121000964631980622874228BF96463098072284
:10122000864228BF964632980822854228BF9646B5
:101230002E980922844228BF96461F9840F2101526
:1012400084454FF00A0028BF86462F98C2F2000559
:1012500081424FF00B0028BF86469DED1C0A9DED94
:1012600019CA31EE000A9DED1B1A1E9832EE011AC2
:101270009DED1A2A804533EE022A9DED1D3A4FF06E
:101280000C0033EE0C3A9DED18CA30EE0C0A9DEDC1
:1012900017CA31EE0C1A9DED16CA32EE0C2A9DEDDE
:1012A00015CA33EE0C3A9DED14CA30EE0C0A9DEDD2
:1012B00013CA31EE0C1A9DED12CA32EE0C2A9DEDC6
:1012C00011CA33EE0C3A9DED10CA30EE0C0A9DEDBA
:1012D0000FCA31EE0C1A9DED0ECA31EE0D1A32EE28
:1012E0000C2A9DED0DCA32EE0E2A33EE0C3A9DED1E
:1012F0000CCA33EE0F3A30EE0C0A31EE291A30EEFA
:10130000280A32EE2A2A33EE2B3A30EE2C0A31EE3E
:101310002D1A32EE2E2A33EE2F3A30EE0B0A31EE32
:101320000A1A32EE092A33EE083A30EE270A31EE75
:10133000261A32EE252A33EE243A30EE230A31EE15
:10134000221A32EE212A33EE203A30EE070A31EE2D
:10135000061A32EE052A33EE043AB2EE084A28BFE6
:10136000864680EE046A81EE041A82EE040A83EE59
:10137000044A07984799DDE9098481420B9A089845
:101380002C9EAA71074668724FF00D00D3B240F24E
:101390000022EC7185F80880AE72CDF814A185F8B2
:1013A0000BA0CDF810B185F80CB028BF8646002000
:1013B000C2F2000285F80DE0C5E90A0085ED116A68
:1013C000286385ED121A32F8130085ED130A002107
:1013D00085ED144A02EE100A6963B8EE423AE88AD3
:1013E000F1B202EE100A3046B8EE425A32F811B0AD
:1013F00033EE462A07EE10BAB4EE452AB8EE477A25
:10140000F1EE10FA36EE476A0CDDB4EE462AF1EE44
:1014100010FA07DD012612E048B0BDEC108B01B0D8
:10142000BDE8F08FB4EE456A0026F1EE10FA07DD54
:10143000B4EE426AF1EE10FA02DD4FF0FF36AE6212
:1014400040F20020C2F200005FFA84FA203030F847
:101450001A2002EE102AB8EE422A459A32EE416A6C
:10146000D2B230F81200B4EE456A07EE100A3E9090
:10147000F1EE10FAB8EE477A31EE471A06DDB4EE17
:10148000416AF1EE10FA01DD01240DE0B4EE451AD7
:101490000024F1EE10FA469408DDB4EE461AF1EE9F
:1014A00010FA03DD4FF0FF344694EC6240F2602402
:1014B0005FFA88F8C2F20004479634F8186001EE2B
:1014C000106AB8EE411A449831EE406AC0B24090BA
:1014D00034F81000B4EE456A07EE100A3F90F1EEC2
:1014E00010FAB8EE477A30EE470A07DDB4EE406AEC
:1014F000F1EE10FA02DD4FF001090DE0B4EE450AFD
:101500004FF00009F1EE10FA08DDB4EE460AF1EEF4
:1015100010FA03DD4FF0FF39C5F8309040F2002497
:10152000C2F20004F8B2403434F8105000EE105A01
:101530005FFA8EF5B8EE400A34F8154030EE446A92
:1015400007EE104A42954194B8EE477AB4EE456AE8
:1015500034EE474AF1EE10FA0CDDB4EE446AF1EED7
:1015600010FA07DD40F21015479C4FF0010CC2F253
:10157000000512E0B4EE454A479CF1EE10FA4FF038
:10158000000C79DDB4EE464A40F21015F1EE10FA87
:10159000C2F2000503DD4FF0FF3CC5F834C0661C05
:1015A0004396064670D0012C63D140F20021C2F26E
:1015B000000101EB430131F8024C04EE104AB8EE91
:1015C000444A498805EE101A03EB83016FF00903C2
:1015D00003EB41034C0006EE103A0A2303EB4101F2
:1015E00007EE104A00EE901AB8EE455AB8EEC66AF9
:1015F000B8EEC77AF8EEE00A66EE062A77EE201A11
:1016000076EE204A61EE863A67EE075A72EEE32ADA
:1016100067EE203A64EE876A73EEA22A75EEE63A28
:1016200066EE205A60EEA07A75EEA33A77EE065A7F
:1016300027EE066A65EEA00AF7EE006A77EEE00A8A
:10164000C6EEA22A86EEA37A36EE206A86EE866A77
:1016500061EEA20A64EE871A62EE842A27EE037A0C
:1016600065EE863A37EE227A20EE844A21EE833AFE
:1016700073E09FEDE93A7EE040F21015C2F20005FA
:10168000661C439606468ED140F20023C2F2000348
:1016900003EB410304EE10BA33F8024C890003EE69
:1016A000104AB8EE433AB8EE444A5B8805EE103A69
:1016B0006FF00903B8EE455A2C9851FA80F103EB0C
:1016C00041034C0006EE103A0A2303EB410107EEFA
:1016D000104A00EE901AB8EEC66AB8EEC77AF8EE75
:1016E000E00A66EE062A77EE201A76EE204A61EED0
:1016F000863A67EE075A72EEE32A67EE203A64EE06
:10170000876A73EEA22A75EEE63A66EE205A60EE1C
:10171000A07A75EEA33A77EE065A27EE066A65EED2
:10172000A00AF7EE006A77EEE00AC6EEA22A86EE7D
:10173000A37A36EE206A86EE866A61EEA20A64EE2D
:10174000871A62EE832A27EE047A65EE863A32EE35
:10175000877A20EE833A21EE844A26EE056A33EE3C
:10176000043A23EE854A36EE075A34EE033A35EE54
:10177000054A83EE043A469F85ED153A781C3D9064
:1017800065D0012F40F04C8140F20020C2F20000F1
:1017900000EB4A00C18B03EE101A6FF00901B8EE9E
:1017A000433A408C04EE100A0AEB8A00B8EE444A31
:1017B00001EB4001420005EE101A0A2101EB400046
:1017C00006EE102A07EE100AB8EEC55AB8EEC66A41
:1017D000B8EEC77A65EE051A76EE070A75EE073A97
:1017E00060EE852A66EE064A71EEE21A66EE072A78
:1017F00063EE865A72EEA11A74EEE52A65EE074A88
:1018000067EE076A74EEA22A76EE054A26EE055ABE
:1018100024EE877AF7EE005A36EEC77AC5EEA11AA3
:1018200085EEA26A35EE075A85EE855A20EEA17A3A
:1018300063EE860A61EE831A26EE026A64EE852A5A
:1018400036EE216A27EE033A20EE822A68E040F263
:101850000021C2F2000101EB4201CB8B02EE103AF3
:10186000B8EE422A3E9803EE100AB8EE433A488C8E
:1018700004EE100A9000B8EE444A459950FA81F0FF
:101880006FF0090101EB4001420005EE101A0A2138
:1018900001EB400006EE102A07EE100AB8EEC55A1A
:1018A000B8EEC66AB8EEC77A65EE051A76EE070A94
:1018B00075EE073A60EE852A66EE064A71EEE21A88
:1018C00066EE072A63EE865A72EEA11A74EEE52AD6
:1018D00065EE074A67EE076A74EEA22A76EE054ABD
:1018E00026EE055A24EE877AF7EE005A36EEC77ACE
:1018F000C5EEA11A85EEA26A35EE075A85EE855A25
:1019000020EEA17A63EE860A61EE821A26EE036A61
:1019100064EE852A31EE866A27EE022A20EE833AAB
:1019200025EE045A32EE032A22EE843A35EE064AB8
:1019300033EE022A34EE043A82EE032A479C85ED08
:10194000162A19F1010273D0B9F1010F40F0578145
:1019500040F26020C2F2000000EB480030F8021CA8
:1019600002EE101A6FF00901B8EE422A408803EE29
:10197000100A08EB8800B8EE433A01EB400143003F
:1019800004EE101A0A2101EB400005EE103A06EEB3
:10199000100AB8EEC44AB8EEC55AB8EEC66A64EE8C
:1019A000040A35EE067A74EE062A67EE041A65EE2E
:1019B000053A70EEE10A65EE061A62EE854A71EEAE
:1019C000A00A73EEE41A64EE063A66EE065A73EE67
:1019D000A11A75EE043A25EE044A23EE866AF7EE64
:1019E000004A35EEC66AC4EEA00A84EEA15A34EE6F
:1019F000064A84EE844A27EE206A22EE857A60EE5B
:101A0000820A25EE015A63EE841A35EE205A26EE3C
:101A1000022A27EE011A76E00080BB440000FA4358
:101A20001FED022A479C85ED162A19F101028BD180
:101A300040F26020409BC2F2000000EB430030F80F
:101A4000021C01EE101AB8EE411A3F9902EE101A6C
:101A5000B8EE422A408803EE100A9800B8EE433AE6
:101A6000449950FA81F06FF0090101EB4001430005
:101A700004EE101A0A2101EB400005EE103A06EEC2
:101A8000100AB8EEC44AB8EEC55AB8EEC66A64EE9B
:101A9000040A35EE067A74EE062A67EE041A65EE3D
:101AA000053A70EEE10A65EE061A62EE854A71EEBD
:101AB000A00A73EEE41A64EE063A66EE065A73EE76
:101AC000A11A75EE043A25EE044A23EE866AF7EE73
:101AD000004A35EEC66AC4EEA00A84EEA15A34EE7E
:101AE000064A84EE844A27EE206A22EE857A60EE6A
:101AF000810A25EE025A63EE841A30EE855A26EEEC
:101B0000011A27EE022A24EE034A31EE021A21EED0
:101B1000832A34EE053A32EE011A33EE032A81EEBF
:101B2000021A1CF1010185ED171A6FD0BCF1010FEB
:101B300040F0E68040F20020C2F2000000EB4600D8
:101B4000C38F01EE103A6FF00903B8EE411AB0F8F6
:101B5000420002EE100A06EB8600B8EE422A03EBC2
:101B60004003470003EE103A0A2303EB400004EE63
:101B7000107A05EE100AB8EEC33A469FB8EEC44A92
:101B8000B8EEC55A23EE037A34EE056A73EE051AF1
:101B900066EE030A64EE042A37EE607A64EE050A04
:101BA00061EE843A30EE877A72EEE30A63EE052A3C
:101BB00065EE054A72EEA00A74EE032A24EE033A9B
:101BC00022EE855AF7EE003A34EEC55A83EE877A54
:101BD00083EEA04A33EE053A83EE833A26EE075AA7
:101BE00021EE846A27EE017A24EE004A62EE830A2F
:101BF00034EE074A25EE011A26EE000A71E09FED49
:101C0000A01A1CF1010185ED171A8FD140F20020B6
:101C1000429EC2F2000000EB4600C38F00EE103A75
:101C2000B8EE400A419B01EE103A6FF00903B8EE9E
:101C3000411AB0F8420002EE100AB00050FA8EF0DD
:101C4000B8EE422A03EB4003470003EE103A0A23A2
:101C500003EB400004EE107A05EE100AB8EEC33A2A
:101C6000469FB8EEC44AB8EEC55A23EE037A34EE66
:101C7000056A73EE051A66EE030A64EE042A37EE6F
:101C8000607A64EE050A61EE843A30EE877A72EE8D
:101C9000E30A63EE052A65EE054A72EEA00A74EEC9
:101CA000032A24EE033A22EE855AF7EE003A34EE88
:101CB000C55A83EE877A83EEA04A33EE053A83EE67
:101CC000833A26EE075A21EE846A27EE007A24EE44
:101CD000014A62EE830A37EE044A25EE000A26EE38
:101CE000011A23EE023A30EE010A20EE821A33EE98
:101CF000042A31EE000A32EE021A80EE010A01E0F7
:101D00009FED600AB9F1010F85ED180A08BF012F98
:101D100005D14398002808BFBCF1010F1ED0B9F1CE
:101D2000010F08BF012F03D1012C08BF002917D0D4
:101D3000B9F1010F08BF012C05D13D98002808BF5B
:101D4000BCF1010F0ED0012F08BF012C0CD1002ACD
:101D500008BFBCF1010F07D1032004E0002002E01E
:101D6000012000E00220687408F016FA95ED158A4B
:101D700095ED169A9FED441A39EE080A30EE010AE5
:101D80009FED421A80EE010A10EE100A0AF020FBC5
:101D900041EC100B08F07CFF51EC100B09F0D8FD62
:101DA0000AF016FB9FED320B53EC102B0AF01CF9D6
:101DB00009F0CEFD40F29016C2F200060AEE100ABB
:101DC00096ED030AB06030EE4A0A10EE101A21F0C8
:101DD00000400AF0FDFA9FED280B53EC102B0AF09F
:101DE00045FB30B93069411C0528316103DB002017
:101DF000306186ED03AA38EE490AB6EE008A20EE7D
:101E0000080A10EE100A0AF0E3FA044670690D465B
:101E10000AF0DEFA41EC100B09F0A6F851EC100BB9
:101E200022462B460AF0E0F809F092FD00EE100A77
:101E300096ED071AB06131EE401AB0EEC11AB4EE59
:101E4000481AF1EE10FA06DB306A411C05283162AF
:101E500003DB0020306286ED070A08F0A5FE48B0DB
:101E6000BDEC108B01B0BDE8F04F08F0D9BA00BF4F
:101E7000D9CEF753E3A54C40333333333333D33F19
:101E80000080BB440000FA43000016C300007A4300
:101E90002DE9F04F81B02DED108BC8B040F2101439
:101EA000C2F2000460780025B0FA80F041090020F9
:101EB000657107E00130C1B20A294FF00101657078
:101EC000607109D2C907F5D0322008F08FFA607826
:101ED0000028F9D06079EDE740F2002CC2F2000C46
:101EE000BCF80410002000EE101AC4E91100E064F0
:101EF0002065B8EE401ABCF8240040F2602100EEE4
:101F0000100AC2F20001B8EE402A888800EE100ADA
:101F1000B8EE403ABCF8440000EE100AB8EE400AB1
:101F2000BCF806008DED1D0A00EE100AB8EE400A5E
:101F3000BCF826008DED1C0A00EE100AB8EE400A2F
:101F4000C8888DED1B0A00EE100AB8EE400ABCF8F6
:101F500046008DED1A0A00EE100AB8EE400ABCF8F1
:101F600008008DED190A00EE100AB8EE400ABCF820
:101F700028008DED180A00EE100AB8EE400A088914
:101F80008DED170A00EE100AB8EE400ABCF84800C2
:101F90008DED160A00EE100AB8EE400ABCF80A00F1
:101FA0008DED150A00EE100AB8EE400ABCF82A00C2
:101FB0008DED140A00EE100AB8EE400A48898DED46
:101FC000130A00EE100AB8EE400ABCF84A008DED84
:101FD000120A00EE100AB8EE400ABCF80C008DEDB3
:101FE000110A00EE100AB8EE400ABCF82C008DED84
:101FF000100A00EE100AB8EE400A88898DED0F0A2B
:1020000000EE100AB8EE400ABCF84C008DED0E0A46
:1020100000EE100AB8EE400ABCF80E008DED0D0A75
:1020200000EE100AB8EE400ABCF82E008DED0C0A46
:1020300000EE100AB8EE40DAC88900EE100AB8EED9
:1020400040EABCF84E0000EE100AB8EE40FABCF8C8
:10205000100000EE100AF8EE408ABCF8300000EEE6
:10206000100AF8EE409A088A00EE100AF8EE40AA2C
:10207000BCF8500000EE100AF8EE40BABCF812307E
:1020800000EE103AF8EE40CABCF8320000EE100A3A
:10209000F8EE40DA488A00EE100AF8EE40EABCF8A2
:1020A000520000EE100AF8EE40FABCF8149000EE70
:1020B000109AB8EE40BABCF8340000EE100AB8EE40
:1020C00040AA888A00EE100AB8EE409ABCF8540084
:1020D00000EE100AB8EE408ABCF816A000EE10AA76
:1020E000F8EE407ABCF8360000EE100AF8EE406ACE
:1020F000C88A00EE100AF8EE405ABCF8560000EE0E
:10210000100AF8EE404ABCF8180000EE100A42909F
:10211000F8EE403ABCF8380000EE100AF8EE402A1B
:10212000088B00EE100AF8EE401ABCF8580000EEDA
:10213000100AF8EE400ABCF81A0000EE100A2A90C5
:10214000B8EE407ABCF83A0000EE100A2B90B8EED8
:10215000406A488B00EE100AB8EE405ABCF85A00AC
:1021600000EE100AB8EE404ABCF806B0BCF8040015
:10217000DE46BCF8088029905845CDF818B088BFD5
:102180008646BCF80A704246C645CDF8948047970B
:1021900088BF7246BCF80C60BA42469688BF1746A4
:1021A000BCF80E50B742459588BF3E46BCF81010AB
:1021B000AE42449188BF35468D4288BF29468CB2D5
:1021C00043939C4298BF194688B24190484598BFB6
:1021D000494688B2CDF88C904090504598BF514602
:1021E0008BB24298CDF814A03F93834298BF01462A
:1021F0002998042358454FF0030088BF0220C645A4
:1022000098BF1846479B89B29A424FF0050298BF83
:102210001046469A97424FF0060298BF1046459ADC
:1022200096424FF0070298BF1046449A95424FF0ED
:10223000080298BF1046439A94424FF0090298BF93
:102240001046419A4A454FF00A0298BF1046409AFC
:1022500052454FF00B0298BF1046429A3F9B934263
:102260004FF00C0398BF18462A9ABCF82470BCF8AB
:10227000269091424FF00D012897CDF8FC9098BF21
:102280000846BCF828300B904F45419388BFB946AB
:10229000BCF82A509945409588BF4B46BCF82C6045
:1022A000AB423C9688BF1D46BCF82E70B5423E97A7
:1022B00088BF2E46BCF83000BE423D9088BF3746EE
:1022C000874288BF384684B2BCF832B062465C456B
:1022D00098BF58461FFA80FCB2F83480CDF884B01D
:1022E000CDF8ECC0C44598BF40461FFA80FCB2F858
:1022F00036E0CDF88880CDF8E8C0F44598BF704648
:102300001FFA80FAB2F838C0CDF80CE0E24598BF69
:10231000604628993F9ACDF810C091424FF00302D1
:1023200088BF0222419980B289454FF0040198BFCD
:102330000A4640998B424FF0050198BF0A463C99E6
:102340008D424FF0060198BF0A463E998E424FF0EB
:10235000070198BF0A463D998F424FF0080198BF88
:102360000A4609215C4598BF0A463B9940F2602421
:1023700041454FF00A0198BF0A463A99C2F200045B
:1023800071454FF00B0198BF0A460C21E24598BFFA
:102390000A462B99B4F806908842A188CDF8E490BB
:1023A0004FF00D0098BF0246B4F808800A922791BA
:1023B0004945CDF8E08088BF8946B4F80AE0C145B8
:1023C000CDF8ECE088BFC846B4F80CB0F045CDF8C5
:1023D000E8B088BFC646E789DE45359788BFF34633
:1023E000268ABB45379688BF5F46638AB7423693D5
:1023F00088BF3E46B4F814A09E4288BF3346E18AA7
:1024000052465345CDF880A0349188BF1A46208BA0
:102410008A428446269088BF1146814288BF8C46F6
:102420002798399DA8424FF0030088BF0220389DAD
:10243000A9454FF0040598BF28463B9DA8454FF09D
:10244000050598BF28463A9DAE454FF0060598BF52
:102450002846359D40F2002EAB454FF0070598BF4A
:102460002846379DC2F2000EAF424FF0080798BFD2
:102470003846369FBE424FF0090798BF384653454D
:102480004FF00A0398BF1846349B9A424FF00B0254
:1024900098BF1046269A0D239142618B4FF00C0293
:1024A000079198BF10468C45BEF84410BEF84660B0
:1024B000249198BF1846BEF848A0B0460990B14292
:1024C0001F96CDF8CCA088BF8846BEF84AB0D0454C
:1024D000CDF8C8B088BFC246BEF84C50DA45319539
:1024E00088BFD346BEF84EC0AB45CDF8C0C088BF4C
:1024F0005D46BEF8501065452F9188BFAC46BEF8CA
:1025000052208C452E9288BF6146BEF8547091428D
:102510002D9788BF0A46BEF85630BA422C9388BF22
:102520001746BEF858909F4288BF3B46CE464B4563
:10253000CDF8789088BF9E462498B0424FF00300B3
:1025400088BF0220339EB0454FF0040698BF304646
:10255000329EB2454FF0050698BF3046319EB345D6
:102560004FF0060698BF3046309EB5424FF0070543
:1025700098BF28462F9D0826AC4598BF30462E9E12
:10258000B1424FF0090198BF08462D998A424FF099
:102590000A0198BF08462C990C228F424FF00B017C
:1025A00098BF084640F20021C2F20001B1F85A106B
:1025B0004B45089198BF10468E454FF00D0198BFCE
:1025C0000846069A029029981146904238BF014663
:1025D000259D0346A94238BF0D46479F1446BD427C
:1025E00038BF2F46DDF81881474538BFB846DDF8BB
:1025F00014A1D04538BFC2464498824538BF5046E2
:1026000082B2439E0192B24228BF30461FFA80FC3C
:10261000239A944528BF104682B2DDF814904A45AB
:1026200028BF484686B2DDF808E1764528BF7046E7
:10263000A3424FF0030438BF0224259B80B2994285
:102640004FF0040128BF0C4647998D424FF0050119
:1026500028BF0C4646998F424FF0060128BF0C4612
:10266000459988454FF0070128BF0C4644998A4593
:102670004FF0080128BF0C460199439B99424FF047
:10268000090128BF0C4623998C454FF00A0128BF49
:102690000C460B214A4528BF0C460C21764528BF25
:1026A0000C462A9988424FF00D0028BF0446DDF8F9
:1026B000A0903F994794894538BF4946419DA9421A
:1026C00038BF0D46409FBD4238BF2F46DDF8F08031
:1026D000474538BFB8463E9A904538BF42463D9878
:1026E000824238BF104684B2219B9C4228BF1846C4
:1026F00086B2229B9E4228BF18461FFA80FCDDF856
:102700000CE0F44528BF704683B2DDF810B05B459D
:1027100028BF5846DDF8FCA080B2D1454FF0030A2F
:1027200038BF4FF0020ADDF8049149454FF004012B
:1027300028BF8A4640998D424FF0050128BF8A463E
:102740003C998F424FF0060128BF8A463E99884542
:102750004FF0070128BF8A463D998A424FF0080191
:1027600028BF8A4621998C424FF0090128BF8A462A
:1027700022998E424FF00A0128BF8A460B21F44568
:1027800028BF8A460C215B4528BF8A462B99884280
:102790004FF00D0028BF824627993998884681421C
:1027A00038BF08463899884238BF01463B9A914263
:1027B00038BF0A463A9B9A4238BF1346359FBB4200
:1027C00038BF1F46379EB74238BF3E46369DAE42A1
:1027D00038BF3546DDF880C0654538BFAC46DDF80A
:1027E000D090CC4538BFE146DDF898E0F346F1459E
:1027F00038BFCB46399CA0454FF0030838BF4FF097
:102800000208389CA0424FF0040028BF80463B9845
:1028100081424FF0050028BF80463A9882424FF02F
:10282000060028BF8046359883424FF0070028BF36
:102830008046379887424FF0080028BF8046369878
:10284000032786424FF0090028BF80462098854222
:102850004FF00A0028BF8046349884454FF00B00A3
:1028600028BF80460C20F14528BF80460798834545
:102870004FF00D0028BF804624981F9A834690424F
:1028800038BF0246339B9A4238BF1346329EB3424A
:1028900038BF1E46319DAE4238BF3546309885421E
:1028A00038BF28462F99884238BF0146DDF8B890D6
:1028B000494538BF8946DDF8B4C0E14538BFCC464C
:1028C000DDF8B0E0F44538BFE6461E9CA64538BFAB
:1028D000744646941F9CA34538BF0227339CDDF8FD
:1028E00028B0A2424FF0040428BF2746329C40F291
:1028F0001012A3424FF0050328BF1F46319BC2F2BE
:1029000000029E424FF0060328BF1F46309B5C46E4
:102910009D424FF00703099D28BF1F462F9B9842F9
:102920004FF0080028BF07462E9840F2002381424E
:102930004FF0090028BF07462D98C2F200038145D9
:102940004FF00A00DDF8089028BF07462C98479EF4
:1029500084454FF00B0028BF07469DED1C0A9DEDF6
:1029600019CA31EE000A9DED1B1A1E9832EE011AAB
:102970009DED1A2A864533EE022A9DED1D3A4FF051
:102980000C0033EE0C3A9DED18CA30EE0C0A9DEDAA
:1029900017CA31EE0C1A9DED16CA32EE0C2A9DEDC7
:1029A00015CA33EE0C3A9DED14CA30EE0C0A9DEDBB
:1029B00013CA31EE0C1A9DED12CA32EE0C2A9DEDAF
:1029C00011CA33EE0C3A9DED10CA30EE0C0A9DEDA3
:1029D0000FCA31EE0C1A9DED0ECA31EE0D1A32EE11
:1029E0000C2A9DED0DCA32EE0E2A33EE0C3A9DED07
:1029F0000CCA33EE0F3A30EE0C0A31EE291A30EEE3
:102A0000280A32EE2A2A33EE2B3A30EE2C0A31EE27
:102A10002D1A32EE2E2A33EE2F3A30EE0B0A31EE1B
:102A20000A1A32EE092A33EE083A30EE270A31EE5E
:102A3000261A32EE252A33EE243A30EE230A31EEFE
:102A4000221A32EE212A33EE203A30EE070A31EE16
:102A5000061A32EE055A33EE044AB2EE086A28BF6F
:102A6000074680EE063A81EE062A85EE061A84EEC7
:102A7000060A0898469981424FF00D0028BF074684
:102A80000B9882F807B09071C0B233F8100015723D
:102A900082ED113A04EE100A82F8099082ED122AB2
:102AA000967282ED131A82F80BA082ED140A82F856
:102AB0000C805773B8EE444A194634EE434AF0B2DC
:102AC000BDEEC44AE2B214EE10EA0B46BEF1000FAE
:102AD00048BFCEF1000E31F810005FFA8AF304EE21
:102AE000100A01F12000B8EE444AFFB234EE433A36
:102AF000BDEEC33A13EE10BABBF1000F48BFCBF1E5
:102B0000000B30F8122003EE102AB8EE433A33EEF1
:102B1000423ABDEEC33A13EE102A002A48BF524291
:102B200030F8130040F2602303EE100AC2F20003F3
:102B3000B8EE433AE8B233EE422A01F14005BDEE69
:102B4000C22A1FFA8BF112EE10CABCF1000F48BF67
:102B5000CCF1000C33F8100002EE100A5FFA88F096
:102B6000B8EE422A32EE412ABDEEC22A12EE106AB7
:102B7000002E48BF764233F8100002EE100A5FFACA
:102B800089F0B8EE422A32EE411ABDEEC11A11EEBA
:102B9000103A002B48BF5B4235F8100001EE100AD6
:102BA000B8EE411A31EE401ABDEEC11A11EE100A0C
:102BB000002848BF404235F817701FFA8EF501EE25
:102BC000107AB8EE411A31EE400ABDEEC00A10EE9E
:102BD000107A002F48BF7F428D4238BFDE4691B247
:102BE0001FFA8CF51FFA8EF8A94238BF6246B1B2BF
:102BF0009DB21FFA82FCA94238BF1E4681B2BBB209
:102C0000B5B2994238BF3846C44528BF724691B222
:102C100083B2A94288BF324691B2994288BF024628
:102C200090B209F055F99FED1A0B53EC102B09F0F7
:102C3000DBF99FED190B53EC102B08F06FFF09F037
:102C400001F9A0F1650189B240F2BA22914240F245
:102C50001011C2F2000188820CD840F2101201213A
:102C6000C2F200021171D08248B0BDEC108B01B0ED
:102C7000BDE8F08F40F210110020C2F2000108718F
:102C800048B0BDEC108B01B0BDE8F08F00BF00BFB5
:102C90000000000000000840000000000000144098
:102CA00070B540F21F04C2F20004207810384FEAD9
:102CB0003010082800F28E80DFE800F0053B308CF1
:102CC0008C8C8C8C8F00FDF78FFD40F28800C2F257
:102CD000000001780A2909D30021017040F2004068
:102CE000C4F202204FF4805101F050F940F2CC00C0
:102CF000C2F20000102105F063FA40F2A400C2F213
:102D0000000006F033FE40F21C00C2F20000017821
:102D1000202940F095802020207070BDFFF7B8F882
:102D200040F21C00C2F20000017810297BD1102073
:102D30007EE040F2FC05C2F20005687801383228D6
:102D400003D301206870FFF7A3F8A87818B9012011
:102D5000A87007F0E9F940F20446C2F200063078A4
:102D6000B8B940F28C0040F63001C2F20000C2F265
:102D700000010022322304F0DFFE40F22001C2F203
:102D80000001421C086004D0697801203070481CA2
:102D9000687040F28800C2F2000001780A2909D365
:102DA0000021017040F20040C4F202204FF4805133
:102DB00001F0ECF840F2CC00C2F20000202105F056
:102DC000FFF940F21C00C2F20000017810293DD149
:102DD00010203FE01020207070BD40F2FC05C2F2D0
:102DE0000005287860B940F20040C4F202204FF498
:102DF00080510122012601F0D1F804F013FC2E705D
:102E000040F2CC00C2F20000902105F0D9F940F266
:102E10001C00C2F2000000781028DDD110202070C4
:102E20000020287070BD0078202818BF70BD2020B9
:102E3000207040F21410C2F200000021017070BD39
:102E40000178902911D19020207070BD00789028D1
:102E5000C2D19020207040F63000C2F20000002164
:102E60000160C0F80310A97070BD00783028B3D19C
:102E70003020207070BD00007047000072B600BFA7
:102E8000FEE7000040F27040C2F2000000F0BCBD5E
:102E900040F2E840C2F2000000F0B6BDF0B581B0EB
:102EA0000022009290F85420012A03D10221084602
:102EB00001B0F0BD0123076880F85430BB685B07A0
:102EC00043D40B6848F2083C012BC4F2022C09D110
:102ED0004FF6C056CFF6FF765CF8065045F0010578
:102EE0004CF806504E681F22C6F3012506F01F0657
:102EF00007EB8505B2402C6BC3F3846324EA02021E
:102F0000B3401A432A63BA68BB68DB0843EA9202FB
:102F1000D20740F0BB800A688D68C2F3406407F1B5
:102F20001403042606EAD25E53F82460C2F3045464
:102F30000722A240B5F1004F26EA02060BD143F862
:102F40000E601A6842F000430DE0816D41F02001EF
:102F5000816501218CE105FA04F2324343F80E2029
:102F60001A6822F000437B61D1E90435FE68042B26
:102F70005FD13A6E3A6EC2F384620B6893FAA3F49F
:102F8000B4FA84F5C3F3846E6FF31F532C46002B01
:102F900008BF7446A2424FF6FF74C0F20F040CD172
:102FA0003A6E22F000423A660A6802EA0403C2F36B
:102FB000846E92FAA2F2B2FA82F57A6E7A6E002BE1
:102FC000C2F384622E4608BF7646B2420CD17A6EB6
:102FD00022F000427A660A6802EA0403C2F3846EB1
:102FE00092FAA2F2B2FA82F5BA6EBA6E002BC2F36E
:102FF00084622E4608BF7646B2420CD1BA6E22F0E9
:103000000042BA660A6802EA0403C2F3846E92FAC6
:10301000A2F2B2FA82F5FA6EFA6E002BC2F3846263
:1030200008BF7546AA4231D1FA6E22F00042FA6614
:103030002CE0062202EA960207F16004D1F800E0D3
:1030400054F8236005FA02F24FF20005C0F2FF3592
:1030500035400EF0F84632432A4342F0004244F82D
:1030600023200A698B6954F8226026F08076334366
:1030700044F822300A690B7F54F82260012B26F0B5
:10308000007608BF06F1007644F82260BA68D207DD
:1030900057D10D68CA68D7F8B0602B466FF31F533D
:1030A00026EA030E4FF6FF7602F01804C0F20F0670
:1030B00026FA04F41C4044EA0E060024C4F27F04FD
:1030C000A242C7F8B0603CD195FAA5F2B2FA82F4F8
:1030D0002246002B08BFAA0E013202F01E02092A66
:1030E0004FEA95650CD8002B14BF621C6A1C02F0D5
:1030F0001F03012203EB43069A4042EA065312E003
:10310000002B14BF621C6A1C02F01F0303EB430276
:103110000025CFF62065012605EB025206FA03F3DF
:103120001A4342F000738A68C3F34066072407EB32
:1031300086067569C3F304539C40A5439A402A430D
:1031400072610B680021C8F208010B422ED0DCF836
:1031500000500021CCF221318B4205F0E07108BF14
:1031600015F4000224D00422C8F66002934208BF7E
:1031700015F0807222D00022CCF25272934208BF26
:1031800015F4800220D0ACF542718F424FF000015F
:103190006ED04022C9F62012934269D1D7F8C810E8
:1031A00041F00201C7F8C810002161E000215FE092
:1031B000ACF5427297420DD0002159E0ACF5427255
:1031C00097423BD0002153E0ACF5427297423DD08C
:1031D00000214DE0DCF8002022F0E072114341F4C0
:1031E0000001CCF8001040F21801C2F20001096899
:1031F00042F663528909C0F23E52A1FB02129109C4
:10320000022202EB41010091009951B3009901396A
:103210000091009939B3009901390091009921B3C7
:10322000009901390091009909B300990139009181
:10323000009900294FF00001E8D119E0DCF80020E6
:1032400022F0E072114341F0807106E0DCF80020CA
:1032500022F0E072114341F48001CCF8001000210B
:1032600006E0002104E0002102E0002100E000214E
:10327000002280F85420084601B0F0BD70470000DD
:103280007047000070470000B0B582B004460020CF
:1032900001904CB1A06D50B121688868800011D4B4
:1032A0008868C00018D54AE0012002B0B0BD2046B1
:1032B00000F0EAF80020E06584F85400216888688E
:1032C0008000EDD588684FF6C072C5F6FF721040D9
:1032D00088608868C00032D44FF6C0728868C5F62E
:1032E000FF7202F18052104000F18050886040F27D
:1032F0001800C2F20000006842F663528009C0F272
:103300003E52A0FB02029009022202EB4000019013
:103310000198A0B1019801380190019878B1019805
:1033200001380190019850B101980138019001983D
:1033300028B101980138019001980028EAD18868E5
:10334000C00009D4A06D40F01000A065E06D40F011
:103350000100E065012000E000208A68C2F38002DD
:10336000A36D03F01003D218A26D05D042F0100136
:103370000120A16502B0B0BD22F481720232A265C3
:103380008A68D20712D148F208324FF60053C4F2CD
:103390000222CFF6FF73D358DB0707D1D4F804C05D
:1033A000136823F47C1343EA0C031360627EA36B5F
:1033B00043EA4232D4E902C31A4394F8203042EA85
:1033C0000C0242EA034E012B08D1D4F824C000239A
:1033D000CFF6FE7303EB4C434EEA030EA36A3BB1F8
:1033E00003F47873D4F82CC043EA0E0242EA0C0EC0
:1033F000CB6844F20702CFF6F0721A4042EA0E029E
:10340000CA600A69236B22F040621A430A618A6823
:10341000120727D494F83430227E5B0094F83CC025
:1034200043EA823ECB6844F2020223EA020242EA05
:103430000E02CA600A69BCF1010F10D140F2FD739F
:1034400022EA030CD4E91032D4E912E543EA0C0372
:103450001A4342EA0E022A4342F0010201E022F03E
:1034600001020A6122690B6B012A23F00F0202BFDD
:10347000E369013B1A430A63A16D012262F3010172
:10348000A16502B0B0BD00002DE9F043A9B004462B
:10349000002640F2000902A88821CDE92766CDE97F
:1034A0002566C4F202292496FDF72FF8206809F555
:1034B0000041884202D029B0BDE8F0834FF40010EB
:1034C000029002204FF00108252103960490CDF8C8
:1034D0001480CDE906100421099108210890CDE956
:1034E0000A164FF480510C914FF480211B9002A8D2
:1034F0000D9101F06BFB002818BFFFF7BFFC40F6F1
:103500008C40C4F20240016824AE41F48061016045
:103510000168032501F48061019101990168002788
:1035200041F001010160016801F00101019101997F
:10353000016841F0020101600068314600F00200BC
:1035400001900198FE20249048462595269700F08A
:1035500051FC09F580603146CDE92485269700F0BD
:1035600049FC40F2E84540F2D031C2F200054FF488
:103570000020C4F202014FF48032C5E90017C5E90A
:103580000277C5E904702846C5E90682C5E90878CE
:10359000C5E90A87C5E90C7700F016FB002818BFBB
:1035A000FFF76CFC284610212565EC6500F004FA55
:1035B000002818BFFFF762FC29B0BDE8F0830000C7
:1035C00070B59CB0044600688068400703D494F846
:1035D0005400012802D102201CB070BD012084F8E3
:1035E0005400204616460D46FDF780F820B1002114
:1035F00084F854101CB070BDA06D40F60171884372
:1036000000F58070A065A06D40F25563C0044FF0D6
:10361000000044BFE06D20F00600E065206DC0F6BC
:103620000003216840F2E562036640F2CD63C0F614
:103630000002C0F600034FF0000CC0E919231C2261
:103640000A6084F854C04A6842F010024A60CA68AE
:1036500042F00102CA6090F85020120606D4826936
:10366000012A0ED0022A08BFB6000BE0406F28B135
:10367000016819B101A800F029F898B101201CB027
:1036800070BD760040312A46334600F04BFB21687E
:103690004FF6C0738A68C7F6FF731A4004328A6017
:1036A0001CB070BD0798012803D0022808BFB600DF
:1036B00000E07600206D2268416F40320968C1E960
:1036C00002620D6100F0A6F8E1E7000080B5002875
:1036D0004FF0010218BF002901D1104680BD91F8BA
:1036E00020C042F20002C0F800C00B68C0F60042E1
:1036F00003F0080303610B6803F4002343610B68C4
:1037000003F0030383610B6803F44033C3610B6868
:10371000C3F30513013343620B68C3F3055301334D
:1037200083620B6803F04023C3620B681A40826314
:103730000A6802F4C052C2634B689A0508D4DAB230
:1037400042604A79520754BF00224FF4806202E07F
:103750004FF400724260C2604A6802F40062826004
:103760004A6802F4404202644A6802F040724264CD
:10377000CA8802F03F0282644A6802F04042026353
:103780000B891CF0020283660FBF01234B896FF384
:10379000DF230133C364CB6803660B69436632B928
:1037A0000022C0E91422C0E91622104680BD4B69F0
:1037B0006FF35F330365B1F816C06FF35F3CC0F879
:1037C00054C0D1F808E05FEACE0203D55A42026540
:1037D000D1F808E05FEA8E0244BFCCF100024265F6
:1037E000B1F818E0C0F858E08A694FEA124CC0F806
:1037F0005CC08A68530003D5CEF1000282658A68F6
:10380000B2F1FF3FC4BF002080BDCCF10001C16513
:10381000002080BD80B5002856D0436F002B53D0C8
:1038200090F85410D0F800E00129DEF814C004D05C
:1038300002294BD11CF4803148D090F85410012952
:103840003AD190F84C1001294FF0020144D00122E6
:1038500080F84C2080F8541019730021816519619B
:10386000DEF8141041F4BA41CEF81410416E29B1BB
:10387000DEF8141041F40071CEF81410006F28B176
:10388000DEF8140040F40050CEF81400186800224E
:10389000016ACFF60102490861F3596261F39A6245
:1038A0004FF6FF7120EA0101CEF800104FF6FC71CF
:1038B00008401044CEF87C00DEF8140040F001000F
:1038C000CEF81400002080BD012080BD402181651C
:1038D000002180F84C100121084680BDB0B5044697
:1038E00000F062FB002C04BF0120B0BD054694F837
:1038F000540002282DD12168486940F00400486135
:10390000052084F854000869800408D400F04CFBBA
:10391000401B052824D8216808698004F6D5486929
:10392000012240F002004861042084F854004FF462
:10393000FE40C86084F8542094F8500000064FF010
:10394000000002D5636F1A738864002184F84C105C
:10395000B0BD2020A0650120002184F84C10B0BD2E
:10396000A06D40F01000A065032084F8540094F886
:10397000500000064FF0010044BF616F0873002142
:1039800084F84C10B0BD0000002804BF012070472F
:1039900090F8541002290AD1042180F854100068CC
:1039A00042F2040241691143416100207047202125
:1039B0008165012070470000024600284FF0010099
:1039C00008BF7047126802F57B63C3F3C41CCB06C3
:1039D0005CBF0020704740F6FF7301F011019A436D
:1039E000112900FA0CF004D15168084350600020FE
:1039F0007047516821EA00005060002070470000C5
:103A000090F854007047000010B5044600680C227E
:103A1000034600F57B6162F30B03C1F3C4111A681E
:103A200022FA01F1C90700F0A3800169490544BFEA
:103A300041695FEA41514BD40169090544BF4169BD
:103A40005FEA01514CD40169C90444BF41695FEA8E
:103A5000C1414DD40169490444BF41695FEA414114
:103A60004ED40169890544BF41695FEA81514FD451
:103A70000169890444BF41695FEA814152D4016907
:103A8000C90544BF41695FEAC15172D4A06D0028E5
:103A900008BF10BD2068416941F0020141614069E1
:103AA000C0074FF0030008BF012084F8540094F8C9
:103AB0005000000602D5606F01210173A16E002045
:103AC000002984F84C0053D02046BDE81040084738
:103AD0004FF48061C160A16D41F00101A165ABE7C8
:103AE0004FF40061C160A16D41F00201A165AAE738
:103AF0004FF48051C160A16D41F00401A165A9E7B7
:103B00004FF48041C160A16D41F00801A165A8E7B3
:103B10004FF40071C160616E0029A9D0204688472A
:103B20002068A5E74FF40051C16094F854100429AF
:103B30002AD1416921F400514161416941F00201FA
:103B400041614169C9074FF0030108BF012184F8B1
:103B5000541094F85010090604D5616F01220A73BD
:103B600000218164E16E0020002984F84C00ABD173
:103B700010BD94F85010090611D4816C002904BFBF
:103B8000012184F8541013E0052184F85410216FAA
:103B900000293FF474AF2046884720686FE7C16F63
:103BA00031B9816C21B9012184F85410626F11730D
:103BB0004FF44071C160216E0020002984F84C0050
:103BC0001CBF2046884761E7B0B5044600F0ECF919
:103BD000002C04BF0120B0BD00210546206884F8F8
:103BE0004C10022184F85410416941F006014161F2
:103BF0004169C90709D000BF00F0D6F9401B05286C
:103C00004FD820684169C907F6D1216A426904F199
:103C1000100C22F4430211434161E3699CE8061051
:103C20001A4311434FF6B072CBF6FD7283186FF052
:103C30001F0202EBF31541EA0C02082D4FEAF31CB8
:103C400028BFBCF1070F14D804F1240E9EE82840C9
:103C50004FF07C7101EB05514FF47C7505EB0313BC
:103C600001F07C7142EA0E0203F47C73114341EAD5
:103C700003020264A1682279E3681143226BB3F561
:103C8000007F42EA010213D0B3F5806F12D1ACF18C
:103C90002001082928BFBCF1070F98BF42F48062B9
:103CA00008E0012003211022A26584F85410B0BD61
:103CB00042F40072616B436C42F20015C3F6C045DA
:103CC0000A432B401A4341F24F33C4F202034264C9
:103CD0000022984282640CDC40F25032C4F20202AC
:103CE000904212D040F2D032C4F2020290420CD084
:103CF0000EE041F2D032C4F20202904205D041F20D
:103D00005032C4F20202904202D100224265826522
:103D10000022C267216501210020A26584F85410A9
:103D2000B0BD000010B500284DD090F84CC0BCF1DB
:103D3000010F04BF022010BD4FF0010C80F84CC0F1
:103D400090F854C0BCF1010F38D14FF0020C80F84C
:103D500054C04FF0000CC0F858C0D0F800C0D0F8E4
:103D600064E0DCF84840BEF1000FC3EA0403CCF87D
:103D700048304FF4FE43CCF80C30CCF84C10CCF863
:103D80005020DCF8141041F4BA41CCF8141005D0DE
:103D9000DCF8141041F40071CCF81410006F28B155
:103DA000DCF8140040F40050CCF81400DCF81400E7
:103DB00040F00100CCF81400002010BD40218165C6
:103DC000002180F84C10012010BD0000B0B5044661
:103DD00000F0EAF8054640F21000C2F20000007858
:103DE000611C18BF044400BF00F0DEF8401BA04275
:103DF000FAD3B0BD2DE9F04F82B00C68002C00F072
:103E0000C28047F67F72C0F22F0202EA90224FF082
:103E100001090092002200260027012501900FE0F1
:103E2000BCF1030F5FD100BF0C68083734FA05F30B
:103E300005F1010506F1020602F1040200F0A3807B
:103E4000A5F1010A09FA0AFE14EA0E0BECD0D1F82A
:103E500004C04CF01004122C1FD16FF0030303EACE
:103E60005A0402F01C0300EB0409D9F820C058469C
:103E7000D1F810B00F2404FA03F80BF00F042CEA69
:103E8000080C04FA03F343EA0C0383460198C9F8CB
:103E90002030D1F804C04FF0010903680324B44076
:103EA0006FEA0408A3430CF00304B4402343BCF1BD
:103EB000120F036017D809FA0CF313F0061FAFD0E6
:103EC0008368CC6803EA0803B440234383604368F3
:103ED0004FEA1C1423EA0E0304FA0AF42343BCF14C
:103EE000030F4360A0D0C3688C6803EA0803B440A2
:103EF00023435FEACC04C36096D542F200082AF05F
:103F00000303C4F2024808EB030EDEF860C007F0BA
:103F100018040F23A3402CEA030C009B03FA04F4BB
:103F20004CEA0403CEF86030D8F800C0D1F804E0C1
:103F30004CEA0B035FEACE2458BF2CEA0B03C8F807
:103F40000030D8F804C05FEA8E234CEA0B0458BF57
:103F50002CEA0B04C8F80440D8F884C05FEA8E331A
:103F60004CEA0B0458BF2CEA0B04C8F88440D8F87C
:103F700080C05FEACE334CEA0B0458BF2CEA0B0436
:103F8000C8F8804050E702B0BDE8F08F426902EA0D
:103F90000103914341EA0341816170471823002ADC
:103FA00008BF2823C150704740F67800C2F20000D5
:103FB0000068704740F20041C4F20301086840F015
:103FC000010200200A60704740F2100040F67801BC
:103FD000C2F20000C2F2000100780A6810440860D2
:103FE0007047000080B5032000F086F801F0FEFA6B
:103FF00040F62041C4F2024109684CF2F06201F03F
:104000000F01C0F60002515CC84040F21801C2F234
:10401000000108600F2000F009F800281CBF0120F3
:1040200080BD00F02BF8002080BD000070B540F28C
:104030001006C2F200063178002904BF012070BDCD
:10404000044640F21800C2F200004FF47A72006891
:10405000B2FBF1F1B0FBF1F002F05CF90F2C4FF084
:10406000010508D838B94FF0FF302146002200255D
:1040700000F016F87460284670BD0000704700001C
:10408000002848BF704700F01F01012202FA01F129
:104090004EF200124009CEF2000242F820107047A2
:1040A00010B54EF60C5CCEF2000CDCF80030C3F319
:1040B000022E8EF00704042C28BF0424BEF1030353
:1040C0004FF0FF3E38BF00230EFA04F4A14399409D
:1040D0000EFA03F39A4300F00F03043B11436344C9
:1040E00009010C3300F16042B0F1FF3FC8BF02F597
:1040F0006443197010BD00004EF60C51CEF2000161
:104100000A684FF6FF031A4060F30A2242F080600B
:1041100040F0FD700860704710B540F6284CC4F2BE
:10412000024CDCF80CE0DCF80010DCF80030C3F3E3
:104130000523DCF80020DCF8104002F01002C4F384
:10414000CC0404FB02F200EE102AB8EE400A8BB356
:1041500001F0030103296FF35F2E30D0022933D021
:1041600001295CF8281C49F20002C1F3C101C0F228
:10417000D03222FA01F101EE101A02EE103AB8EE36
:10418000411AB8EE422A9FED4D3A81EE021A02EE34
:1041900010EA20EE030AB8EE422A30EE020AB7EE29
:1041A000002A30EE022A5CF8281C22EE010A89015E
:1041B0002AD525E00021C0E90011816010BD01EE83
:1041C000103A9FED3D2A03E001EE103A9FED3C2AA4
:1041D000B8EE411A82EE012A01EE10EA9FED373A5D
:1041E000B8EE411A20EE030A30EE010AB7EE001ACB
:1041F00030EE011A5CF8281C22EE010A890103D571
:10420000DCF80010C90306D4002101605CF8281C0A
:10421000890117D41AE0DCF80C10B7EE002AC1F3BC
:10422000462101EE101AB8EE411A31EE021A80EE64
:10423000011ABCEEC11A11EE101A01605CF8281CBC
:10424000890103D5DCF80010890301D4002111E0B5
:10425000DCF80C10B7EE002AC1F3064101EE101A8B
:10426000B8EE411A31EE021A80EE011ABCEEC11A04
:1042700011EE101A41605CF8281C890144BFDCF87B
:1042800000105FEA413102D40021816010BDDCF8EA
:104290000C10B7EE002AC1F3066101EE101AB8EE59
:1042A000411A31EE021A80EE010ABCEEC00A10EE8D
:1042B000101A816010BD00BF0024F44A00000039CC
:1042C0000024744A10B540F62C4CC4F2024CDCF8C1
:1042D00010E0DCF80010DCF80030C3F30523DCF854
:1042E0000020DCF8144002F01002C4F3CC0404FBFC
:1042F00002F200EE102AB8EE400A8BB301F003017F
:1043000003296FF35F2E30D0022933D001295CF8E6
:104310002C1C49F20002C1F3C101C0F2D03222FAD2
:1043200001F101EE101A02EE103AB8EE411AB8EEA1
:10433000422A9FED4D3A81EE021A02EE10EA20EE7B
:10434000030AB8EE422A30EE020AB7EE002A30EE37
:10435000022A5CF82C1C22EE010A09012AD525E06C
:104360000021C0E90011816010BD01EE103A9FEDFF
:104370003D2A03E001EE103A9FED3C2AB8EE411AC7
:1043800082EE012A01EE10EA9FED373AB8EE411AAB
:1043900020EE030A30EE010AB7EE001A30EE011AE1
:1043A0005CF82C1C22EE010A090103D5DCF8001090
:1043B000C90306D4002101605CF82C1C090117D444
:1043C0001AE0DCF81010B7EE002AC1F3462101EE26
:1043D000101AB8EE411A31EE021A80EE011ABCEE44
:1043E000C11A11EE101A01605CF82C1C090103D5EA
:1043F000DCF80010890301D4002111E0DCF8101072
:10440000B7EE002AC1F3064101EE101AB8EE411AC8
:1044100031EE021A80EE011ABCEEC11A11EE101A2A
:1044200041605CF82C1C090144BFDCF800105FEA15
:10443000413102D40021816010BDDCF81010B7EECC
:10444000002AC1F3066101EE101AB8EE411A31EEEE
:10445000021A80EE010ABCEEC00A10EE101A81604A
:1044600010BD00BF0024F44A000000390024744A43
:1044700080B584B04FF6FF730246C0F21F030020E0
:104480009B1A70EB010347DA6FF060439B1A70EBE5
:104490000103C0F286806FF07C439B1A4FF000034B
:1044A0008B4180F2D78082F080630B4300F09081D3
:1044B00082F000630B4300F0A08182F08052114330
:1044C00040F0A48240F60041C4F20241D1F8E0007D
:1044D000C0F3C202042A00F2C08248F20000C0F217
:1044E000BB00DFE812F0C9028D02BA029302050098
:1044F000D1F8E8000B6810F04042086803D113F0CF
:10450000020340F02D83B2F1804F40F0518310F44C
:10451000007040F047834BE341F6FF739B1A70EB4A
:10452000010363DA4FF6FF739B1A4FF000038B41D0
:1045300080F2D28082F480330B4300F0888182F4D1
:1045400000330B4300F09F8182F48022114340F03E
:104550005D8240F60041C4F20241D1F8DC00C0F3B4
:1045600002320020052A00F25182DFE812F06C02CC
:1045700049024F029B02A3020600D1F8E8000B6833
:1045800010F04042086803D113F0020340F0E882C3
:10459000B2F1804F40F00C8310F4007040F00283C1
:1045A00006E30F2940F3C78081F01003134300F0A6
:1045B000828181F40073134300F09B8181F4805168
:1045C000114340F0238240F60041C4F20241D1F889
:1045D000E40000F04060B0F1806F00F0F881002846
:1045E00000F065810A68B0F1006F42E1D2F1030387
:1045F0004FF000038B41C0F2BD8082F001030B43FA
:1046000000F08B8182F00202114340F0FF8140F6FE
:104610000040C4F20240D0F8D81011F0380100F088
:1046200012820268082903D112F0006240F0188259
:1046300003680268182903D113F0020340F00082D6
:10464000202903D112F4007240F0AC82D0F8F000BF
:10465000282999E282F400130B4300F0818182F053
:104660000072114340F0D28140F60041C4F2024191
:10467000D1F8F000D1F8F02000F44070B0F5807F60
:1046800003D112F0020240F04481D1F8F020B0F5DD
:10469000007F06D112F000621EBF4FF4FA4004B052
:1046A00080BD0A68B0F5407F4FF0000040F0AE8159
:1046B00012F4003200F0AA81C86910F4785F00F0AB
:1046C000CC81C86941F20021C0F30520C0F27A0113
:1046D000B1FBF0F004B080BD82F400530B4300F056
:1046E000538182F48042114340F0908140F60040B3
:1046F000C4F20240D0F8E41001F44021B1F5802F5B
:1047000000F06581002900F09E8102680068B1F523
:10471000002F03D112F0020240F0228210F4007048
:104720001CBF40F60010C0F23D00B1F5402F18BF8D
:10473000002004B080BD82F000530B4300F04D8197
:1047400081F00401114340F0618140F60041C4F260
:104750000241D1F8E800096810F4407040F0778118
:1047600011F4003100F0738141F20020C0F27A00B0
:1047700004B080BD82F004030B4300F0498182F451
:104780008052114340F0428140F60040C4F20240A2
:10479000D0F8E01001F0E061B1F1807F00F06081BD
:1047A000002900F0848003680268B1F1407F03D1E2
:1047B00013F0020340F04481B1F1806F03D112F491
:1047C000007240F0EF81D0F8F000B1F1A06FDBE1B2
:1047D00040F60040C4F20240D0F8E810026811F040
:1047E000300140F0438112F4005200F03F8146F660
:1047F0000040C0F2DC2004B080BD40F60041C4F2AD
:104800000241D1F8E00000F00702042A00F22581FD
:1048100048F20000C0F2BB00DFE812F02E01F20007
:104820001F01F8000500D1F8E8000B6810F04042C5
:10483000086803D113F0020340F09281B2F1804F77
:1048400040F0B68110F4007040F0AC81B0E140F669
:104850000041C4F20241D1F8E40000F04070B0F130
:10486000807F00F0B480002800F0ED800A68B0F18D
:10487000007F4FF0000040F0C98012F0020200F00B
:10488000C58008686CE140F60041C4F20241D1F8ED
:10489000DC00C0F302220020052A00F2B780DFE826
:1048A00012F00600AF00B50001010901550100F04A
:1048B00079FE04B080BD40F60040C4F20240D0F85A
:1048C000E41001F03001102900F0D68002682029A0
:1048D00003D112F0006240F0C380006810F4005071
:1048E0001CBF46F60040C0F2DC20302918BF002073
:1048F0008CE040F60040C4F20240D0F8E810D0F856
:10490000F02011F0080140F0BD8012F0020200F02A
:10491000B9804FF4004004B080BD40F60040C4F2BE
:104920000240D0F8D81011F0070100F0B7800268FB
:10493000012903D112F0006240F0928003680268FE
:10494000032903D113F0020340F07A80042903D134
:1049500012F4007240F02681D0F8F000052913E12E
:1049600040F60040C4F20240D0F8E81001F0070120
:1049700002292CD0012900F0A680002940F0A78050
:1049800000F0B0FD04B080BD40F60040C4F202402B
:10499000D0F8E41001F44031B1F5803F17D0002980
:1049A00051D002680068B1F5003F03D112F0020255
:1049B00040F0D68010F400701CBF40F60010C0F22A
:1049C0003D00B1F5403F18BF002004B080BD01A8F4
:1049D000FFF778FC039804B080BD40F60041C4F2B4
:1049E0000241D1F8E000C0F38212042A35D848F21F
:1049F0000000C0F2BB00DFE802F03F03300998007E
:104A000001A8FFF75FFC019804B080BD04B080BD31
:104A100040F60040C4F20240D0F8D81011F4E07122
:104A200011D00268402902D112F0006218D1036847
:104A30000268C02940F09E8013F0020300F09A80C3
:104A4000C2F3C1008EE000F065FD04B080BDB0F59A
:104A5000007F05D0B0F5807F0ED0002004B080BD6F
:104A600001A8FFF72FFC029804B080BD026810294E
:104A700047D112F0007244D001A8FFF74DFB029815
:104A800004B080BDD0F8F00010F0006018BF4FF403
:104A9000FA40002908BF084604B080BD00F05EFD62
:104AA00004B080BDD1F8F0004FF4004101EA80303D
:104AB00004B080BDD1F8F0004FF4FA41000101EAE2
:104AC000E07004B080BD00F091FD04B080BD0268CC
:104AD000032903D112F400327FF446AE0268006865
:104AE000042902D112F002023AD110F400701CBF66
:104AF00040F60010C0F23D00052918BF002004B0A8
:104B000080BDD0F8F020202903D112F002027FF4FA
:104B100000AFD0F8F00010F0006018BF4FF4FA407A
:104B2000302918BF002004B080BDD1F8E8000B6820
:104B300010F04042086802D113F0020310D1B2F124
:104B4000804F35D110F400702CD131E0D1F8E8005D
:104B50000B6810F0404208681ED113F002031BD00E
:104B6000C0F3C10049F20001C0F2D03121FA00F0D7
:104B700004B080BDB1F5807F02D112F4007211D172
:104B8000D0F8F000B1F5A07F00F002024FF0000075
:104B900008BF900304B080BDB2F1804F08D110F47B
:104BA000007005D040F60010C0F23D0004B080BD9A
:104BB000086810F400301CBF41F20020C0F27A00F7
:104BC000B2F1004F18BF002004B080BD2DE9F047BE
:104BD0000446006840F62848C101C4F2024807D5DF
:104BE000D8F8C010226B21F040411143C8F8C01022
:104BF000C00714D0606BC11E032909D340B101283E
:104C000013D104F1080003F0DBF9064640B9606BEC
:104C1000D8F8B01021F007010843C8F8B00000260A
:104C20002078800705D4354621E0012620788007CA
:104C3000F9D5A06B6FF0020101EBF00135460329B5
:104C40000AD34FEAF000354630B1012830D104F1E3
:104C5000080003F0B5F905462F464DB9D8F8B00065
:104C6000A16B20F0380008430025C8F8B000374693
:104C70002078400721D5E06B6FF0020101EBB01105
:104C8000032909D34FEAB01030B1012836D104F11D
:104C9000080003F095F905462E467DB9D8F8B00016
:104CA000E16B20F4E07008430025C8F8B00004E090
:104CB0000125012720784007DDD43E466078C006F4
:104CC00021D5206C6FF0020101EB3061032909D37B
:104CD0004FEA306030B101283CD104F1080003F004
:104CE0006FF905462F467DB9D8F8B800216C20F041
:104CF000E06008430025C8F8B80004E0012501265B
:104D00006078C006DDD437466078800627D5606CB1
:104D10006FF0010101EB3041022909D34FEA304025
:104D200030B1012810D104F1080003F049F905461B
:104D30002E465DB9D8F8BC00616C20F440300843C1
:104D40000025C8F8BC000AE001250126607840066D
:104D500009D424E00125012760788006D7D43E4697
:104D6000607840061BD5A06C6FF0010101EBB041EB
:104D7000022909D34FEAB04030B1012830D104F103
:104D8000080003F01DF905462F464DB9D8F8BC00C0
:104D9000A16C20F4402008430025C8F8BC00374629
:104DA000A078C00721D0E06C002818BFB0F1007FC8
:104DB0000BD12E46D5B9D8F8BC00E16C20F040707C
:104DC00008430025C8F8BC000FE0B0F1807F2DD16A
:104DD00004F1080003F0F4F805462E4635B9EAE779
:104DE00001250127A078C007DDD13E466079C006C5
:104DF00021D5206D002818BFB0F1006F0BD12F46D0
:104E0000D5B9D8F8BC00216D20F0406008430025DA
:104E1000C8F8BC000FE0B0F1806F61D104F1080068
:104E200003F0CEF805462F4635B9EAE701250126FD
:104E30006079C006DDD43746D4E9000140F61C4A4B
:104E4000C4F2024A09050CD5DAF8001021F4004139
:104E5000CAF80010D4F88010DAF800201143CAF81C
:104E6000001080031BD5606D6FF0020101EB302153
:104E7000032909D34FEA302030B1012833D104F19E
:104E8000080003F09DF805462E464DB9D8F8B40049
:104E9000616D20F4E06008430025C8F8B4003E4688
:104EA000A078400724D5A06D6FF0020101EB3031EE
:104EB000032909D34FEA303030B1012828D104F159
:104EC000080003F07DF805462F4695B9D8F8B400E0
:104ED000A16D20F4E04008430025C8F8B40007E0C5
:104EE00001250127A8E701250126A0784007DAD48B
:104EF0003746A078800610D5606E052828D802288D
:104F00002DD029469DB3D4E9000292050AD43CE095
:104F100001250127A0788006EED43946D4E90002A5
:104F2000920532D5A26E42F00803082B0AD1A94699
:104F30005DB9D8F8C030002523F008031A43C8F83B
:104F4000C02022E001254FF00109800120D47AE041
:104F500001250121D4E900029205E3D415E004F112
:104F6000080003F02DF80546002D2946CBD1D8F8CE
:104F7000C000616E20F0070008430025C8F8C0009B
:104F80003946D4E900029205CCD4894680015AD52D
:104F90004FF60847CFF6FF775AF8070040F00100B8
:104FA0004AF80700FFF700F8064600BF5AF8070066
:104FB000C00707D1FEF7F8FF801B0228F6D90325AA
:104FC000032041E0002D28463ED1D8F8C80010F457
:104FD000407017D0A16F884211D0D8F8C800D8F817
:104FE000C81020F4407041F48031C8F8C810D8F8D7
:104FF000C81021F48031C8F8C810C8F8C800C0072C
:1050000040F02A81A06FDAF800104FF6CF7300F459
:10501000407221F47C51C0F2FF0303EA1013B2F591
:10502000407F08BF1943CAF80010D8F8C8106FF3C2
:105030001F3021F44071C8F8C810D8F8C8100025F6
:105040000843C8F8C800484621684A011BD5226EAB
:105050006FF0010303EB3213022B0AD34FEA321332
:105060003BB1012B2ED1D8F8003043F40033C8F8FF
:1050700000302F4645B9D8F8C030002523F0300362
:105080001A43C8F8C020074608011FD5E06EC11EAC
:1050900002290BD3012800F0B880002840F0BF801F
:1050A000D8F8000040F40030C8F800002E4675B96A
:1050B000D8F8B800E16E20F0070008430025C8F8D2
:1050C000B80003E0012501270801DFD43E46E0785F
:1050D000C0061FD5206F6FF0020101EBF00102291D
:1050E0000DD34FEAF000012800F09C80002840F02A
:1050F000A380D8F8000040F40030C8F800002F4624
:105100004DB9D8F8B800216F20F0380008430025C9
:10511000C8F8B8003746E07880061FD5606F6FF09A
:10512000020101EBB01102290DD34FEAB0100128A2
:1051300000F08580002840F08C80D8F8000040F412
:105140000030C8F800002E464DB9D8F8B800616F9D
:1051500020F4E07008430025C8F8B8003E462079E6
:10516000400720D5E06D58B1B0F5007F0BD0B0F509
:10517000807F47D1D8F8000040F40030C8F8000024
:105180002F468DB906E004F1080002F019FF05462C
:105190002F464DB9D8F8C000E16D20F440700843A7
:1051A0000025C8F8C00037462079C0065CBF3846E5
:1051B000BDE8F087E06F30280DD020280FD01028F0
:1051C0001EBF01252846BDE8F087D8F8000040F44E
:1051D0000030C8F800004DB12846BDE8F08704F162
:1051E000080002F0EDFE0546002DF5D1D8F8BC0010
:1051F000E16F20F0300008433D46C8F8BC00284667
:10520000BDE8F08701250127CEE704F1080002F090
:10521000D7FE0546002D2E467FF459AF48E70125FD
:10522000012654E704F1080002F0CAFE0546002DED
:105230002F467FF470AF64E7012501276BE704F187
:10524000080002F0BDFE0546002D2E467FF487AF14
:105250007BE70125012682E7FEF7A6FE064641F21E
:1052600088370325D8F8C80080073FF5CBAEFEF796
:105270009BFE801BB8424FF00300F3D9E4E6000028
:105280002DE9F04381B0002800F0CA8042F2000806
:10529000C4F202080446D8F800000D4600F00F00E2
:1052A00088420DD2D8F8000020F00F002843C8F83B
:1052B0000000D8F8000000F00F00A84240F0B080D5
:1052C000206840F62047C106C4F202470CD5616948
:1052D0003A68702303EA1222914205D93A6822F40F
:1052E000E04242EA0121396001070CD521693A68A0
:1052F000702303EA1212914205D93A6822F4E0625F
:1053000042EA0111396041070AD5E1683A6802F0C2
:105310007002914204D93A6822F070021143396058
:1053200081070AD5A1683A6802F00F02914204D9B8
:105330003A6822F00F0211433960C00767D1206834
:1053400081070AD5A1683A6802F00F02914204D29F
:105350003A6822F00F0211433960D8F8001001F0CA
:105360000F01A9420CD9D8F8001021F00F012943F0
:10537000C8F80010D8F8001001F00F01A9424FD171
:1053800041070AD5E1683A6802F07002914204D2FE
:105390003A6822F070021143396001070CD5216987
:1053A0003A68702303EA1212914205D23A6822F455
:1053B000E06242EA01113960C0060CD560693968C3
:1053C000702202EA1121884205D2396821F4E041B5
:1053D00041EA0020386000F009F939684CF2F062C7
:1053E00001F00F01C0F60002525C40F21401C2F25B
:1053F0000001096840F2180320FA02F2C2F2000329
:1054000008461A6001B0BDE8F043FEF70FBE6068C1
:10541000022809D003285BD157F8201C890107D442
:10542000012001B0BDE8F08357F8201C8903F7D5AF
:1054300057F8041C21F00301084347F8040CFEF759
:10544000B3FD61680646032941F288392BD0022951
:1054500037D0012910D100BF57F8040C00F0180014
:1054600008283FF46CAFFEF79FFD801B48454FF0C6
:105470000300F1D90DE000BF57F8040C10F0180F2D
:105480003FF45DAFFEF790FD801B48454FF00300F1
:10549000F2D901B0BDE8F083FEF786FD801B4845D8
:1054A0004FF00300F5D857F8040C00F01800182846
:1054B000F2D144E7FEF778FD801B48454FF003002A
:1054C000E7D857F8040C00F018001028F2D136E79E
:1054D00057F8201C012802D18905A1D5A8E7890722
:1054E0009ED5A5E780B500F081F840F62041C4F2D2
:1054F000024109684CF2F06201F00F01C0F60002AF
:10550000515C01F01F01C84040F21801C2F20001D5
:10551000086080BD80B500F069F840F62041C4F213
:1055200002410A684CF2F06302F00F02C0F6000379
:105530009A5C02F01F02D04040F21802C2F2000250
:10554000106009684CF20072C1F30211C0F600024B
:10555000515C01F01F01C84080BD000080B500F023
:1055600045F840F62041C4F202410A684CF2F0636B
:1055700002F00F02C0F600039A5C02F01F02D04056
:1055800040F21802C2F20002106009684CF2007288
:10559000C1F30221C0F60002515C01F01F01C840B6
:1055A00080BD000080B500F021F840F62041C4F233
:1055B00002410A684CF2F06302F00F02C0F60003E9
:1055C0009A5C02F01F02D04040F21802C2F20002C0
:1055D000106009684CF20072C1F30231C0F600029B
:1055E000515C01F01F01C84080BD000080B540F64D
:1055F0000041C4F20241C86900F01800082802BF47
:1056000040F60010C0F23D0080BDC86910F0180FD0
:1056100034D0C86900F01800102802BF41F2002001
:10562000C0F27A0080BDC86900F01800182849F25D
:105630000000C0F2D03063D1D1F828E08A6AC2F30A
:10564000052C8A6ABCF1000FC2F300128B6BC3F306
:10565000CC0303FB02F200EE102AB8EE400A04BFAE
:10566000002080BD0EF00303032B14D0012B15D1B5
:105670000A68920615D49FED241A1AE0086880067D
:1056800049F20000C0F2D03058BF80BD0968C1F3B4
:10569000C101C84080BD9FED1B1A0AE09FED1B1A97
:1056A00007E00A68C2F3C102D04001EE100AB8EE6A
:1056B000411A02EE10CA9FED163AB8EE422A486B24
:1056C00081EE021A6FF35F2002EE100A20EE030A49
:1056D000B8EE422A486B30EE020AB7EE002AC0F359
:1056E000462030EE020A013021EE000A01EE100AD7
:1056F000B8EE411A80EE010ABCEEC00A10EE100AA4
:1057000080BD00BF0024F44A0024744C0024744A75
:10571000000000392DE9F04381B0002800F0388105
:1057200040F6004740F6F0490446C4F20247C4F28E
:105730000249F86959F8C81C227800F01808D00608
:1057400001F0030628D5B8F1080F1AD0B8F1180FE8
:1057500008BF022E15D0E1693868002900F0938156
:1057600040F480703860FEF71FFC054638688005FD
:105770000BD4FEF719FC401B02284FF00300F5D9AB
:1057800048E2E069002800F00381B869216A20F44A
:105790007C1040EA0140B8612078C00731D0B8F1F0
:1057A000100F2AD0B8F1180F08BF032E25D0656856
:1057B000B5F5A02F00F0C081B5F5803F00F0CF8196
:1057C000002D40F0C181386820F48030386038689E
:1057D00020F480103860386820F480203860FEF7AC
:1057E000E3FB0546386880030BD5FEF7DDFB401B65
:1057F00064284FF00300F5D90CE26068002800F03F
:10580000C7802078800765D5B8F1000F21D0B8F1A6
:10581000180F08BF012E1CD0E1683868002900F07D
:105820006781216920F0180008433860386840F02B
:1058300001003860FEF7B8FB054600BF38688007F6
:1058400041D4FEF7B1FB401B02284FF00300F5D90D
:10585000E0E1E068002800F09B80B8F1000F26D15D
:105860003968206901F01801814220D0396821F09F
:10587000180108433860FFF7B9FE396A4CF2F0624C
:1058800001F00F01C0F60002515C40F2180201F075
:105890001F0120FA01F140F21400C2F2000000687A
:1058A000C2F200021160FEF7C1FB002870D1FEF7C2
:1058B0007BFB05463868800705D4FEF775FB401B67
:1058C0000228F7D97DE03869616920F4FE0040EADA
:1058D00001403861207800075ED42078400774D4F6
:1058E0002078800600F1A380A56A002D00F01F82B9
:1058F000B8F1180F40F0DA8059F8C81C59F8BC0C00
:10590000012D45D0E26A01F00303934240D1C1F377
:105910000521226B91423BD1626B01466FF35F21FF
:10592000013A914234D1C0F34621A26B013A91422F
:105930002ED1C0F30641E26B013A914228D1C0F367
:105940000660216C0139884222D159F8B80CC0F3A5
:10595000CC00E16C884200F0EA8159F8C80C20F0D4
:10596000100049F8C80CFEF71FFB0546FEF71CFBAC
:10597000A842FBD0E06CC00049F8B80C59F8C80C3C
:1059800040F0100049F8C80C002001B0BDE8F083D9
:10599000012001B0BDE8F083A169D9F80000002919
:1059A0005CD040F08060C9F80000FEF7FDFA0546C3
:1059B000D9F80000000190D4FEF7F6FA401B022847
:1059C000F6D9032001B0BDE8F0834FF62446CFF6A8
:1059D000FF76B859C00712D1B85940F00100B8514C
:1059E000FEF7E2FA054600BFB859C00707D1FEF737
:1059F000DBFA401B02284FF00300F5D90AE1A0684A
:105A0000002800F0BF80052800F0E180012800F0A8
:105A1000EA80D9F80010852840F0108141F0040098
:105A2000C9F80000D9F8000040F08000D9E0616AB0
:105A3000386800296ED040F480503860FEF7B4FA20
:105A4000054600BF386880043FF54EAFFEF7ACFA5C
:105A5000401B02284FF00300F4D9DBE020F0806007
:105A6000C9F80000FEF7A0FA054600BFD9F800000B
:105A700000017FF532AFFEF797FA401B02284FF086
:105A80000300F3D9C6E020F480703860FEF78CFA8A
:105A9000054600BF386880057FF57EAEFEF784FAC4
:105AA000401B02284FF00300F4D9B3E0386820F01F
:105AB00080703860FEF778FA022D05460CD100BFE1
:105AC0003868800140F1C980FEF76EFA401B022859
:105AD0004FF00300F4D99DE03868800140F11E8149
