:020000040800F2
:10000000600E002089010008E32800089123000801
:10001000E128000861030008B13400080000000076
:10002000000000000000000000000000BD2B0008E0
:10003000AF0400080000000051290008BD2D000891
:10004000A3010008A3010008A3010008A301000800
:10005000A3010008A3010008A3010008A3010008F0
:10006000A3010008A3010008A3010008A3010008E0
:1000700055040008A3010008610400086D0400088D
:10008000A301000879040008A3010008A3010008E7
:10009000A3010008A3010008A3010008A3010008B0
:1000A000A3010008292E0008A3010008A3010008ED
:1000B000352E0008A3010008A3010008A3010008D1
:1000C000A3010008A3010008A3010008A301000880
:1000D000A30100088D34000899340008A5340008F5
:1000E000A3010008A3010008A301000800F002F822
:1000F00000F03AF80AA090E8000C82448344AAF188
:100100000107DA4501D100F02FF8AFF2090EBAE885
:100110000F0013F0010F18BFFB1A43F0010318473B
:100120002C3A00004C3A0000103A24BF78C878C13D
:10013000FAD8520724BF30C830C144BF04680C60ED
:10014000704700000023002400250026103A28BF35
:1001500078C1FBD8520728BF30C148BF0B60704739
:100160001FB51FBD10B510BD00F082F81146FFF796
:10017000F7FF03F005FA00F0A0F803B4FFF7F2FF71
:1001800003BC00F0A7F80000094880470948004771
:10019000FEE7FEE7FEE7FEE7FEE7FEE7FEE7FEE737
:1001A000FEE7FEE704480549054A064B7047000094
:1001B000252E0008ED00000860080020600E0020D9
:1001C000600A0020600A002002F0FF0343EA0322D5
:1001D00042EA024200F002B84FF000020429C0F0E7
:1001E000128010F0030C00F01B80CCF1040CBCF169
:1001F000020F18BF00F8012BA8BF20F8022BA1EBBB
:100200000C0100F00DB85FEAC17C24BF00F8012B9F
:1002100000F8012B48BF00F8012B70474FF0000297
:1002200000B5134694469646203922BFA0E80C50EC
:10023000A0E80C50B1F12001BFF4F7AF090728BFC7
:10024000A0E80C5048BF0CC05DF804EB890028BF43
:1002500040F8042B08BF704748BF20F8022B11F06C
:10026000804F18BF00F8012B7047704770477047E8
:10027000754600F02BF8AE4605006946534620F05F
:100280000700854618B020B5FFF78CFFBDE8204079
:100290004FF000064FF000074FF000084FF0000B42
:1002A00021F00701AC46ACE8C009ACE8C009ACE8F5
:1002B000C009ACE8C0098D46704710B50446AFF3DD
:1002C00000802046BDE81040FFF757BF0048704748
:1002D000FC07002001491820ABBEFEE72600020003
:1002E000704700000B4A10B51278202A11D0016027
:1002F00000214171017101814181C18002F04AF800
:1003000096220549054801F0F2F903F029F904495C
:10031000886110BD01000020E204002014060020C6
:10032000580000200C4910B5487868B140F63400F8
:10033000496AB1FBF0F000F03AF8020007484FF4C8
:10034000805104D0002203E040F22620F0E7012291
:10035000BDE8104000F055BC00000020000801403E
:10036000FEE730B5044600200246491E0EE0A35CBD
:100370005840002345000006C0105B1C85EA507001
:10038000DBB2C0B2082BF5D3521CD2B28A42EEDBEC
:1003900030BD0346002010B50246491E04E09C5CB7
:1003A000521C2044C0B2D2B28A42F8DB10BDC00752
:1003B00001D0002070470120704700000F4910B5A0
:1003C0004B7800EB8002102B0AD0002B14D1088C44
:1003D000401C0884088CB0EB420F0DD303F0AEF83C
:1003E0000B8C5B1C0B840B8C834205D30120C871E2
:1003F000087200204872EDE710BD000000000020E8
:10040000F0B5114BD98B491C89B2D983814219D3DC
:1004100000210E4C0E4F0D46C1EBC10204EB8202CF
:10042000567946B1167936B156890644B6B2568128
:100430001E2E00D3557152797A54491CC9B21F2916
:10044000EAD3DD83F0BD000000000020B4000020EE
:1004500094000020014800F031B90000B8070020E6
:10046000014800F02BB9000030070020014800F0DF
:1004700025B90000EC060020014800F01FB900007B
:100480007407002030B590F840500124AC40C56B93
:100490006C60046863604368102B036803D0996044
:1004A0000068C26030BD9A600068C16030BD7047AE
:1004B000704772B6FEE700002DE9F0412D4CA078A0
:1004C0002D4E0025B71488B101223946304600F080
:1004D00098FB208A401C80B220820A2806D3002282
:1004E0003946304600F08DFB2582A570E07898B142
:1004F0004FF4006801224146304600F082FB608ADA
:10050000401C80B260820A2806D300224146304651
:1005100000F077FB6582E5702079184E98B14FF4B2
:10052000005801224146304600F06BFBA08A401C77
:1005300080B2A082032806D300224146304600F054
:1005400060FBA58225716079002811D0012239460F
:10055000304600F056FBE08A401C80B2E08203285F
:1005600006D300223946304600F04BFBE582657128
:10057000BDE8F0810000002000080140000C0140AF
:1005800010B590F821100022022905D004218163C2
:1005900080F82020012010BD01680B6823F00E03B5
:1005A0000B6001680B6823F001030B6090F840308A
:1005B000C46B012101FA03F3636080F8211080F815
:1005C0002020104610BD000010B590F82110002426
:1005D000022903D00421816301243DE001680A68F7
:1005E00022F00E020A6001680A6822F001020A6025
:1005F0001A4A0168914201D1012121E0174A1432BF
:10060000914201D110211BE0144A2832914201D1BC
:10061000891515E0114A3C32914201D189140FE04D
:100620000E4A5032914202D14FF4803108E00B4A19
:100630006432914202D14FF4801101E04FF0807199
:10064000064A083A5160012180F82110002180F803
:100650002010416B01B18847204610BD08000240C0
:1006600010B528B301680A6822F001020A60026826
:100670000021116002685160026891600268D160D7
:100680000C4B026801241A441423B2FBF3F29300CA
:10069000094AC0E90F239C4054608162C162016332
:1006A0004163816380F8211080F82010002010BD84
:1006B000012010BDF8FFFDBF000002402DE9F05FF2
:1006C000C16B0C6801680B68D0F840C0042202FAC4
:1006D0000CF2494DDFF824A1494E4A4FDFF828B10A
:1006E000DFF828E122422CD05A072AD50A68920660
:1006F00003D40A6822F004020A600168A94201D109
:10070000042219E0514501D1402215E0B14202D145
:100710004FF4806210E0B94202D14FF480420BE006
:10072000594502D14FF4802206E0714502D14FF4C1
:10073000800201E04FF080622F4908394A60C16AA7
:100740003BE04FF0020808FA0CF818EA040F4FF0EB
:1007500000094FF0010235D05FEA837832D50B688B
:100760009B0605D40B6823F00A030B6080F8212058
:100770000168A94201D1022219E0514501D120228C
:1007800015E0B14202D14FF4007210E0B94202D13B
:100790004FF400520BE0594502D14FF4003206E00D
:1007A000714502D14FF4001201E04FF0007212497E
:1007B00008394A6080F82090816A00291AD0BDE883
:1007C000F05F0847082505FA0CF5254212D01B07F3
:1007D00010D50B6823F00E030B6090F84010C36B2C
:1007E00002FA01F15960826380F8212080F820909C
:1007F000016BE2E7BDE8F09F080002401C000240E8
:100800003000024044000240580002406C000240A8
:1008100030B528B308C8134914221944B1FBF2F1CA
:100820008900C16310498163022141771A6843F648
:10083000F0718A43D0E900142143D0E902452C43EA
:1008400021430469214344692143846921431143BD
:10085000196000214163012242770177084630BDCB
:10086000012030BDF8FFFDBF0000024070B5044616
:1008700090F82000002501280CD0012084F82000E9
:1008800094F821600020012E06D084F82000022573
:10089000284670BD022070BD022684F82160A06346
:1008A0002068066826F0010606602046FFF7EAFD8C
:1008B000E06A00282068016802D041F00E0106E0DD
:1008C00021F0040101602068016841F00A01016023
:1008D0002068016841F001010160D9E770B5044664
:1008E00000F094F90546601C02D0044800780444E6
:1008F00000F08CF9401BA042FAD370BD84000020A8
:100900002DE9F04300233E4F0F2573E001229A406A
:100910000A406DD023F00304E619D6F808809C073E
:100920004FEA147C05FA0CF909EA0804DFF8D480D0
:10093000404502D14FF0000816E0DFF8CC8040457A
:1009400002D14FF001080FE0DFF8C080404502D12E
:100950004FF0020808E0DFF8B880404502D14FF0C0
:10096000030801E04FF0040808FA0CF8A04522D172
:10097000284CD4F800C02CEA020CC4F800C0241D96
:10098000D4F800C02CEA020CC4F800C0214C0C348E
:10099000D4F800C02CEA020CC4F800C0241FD4F81C
:1009A00000C02CEA020CC4F800C0D6F808C02CEA3B
:1009B000090CC6F808C0FF2A01D8064601E000F17C
:1009C00004064FEA830401D9A4F12004D6F800C03C
:1009D00005FA04F82CEA080C4FF0040808FA04F8A9
:1009E0004CEA080CC6F800C0C46824EA0204C460DB
:1009F00003F1010331FA03F288D1BDE8F08300006E
:100A00000000014000080140000C014000100140BE
:100A100000140140000401402DE9F84FDFF8B891BF
:100A20000024A9F1040B23460F2709F1040AABF1B6
:100A3000040EC9E00125A5402A40AA427DD1674E97
:100A4000D1F804C0ACEB0608B44532D014DCBCF1DC
:100A5000030F3AD009DCBCF1000F2AD0BCF1010F22
:100A60001CD0BCF1020F31D11DE0BCF1110F17D029
:100A7000BCF1120F2AD119E0B8F5881F19D006DC95
:100A8000B8F5803F15D0B8F5801F1FD111E0B8F53B
:100A9000001F0ED0B8F5041F18D10AE0CB6815E08E
:100AA000CB681B1D12E0CB6808330FE0CB680C331A
:100AB0000CE08B682BB1012B4FF0080303D045618C
:100AC00004E0042302E0056100E00023FF2A01D8CE
:100AD000064601E000F104064FEA840501D9A5F1BC
:100AE0002005D6F8008007FA05FC28EA0C0803FA6E
:100AF00005F548EA0508C6F800804D68ED0062D5A6
:100B0000374DAE6946F00106AE61AD6924F00306CB
:100B100005F001050095334D06EB050CDCF8085097
:100B2000A607360F07FA06F825EA0805DFF8B880A9
:100B3000404503D14FF0000817E044E0DFF8AC80F7
:100B4000404502D14FF001080FE0DFF8A480404596
:100B500002D14FF0020808E0DFF89880404502D14A
:100B60004FF0030801E04FF0040808FA06F848EADD
:100B70000508CCF808804D68D9F80060ED024D46B4
:100B800001D5164300E096432E604D68DAF8006008
:100B9000AD02554601D5164300E096432E604D68E0
:100BA000DBF80060AD035D4601D5164300E09643D7
:100BB0002E604D68DEF80060ED03754601D51643E2
:100BC00000E096432E60641C0D682A46E5407FF4E1
:100BD00031AFBDE8F88F000008040140000011109B
:100BE000001002400000014000080140000C0140DC
:100BF00000100140001401408068084000D001202E
:100C000070470AB1016170470904FBE70148806839
:100C1000704700008400002070B5040013D02168E4
:100C20004CF6CC400860216845F255500860D4E984
:100C3000000141602168A0688860FFF7E7FF054672
:100C400041F23C360DE0012070BD00BFFFF7DEFF32
:100C5000401BB04205D92068C068800701D003203E
:100C600070BD2068C0688007F0D121684AF6AA20CC
:100C70000860002070BD00684AF6AA2101600020CB
:100C80007047000002488168027811448160704713
:100C900084000020074810B5016841F01001016090
:100CA000032000F085F80F2000F006F800F024F88B
:100CB000002010BD0020024070B50D4D04464FF4D9
:100CC0007A712878B1FBF0F00A490968B1FBF0F0BD
:100CD00000F0ECFA48B9102C07D200222146501E31
:100CE00000F046F800206C6070BD012070BD00006F
:100CF00084000020900000200C4808B5816941F074
:100D000001018161816901F001010091C16941F036
:100D10008051C161C06900F0805000900448416872
:100D200021F0E06141F00071416008BD0010024017
:100D30000000014000280DDB00F01F02012191405E
:100D40004009800000F1E020C0F88011BFF34F8F10
:100D5000BFF36F8F7047002809DB00F01F020121ED
:100D600091404009800000F1E020C0F80011704778
:100D7000F0B40E4B1B680C46C3F30223C3F1070506
:100D8000042D00D90425191D072901D2002300E0F4
:100D9000DB1E012606FA05F1491E214099409E40BE
:100DA000761E16403143F0BC02F0B8BB0CED00E0FB
:100DB000064900F0070208684FF6FF03184040EAB2
:100DC0000220034A10430860704700000CED00E069
:100DD0000000FA052DE9F0470F46050061D0434EAB
:100DE000306800F00700B84209D2306820F00700F0
:100DF00038433060306800F00700B84251D12868AD
:100E00003B4C810712D5400703D5606840F4E06091
:100E100060602878000703D5606840F46050606027
:100E20006068A96820F0F000084360602878C00777
:100E300028D06868012810D02168022810D08907BE
:100E400000292EDA616821F0030101436160FFF798
:100E5000DDFE804641F288390DE021688903EFE725
:100E60008901EDE7FFF7D2FEA0EB0801494502D961
:100E70000320BDE8F0876068696800F00C00B0EB03
:100E8000810FEFD1306800F00700B8420BD930680D
:100E900020F0070038433060306800F00700B842A7
:100EA00001D00120E5E72878400705D56068E968AA
:100EB00020F4E060084360602878000706D5606889
:100EC000296920F4605040EAC100606000F038F801
:100ED0006168084AC1F30311515CC84006490860C3
:100EE00006480068FFF7E8FE0020C2E70020024045
:100EF00000100240323B00089000002088000020D3
:100F00000448054900684968044AC1F30221515C5C
:100F1000C84070479000002000100240423B00088B
:100F20000448054900684968044AC1F3C221515C7C
:100F3000C84070479000002000100240423B00086B
:100F40000E4A51680E4801F00C03042B11D0082BF7
:100F50000FD10C48C1F38343C903C05C0AD5516863
:100F6000084AC1F34041921E515C054A5043B0FB10
:100F7000F1F07047044948437047000000100240F8
:100F800000127A00223B000800093D002DE9F84FCD
:100F9000040070D02078C04DC00749D06868C0F305
:100FA0008100012807D06868C0F38100022809D1B8
:100FB0006868C00306D52868800339D560680028B2
:100FC000E7D035E06068B0F5803F0BD010B1B0F5E8
:100FD000A02F11D0286820F480302860286820F4E1
:100FE000802002E0286840F480302860606890B17A
:100FF000FFF70CFE06460AE0286840F480202860CF
:10100000F0E700BFFFF702FE801B642873D8286852
:101010008003F7D50CE0FFF7F9FD064605E000BFB9
:10102000FFF7F4FD801B6428F0D828688003F7D40C
:1010300020789A4E80074FF001094FF0000839D50B
:10104000686810F00C0F07D06868C0F381000228B0
:1010500009D16868C00306D42868800714D52069C0
:10106000012808D110E02069B0B1C6F80090FFF760
:10107000CDFD074605E00AE1FFF7C8FDC01B0228C9
:10108000C4D828688007F7D52868616920F0F8007F
:1010900040EAC10028600DE0C6F80080FFF7B6FD09
:1010A000074604E0FFF7B2FDC01B022823D82868DA
:1010B0008007F7D4207800072CD57948A169D9B1E9
:1010C000C0F80090FFF7A2FD074604E0FFF79EFD81
:1010D000C01B02280FD8686A8007F7D571484FF403
:1010E000FA510068B0FBF1F0009000BF0098411E7B
:1010F0000091FAD20EE080E0C0F80080FFF786FD94
:10110000074604E0FFF782FDC01B022875D8686A15
:101110008007F7D42078400760D5E8690027C00031
:1011200008D4E86940F08050E861E869012700F0E0
:10113000805000905C480168C90513D4016883465B
:1011400041F480710160FFF761FD824606E000BF57
:10115000FFF75CFDA0EB0A0064284ED8DBF8000026
:10116000C005F5D5E06801280AD008B1052813D0DC
:10117000286A20F001002862286A20F0040002E0BA
:10118000286A40F001002862E06841F2883B98B18B
:10119000FFF73CFD82460BE0286A40F0040028621D
:1011A000EEE700BFFFF732FDA0EB0A0159455AD820
:1011B000286A8007F6D50CE0FFF728FD824605E097
:1011C000FFF724FDA0EB0A0159454CD8286A800797
:1011D000F6D41FB1E86920F08050E861E06988B377
:1011E0006968C1F38101022944D00228C6F86080F1
:1011F00004D0FFF70BFD044638E034E0FFF706FDAE
:10120000074604E0FFF702FDC01B02282BD8286820
:101210008001F7D4206AB0F5803F05D16868A168E5
:1012200020F4003008436860D4E908010843696885
:1012300021F4741108436860C6F86090FFF7E6FC7B
:10124000044606E025E000BFFFF7E0FC001B022893
:1012500009D828688001F7D51BE000BFFFF7D6FC4E
:10126000001B022802D90320BDE8F88F28688001FE
:10127000F4D40EE00128F7D06868226A00F48031C7
:10128000914204D1616A00F47010884201D00120BB
:10129000EAE70020E8E700000010024000004242B8
:1012A00080044242900000200070004010B5401EB3
:1012B000B0F1807F01D3012010BD4FF0E0246061C8
:1012C0000F21601702F02AF90020A0610720206199
:1012D000002010BD7047704770B590F83C20012A7F
:1012E00026D0012480F83C40022280F83D2003688B
:1012F0005A689D6822F070060A6832435A600D4BA6
:1013000002689A4208D0B2F1804F05D00A4B9A4247
:1013100002D00A4B9A4204D1496825F08003194350
:10132000916080F83D40002180F83C10084670BD77
:10133000022070BD002C0140000400400008004065
:1013400010B5040003D094F83D0010B107E001206F
:1013500010BD002084F83C00204600F01FF8022059
:1013600084F83D00211D206801F06AFD012084F809
:10137000460084F83E0084F83F0084F8400084F87A
:10138000410084F8420084F8430084F8440084F863
:10139000450084F83D00002010BD000008B5154A46
:1013A0000168154891420ED1816941F40061816163
:1013B0008069002200F40060009001211920FFF7ED
:1013C000D7FC192010E0B1F1804F11D1C16941F073
:1013D0000101C161C069002200F0010000901146C6
:1013E0001C20FFF7C5FC1C20BDE80840FFF7B3BC7C
:1013F00008BD0000002C01400010024090F83D1094
:10140000012901D001207047022180F83D100168B8
:10141000CA6842F00102CA6000680B49884208D0DD
:10142000B0F1804F05D00949884202D0084988426E
:1014300004D1816801F00701062903D0016841F059
:101440000101016000207047002C014000040040B1
:101450000008004070B5044690F83C0000250128C3
:1014600017D0012684F83C60022084F83D002068F3
:10147000826822F0770222F47F4282600868502856
:1014800038D00DDC20284FD005DC90B3102811D1C6
:101490004AE0022070BD302846D040280AD13BE007
:1014A00060282FD070280DD0B0F5805F03D0B0F544
:1014B000005F12D0012584F83D60002084F83C00D4
:1014C000284670BDCB68D1E90121206801F0F4FC09
:1014D0002068816841F0770109E0CB68D1E90121FA
:1014E000206801F0E9FC2068816841F48041816056
:1014F000E1E719E0CA684968206801F0EFFC502173
:10150000206806E0CA684968206801F0F8FC60219C
:10151000206801F0DBFCCEE7CA684968206801F06A
:10152000DDFC40212068F4E7226801461046F0E720
:1015300070472DE9F04104460068C66805694FF020
:101540000007A90713D5B10711D5F91E01610120C4
:101550002077206880698007204602D0FFF7E8FFE7
:1015600004E000F07EF8204600F07CF8277768075A
:1015700016D5700714D521686FF0040008610220A9
:1015800020772068806910F4407F204602D0FFF762
:10159000CFFF04E000F065F8204600F063F82777FD
:1015A000280715D5300713D521686FF008000861AA
:1015B000042020772068C0698007204602D0FFF70A
:1015C000B7FF04E000F04DF8204600F04BF8277715
:1015D000E80616D5F00614D521686FF010000861F2
:1015E000082020772068C06910F4407F204602D090
:1015F000FFF79EFF04E000F034F8204600F032F8D8
:101600002777E80708D0F00706D021686FF00100BF
:101610000861204600F028F8280608D5300606D5CF
:1016200021686FF0800008612046FFF753FE6806CE
:1016300008D5700606D521686FF040000861204685
:1016400000F054F8A8060AD5B00608D521686FF056
:10165000200008612046BDE8F041FFF73CBEBDE830
:10166000F08170477047000070B51D49054600685D
:1016700009681C4C884211D1A06A401CA062208BD2
:10168000401C2083608B401C6083606A401C606249
:10169000FEF712FF00F07EFD00F028FE12492868D8
:1016A000096888421BD1A07980B9A08B401C80B208
:1016B000A083792801D10020A083A08B0921B0FB51
:1016C000F1F201FB120008B90120A0710520FEF71C
:1016D00097FE3C20FEF772FE608C401C608470BD5B
:1016E0008405002000000020CC050020704738B59C
:1016F000044690F84200202801D0022038BD51B1A4
:101700004AB10120206300206063204601F022FEE0
:10171000216B012901D0012038BD21680A68496880
:10172000009121680C3151E8002F42F0100241E88D
:101730000023002BF5D138BD70B50D4600680C496B
:10174000884214D10B4CA08A401CA08201F07EF983
:1017500000F0FCFD607808B90120607025709622C9
:1017600005490648FFF7C3FF01F0FAFEA06170BD0E
:101770000038014058000020E20400201406002038
:1017800010B5040015D0242084F841002068C168F9
:1017900021F40051C160204600F076F90020606419
:1017A00084F8410084F8420044F8300F60602074EF
:1017B00010BD012010BD7047F8B5016804460868E7
:1017C000CA684B6910F00F0F4FF0000559D003F0B5
:1017D000010602F49077374365D0C10705D0D105E3
:1017E00003D5616C41F001016164410705D5D9075A
:1017F00003D0616C41F002016164810705D5D9070E
:1018000003D0616C41F004016164010707D502F067
:101810002001314303D0616C41F008016164616CC7
:1018200000293AD0800604D5900602D5204601F062
:10183000D3FC20684069616CC0F38010090700D4B4
:1018400060B3204601F093FC20684069400621D532
:101850002068143050E8001F21F0400140E80012D9
:10186000002AF5D1E06BA8B16D494163E06BFEF74A
:10187000ABFE002811D0E06B416B01B0BDE8F04039
:10188000084783060FD593060DD52046BDE8F840DE
:1018900001F0A2BC2046FFF78EFFF8BD2046FFF7FF
:1018A0008AFF6564F8BD266B2023012E7CD1C60615
:1018B0007AD5D60678D508684868009048694FF010
:1018C0000206400640D5E16B086840680004000C41
:1018D000E8D0A28D8242E5D9E085886920282DD004
:1018E00020680C3050E8001F21F4807140E800129D
:1018F000002AF5D12068143050E8001F21F00101C2
:1019000040E80012002AF5D12068143050E8001F8A
:1019100021F0400140E80012002AF5D184F842305D
:10192000256320680C3050E8001F21F0100140E8CA
:101930000012002AF5D1E06BFEF722FE6663A08D4F
:10194000E18D401A81B22AE0A08DE18D401A81B26A
:10195000E08D0028A6D00029A4D022680C3252E8DD
:10196000000F20F4907042E80007002FF5D12068A6
:10197000143050E8002F22F0010240E80027002F29
:10198000F5D184F84230256320680C3050E8002FF0
:1019900022F0100240E80023002BF5D166632046B8
:1019A000FFF7CAFEF8BDFFE705062BD5150629D5BA
:1019B00094F841002128F5D1A068B0F5805F01D1ED
:1019C0002069B0B1206A411C21622168007848601A
:1019D000E08C401E0004000CE084E3D12068C16864
:1019E00021F08001C1602068C16841F04001C16000
:1019F000D8E7206A0088C0F308004860206A801C8D
:101A00002062E5E74006CDD55006CBD5CA68204612
:101A100022F04002CA6084F8413000F05DFAC1E76C
:101A20002530000870B5040004D094F8410000256A
:101A300010B106E0012070BD84F84050204600F04F
:101A40006DF8242084F841002068C16821F4005119
:101A5000C160204601F022FC2068016921F4904118
:101A600001612068416921F02A0141612068C16853
:101A700041F40051C1606564202084F8410084F87D
:101A800042006563002070BD10B5044600681D4B20
:101A90001D491E4A984210D1886920F4804088610F
:101AA0004FF4C0611046FEF72BFFE06BFEF7D8FD48
:101AB000A06BFEF7D5FD25201FE0154B98420CD1F9
:101AC000C86920F40030C8610C211046FEF718FFE9
:101AD000A06BFEF7C5FD26200FE00E4A904210D104
:101AE000C86920F48020C8614FF440610A48FEF7BD
:101AF00007FFA06BFEF7B4FD2720BDE81040FFF7FD
:101B000019B910BD00380140001002400008014022
:101B10000044004000480040000C01402DE9F04323
:101B200085B0002400940194029403940546DFF8E4
:101B3000F881D0F800C07D48022103227C4B10269A
:101B400080274FF48069C44558D1D0F818C04CF4B0
:101B5000804CC0F818C0D0F818C00CF4804CCDF8F8
:101B600010C0D0F818C04CF0040CC0F818C0806940
:101B7000039200F0040004900802CDE900016946D8
:101B800098461846FEF748FFCDE90094694640465E
:101B90000294FEF741FFDFF8A08166494046B9464E
:101BA000C0E90014C0E90247C8F81040C8F8144062
:101BB0008914C8E90641FEF72BFE08B1FEF779FC4F
:101BC0005C485E4FC5F83C801438C8F82450386033
:101BD000C7E90164C7E903947C61BC613846FC61D4
:101BE000FEF716FE08B1FEF764FCAF630022022187
:101BF00025207D62FFF7BCF825204AE0DFF8408110
:101C0000C4454BD1D0F81CC04CF4003CC0F81CC0FB
:101C1000D0F81CC00CF4003CCDF810C0D0F818C0AF
:101C20004CF0040CC0F818C08069039200F0040066
:101C300004900420CDE90001694698461846FEF755
:101C4000EBFE0820CDE90004694640460294FEF709
:101C5000E3FE3849DFF8EC8028314046C8F8001030
:101C6000C0E90164C0E90374C8F81440C8F818401A
:101C7000C8F81C40FEF7CCFD08B1FEF71AFCC5F809
:101C80003880002211462620C8F82450FFF770F84B
:101C90002620FFF760F805B0BDE8F0832A4B9C458D
:101CA000F9D1C36943F48023C361C36903F480237A
:101CB0000493836943F0080383618069CDE900914F
:101CC00000F00800CDE90320DFF880806946404637
:101CD000FEF7A2FE4FF40060CDE9000469464046DD
:101CE0000294FEF799FE1349DFF864803C394046C0
:101CF000C8F80010C0E90164C0E90374C8F81440D2
:101D0000C8F81840C8F81C40FEF782FD08B1FEF77D
:101D1000D0FBC5F83880002211462720C8F824508F
:101D2000FFF726F82720B4E70038014000100240F2
:101D30000008014058000240EC0600203007002057
:101D4000004400407407002000480040000C01409F
:101D5000B807002090F84230202B01D002207047B5
:101D600021B11AB10023036301F03CBB012070478D
:101D700070B5054600680D490D4C884208D10D48E4
:101D800000F0E8FD0B4800F06BFAA089401CA08130
:101D900009492868884208D1064800F0DBFD05485B
:101DA00000F05EFAA089401CA08170BD0044004094
:101DB0003C000020180400200048004070472DE936
:101DC000F843044690F84100984616460D462028F0
:101DD00002D00220BDE8F88385B17EB100206064A6
:101DE000212084F84100FEF711FFA6848146E68495
:101DF000A0682027B0F5805F02D003E00120E9E76A
:101E0000206910B12E4600250EE000260CE080214E
:101E1000204601F002FBA8B9C6B116F8010B2168F3
:101E20004860E08C401EE084E08C4B464FF000029E
:101E3000CDF800800028EAD14FF04001204601F0A3
:101E4000ECFA40B184F841700320C3E735F8020B87
:101E5000C0F30800E3E784F841700020BAE700000F
:101E600070B5044690F84100202801D0022070BDD2
:101E700049B342B32162A284E2840020606421233A
:101E800084F84130A56B114BAB62A56B104BEB6234
:101E9000A56B104B2B63A36B5863256813462A1D53
:101EA000A06BFEF7E3FC21686FF04000086020683B
:101EB000143050E8001F41F0800140E80012002A71
:101EC000F5D1002070BD012070BD00002331000855
:101ED0006531000835300008704770472DE9F84F2C
:101EE0009F4C607800287CD0002060709D4D9E4FF4
:101EF0002878397800F00F00884205D0BDE8F84F07
:101F000096219848FEF768B9608A401C60826E7816
:101F100094483146FEF725FAA919009111F8011CE1
:101F200088422BD191494FF0010A81F800A09049D5
:101F3000002008802878DFF83C8200F0F000DFF80D
:101F400038B210281ED0DFF81C922028A9F196097B
:101F500053D0302845D1208A401C208200F02CFA32
:101F600000F02AFA98F80000002870D0E088401CA1
:101F7000E080042E6AD90220B21EBDE02089401CF8
:101F80002081BBE7A089401CA081002088F80000C8
:101F900000F0C4FC00F0C2FCA87800F03F061F2E41
:101FA00006D300BF00F09EFCBDE8F84F00F09ABCDD
:101FB000724C46F080002070002029182218401C26
:101FC000C978C0B251700F28F7D3A6202074A02082
:101FD00060748020A07414216848FEF7DAF9E07478
:101FE00000E0BBE0C6EBC6014FF0FF335BF8210019
:101FF00014226249FFF7E3FED4E7E089401CE08148
:1020000000F0DAF900F0D8F91021F61E88F8001077
:10201000F2B200205346594608E02C18401CA47820
:10202000C0B2C4EBC40401EB840423719042F4D326
:1020300038784C4600F00F0040F0200089F800008E
:10204000042089F8010002200DE000E056E0387815
:102050004C4600F00F0040F0700089F800000420AA
:1020600089F801000720A0703E4804219638FEF749
:1020700078F93C49E0704FF0FF330422963940482C
:10208000FFF79DFE374896219638FEF7A5F800F039
:1020900081F9BDE8F84F00F07DB9295C01F03F03FC
:1020A0001F2B27D201F0C00CC3EBC3080BEB880138
:1020B00081F807C005EB000C9CF801C081F806C050
:1020C00009F8003091F805800023B8F1000F00D125
:1020D00001234FEA83084B7A09EB000C48EA4303DB
:1020E00091F808804FF0000E43EA08038CF80130A5
:1020F00081F809E0801CC0B29042CEDB0098214AF2
:1021000010F8020C810911701F4AC0F301111170FF
:102110001E4AC0F3810111701D4900F003000870D0
:1021200038784D4600F00F0040F0300089F800008C
:10213000701EC1B20B4889F801109638FEF711F9EC
:10214000A91901F8020C07496A7896390C48FFF77B
:1021500087FE84F803A001F003FA2062BDE8F88F3F
:1021600058000020E20400200000002003000020AE
:102170002000002001000020B40000202C040020DA
:10218000140600200700002008000020090000209D
:102190000A0000202DE9F0412F4C606A4FF41671BF
:1021A000B0FBF1F0FEF703F90646606A4FF4967152
:1021B000B0FBF1F0FEF7FBF80546E079274F4FF44E
:1021C000807148B1E079012808D0E079022815D063
:1021D000E079032815D005E0002200E0012238460E
:1021E000FEF70FFD207A78B1207A01280ED0207AF0
:1021F00002281DD0207A03281DD00CE0002EEDD13E
:10220000EAE7002DEAD1E7E7002200E00122802181
:102210003846FEF7F6FC607A80B1607A01280FD06C
:10222000607A022813D0607A032813D145B905E0FB
:10223000002EEBD1E8E7002DE8D1E5E7002200E031
:1022400001223846BDE8F0414021FEF7DABC002EFD
:10225000F6D1F3E7BDE8F08100000020000C01405A
:1022600070B50446C07901282CD1174817490122BE
:102270000068884201D1164803E01649884201D11E
:10228000154802701548407800F03F01C1EBC105C8
:102290001349C30901EB850140060B7206D51148AD
:1022A0004A720078202801D10F4802700869002581
:1022B000401C08614D814A710D2203210748FDF73A
:1022C00083FFE57170BD0000340000205C06002033
:1022D00004000020A4060020050000204D0000207E
:1022E000B4000020010000200F000020154910B5A7
:1022F000486A4FF41672B0FBF2F0FEF758F8024647
:10230000486A4FF49673B0FBF3F0FEF750F88C7AFE
:102310000D4B4CB18C7A012C08D08C7A022C0CD04D
:10232000897A03290CD108B9002200E00122BDE816
:10233000104020211846FEF764BC002AF6D1F3E7CE
:1023400010BD000000000020000C014010B50C4C36
:1023500020785F2812D1607805280FD1032120460C
:10236000FDF7FFFFA178814208D1064900200880CF
:102370000549086005494889401C488110BD000096
:10238000E20400201C00002024000020580000204F
:10239000FEE7000070B5074D4FF48074002221461F
:1023A0002846FEF72EFC21462846BDE87040002254
:1023B000FEF727BC0008014070B50122064D14024B
:1023C00021462846FEF71DFC21462846BDE8704000
:1023D0000122FEF716BC0000000801402DE9F04381
:1023E00085B000243F4800940194029403948169CD
:1023F00041F010018161816901F01001049181694E
:1024000041F020018161816901F02001049181691D
:1024100041F004018161816901F004010491816945
:1024200041F00801816180692F4F00F008004FF4EE
:1024300000550490002229463846FEF7E2FBDFF8FB
:10244000AC8000224FF2E0114046FEF7DAFBDFF8E5
:10245000A09000224FF4C8514846FEF7D2FB0095E9
:10246000022601250396CDE9015469463846FEF758
:10247000D3FAF0208DE8310069464846FEF7CCFAE1
:1024800007208DE8310069464046FEF7C5FA43F261
:10249000E010CDE90005CDE9024669464046FEF769
:1024A000BBFA4FF440400327CDE90005CDE90247D0
:1024B00069464046FEF7B0FA2802CDE90005CDE9AD
:1024C000024769464846FEF7A7FAF802CDE900053B
:1024D000CDE9024669464846FEF79EFA05B0BDE8DA
:1024E000F08300000010024000100140000C014089
:1024F0000008014010B586B00024174800940194EC
:102500000294039404941349059401604721C0E99F
:10251000011440F2E731C0E9031444618461FEF71D
:102520000FFF08B172B6FEE74FF480500090694685
:102530000948FEF78FFF08B172B6FEE7049404A9BC
:1025400005480594FEF7C8FE002801D072B6FEE7E4
:1025500006B010BD002C01408405002010B586B0E7
:1025600000241748009401940294039404944FF0BB
:1025700080410594016041F61F41C0E9011442F217
:102580000F71C0E903148461FEF7DAFE08B172B678
:10259000FEE74FF48050009069460948FEF75AFF65
:1025A00008B172B6FEE7049404A905480594FEF745
:1025B00093FE002801D072B6FEE706B010BD000001
:1025C000CC0500202DE9F041AD4D04212846FEF751
:1025D00013FBA0B30020AB4C2178084320700221EC
:1025E0002846FEF709FB58B30020217841EA400055
:1025F000207001212846FEF7FFFA30B30020217831
:10260000A14E41EA8000207080213046FEF7F4FAA6
:10261000E8B10020217841EAC00020704021304616
:10262000FEF7EAFAA8B100202178B04641EA00108E
:10263000207020213046FEF7DFFA60B1F9E000E0BB
:1026400001E00120C7E70120CFE70120D7E7012003
:10265000E0E70120E8E7202060704FF49676002242
:1026600040212846FEF7CDFA002280212846FEF7B9
:10267000C8FA4FF48077002239462846FEF7C1FA9F
:1026800040F2DC50FEF72AF9012240212846FEF7ED
:10269000B8FA002280212846FEF7B3FA0022394614
:1026A0002846FEF7AEFA3046FEF718F90022402120
:1026B0002846FEF7A6FA012280212846FEF7A1FA55
:1026C000002239462846FEF79CFA3046FEF706F906
:1026D000002240212846FEF794FA00228021284655
:1026E000FEF78FFA012239462846FEF78AFA30466D
:1026F000FEF7F4F8002240212846FEF782FA002275
:1027000080212846FEF77DFA002239462846FEF74A
:1027100078FA3046FEF7E2F8012240212846FEF71B
:1027200070FA002280212846FEF76BFA0022394613
:102730002846FEF766FA3046FEF7D0F80022402120
:102740002846FEF75EFA012280212846FEF759FA54
:10275000002239462846FEF754FA3046FEF7BEF806
:10276000002240212846FEF74CFA0022802128460C
:10277000FEF747FA012239462846FEF742FA30466C
:10278000FEF7ACF8002240212846FEF73AFA002274
:1027900080212846FEF735FA002239462846FEF702
:1027A00030FA3046FEF79AF8012240212846FEF71B
:1027B00028FA002280212846FEF723FA0022394613
:1027C0002846FEF71EFA3046FEF788F80022402120
:1027D0002846FEF716FA012280212846FEF711FA54
:1027E000002239462846FEF70CFA3046FEF776F806
:1027F000002240212846FEF704FA002280212846C4
:10280000FEF7FFF9012239462846FEF7FAF930466D
:10281000FEF764F8012240212846FEF7F2F9012272
:1028200080212846FEF7EDF9012239462846FEF7B9
:10283000E8F910214046FEF7DFF9DFF85080144E2A
:102840004FF4E13780B1C4E90D684046FEF798FFC8
:102850004046C8F80470FFF7E5F8012291032846C6
:10286000BDE8F041FEF7CDB9C4E90D860848FEF792
:1028700087FF07487760FFF7D5F80122D103EEE71D
:10288000000C01400000002000080140A4060020C8
:102890005C06002010B5FFF77DFCFFF727FDFFF772
:1028A0001DFB00F035F90D48417821B1102907D002
:1028B00020290AD107E0817939B10021817104E032
:1028C00000F0FEF901E000F02DFB00F0F3FD00F058
:1028D0000FFEBDE8104000F04BB9000000000020E2
:1028E000FEE7FEE709480A4A01680A48914203D117
:1028F00000224FF4004105E0074A914204D1002232
:102900004FF48041FEF77DB970470000340000208D
:102910005C060020000C0140A40600200848094A7B
:1029200001680948914202D10122D10304E0074A1B
:10293000914203D101229103FEF763B97047000071
:10294000340000205C060020000C0140A40600209A
:10295000704700002DE9F0410446007A2F4E012710
:102960004FF0000806F11105052835D2DFE800F028
:102970000313173C4000607AFE2802D0FD2806D0E1
:102980002AE028702772F088401CF08024E028702C
:102990000320207220E0607A68700220F9E7607AF4
:1029A000A8701E4803211130FDF7F3FC6978F27816
:1029B00001F03F01914202D13179491C3171A9786E
:1029C000814204D1E7713089401C308102E0708976
:1029D000401C708184F8088004F109012068BDE87A
:1029E000F0410122FFF7B6B9607A68700420D0E7A1
:1029F000607AA870094803211130FDF7CAFCA97854
:102A00008142E7D1FFF7D8FC05496878887005480E
:102A100000782028DED004480770DBE73C00002067
:102A20004C040020010000205A00002010B5054C85
:102A3000618C814204D30448FEF71DF900206084B4
:102A400010BD0000000000207805002070B5294C62
:102A5000207800F0F00160294AD1274E00F00F00E5
:102A60003178884205D02046BDE870409621FDF7B8
:102A7000B3BB65781F482946FDF773FC611911F84F
:102A8000011C884234D11D4901200870FFF794FCD5
:102A9000FFF792FC1A490020164C08703078963CDB
:102AA00000F00F0040F060002070042060700620ED
:102AB000A07004212046FDF754FCE0704FF0FF3376
:102AC000042221460F48FFF77AF94FF47A70401E2E
:102AD0000004000CFBD1BFF34F8F0B4801680B4A79
:102AE00001F4E06111430160BFF34F8F00BFFDE7C8
:102AF00070BD0000E2040020000000200300002060
:102B000001000020140600200CED00E00400FA058E
:102B100010B5134CA078002821D0FFF74DFC002001
:102B2000A0701048104C007800F00F0040F010002A
:102B300020700420607001462046FDF712FCE07012
:102B40004FF0FF33042221460848FFF738F9962159
:102B50002046FDF741FBBDE81040FFF71BBC10BD50
:102B600058000020000000204C0400201406002023
:102B70000D4810B50078202815D000F0F1FC0B4C62
:102B8000A169401A0A49E06188420CD3A088401C20
:102B9000A080FFF7FFFB962206490748FEF7A7FD36
:102BA00000F0DEFCA06110BD0100002058000020F4
:102BB000404B4C00E2040020140600207047000047
:102BC0002DE9F047394E3A4C1F204FF0000921788B
:102BD000C1EBC10206EB8202127932B1FFF79EFE11
:102BE0003448007820280CD017E0491CC9B2217065
:102BF0001F2901D184F80090401E10F0FF00E6D19B
:102C000048E02D4800684FF47A71B0FBF1F021786C
:102C1000C1EBC10106EB8101887120788046C0EBD1
:102C2000C00006EB8005D5E90307C11B696100F010
:102C300097FE8246384600F093FE204900F0A4FE3D
:102C4000514600F0CBFDA861E879194F00F0C001B2
:102C500008F03F000E3701433970A87978700321DE
:102C60003846FDF796FBB87020780322C0EBC00011
:102C7000394656F82000FFF7F3F80120A07000F065
:102C80006FFC60612078C0EBC00006EB8000C1687B
:102C9000491CC1602078401CC0B220701F2801D19F
:102CA00084F800900120BDE8F0870000B400002007
:102CB0003C00002001000020280000200000C84245
:102CC00038B50B4C0025A07950B1FFF727FE09A0BD
:102CD00000680090684600F00FF8A571002038BD2C
:102CE000608B0F2802D3FFF76BFF6583012038BD8F
:102CF00000000020EFAE000010B50446FFF70EFE06
:102D0000084809494FF0FF3300780222C0EBC000A9
:102D100051F820002146FFF752F8BDE81040FFF7B8
:102D2000E1BD00003C000020B40000202DE9F0418E
:102D30001E4900231E4C0D7819460126C3EBC30221
:102D4000202D44F8220004EB82072CD087F80410D1
:102D500004EB82025B1CD171917111725172567138
:102D60005181D16011615161DBB291611F2BE5D3BB
:102D7000104CAE2221726172E171E160206003218A
:102D80000D48FDF721FA0C48EA220321C01CFDF78B
:102D90001BFAFFF7A7FD04F109012068BDE8F04127
:102DA0000122FEF7D7BF3E71D2E7000001000020EC
:102DB000B4000020180400204A000020FDF762BF84
:102DC00030B58FB028216846FDF728FA14210AA8EB
:102DD000FDF724FA0920012100904FF480300024EF
:102DE00004910691CDE901040225CDE907504FF485
:102DF000E01009906846FEF7C9F808B172B6FEE720
:102E00000F20CDE90A054FF48060CDE90C40022186
:102E10000AA80E94FDF7DEFF002801D072B6FEE787
:102E20000FB030BD704700000148FEF782BB0000C4
:102E3000840500200148FEF77CBB0000CC05002083
:102E4000F0B50268194B1A4C1A4D4FF08047984262
:102E500005D0B84203D0A04201D0A84203D122F04D
:102E600070064A683243984205D0B84203D0A04267
:102E700001D0A84203D122F44074CA6822434C69AD
:102E800022F08002224302608A68C2620A6882627B
:102E9000984201D109690163012141610169C907B2
:102EA00003D0016921F001010161F0BD002C014056
:102EB000000400400008004010B5846842EA032284
:102EC00024F47F440A432243826010BD826822F0CA
:102ED00070020A4342F007018160704710B5036A2F
:102EE000046A24F001040462846924F0F00444EAD2
:102EF000021423F00A020A438461026210BD10B575
:102F0000036A046A24F010040462846923F0A003B5
:102F100024F4704444EA023243EA011182610162FE
:102F200010BD00002DE9F0413B4C01270025E07A5F
:102F300030B301286DD100BFFFF7C2FE00F010FBD7
:102F4000E16A364E401A4CF250312063884246D333
:102F50002573A5735FF00100C0EBC00106EB810192
:102F6000A27B097A401C1144C0B2A1731F28F3D37D
:102F700011F0FF0F2A484FF400610AD0277309E0CF
:102F800000F0EEFAE062A572E57125726772E772F1
:102F9000D2E73DB10122FDF734FE657202202072B6
:102FA000A07205E00022FDF72CFE67722572A57263
:102FB00065732846A5730121C1EBC10206EB8202AD
:102FC000527932B1491CC9B20E29F5D318B1E77153
:102FD00002E06773FBE7E57100F0C2FAE062E07BB4
:102FE000012816D100204023C0EBC00106EB81016F
:102FF0004A7A012A08D1CA7912B1402A02D002E0E5
:10300000CB7100E0CD714D72401CC0B21F28EBD3D4
:10301000E573BDE8F081000000000020B40000204E
:103020000008014010B5406A0021C185C184FEF747
:10303000C2FB10BD70B5446A2068406994F8411025
:10304000C0F3C0100025212904D118B1E584204621
:1030500000F0B4F82068406994F84210C0F3801082
:10306000222904D118B1E585204600F080F8606C73
:1030700040F0100060642046FEF79DFB70BD10B567
:103080000146406A096809684FF0000289062ED49B
:10309000C28501680C3151E8003F23F4807341E898
:1030A0000034002CF5D10168143151E8003F23F0C1
:1030B000010341E80034002CF5D10168143151E8D6
:1030C000003F23F0400341E80034002CF5D12021DB
:1030D00080F84210016B012909D101680C3151E8D7
:1030E000003F23F0100341E80034002CF5D1426387
:1030F000016B012902D0FEF73BFE10BD818DFEF76A
:103100001BFB10BD10B5406A01214163016B012911
:1031100002D0FEF753FE10BD818D4908FEF70CFB6F
:1031200010BD10B50146406A09680968890616D4C1
:103130000021C1840168143151E8002F22F080027F
:1031400041E80023002BF5D101680C3151E8002F34
:1031500042F0400241E80023002BF5D110BDFEF7FC
:10316000BBFE10BD10B5406AFEF7B7FE10BD01688A
:103170000C3151E8002F22F4907241E80023002B1B
:10318000F5D10168143151E8002F22F0010241E825
:103190000023002BF5D1016B012909D101680C3105
:1031A00051E8002F22F0100241E80023002BF5D156
:1031B000202180F8421000210163704701680C3122
:1031C00051E8002F22F0C00241E80023002BF5D186
:1031D000202180F84110704708B590F8421022294C
:1031E00001D0022008BD82684FF480539A4201D179
:1031F000016921B1816A9A421BD04AB10AE0026892
:10320000816A5268C2F308020A80816A891C08E058
:10321000026972B10268526802F07F020A70816A24
:10322000491C8162C18D491E0904090CC18503D066
:103230001BE002685268F1E70168CA6822F02002C8
:10324000CA600168CA6822F48072CA6001684A696B
:1032500022F001024A61202180F8421000214163DE
:10326000026B012A03D0FEF783FD002008BD016335
:1032700001680C3151E8002F22F0100241E80023D0
:10328000002BF5D101680A68D20602D50A684968A0
:103290000091818DFEF750FAE7E7000070B5044613
:1032A00000680169E26821F440511143016121691C
:1032B000A0680843616908432168CA6841F20C6349
:1032C0009A430243CA6020684169A26921F44071AF
:1032D000114341611E492068884202D1FDF720FE5A
:1032E00001E0FDF70DFE00EBC00101EB001260688C
:1032F00064218000B2FBF0F3B3FBF1F36FF018062A
:103300007343B2FBF0F5B2FBF0F605EB8305322315
:1033100003EB0515B5FBF1F5B6FBF1F605F0F0058D
:1033200005EB0615B2FBF0F6B2FBF0F0B0FBF1F0E6
:103330006FF01802504306EB800003EB0010B0FB67
:10334000F1F0216800F00F002844886070BD000093
:103350000038014038B5816204468285002013465A
:103360006064222284F84220E56B1B4AAA62E56B66
:103370001A4AEA62E56B1A4A2A63E26B50630A460C
:103380002168E06B091DFDF771FA2068016840684B
:103390000090206948B120680C3050E8001F41F4CB
:1033A000807140E80012002AF5D12068143050E8FE
:1033B000001F41F0010140E80012002AF5D1206809
:1033C000143050E8001F41F0400140E80012002A8C
:1033D000F5D1002038BD00007F300008053100081D
:1033E0003530000881628285C28500214164222136
:1033F00080F84210016921B10168CA6842F4807204
:10340000CA6001684A6942F001024A610068C16805
:1034100041F02001C160002070472DE9F843984633
:1034200017460D460446089E24E0701C22D0FDF786
:10343000EDFBA0EB0800B0421AD8CEB12068C168FD
:10344000490717D5802D15D0402D13D00168C943E9
:1034500009070FD401680025406800902046FFF757
:1034600086FE0820606484F840500120BDE8F8839F
:103470000320FBE72068006835EA000004D0002044
:10348000B842D2D00020F1E70120F9E70148FEF769
:1034900093B90000140600200148FEF78DB9000022
:1034A0005C0600200148FEF787B90000A406002052
:1034B000FEE7000010B50C4CE078002812D000F0B8
:1034C0004FF8216A401A46F2A8116062884209D377
:1034D000FEF760FFFEF75EFF96210448FCF77CFED6
:1034E0000020E07010BD0000580000204C040020B7
:1034F00010B5094CA07800280DD000F031F86169B2
:10350000401AA061B0F5FA6F05D30020A061BDE8B4
:103510001040FFF7E7B910BD3C0000200907090E75
:10352000002804DB00F1E02080F80014704700F070
:103530000F0000F1E02080F8141D7047BFF34F8F9B
:1035400005480168054A01F4E06111430160BFF3D9
:103550004F8F00BFFDE700000CED00E00400FA050E
:1035600005480068416A0548806A00EB4002C2EBEA
:10357000C01001EBC000704784050020000000204F
:1035800008B5FDF787FBFFF71BFCFEF727FF7E481A
:10359000416941F0010141614069002200F00100F0
:1035A000009004210C20FDF7E3FB0C20FDF7D3FB7A
:1035B000002203210E20FDF7DBFB0E20FDF7CBFBE5
:1035C000002203210F20FDF7D3FB0F20FDF7C3FBE3
:1035D000002204211120FDF7CBFB1120FDF7BBFBDE
:1035E000FEF788FF6A4869494FF46146002401608C
:1035F000C0E901640C25C460C0E904458461C4616C
:10360000FEF710FA08B172B6FEE76148614948302A
:103610000160C0E90164C460C0E904458461C4611B
:10362000FEF700FA08B172B6FEE759485A499030E1
:103630000160C0E90164C460C0E904458461C461FB
:10364000FEF7F0F908B172B6FEE7FEF787FF5048C3
:1036500052499C3801600621416040F2E14181609D
:10366000FDF7DAFA08B172B6FEE74D4E4FF4805519
:10367000002229463046FDF7C4FA4A4F0022402175
:103680003846FDF7BEFA002280213846FDF7B9FA28
:103690004FF48078002241463846FDF7B2FAFA200E
:1036A000FDF71CF9012229463046FDF7AAFA01224E
:1036B00040213846FDF7A5FA002280213846FDF763
:1036C000A0FA002241463846FDF79BFAC820FDF7D4
:1036D00005F9002240213846FDF793FA01228021A6
:1036E0003846FDF78EFA002241463846FDF789FA42
:1036F000C820FDF7F3F8002240213846FDF781FA93
:10370000002280213846FDF77CFA012241463846E6
:10371000FDF777FAC820FDF7E1F82348012202708F
:10372000224802702248027022480470FEF74AFFC5
:1037300017492148FCF7D6FD6420FDF7CFF81F4854
:103740000068FFF7F3FA12489038FDF757FE10486B
:103750004838FDF753FE1AA0FCF7AAFE00222946BE
:103760003046FDF74EFA0A489C38FDF784FA1A4CA9
:103770002068401C2060FCF7D5FDFFF78BF8042083
:10378000FFF754F9F4E70000001002400038014050
:103790001406002000440040004800400030004073
:1037A00000080140000C0140070000200800002034
:1037B000090000200A0000204004002034000020FE
:1037C0002A2A2A2A2A4E65772073657373696F6ED9
:1037D0002A2A2A2A2A0A0000800000204FF47F0C9F
:1037E0001CEAD0121EBF1CEAD11392EA0C0F93EA16
:1037F0000C0F00F0858090EA010F48BF42F4807200
:1038000040F4000C41F400002CF07F4120F07F4098
:1038100000B58142A2EB03020FF2081CACEB504E44
:10382000C0F100009EF800E04FEA4E0E00FB0EFCD7
:1038300038BF49004FEA2C1C02F5FA020CFB0EF3CC
:103840004FEACE1E4FEA112C4FEAC1210EEB635E08
:1038500042EB22420EFB0CFC4FEA1C5300FB03110F
:103860004FEA112C4FEA01310EFB0CFC4FEADC4C05
:1038700000FB0C11C14228BF09184CEB03335DF863
:1038800004EB10EB410143EBC250B2F57C0F38BFA3
:10389000704729D512F0F00F1CBF00F1C04000F0B6
:1038A00000407047008182838485868788898B8C5D
:1038B0008D8E8F919293959697999A9C9D9FA0A299
:1038C000A3A5A7A8AAACAEB0B2B3B5B7B9BCBEC0E9
:1038D000C2C5C7C9CCCED1D4D7D9DCDFE2E6E9EC8A
:1038E000F0F3F7FAFE0000004FEA400C0CF1807C88
:1038F000BCF17E4F28BF7047B0F1C04000F00BB95B
:1039000090EA010F0CEAD11348BF42F4807262457D
:1039100038BF634507D213F47F0F16D080EA010049
:1039200000F00040704710B500F0AFF8097EFC3E93
:1039300000F005B880EA010000F00040704780EA1E
:10394000010000F0004000F0E6B812F47F0F04BF61
:103950000248704780EA010000F0DDB80000C07F37
:10396000B0FA80F310FA03F2C3F19D030AD0D9052F
:1039700001EB1220530638BF704700F1010008BF69
:1039800020F00100704700004FF47F0C1CEAD012B9
:103990001EBF1CEAD11392EA0C0F93EA0C0F00F041
:1039A000478090EA010F48BF42F480724FF0004C0C
:1039B0004CEA00204CEA012102EB0302A0FB0113B8
:1039C000A2F50002002918BF43F001035B0028BFE5
:1039D0004FEA330342EB22425FEA132C4CEBC25016
:1039E0002EBFBCEB436FB2F57C0F70474FEA036C00
:1039F000BCF1004F08BF20F00100B2F57C0F38BFCA
:103A000070470BD582F0FF0212F5803FC8BF7047A8
:103A100000F1C040D8BF00F00040704700F5000C36
:103A20005FEA4C0C48BF7047B0F1C04000F073B87B
:103A300090EA010F0CEAD11348BF42F4807262454C
:103A400038BF634504D280EA010000F000407047AF
:103A500010B500F01AF800BF8900013E00F007B869
:103A600000F009B85FEA410C5FEA1C6C08D080EAFC
:103A7000010000F050B85FEA400C5FEA1C6CF6D120
:103A80004FF00040A0F5800070470EF1020E2EF0BE
:103A9000030E5EF8044B244204D44FEA4102B2F113
:103AA0007F4F11D84FEA4003B3F17F4F0CD80ED1AE
:103AB0004FEAD07CB2F17F4F0CEB4C0C0CF1020CB6
:103AC00008BF4CEBD17C04E04FF0080C01E04FEA5A
:103AD000D17C0CEB4C0324FA03F404F00704B4F19A
:103AE000040C06D20EEB840CBDE810404CF0010C27
:103AF0006047DFE80CF0070802024FF00040A0F535
:103B0000800010BD0846420018BFD2F1807288BF05
:103B100000F0004010BDFF2141EAD050C0057047C1
:103B2000010202030405060708090A0B0C0D0E0F1B
:103B3000101000000000000000000102030406074E
:103B40000809000000000102030400006C3B0008AB
:103B5000000000209400000028010008003C00083C
:103B600094000020CC0D000044010008000000007B
:103B70000000000000000000000000000000000045
:103B80000000000000000000000000000000000035
:103B90000000000000000000000000000000000025
:103BA0000000000000000000000000000000000015
:103BB0000000000000000000000000000000000005
:103BC00000000000000001000000000000000000F4
:103BD00000000000000000000000000000000000E5
:103BE00000000000000000000000000000000000D5
:103BF00001000000100000000000000000127A0028
:04000005080000ED02
:00000001FF
