:020000040800F2
:10000000200E0020890100082F260008C9220008C0
:100010002D26000865030008493000080000000094
:10002000000000000000000000000000A1280008FF
:1000300067040008000000009D260008612A0008EF
:10004000A3010008A3010008A3010008A301000800
:10005000A3010008A3010008A3010008A3010008F0
:10006000A3010008A3010008A3010008A3010008E0
:100070000D040008A3010008190400082504000865
:10008000A301000831040008A3010008A30100082F
:10009000A3010008A3010008A3010008A3010008B0
:1000A000A3010008C52A0008A3010008A301000855
:1000B000D12A0008A3010008A3010008A301000839
:1000C000A3010008A3010008A3010008A301000880
:1000D000A301000825300008313000083D30000839
:1000E000A3010008A3010008A301000800F002F822
:1000F00000F03AF80AA090E8000C82448344AAF188
:100100000107DA4501D100F02FF8AFF2090EBAE885
:100110000F0013F0010F18BFFB1A43F0010318473B
:10012000CC340000EC340000103A24BF78C878C109
:10013000FAD8520724BF30C830C144BF04680C60ED
:10014000704700000023002400250026103A28BF35
:1001500078C1FBD8520728BF30C148BF0B60704739
:100160001FB51FBD10B510BD00F082F81146FFF796
:10017000F7FF02F0BFFF00F0A0F803B4FFF7F2FFB3
:1001800003BC00F0A7F80000094880470948004771
:10019000FEE7FEE7FEE7FEE7FEE7FEE7FEE7FEE737
:1001A000FEE7FEE704480549054A064B7047000094
:1001B000C32A0008ED00000820080020200E0020BF
:1001C000200A0020200A002002F0FF0343EA032255
:1001D00042EA024200F002B84FF000020429C0F0E7
:1001E000128010F0030C00F01B80CCF1040CBCF169
:1001F000020F18BF00F8012BA8BF20F8022BA1EBBB
:100200000C0100F00DB85FEAC17C24BF00F8012B9F
:1002100000F8012B48BF00F8012B70474FF0000297
:1002200000B5134694469646203922BFA0E80C50EC
:10023000A0E80C50B1F12001BFF4F7AF090728BFC7
:10024000A0E80C5048BF0CC05DF804EB890028BF43
:1002500040F8042B08BF704748BF20F8022B11F06C
:10026000804F18BF00F8012B7047704770477047E8
:10027000754600F02BF8AE4605006946534620F05F
:100280000700854618B020B5FFF78CFFBDE8204079
:100290004FF000064FF000074FF000084FF0000B42
:1002A00021F00701AC46ACE8C009ACE8C009ACE8F5
:1002B000C009ACE8C0098D46704710B50446AFF3DD
:1002C00000802046BDE81040FFF757BF0048704748
:1002D000C007002001491820ABBEFEE7260002003F
:1002E0007047000010B50160002101720171818129
:1002F000C1814181DA2203210A48FFF765FF0948DD
:10030000AD2203219630FFF75FFF01F0DFFF0549C3
:1003100096229631044801F098F902F0DBFE034979
:10032000C86010BD1C040020D80500204C0000202F
:100330000A4810B5006A40F6B831B0FBF1F000F0A1
:1003400038F8020006484FF4805101D0002200E046
:100350000122BDE8104000F030BC00000000002089
:1003600000080140FEE730B5044600200246491E61
:100370000EE0A35C5840002345000006C0105B1C43
:1003800085EA5070DBB2C0B2082BF5D3521CD2B252
:100390008A42EEDB30BD0346002010B50246491EFE
:1003A00004E09C5C521C2044C0B2D2B28A42F8DB0A
:1003B00010BDC00701D00020704701207047000029
:1003C00070B5104B598B491C89B25983814217D3A0
:1003D00000210D4C0D4600BFC1EBC10204EB8202AF
:1003E000567946B1167936B156890644B6B2568169
:1003F0001E2E00D35571491CC9B21F29ECD35D8351
:1004000070BD00000000002080000020014800F0C6
:1004100031B900007C070020014800F02BB9000032
:10042000F4060020014800F025B90000B0060020C5
:10043000014800F01FB900003807002030B590F8DF
:1004400040500124AC40C56B6C6004686360436835
:10045000102B036803D099600068C26030BD9A60B9
:100460000068C16030BD7047704772B6FEE700009B
:100470002DE9F0412D4CA0782D4E0025B71488B100
:1004800001223946304600F098FBA089401C80B21A
:10049000A0810A2806D300223946304600F08DFBA1
:1004A000A581A570E07898B14FF40068012241461B
:1004B000304600F082FBE089401C80B2E0810A28CF
:1004C00006D300224146304600F077FBE581E57017
:1004D0002079184E98B14FF4005801224146304619
:1004E00000F06BFB208A401C80B22082032806D3D8
:1004F00000224146304600F060FB2582257160797C
:10050000002811D001223946304600F056FB608A9F
:10051000401C80B26082032806D300223946304650
:1005200000F04BFB65826571BDE8F08100000020A2
:1005300000080140000C014010B590F82110002285
:10054000022905D00421816380F82020012010BDFC
:1005500001680B6823F00E030B6001680B6823F041
:1005600001030B6090F84030C46B012101FA03F3E2
:10057000636080F8211080F82020104610BD000034
:1005800010B590F821100024022903D004218163C2
:1005900001243DE001680A6822F00E020A60016849
:1005A0000A6822F001020A601A4A0168914201D1E8
:1005B000012121E0174A1432914201D110211BE0A0
:1005C000144A2832914201D1891515E0114A3C3272
:1005D000914201D189140FE00E4A5032914202D16A
:1005E0004FF4803108E00B4A6432914202D14FF45B
:1005F000801101E04FF08071064A083A51600121F4
:1006000080F82110002180F82010416B01B188474B
:10061000204610BD0800024010B528B301680A68E2
:1006200022F001020A600268002111600268516034
:10063000026891600268D1600C4B026801241A4480
:100640001423B2FBF3F29300094AC0E90F239C4044
:1006500054608162C16201634163816380F821104B
:1006600080F82010002010BD012010BDF8FFFDBF54
:10067000000002402DE9F05FC16B0C6801680B6857
:10068000D0F840C0042202FA0CF2494DDFF824A150
:10069000494E4A4FDFF828B1DFF828E122422CD03A
:1006A0005A072AD50A68920603D40A6822F004027F
:1006B0000A600168A94201D1042219E0514501D123
:1006C000402215E0B14202D14FF4806210E0B942FD
:1006D00002D14FF480420BE0594502D14FF4802201
:1006E00006E0714502D14FF4800201E04FF08062D4
:1006F0002F4908394A60C16A3BE04FF0020808FA06
:100700000CF818EA040F4FF000094FF0010235D041
:100710005FEA837832D50B689B0605D40B6823F01B
:100720000A030B6080F821200168A94201D102224E
:1007300019E0514501D1202215E0B14202D14FF418
:10074000007210E0B94202D14FF400520BE059455B
:1007500002D14FF4003206E0714502D14FF400128D
:1007600001E04FF00072124908394A6080F8209089
:10077000816A00291AD0BDE8F05F0847082505FA0C
:100780000CF5254212D01B0710D50B6823F00E0381
:100790000B6090F84010C36B02FA01F1596082635C
:1007A00080F8212080F82090016BE2E7BDE8F09FFF
:1007B000080002401C000240300002404400024099
:1007C000580002406C00024030B528B308C81349F5
:1007D00014221944B1FBF2F18900C163104981630D
:1007E000022141771A6843F6F0718A43D0E9001478
:1007F0002143D0E902452C43214304692143446944
:10080000214384692143114319600021416301227E
:1008100042770177084630BD012030BDF8FFFDBFAB
:100820000000024070B5044690F820000025012821
:100830000CD0012084F8200094F821600020012EC3
:1008400006D084F820000225284670BD022070BD25
:10085000022684F82160A0632068066826F001065D
:1008600006602046FFF7EAFDE06A0028206801687C
:1008700002D041F00E0106E021F004010160206881
:10088000016841F00A0101602068016841F001013E
:100890000160D9E770B5044600F094F90546601C84
:1008A00002D004480078044400F08CF9401BA042B8
:1008B000FAD370BD700000202DE9F04300233E4FB5
:1008C0000F2573E001229A400A406DD023F0030403
:1008D000E619D6F808809C074FEA147C05FA0CF953
:1008E00009EA0804DFF8D480404502D14FF000083F
:1008F00016E0DFF8CC80404502D14FF001080FE050
:10090000DFF8C080404502D14FF0020808E0DFF870
:10091000B880404502D14FF0030801E04FF00408D1
:1009200008FA0CF8A04522D1284CD4F800C02CEAD3
:10093000020CC4F800C0241DD4F800C02CEA020C3C
:10094000C4F800C0214C0C34D4F800C02CEA020CCE
:10095000C4F800C0241FD4F800C02CEA020CC4F86C
:1009600000C0D6F808C02CEA090CC6F808C0FF2A57
:1009700001D8064601E000F104064FEA830401D9DC
:10098000A4F12004D6F800C005FA04F82CEA080CFB
:100990004FF0040808FA04F84CEA080CC6F800C046
:1009A000C46824EA0204C46003F1010331FA03F2CB
:1009B00088D1BDE8F083000000000140000801403C
:1009C000000C0140001001400014014000040140EF
:1009D0002DE9F84FDFF8B8910024A9F1040B234664
:1009E0000F2709F1040AABF1040EC9E00125A54067
:1009F0002A40AA427DD1674ED1F804C0ACEB06086C
:100A0000B44532D014DCBCF1030F3AD009DCBCF1A0
:100A1000000F2AD0BCF1010F1CD0BCF1020F31D164
:100A20001DE0BCF1110F17D0BCF1120F2AD119E053
:100A3000B8F5881F19D006DCB8F5803F15D0B8F599
:100A4000801F1FD111E0B8F5001F0ED0B8F5041FAC
:100A500018D10AE0CB6815E0CB681B1D12E0CB680B
:100A600008330FE0CB680C330CE08B682BB1012B03
:100A70004FF0080303D0456104E0042302E0056160
:100A800000E00023FF2A01D8064601E000F1040639
:100A90004FEA840501D9A5F12005D6F8008007FAB0
:100AA00005FC28EA0C0803FA05F548EA0508C6F82B
:100AB00000804D68ED0062D5374DAE6946F0010605
:100AC000AE61AD6924F0030605F001050095334DD4
:100AD00006EB050CDCF80850A607360F07FA06F8F7
:100AE00025EA0805DFF8B880404503D14FF000083B
:100AF00017E044E0DFF8AC80404502D14FF0010838
:100B00000FE0DFF8A480404502D14FF0020808E072
:100B1000DFF89880404502D14FF0030801E04FF024
:100B2000040808FA06F848EA0508CCF808804D6879
:100B3000D9F80060ED024D4601D5164300E096431A
:100B40002E604D68DAF80060AD02554601D51643B7
:100B500000E096432E604D68DBF80060AD035D4613
:100B600001D5164300E096432E604D68DEF8006024
:100B7000ED03754601D5164300E096432E60641CD4
:100B80000D682A46E5407FF431AFBDE8F88F0000DC
:100B90000804014000001110001002400000014054
:100BA00000080140000C0140001001400014014009
:100BB0008068084000D0012070470AB10161704789
:100BC0000904FBE7014880687047000070000020BE
:100BD00002488168027811448160704770000020EB
:100BE000074810B5016841F010010160032000F0D2
:100BF00085F80F2000F006F800F024F8002010BD62
:100C00000020024070B50D4D04464FF47A712878EB
:100C1000B1FBF0F00A490968B1FBF0F000F0ECFA22
:100C200048B9102C07D200222146501E00F046F889
:100C300000206C6070BD012070BD000070000020BD
:100C40007C0000200C4808B5816941F001018161F8
:100C5000816901F001010091C16941F08051C161D8
:100C6000C06900F0805000900448416821F0E061C4
:100C700041F00071416008BD0010024000000140D9
:100C800000280DDB00F01F02012191404009800087
:100C900000F1E020C0F88011BFF34F8FBFF36F8FDA
:100CA0007047002809DB00F01F0201219140400934
:100CB000800000F1E020C0F800117047F0B40E4B46
:100CC0001B680C46C3F30223C3F10705042D00D9AA
:100CD0000425191D072901D2002300E0DB1E01268F
:100CE00006FA05F1491E214099409E40761E1640A5
:100CF0003143F0BC02F0DEB90CED00E0064900F033
:100D0000070208684FF6FF03184040EA0220034A32
:100D100010430860704700000CED00E00000FA0589
:100D20002DE9F0470F46050061D0434E306800F0D2
:100D30000700B84209D2306820F00700384330601D
:100D4000306800F00700B84251D128683B4C810759
:100D500012D5400703D5606840F4E06060602878F1
:100D6000000703D5606840F4605060606068A9685F
:100D700020F0F000084360602878C00728D0686839
:100D8000012810D02168022810D0890700292EDA06
:100D9000616821F0030101436160FFF713FF8046A2
:100DA00041F288390DE021688903EFE78901EDE719
:100DB000FFF708FFA0EB0801494502D90320BDE871
:100DC000F0876068696800F00C00B0EB810FEFD12C
:100DD000306800F00700B8420BD9306820F00700F7
:100DE00038433060306800F00700B84201D001207D
:100DF000E5E72878400705D56068E96820F4E060F9
:100E0000084360602878000706D56068296920F4E7
:100E1000605040EAC100606000F038F86168084A3C
:100E2000C1F30311515CC8400649086006480068D8
:100E3000FFF7E8FE0020C2E7002002400010024059
:100E4000D23500087C0000207400002004480549C9
:100E500000684968044AC1F30221515CC8407047E8
:100E60007C00002000100240E235000804480549DB
:100E700000684968044AC1F3C221515CC840704708
:100E80007C00002000100240E23500080E4A516844
:100E90000E4801F00C03042B11D0082B0FD10C4885
:100EA000C1F38343C903C05C0AD55168084AC1F342
:100EB0004041921E515C054A5043B0FBF1F070472F
:100EC00004494843704700000010024000127A00B5
:100ED000C235000800093D002DE9F84F040070D02C
:100EE0002078C04DC00749D06868C0F38100012850
:100EF00007D06868C0F38100022809D16868C00380
:100F000006D52868800339D560680028E7D035E029
:100F10006068B0F5803F0BD010B1B0F5A02F11D0B4
:100F2000286820F480302860286820F4802002E0BF
:100F3000286840F480302860606890B1FFF742FE76
:100F400006460AE0286840F480202860F0E700BFE9
:100F5000FFF738FE801B642873D828688003F7D514
:100F60000CE0FFF72FFE064605E000BFFFF72AFE64
:100F7000801B6428F0D828688003F7D420789A4E24
:100F800080074FF001094FF0000839D5686810F06C
:100F90000C0F07D06868C0F38100022809D1686887
:100FA000C00306D42868800714D52069012808D119
:100FB00010E02069B0B1C6F80090FFF703FE0746C5
:100FC00005E00AE1FFF7FEFDC01B0228C4D828682F
:100FD0008007F7D52868616920F0F80040EAC10071
:100FE00028600DE0C6F80080FFF7ECFD074604E03E
:100FF000FFF7E8FDC01B022823D828688007F7D434
:10100000207800072CD57948A169D9B1C0F80090A3
:10101000FFF7D8FD074604E0FFF7D4FDC01B022808
:101020000FD8686A8007F7D571484FF4FA51006805
:10103000B0FBF1F0009000BF0098411E0091FAD281
:101040000EE080E0C0F80080FFF7BCFD074604E03A
:10105000FFF7B8FDC01B022875D8686A8007F7D46F
:101060002078400760D5E8690027C00008D4E86907
:1010700040F08050E861E869012700F0805000905E
:101080005C480168C90513D40168834641F4807146
:101090000160FFF797FD824606E000BFFFF792FD73
:1010A000A0EB0A0064284ED8DBF80000C005F5D597
:1010B000E06801280AD008B1052813D0286A20F07A
:1010C00001002862286A20F0040002E0286A40F04B
:1010D00001002862E06841F2883B98B1FFF772FD99
:1010E00082460BE0286A40F004002862EEE700BF69
:1010F000FFF768FDA0EB0A0159455AD8286A800716
:10110000F6D50CE0FFF75EFD824605E0FFF75AFDDD
:10111000A0EB0A0159454CD8286A8007F6D41FB1C4
:10112000E86920F08050E861E06988B36968C1F33C
:101130008101022944D00228C6F8608004D0FFF75C
:1011400041FD044638E034E0FFF73CFD074604E08B
:10115000FFF738FDC01B02282BD828688001F7D480
:10116000206AB0F5803F05D16868A16820F400309E
:1011700008436860D4E908010843696821F47411E0
:1011800008436860C6F86090FFF71CFD044606E05F
:1011900025E000BFFFF716FD001B022809D82868CC
:1011A0008001F7D51BE000BFFFF70CFD001B0228F4
:1011B00002D90320BDE8F88F28688001F4D40EE03E
:1011C0000128F7D06868226A00F48031914204D186
:1011D000616A00F47010884201D00120EAE7002023
:1011E000E8E7000000100240000042428004424252
:1011F0007C0000200070004010B5401EB0F1807FE0
:1012000001D3012010BD4FF0E02460610F21601771
:1012100001F050FF0020A06107202061002010BDD8
:101220007047704770B590F83C20012A26D0012401
:1012300080F83C40022280F83D2003685A689D688F
:1012400022F070060A6832435A600D4B02689A42D7
:1012500008D0B2F1804F05D00A4B9A4202D00A4B17
:101260009A4204D1496825F080031943916080F8BF
:101270003D40002180F83C10084670BD022070BD42
:10128000002C0140000400400008004010B504009C
:1012900003D094F83D0010B107E0012010BD0020FC
:1012A00084F83C00204600F01FF8022084F83D003E
:1012B000211D206801F012FC012084F8460084F80A
:1012C0003E0084F83F0084F8400084F8410084F830
:1012D000420084F8430084F8440084F8450084F810
:1012E0003D00002010BD000008B5154A01681548F2
:1012F00091420ED1816941F40061816180690022CF
:1013000000F40060009011461920FFF7D7FC192067
:1013100010E0B1F1804F11D1C16941F00101C1610B
:10132000C069002200F00100009011461C20FFF768
:10133000C5FC1C20BDE80840FFF7B3BC08BD000099
:10134000002C01400010024090F83D10012901D00E
:1013500001207047022180F83D100168CA6842F000
:101360000102CA6000680B49884208D0B0F1804F82
:1013700005D00949884202D00849884204D18168D1
:1013800001F00701062903D0016841F00101016065
:1013900000207047002C014000040040000800407D
:1013A00070B5044690F83C000025012817D00126AE
:1013B00084F83C60022084F83D002068826822F0B6
:1013C000770222F47F4282600868502838D00DDC12
:1013D00020284FD005DC90B3102811D14AE002201C
:1013E00070BD302846D040280AD13BE060282FD07D
:1013F00070280DD0B0F5805F03D0B0F5005F12D03B
:10140000012584F83D60002084F83C00284670BD2A
:10141000CB68D1E90121206801F09CFB206881683C
:1014200041F0770109E0CB68D1E90121206801F0A2
:1014300091FB2068816841F480418160E1E719E017
:10144000CA684968206801F097FB5021206806E0CF
:10145000CA684968206801F0A0FB6021206801F09B
:1014600083FBCEE7CA684968206801F085FB40210C
:101470002068F4E7226801461046F0E770472DE93E
:10148000F04104460068C66805694FF00007A907E7
:1014900013D5B10711D5F91E01610120207720680D
:1014A00080698007204602D0FFF7E8FF04E000F0E3
:1014B0007EF8204600F07CF82777680716D570077D
:1014C00014D521686FF0040008610220207720689D
:1014D000806910F4407F204602D0FFF7CFFF04E080
:1014E00000F065F8204600F063F82777280715D547
:1014F000300713D521686FF00800086104202077B9
:101500002068C0698007204602D0FFF7B7FF04E0DB
:1015100000F04DF8204600F04BF82777E80616D586
:10152000F00614D521686FF01000086108202077BC
:101530002068C06910F4407F204602D0FFF79EFF6C
:1015400004E000F034F8204600F032F82777E8078E
:1015500008D0F00706D021686FF00100086120462E
:1015600000F028F8280608D5300606D521686FF067
:10157000800008612046FFF753FE680608D5700614
:1015800006D521686FF040000861204600F05CF845
:10159000A8060AD5B00608D521686FF020000861BA
:1015A0002046BDE8F041FFF73CBEBDE8F081704742
:1015B0007047000070B520490546006809681F4C57
:1015C000884218D1606A401C6062A08A401CA082D8
:1015D000E08A401CE082A08B401CA0831849088848
:1015E000401C0880206A401C2062FEF741FF00F08A
:1015F0009FFD00F039FE134928680968884219D117
:10160000A07980B9208B401C80B22083782801D13A
:1016100000202083208B0921B0FBF1F201FB120096
:1016200008B90120A0710520FEF7CAFEBDE8704090
:10163000FEF77EBE70BD00004805002000000020BF
:101640006C00002090050020704738B5044690F8E3
:101650004200202801D0022038BD51B14AB10120FA
:10166000206300206063204601F040FC216B0129CB
:1016700001D0012038BD21680A68496800912168BD
:101680000C3151E8002F42F0100241E80023002BFA
:10169000F5D138BD70B50D4600680B49884212D1AE
:1016A0000A4C607830B901F049F801206070608917
:1016B000401C60812570962205490648FFF7C5FF4A
:1016C00001F008FDE06070BD003801404C000020D2
:1016D000B2040020D805002010B5040015D0242045
:1016E00084F841002068C16821F40051C16020469F
:1016F00000F076F90020606484F8410084F842002C
:1017000044F8300F6060207410BD012010BD704798
:10171000F8B5016804460868CA684B6910F00F0FF5
:101720004FF0000559D003F0010602F490773743DB
:1017300065D0C10705D0D10503D5616C41F0010129
:101740006164410705D5D90703D0616C41F00201FE
:101750006164810705D5D90703D0616C41F00401AC
:101760006164010707D502F02001314303D0616CA9
:1017700041F008016164616C00293AD0800604D50B
:10178000900602D5204601F0F4FA20684069616CA9
:10179000C0F38010090700D460B3204601F0B4FA0A
:1017A00020684069400621D52068143050E8001FA9
:1017B00021F0400140E80012002AF5D1E06BA8B109
:1017C0006D494163E06BFEF7DBFE002811D0E06B52
:1017D000416B01B0BDE8F040084783060FD5930682
:1017E0000DD52046BDE8F84001F0C3BA2046FFF70A
:1017F0008EFFF8BD2046FFF78AFF6564F8BD266BB3
:101800002023012E7CD1C6067AD5D60678D5086865
:101810004868009048694FF00206400640D5E16BE9
:10182000086840680004000CE8D0A28D8242E5D927
:10183000E085886920282DD020680C3050E8001FF2
:1018400021F4807140E80012002AF5D1206814309C
:1018500050E8001F21F0010140E80012002AF5D1F4
:101860002068143050E8001F21F0400140E80012C9
:10187000002AF5D184F84230256320680C3050E806
:10188000001F21F0100140E80012002AF5D1E06BA2
:10189000FEF752FE6663A08DE18D401A81B22AE008
:1018A000A08DE18D401A81B2E08D0028A6D00029DC
:1018B000A4D022680C3252E8000F20F4907042E865
:1018C0000007002FF5D12068143050E8002F22F0D7
:1018D000010240E80027002FF5D184F8423025634B
:1018E00020680C3050E8002F22F0100240E800235E
:1018F000002BF5D166632046FFF7CCFEF8BDFFE76D
:1019000005062BD5150629D594F841002128F5D1D7
:10191000A068B0F5805F01D12069B0B1206A411C98
:101920002162216800784860E08C401E0004000CB1
:10193000E084E3D12068C16821F08001C1602068A3
:10194000C16841F04001C160D8E7206A0088C0F357
:1019500008004860206A801C2062E5E74006CDD57B
:101960005006CBD5CA68204622F04002CA6084F8EF
:10197000413000F05DFAC1E7BF2B000870B50400EC
:1019800004D094F84100002510B106E0012070BD9C
:1019900084F84050204600F06DF8242084F841007F
:1019A0002068C16821F40051C160204601F042FA6C
:1019B0002068016921F4904101612068416921F0AA
:1019C0002A0141612068C16841F40051C160656429
:1019D000202084F8410084F842006563002070BD37
:1019E00010B5044600681D4B1D491E4A984210D18F
:1019F000886920F4804088614FF4C0611046FEF78A
:101A00005BFFE06BFEF708FEA06BFEF705FE2520EE
:101A10001FE0154B98420CD1C86920F40030C86112
:101A20000C211046FEF748FFA06BFEF7F5FD2620BF
:101A30000FE00E4A904210D1C86920F48020C8619E
:101A40004FF440610A48FEF737FFA06BFEF7E4FD54
:101A50002720BDE81040FFF713B910BD0038014042
:101A600000100240000801400044004000480040CF
:101A7000000C01402DE9F04385B00024009401944E
:101A8000029403940546DFF8F881D0F800C07D4841
:101A9000022103227C4B102680274FF48069C44525
:101AA00058D1D0F818C04CF4804CC0F818C0D0F809
:101AB00018C00CF4804CCDF810C0D0F818C04CF011
:101AC000040CC0F818C08069039200F00400049070
:101AD0000802CDE90001694698461846FEF778FFEE
:101AE000CDE90094694640460294FEF771FFDFF8A5
:101AF000A08166494046B946C0E90014C0E90247E2
:101B0000C8F81040C8F814408914C8E90641FEF727
:101B10005BFE08B1FEF7A9FC5C485E4FC5F83C804F
:101B20001438C8F824503860C7E90164C7E9039441
:101B30007C61BC613846FC61FEF746FE08B1FEF7E9
:101B400094FCAF630022114625207D62FFF7B6F8B2
:101B500025204AE0DFF84081C4454BD1D0F81CC0B5
:101B60004CF4003CC0F81CC0D0F81CC00CF4003C85
:101B7000CDF810C0D0F818C04CF0040CC0F818C054
:101B80008069039200F0040004900420CDE9000174
:101B9000694698461846FEF71BFF0820CDE9000469
:101BA000694640460294FEF713FF3849DFF8EC809F
:101BB00028314046C8F80010C0E90164C0E9037448
:101BC000C8F81440C8F81840C8F81C40FEF7FCFDDF
:101BD00008B1FEF74AFCC5F83880002211462620DD
:101BE000C8F82450FFF76AF82620FFF75AF805B026
:101BF000BDE8F0832A4B9C45F9D1C36943F48023A7
:101C0000C361C36903F480230493836943F0080329
:101C100083618069CDE9009100F00800CDE90320DF
:101C2000DFF8808069464046FEF7D2FE4FF4006040
:101C3000CDE90004694640460294FEF7C9FE134907
:101C4000DFF864803C394046C8F80010C0E9016400
:101C5000C0E90374C8F81440C8F81840C8F81C401C
:101C6000FEF7B2FD08B1FEF700FCC5F8388000228F
:101C700011462720C8F82450FFF720F82720B4E7A2
:101C800000380140001002400008014058000240A6
:101C9000B0060020F4060020004400403807002071
:101CA00000480040000C01407C07002090F84230C2
:101CB000202B01D00220704721B11AB10023036309
:101CC00001F05CB90120704770B5054600680D4908
:101CD0000D4C884208D10D4800F0E2FC0B4800F0A2
:101CE0008DFAA088401CA08009492868884208D144
:101CF000064800F0D5FC054800F080FAA088401C9A
:101D0000A08070BD0044004038000020E4030020A3
:101D10000048004070472DE9F843044690F8410020
:101D2000984616460D46202802D00220BDE8F883CA
:101D300085B17EB100206064212084F84100FEF767
:101D400041FFA6848146E684A0682027B0F5805F25
:101D500002D003E00120E9E7206910B12E460025FA
:101D60000EE000260CE08021204601F022F9A8B9FF
:101D7000C6B116F8010B21684860E08C401EE08473
:101D8000E08C4B464FF00002CDF800800028EAD1ED
:101D90004FF04001204601F00CF940B184F8417049
:101DA0000320C3E735F8020BC0F30800E3E784F82B
:101DB00041700020BAE7000070B5044690F8410079
:101DC000202801D0022070BD49B342B32162A28411
:101DD000E28400206064212384F84130A56B114B1C
:101DE000AB62A56B104BEB62A56B104B2B63A36B27
:101DF0005863256813462A1DA06BFEF713FD216862
:101E00006FF0400008602068143050E8001F41F077
:101E1000800140E80012002AF5D1002070BD0120A9
:101E200070BD0000BD2C0008FF2C0008CF2B00085F
:101E3000704770472DE9F84FAD48417800296AD0C6
:101E4000002780464770AB4C20785F280DD1607822
:101E500005280AD103212046FEF785FAA178884299
:101E600003D1A5480780A5480760DFF89492207841
:101E700099F8001000F00F00884205D0BDE8F84F37
:101E800096219C48FEF7A8B9667801F023F99D4D8C
:101E9000286031469748FEF766FAA119009111F8BB
:101EA000011CDFF864A2884226D198494FF0010B4B
:101EB00081F800B001F00EF92968411ACAF8001043
:101EC0002078DFF84CA200F0F000102825D0894DD2
:101ED000963D202852D030281DD100F009FA8D48B7
:101EE000007800287ED08248C188491CC180052E18
:101EF00079D90220B11EC8E0B8F808107D48491C05
:101F0000A8F808109621FEF767F901F0E3F82968B0
:101F1000411ACAF80010BDE8F88F7E48077000F03B
:101F2000A3FB00F0A1FBA0787B4D00F03F0646F03C
:101F300080002870002021182A18401CC978C0B2DF
:101F400051700F28F7D3A6202874A0206874802031
:101F5000A87414217048FEF71EFAC6EBC601E87497
:101F60005AF821004FF0FF3314226B49FFF7D3FEDC
:101F700000F05EFBBDE8F84F00F05ABB00F0B8F986
:101F800000F0B6F963481021F61E0170F1B200208E
:101F90005A46534608E02618401CB678C0B2C6EB35
:101FA000C60603EB860632718842F4D399F8000026
:101FB000042100F00F0040F0200028700420687019
:101FC0000220A8704B489638FEF7CDF94949E870D1
:101FD0004FF0FF33042296395048FFF79CFE9621BC
:101FE000444801E006E052E09638FEF7F5F800F0CC
:101FF0006DF91DE099F80000042100F00F0040F099
:1020000070002870042068700720A870394896383E
:10201000FEF7A9F93749E8704FF0FF3304229639EB
:102020003E48FFF778FE334896219638FEF7D4F8FD
:10203000BDE8F84F00F04AB9235C03F03F0203F01B
:10204000C00CC2EBC2080AEB880383F807C004EB9C
:10205000000C9CF801C083F806C02A5493F805C010
:102060000022BCF1000F00D1012293F809C09200B8
:1020700042EA4C0293F808C042EA0C0205EB000C5D
:10208000801C8CF801205F72C0B28842D4DB0098BB
:10209000234A10F8020C81091170224AC0F3011181
:1020A0001170214AC0F381011170204900F0030032
:1020B000087099F8000000F00F0040F03000287020
:1020C000701EC1B20B4869709638FEF74CF9A91919
:1020D00001F8020C07496A7896391048FFF76CFE40
:1020E000034C84F803B000F0F5FF606113E70000D3
:1020F0004C000020B2040020180000202000002026
:1021000000000020300000203400002003000020E8
:102110008000002001000020F8030020D8050020E6
:102120000700002008000020090000200A0000200D
:102130002DE9F0412F4C206A4FF41671B0FBF1F0FD
:10214000FEF737F90646206A4FF49671B0FBF1F0BE
:10215000FEF72FF90546E079274F4FF4807148B11B
:10216000E079012808D0E079022815D0E079032829
:1021700015D005E0002200E001223846FEF71DFDE3
:10218000207A78B1207A01280ED0207A02281DD03A
:10219000207A03281DD00CE0002EEDD1EAE7002DB7
:1021A000EAD1E7E7002200E0012280213846FEF76D
:1021B00004FD607A80B1607A01280FD0607A02282D
:1021C00013D0607A032813D145B905E0002EEBD176
:1021D000E8E7002DE8D1E5E7002200E001223846DB
:1021E000BDE8F0414021FEF7E8BC002EF6D1F3E750
:1021F000BDE8F08100000020000C014030B5C1793D
:10220000002921D01149124B01220968994201D1BC
:10221000104903E0104B994201D110490A7010494E
:102220004B7803F03F01C1EBC1050E49DC0901EB1E
:1022300085015B060C7200D54A720B695B1C0B6151
:1022400000234B814A71C37130BD0000280000207B
:102250002006002004000020680600200500002061
:102260004100002080000020154910B5086A4FF495
:102270001672B0FBF2F0FEF79CF80246086A4FF4C3
:102280009673B0FBF3F0FEF794F88C7A0D4B4CB1DB
:102290008C7A012C08D08C7A022C0CD0897A0329F4
:1022A0000CD108B9002200E00122BDE81040202135
:1022B0001846FEF782BC002AF6D1F3E710BD0000F5
:1022C00000000020000C0140FEE7000070B5074D43
:1022D0004FF48074002221462846FEF76EFC21460A
:1022E0002846BDE870400022FEF767BC00080140A8
:1022F00070B50122064D140221462846FEF75DFC0A
:1023000021462846BDE870400122FEF756BC000079
:10231000000801402DE9F04385B000243F480094B7
:10232000019402940394816941F0100181618169F3
:1023300001F010010491816941F0200181618169FE
:1023400001F020010491816941F0040181618169FA
:1023500001F004010491816941F008018161806903
:102360002F4F00F008004FF400550490002229463A
:102370003846FEF722FCDFF8AC8000224FF2E01175
:102380004046FEF71AFCDFF8A09000224FF4C85137
:102390004846FEF712FC0095022601250396CDE97A
:1023A000015469463846FEF713FBF0208DE83100F2
:1023B00069464846FEF70CFB07208DE83100694668
:1023C0004046FEF705FB43F2E010CDE90005CDE9FC
:1023D000024669464046FEF7FBFA4FF440400327A9
:1023E000CDE90005CDE9024769464046FEF7F0FA1F
:1023F0002802CDE90005CDE9024769464846FEF7C7
:10240000E7FAF802CDE90005CDE9024669464846FB
:10241000FEF7DEFA05B0BDE8F083000000100240D0
:1024200000100140000C01400008014010B586B0CA
:1024300000241748009401940294039404941349CF
:10244000059401604721C0E9011440F2E731C0E979
:10245000031444618461FEF719FF08B172B6FEE708
:102460004FF48050009069460948FEF799FF08B183
:1024700072B6FEE7049404A905480594FEF7D2FE5F
:10248000002801D072B6FEE706B010BD002C014056
:102490004805002010B586B0002417480094019428
:1024A0000294039404944FF080410594016041F636
:1024B0001F41C0E9011442F20F71C0E903148461A5
:1024C000FEF7E4FE08B172B6FEE74FF480500090CC
:1024D00069460948FEF764FF08B172B6FEE7049446
:1024E00004A905480594FEF79DFE002801D072B6A8
:1024F000FEE706B010BD0000900500202DE9F04178
:10250000354E04213046FEF753FBE0B30020334C38
:1025100021780843207002213046FEF749FB98B32A
:102520000020217841EA4000207001213046FEF76A
:102530003FFB50B300202178294D41EA80002070F4
:1025400080212846FEF734FB78B30020217841EA49
:10255000C000207040212846FEF72AFB40B300202F
:10256000217841EA0010207010212846FEF720FB58
:102570001C491D4D00284FF4E13720461AD08162D6
:102580002846E56202E00AE00BE00CE0FFF7A4F861
:1025900028466F60FFF7F2F90122910316E001204F
:1025A000B5E70120BDE70120C5E7FFE70120CDE742
:1025B0000120D5E7C0E90A510C460A48FFF78CF81C
:1025C00008486760FFF7DAF90122D1033046BDE819
:1025D000F041FEF7F2BA0000000C014000000020BC
:1025E00000080140200600206806002010B5FFF713
:1025F0009FFDFFF739FEFFF71DFC00F003F90A48C5
:10260000417811B1102907D104E0817921B100216D
:10261000817101E000F0B2F900F018FD00F034FD26
:10262000BDE8104000F01EB900000020FEE7FEE704
:1026300009480A4A01680A48914203D100224FF42E
:10264000004105E0074A914204D100224FF4804145
:10265000FEF7B3BA704700002800002020060020D3
:10266000000C0140680600200848094A0168094832
:10267000914202D10122D10304E0074A914203D1E1
:1026800001229103FEF799BA70470000280000204C
:1026900020060020000C0140680600207047000062
:1026A0002DE9F0410446007A00270126204D052837
:1026B00020D2DFE800F0031014272B00607AFE28F8
:1026C00002D0FD2803D015E02870267212E0287091
:1026D000032020720EE0607A68700220F9E7607AC9
:1026E000A87003211248FDF756FEA978814200D157
:1026F000E671277204F109012068BDE8F04101226A
:10270000FFF7D4BA607A68700420E2E7607AA870B4
:1027100003210748FDF73FFEA9788142E9D1FFF781
:10272000E7FD04496878887003480670E1E7000017
:10273000410000201C0400204E00002070B5284CF1
:10274000207800F0F001602949D1264E00F00F00FA
:102750003178884205D02046BDE870409621FDF7CB
:102760003BBD65781E482946FDF7FDFD611911F84E
:10277000011C88422CD11C4901200870FFF7B8FDCC
:102780001A490020164C08703078963C00F00F0073
:1027900040F060002070042060700620A0700421CA
:1027A0002046FDF7E0FDE0704FF0FF3304222146A4
:1027B0000F48FFF7B0FABFF34F8F0E4801680E4A7B
:1027C00001F4E06111430160BFF34F8F00BFFDE7EB
:1027D00000F080FC09490968401A0949086070BD89
:1027E000B2040020000000200300002001000020AF
:1027F000D80500200CED00E00400FA0530000020B0
:102800003400002010B5134CA078002821D0FFF729
:102810006FFD0020A0701048104C007800F00F00F1
:1028200040F0100020700420607001462046FDF743
:102830009AFDE0704FF0FF33042221460848FFF76D
:102840006AFA96212046FDF7C7FCBDE81040FFF765
:102850003DBD10BD4C000020000000201C040020E5
:10286000D805002010B500F035FC094CE168401A8D
:102870000849206188420AD3A0889622401CA08083
:1028800005490648FEF7E1FE00F024FCE06010BDBB
:102890004C000020404B4C00B2040020D805002022
:1028A000704700002DE9F047314E324C1F204FF0A9
:1028B00000092178C1EBC10206EB82021279EAB36A
:1028C000FFF7D2FE20788046C0EBC00006EB800503
:1028D000D5E90307C11B696100F092FD82463846C5
:1028E00000F08EFD244900F09FFD514600F0C6FC2B
:1028F000A861E8791F4F00F0C00108F03F00BF1D3C
:1029000001433970A879787003213846FDF743FDFB
:10291000B87020780322C0EBC000394656F820007A
:10292000FFF74AFA0120A07000F0D4FBE0602078A5
:10293000C0EBC00006EB8000C16800E002E0491C6B
:10294000C1600AE0491CC9B221701F2901D184F875
:102950000090401E10F0FF00ABD12078401CC0B2A8
:1029600020701F2801D184F800900120BDE8F08775
:1029700080000020380000200000C84238B50B4C11
:102980000025A07950B1FFF76FFE09A00068009004
:10299000684600F00FF8A571002038BDE08A0A28CB
:1029A00002D3FFF77FFFE582012038BD0000002041
:1029B000EFAE000010B50446FFF756FE084809497F
:1029C0004FF0FF3300780222C0EBC00051F8200026
:1029D0002146FFF7A0F9BDE81040FFF729BE00002F
:1029E000380000208000002070B50023194C1946E3
:1029F0005FF00105C3EBC3025B1C44F8220004EB4B
:102A00008202DBB21171D1719171117251725571E3
:102A10005181D1601161516191611F2BEAD30E4C3C
:102A2000AE2221726172E171E160206003210B48E6
:102A3000FDF7CAFB0948EA220321C01CFDF7C4FBCD
:102A4000FFF7F6FD04F109012068BDE8704001229E
:102A5000FFF72CB980000020E40300203E00002096
:102A6000FEF7B6B830B58FB028216846FDF7D6FB23
:102A700014210AA8FDF7D2FB01210804CDE90010BA
:102A80000024029402250491CDE907504FF4E01090
:102A900009906846FEF720FA08B172B6FEE70F20EB
:102AA000CDE90A054FF48060CDE90C4002210AA867
:102AB0000E94FEF735F9002801D072B6FEE70FB08C
:102AC00030BD70470148FEF7DABC00004805002021
:102AD0000148FEF7D4BC000090050020F0B5026864
:102AE000194B1A4C1A4D4FF08047984205D0B84206
:102AF00003D0A04201D0A84203D122F070064A6858
:102B00003243984205D0B84203D0A04201D0A84237
:102B100003D122F44074CA6822434C6922F0800237
:102B2000224302608A68C2620A688262984201D1C6
:102B300009690163012141610169C90703D0016984
:102B400021F001010161F0BD002C014000040040B2
:102B50000008004010B5846842EA032224F47F4450
:102B60000A432243826010BD826822F070020A4349
:102B700042F007018160704710B5036A046A24F0CF
:102B800001040462846924F0F00444EA021423F08E
:102B90000A020A438461026210BD10B5036A046A26
:102BA00024F010040462846923F0A00324F4704428
:102BB00044EA023243EA01118261016210BD10B59C
:102BC000406A0021C185C184FEF7A1FD10BD70B52A
:102BD000446A2068406994F84110C0F3C010002591
:102BE000212904D118B1E584204600F0B4F820680A
:102BF000406994F84210C0F38010222904D118B122
:102C0000E585204600F080F8606C40F010006064BC
:102C10002046FEF77CFD70BD10B50146406A09688C
:102C200009684FF0000289062ED4C28501680C3174
:102C300051E8003F23F4807341E80034002CF5D1C3
:102C40000168143151E8003F23F0010341E80034EA
:102C5000002CF5D10168143151E8003F23F0400306
:102C600041E80034002CF5D1202180F84210016B9E
:102C7000012909D101680C3151E8003F23F010030C
:102C800041E80034002CF5D14263016B012902D0E8
:102C9000FFF71AF810BD818DFEF7FCFC10BD10B5D2
:102CA000406A01214163016B012902D0FFF732F82C
:102CB00010BD818D4908FEF7EDFC10BD10B5014631
:102CC000406A09680968890616D40021C184016830
:102CD000143151E8002F22F0800241E80023002B3C
:102CE000F5D101680C3151E8002F42F0400241E873
:102CF0000023002BF5D110BDFFF79AF810BD10B5D9
:102D0000406AFFF796F810BD01680C3151E8002FBA
:102D100022F4907241E80023002BF5D101681431B0
:102D200051E8002F22F0010241E80023002BF5D1E9
:102D3000016B012909D101680C3151E8002F22F003
:102D4000100241E80023002BF5D1202180F8421029
:102D500000210163704701680C3151E8002F22F017
:102D6000C00241E80023002BF5D1202180F841105A
:102D7000704708B590F84210222901D0022008BD02
:102D800082684FF480539A4201D1016921B1816A6E
:102D90009A421BD04AB10AE00268816A5268C2F3C3
:102DA00008020A80816A891C08E0026972B102681F
:102DB000526802F07F020A70816A491C8162C18DEB
:102DC000491E0904090CC18503D01BE00268526842
:102DD000F1E70168CA6822F02002CA600168CA6887
:102DE00022F48072CA6001684A6922F001024A61D5
:102DF000202180F8421000214163026B012A03D098
:102E0000FEF762FF002008BD016301680C3151E844
:102E1000002F22F0100241E80023002BF5D10168B9
:102E20000A68D20602D50A6849680091818DFEF7CA
:102E300031FCE7E770B5044600680169E26821F4F7
:102E40004051114301612169A06808436169084349
:102E50002168CA6841F20C639A430243CA60206841
:102E60004169A26921F44071114341611E49206802
:102E7000884202D1FDF7FAFF01E0FDF7E7FF00EB22
:102E8000C00101EB0012606864218000B2FBF0F326
:102E9000B3FBF1F36FF018067343B2FBF0F5B2FB2E
:102EA000F0F605EB8305322303EB0515B5FBF1F5D1
:102EB000B6FBF1F605F0F00505EB0615B2FBF0F6F2
:102EC000B2FBF0F0B0FBF1F06FF01802504306EBEC
:102ED000800003EB0010B0FBF1F0216800F00F0060
:102EE0002844886070BD00000038014038B5816218
:102EF00004468285002013466064222284F8422022
:102F0000E56B1B4AAA62E56B1A4AEA62E56B1A4A4C
:102F10002A63E26B50630A462168E06B091DFDF7E6
:102F200081FC2068016840680090206948B12068F1
:102F30000C3050E8001F41F4807140E80012002A74
:102F4000F5D12068143050E8001F41F0010140E83D
:102F50000012002AF5D12068143050E8001F41F01B
:102F6000400140E80012002AF5D1002038BD0000E1
:102F7000192C00089F2C0008CF2B00088162828545
:102F8000C28500214164222180F84210016921B1EB
:102F90000168CA6842F48072CA6001684A6942F0F6
:102FA00001024A610068C16841F02001C16000204F
:102FB00070472DE9F843984617460D460446089E8B
:102FC00024E0701C22D0FDF7FDFDA0EB0800B0420C
:102FD0001AD8CEB12068C168490717D5802D15D001
:102FE000402D13D00168C94309070FD4016800259B
:102FF000406800902046FFF787FE0820606484F850
:1030000040500120BDE8F8830320FBE720680068FA
:1030100035EA000004D00020B842D2D00020F1E709
:103020000120F9E70148FEF773BB0000D805002036
:103030000148FEF76DBB0000200600200148FEF7A6
:1030400067BB000068060020FEE7000010B50C4CCE
:10305000E078002812D000F03DF86169401A46F28D
:10306000A811A061884209D3FFF730F9FFF72EF9C4
:1030700096210448FDF7B0F80020E07010BD000074
:103080004C0000201C04002010B5094CA07800283A
:103090000DD000F01FF8E168401A2061B0F5FA6F1A
:1030A00005D300202061BDE81040FFF7C1BA10BD74
:1030B000380000200907090E002804DB00F1E02099
:1030C00080F80014704700F00F0000F1E02080F855
:1030D000141D704705480068416A0548406A00EBC6
:1030E0004002C2EBC01001EBC00070474805002051
:1030F0000000002008B5FDF773FDFFF7B3FCFFF7F4
:1031000009F94B48416941F00101416140690022E0
:1031100000F00100009011460C20FDF7CFFD0C20BF
:10312000FDF7BFFD002211460E20FDF7C7FD0E2062
:10313000FDF7B7FD002211460F20FDF7BFFD0F2060
:10314000FDF7AFFD002211461120FDF7B7FD11205C
:10315000FDF7A7FDFFF76AF9374836494FF4614696
:1031600000240160C0E901640C25C460C0E9044585
:103170008461C461FEF702FC08B172B6FEE72E4816
:103180002E4948300160C0E90164C460C0E90445CB
:103190008461C461FEF7F2FB08B172B6FEE726480F
:1031A000274990300160C0E90164C460C0E904456A
:1031B0008461C461FEF7E2FB08B172B6FEE7FFF777
:1031C00069F901221F4E150329463046FDF7F5FC2B
:1031D0001D48012202701D4802701D4802701D48E2
:1031E0000470FFF78BF914491B48FDF77BF84FF487
:1031F000FA70FDF74FFB19480068FFF7F5FB0E4822
:103200009038FEF7A1F80C484838FEF79DF814A056
:10321000FDF72AF9002229463046FDF7CEFC164C70
:103220002068401C2060FDF783F8FFF7DFF9F7E71F
:103230000010024000380140D80500200044004042
:10324000004800400008014007000020080000205E
:10325000090000200A0000200C04002028000020A3
:103260002A2A2A2A2A4E65772073657373696F6E3E
:103270002A2A2A2A2A0A0000680000204FF47F0C1C
:103280001CEAD0121EBF1CEAD11392EA0C0F93EA7B
:103290000C0F00F0858090EA010F48BF42F4807265
:1032A00040F4000C41F400002CF07F4120F07F40FE
:1032B00000B58142A2EB03020FF2081CACEB504EAA
:1032C000C0F100009EF800E04FEA4E0E00FB0EFC3D
:1032D00038BF49004FEA2C1C02F5FA020CFB0EF332
:1032E0004FEACE1E4FEA112C4FEAC1210EEB635E6E
:1032F00042EB22420EFB0CFC4FEA1C5300FB031175
:103300004FEA112C4FEA01310EFB0CFC4FEADC4C6A
:1033100000FB0C11C14228BF09184CEB03335DF8C8
:1033200004EB10EB410143EBC250B2F57C0F38BF08
:10333000704729D512F0F00F1CBF00F1C04000F01B
:1033400000407047008182838485868788898B8CC2
:103350008D8E8F919293959697999A9C9D9FA0A2FE
:10336000A3A5A7A8AAACAEB0B2B3B5B7B9BCBEC04E
:10337000C2C5C7C9CCCED1D4D7D9DCDFE2E6E9ECEF
:10338000F0F3F7FAFE0000004FEA400C0CF1807CED
:10339000BCF17E4F28BF7047B0F1C04000F00BB9C0
:1033A00090EA010F0CEAD11348BF42F480726245E3
:1033B00038BF634507D213F47F0F16D080EA0100AF
:1033C00000F00040704710B500F0AFF8097EFC3EF9
:1033D00000F005B880EA010000F00040704780EA84
:1033E000010000F0004000F0E6B812F47F0F04BFC7
:1033F0000248704780EA010000F0DDB80000C07F9D
:10340000B0FA80F310FA03F2C3F19D030AD0D90594
:1034100001EB1220530638BF704700F1010008BFCE
:1034200020F00100704700004FF47F0C1CEAD0121E
:103430001EBF1CEAD11392EA0C0F93EA0C0F00F0A6
:10344000478090EA010F48BF42F480724FF0004C71
:103450004CEA00204CEA012102EB0302A0FB01131D
:10346000A2F50002002918BF43F001035B0028BF4A
:103470004FEA330342EB22425FEA132C4CEBC2507B
:103480002EBFBCEB436FB2F57C0F70474FEA036C65
:10349000BCF1004F08BF20F00100B2F57C0F38BF2F
:1034A00070470BD582F0FF0212F5803FC8BF70470E
:1034B00000F1C040D8BF00F00040704700F5000C9C
:1034C0005FEA4C0C48BF7047B0F1C04000F073B8E1
:1034D00090EA010F0CEAD11348BF42F480726245B2
:1034E00038BF634504D280EA010000F00040704715
:1034F00010B500F01AF800BF8900013E00F007B8CF
:1035000000F009B85FEA410C5FEA1C6C08D080EA61
:10351000010000F050B85FEA400C5FEA1C6CF6D185
:103520004FF00040A0F5800070470EF1020E2EF023
:10353000030E5EF8044B244204D44FEA4102B2F178
:103540007F4F11D84FEA4003B3F17F4F0CD80ED113
:103550004FEAD07CB2F17F4F0CEB4C0C0CF1020C1B
:1035600008BF4CEBD17C04E04FF0080C01E04FEABF
:10357000D17C0CEB4C0324FA03F404F00704B4F1FF
:10358000040C06D20EEB840CBDE810404CF0010C8C
:103590006047DFE80CF0070802024FF00040A0F59A
:1035A000800010BD0846420018BFD2F1807288BF6B
:1035B00000F0004010BDFF2141EAD050C005704727
:1035C000010202030405060708090A0B0C0D0E0F81
:1035D00010100000000000000000010203040607B4
:1035E0000809000000000102030400000C36000876
:1035F0000000002080000000280100088C36000830
:1036000080000020A00D0000440100080000000020
:1036100000000000000000000000000000000000AA
:10362000000000000000000000000000000000009A
:10363000000000000000000000000000000000008A
:10364000000000000000000000000000000000007A
:103650000000000000000000000001000000000069
:10366000000000000000000000000000000000005A
:103670000000000000000000000000000100000049
:0C368000100000000000000000127A00A2
:04000005080000ED02
:00000001FF
