:020000040800F2
:10000000500E0020890100087728000825230008E9
:100010007528000861030008113400080000000082
:10002000000000000000000000000000312B00086C
:10003000AF04000800000000E5280008252D000896
:10004000A3010008A3010008A3010008A301000800
:10005000A3010008A3010008A3010008A3010008F0
:10006000A3010008A3010008A3010008A3010008E0
:1000700055040008A3010008610400086D0400088D
:10008000A301000879040008A3010008A3010008E7
:10009000A3010008A3010008A3010008A3010008B0
:1000A000A3010008892D0008A3010008A30100088E
:1000B000952D0008A3010008A3010008A301000872
:1000C000A3010008A3010008A3010008A301000880
:1000D000A3010008ED330008F933000805340008D7
:1000E000A3010008A3010008A301000800F002F822
:1000F00000F03AF80AA090E8000C82448344AAF188
:100100000107DA4501D100F02FF8AFF2090EBAE885
:100110000F0013F0010F18BFFB1A43F0010318473B
:100120005C3900007C390000103A24BF78C878C1DF
:10013000FAD8520724BF30C830C144BF04680C60ED
:10014000704700000023002400250026103A28BF35
:1001500078C1FBD8520728BF30C148BF0B60704739
:100160001FB51FBD10B510BD00F082F81146FFF796
:10017000F7FF03F0B5F900F0A0F803B4FFF7F2FFC2
:1001800003BC00F0A7F80000094880470948004771
:10019000FEE7FEE7FEE7FEE7FEE7FEE7FEE7FEE737
:1001A000FEE7FEE704480549054A064B7047000094
:1001B000872D0008ED00000850080020500E002098
:1001C000500A0020500A002002F0FF0343EA0322F5
:1001D00042EA024200F002B84FF000020429C0F0E7
:1001E000128010F0030C00F01B80CCF1040CBCF169
:1001F000020F18BF00F8012BA8BF20F8022BA1EBBB
:100200000C0100F00DB85FEAC17C24BF00F8012B9F
:1002100000F8012B48BF00F8012B70474FF0000297
:1002200000B5134694469646203922BFA0E80C50EC
:10023000A0E80C50B1F12001BFF4F7AF090728BFC7
:10024000A0E80C5048BF0CC05DF804EB890028BF43
:1002500040F8042B08BF704748BF20F8022B11F06C
:10026000804F18BF00F8012B7047704770477047E8
:10027000754600F02BF8AE4605006946534620F05F
:100280000700854618B020B5FFF78CFFBDE8204079
:100290004FF000064FF000074FF000084FF0000B42
:1002A00021F00701AC46ACE8C009ACE8C009ACE8F5
:1002B000C009ACE8C0098D46704710B50446AFF3DD
:1002C00000802046BDE81040FFF757BF0048704748
:1002D000F007002001491820ABBEFEE7260002000F
:1002E000704700000B4A10B51278202A11D0016027
:1002F00000214171017101814181C18002F014F836
:1003000096220549054801F0BCF903F0D9F80449E3
:10031000886110BD01000020E204002008060020D2
:10032000580000200C4910B5487868B140F63400F8
:10033000496AB1FBF0F000F03AF8020007484FF4C8
:10034000805104D0002203E040F22620F0E7012291
:10035000BDE8104000F055BC00000020000801403E
:10036000FEE730B5044600200246491E0EE0A35CBD
:100370005840002345000006C0105B1C85EA507001
:10038000DBB2C0B2082BF5D3521CD2B28A42EEDBEC
:1003900030BD0346002010B50246491E04E09C5CB7
:1003A000521C2044C0B2D2B28A42F8DB10BDC00752
:1003B00001D0002070470120704700000F4910B5A0
:1003C0004B7800EB8002102B0AD0002B14D1088C44
:1003D000401C0884088CB0EB420F0DD303F05EF88C
:1003E0000B8C5B1C0B840B8C834205D30120C871E2
:1003F000087200204872EDE710BD000000000020E8
:10040000F0B5114BD98B491C89B2D983814219D3DC
:1004100000210E4C0E4F0D46C1EBC10204EB8202CF
:10042000567946B1167936B156890644B6B2568128
:100430001E2E00D3557152797A54491CC9B21F2916
:10044000EAD3DD83F0BD000000000020B4000020EE
:1004500094000020014800F031B90000AC070020F2
:10046000014800F02BB9000024070020014800F0EB
:1004700025B90000E0060020014800F01FB9000087
:100480006807002030B590F840500124AC40C56B9F
:100490006C60046863604368102B036803D0996044
:1004A0000068C26030BD9A600068C16030BD7047AE
:1004B000704772B6FEE700002DE9F0412D4CA078A0
:1004C0002D4E0025B71488B101223946304600F080
:1004D00098FB208A401C80B220820A2806D3002282
:1004E0003946304600F08DFB2582A570E07898B142
:1004F0004FF4006801224146304600F082FB608ADA
:10050000401C80B260820A2806D300224146304651
:1005100000F077FB6582E5702079184E98B14FF4B2
:10052000005801224146304600F06BFBA08A401C77
:1005300080B2A082032806D300224146304600F054
:1005400060FBA58225716079002811D0012239460F
:10055000304600F056FBE08A401C80B2E08203285F
:1005600006D300223946304600F04BFBE582657128
:10057000BDE8F0810000002000080140000C0140AF
:1005800010B590F821100022022905D004218163C2
:1005900080F82020012010BD01680B6823F00E03B5
:1005A0000B6001680B6823F001030B6090F840308A
:1005B000C46B012101FA03F3636080F8211080F815
:1005C0002020104610BD000010B590F82110002426
:1005D000022903D00421816301243DE001680A68F7
:1005E00022F00E020A6001680A6822F001020A6025
:1005F0001A4A0168914201D1012121E0174A1432BF
:10060000914201D110211BE0144A2832914201D1BC
:10061000891515E0114A3C32914201D189140FE04D
:100620000E4A5032914202D14FF4803108E00B4A19
:100630006432914202D14FF4801101E04FF0807199
:10064000064A083A5160012180F82110002180F803
:100650002010416B01B18847204610BD08000240C0
:1006600010B528B301680A6822F001020A60026826
:100670000021116002685160026891600268D160D7
:100680000C4B026801241A441423B2FBF3F29300CA
:10069000094AC0E90F239C4054608162C162016332
:1006A0004163816380F8211080F82010002010BD84
:1006B000012010BDF8FFFDBF000002402DE9F05FF2
:1006C000C16B0C6801680B68D0F840C0042202FAC4
:1006D0000CF2494DDFF824A1494E4A4FDFF828B10A
:1006E000DFF828E122422CD05A072AD50A68920660
:1006F00003D40A6822F004020A600168A94201D109
:10070000042219E0514501D1402215E0B14202D145
:100710004FF4806210E0B94202D14FF480420BE006
:10072000594502D14FF4802206E0714502D14FF4C1
:10073000800201E04FF080622F4908394A60C16AA7
:100740003BE04FF0020808FA0CF818EA040F4FF0EB
:1007500000094FF0010235D05FEA837832D50B688B
:100760009B0605D40B6823F00A030B6080F8212058
:100770000168A94201D1022219E0514501D120228C
:1007800015E0B14202D14FF4007210E0B94202D13B
:100790004FF400520BE0594502D14FF4003206E00D
:1007A000714502D14FF4001201E04FF0007212497E
:1007B00008394A6080F82090816A00291AD0BDE883
:1007C000F05F0847082505FA0CF5254212D01B07F3
:1007D00010D50B6823F00E030B6090F84010C36B2C
:1007E00002FA01F15960826380F8212080F820909C
:1007F000016BE2E7BDE8F09F080002401C000240E8
:100800003000024044000240580002406C000240A8
:1008100030B528B308C8134914221944B1FBF2F1CA
:100820008900C16310498163022141771A6843F648
:10083000F0718A43D0E900142143D0E902452C43EA
:1008400021430469214344692143846921431143BD
:10085000196000214163012242770177084630BDCB
:10086000012030BDF8FFFDBF0000024070B5044616
:1008700090F82000002501280CD0012084F82000E9
:1008800094F821600020012E06D084F82000022573
:10089000284670BD022070BD022684F82160A06346
:1008A0002068066826F0010606602046FFF7EAFD8C
:1008B000E06A00282068016802D041F00E0106E0DD
:1008C00021F0040101602068016841F00A01016023
:1008D0002068016841F001010160D9E770B5044664
:1008E00000F094F90546601C02D0044800780444E6
:1008F00000F08CF9401BA042FAD370BD84000020A8
:100900002DE9F04300233E4F0F2573E001229A406A
:100910000A406DD023F00304E619D6F808809C073E
:100920004FEA147C05FA0CF909EA0804DFF8D480D0
:10093000404502D14FF0000816E0DFF8CC8040457A
:1009400002D14FF001080FE0DFF8C080404502D12E
:100950004FF0020808E0DFF8B880404502D14FF0C0
:10096000030801E04FF0040808FA0CF8A04522D172
:10097000284CD4F800C02CEA020CC4F800C0241D96
:10098000D4F800C02CEA020CC4F800C0214C0C348E
:10099000D4F800C02CEA020CC4F800C0241FD4F81C
:1009A00000C02CEA020CC4F800C0D6F808C02CEA3B
:1009B000090CC6F808C0FF2A01D8064601E000F17C
:1009C00004064FEA830401D9A4F12004D6F800C03C
:1009D00005FA04F82CEA080C4FF0040808FA04F8A9
:1009E0004CEA080CC6F800C0C46824EA0204C460DB
:1009F00003F1010331FA03F288D1BDE8F08300006E
:100A00000000014000080140000C014000100140BE
:100A100000140140000401402DE9F84FDFF8B891BF
:100A20000024A9F1040B23460F2709F1040AABF1B6
:100A3000040EC9E00125A5402A40AA427DD1674E97
:100A4000D1F804C0ACEB0608B44532D014DCBCF1DC
:100A5000030F3AD009DCBCF1000F2AD0BCF1010F22
:100A60001CD0BCF1020F31D11DE0BCF1110F17D029
:100A7000BCF1120F2AD119E0B8F5881F19D006DC95
:100A8000B8F5803F15D0B8F5801F1FD111E0B8F53B
:100A9000001F0ED0B8F5041F18D10AE0CB6815E08E
:100AA000CB681B1D12E0CB6808330FE0CB680C331A
:100AB0000CE08B682BB1012B4FF0080303D045618C
:100AC00004E0042302E0056100E00023FF2A01D8CE
:100AD000064601E000F104064FEA840501D9A5F1BC
:100AE0002005D6F8008007FA05FC28EA0C0803FA6E
:100AF00005F548EA0508C6F800804D68ED0062D5A6
:100B0000374DAE6946F00106AE61AD6924F00306CB
:100B100005F001050095334D06EB050CDCF8085097
:100B2000A607360F07FA06F825EA0805DFF8B880A9
:100B3000404503D14FF0000817E044E0DFF8AC80F7
:100B4000404502D14FF001080FE0DFF8A480404596
:100B500002D14FF0020808E0DFF89880404502D14A
:100B60004FF0030801E04FF0040808FA06F848EADD
:100B70000508CCF808804D68D9F80060ED024D46B4
:100B800001D5164300E096432E604D68DAF8006008
:100B9000AD02554601D5164300E096432E604D68E0
:100BA000DBF80060AD035D4601D5164300E09643D7
:100BB0002E604D68DEF80060ED03754601D51643E2
:100BC00000E096432E60641C0D682A46E5407FF4E1
:100BD00031AFBDE8F88F000008040140000011109B
:100BE000001002400000014000080140000C0140DC
:100BF00000100140001401408068084000D001202E
:100C000070470AB1016170470904FBE70148806839
:100C10007047000084000020024881680278114477
:100C20008160704784000020074810B5016841F0DA
:100C300010010160032000F085F80F2000F006F895
:100C400000F024F8002010BD0020024070B50D4DCA
:100C500004464FF47A712878B1FBF0F00A4909682C
:100C6000B1FBF0F000F0ECFA48B9102C07D20022EA
:100C70002146501E00F046F800206C6070BD012037
:100C800070BD000084000020900000200C4808B5D2
:100C9000816941F001018161816901F001010091E7
:100CA000C16941F08051C161C06900F0805000907D
:100CB0000448416821F0E06141F00071416008BDE5
:100CC000001002400000014000280DDB00F01F0270
:100CD000012191404009800000F1E020C0F880111E
:100CE000BFF34F8FBFF36F8F7047002809DB00F011
:100CF0001F02012191404009800000F1E020C0F86E
:100D000000117047F0B40E4B1B680C46C3F302236E
:100D1000C3F10705042D00D90425191D072901D2A7
:100D2000002300E0DB1E012606FA05F1491E2140E2
:100D300099409E40761E16403143F0BC02F09EBBA7
:100D40000CED00E0064900F0070208684FF6FF03CB
:100D5000184040EA0220034A104308607047000030
:100D60000CED00E00000FA052DE9F0470F46050004
:100D700061D0434E306800F00700B84209D23068B5
:100D800020F0070038433060306800F00700B842B8
:100D900051D128683B4C810712D5400703D56068C4
:100DA00040F4E06060602878000703D5606840F494
:100DB000605060606068A96820F0F00008436060DF
:100DC0002878C00728D06868012810D02168022838
:100DD00010D0890700292EDA616821F00301014350
:100DE0006160FFF713FF804641F288390DE021680A
:100DF0008903EFE78901EDE7FFF708FFA0EB0801A2
:100E0000494502D90320BDE8F0876068696800F0B1
:100E10000C00B0EB810FEFD1306800F00700B84252
:100E20000BD9306820F0070038433060306800F09C
:100E30000700B84201D00120E5E72878400705D532
:100E40006068E96820F4E060084360602878000783
:100E500006D56068296920F4605040EAC1006060EE
:100E600000F038F86168084AC1F30311515CC840CA
:100E70000649086006480068FFF7E8FE0020C2E760
:100E80000020024000100240623A0008900000205A
:100E9000880000200448054900684968044AC1F3F5
:100EA0000221515CC84070479000002000100240B1
:100EB000723A00080448054900684968044AC1F3C9
:100EC000C221515CC84070479000002000100240D1
:100ED000723A00080E4A51680E4801F00C03042BC8
:100EE00011D0082B0FD10C48C1F38343C903C05C58
:100EF0000AD55168084AC1F34041921E515C054A27
:100F00005043B0FBF1F0704704494843704700007C
:100F10000010024000127A00523A000800093D0019
:100F20002DE9F84F040070D02078C04DC00749D09B
:100F30006868C0F38100012807D06868C0F38100A9
:100F4000022809D16868C00306D52868800339D50E
:100F500060680028E7D035E06068B0F5803F0BD0CE
:100F600010B1B0F5A02F11D0286820F4803028608F
:100F7000286820F4802002E0286840F4803028604F
:100F8000606890B1FFF742FE06460AE0286840F428
:100F900080202860F0E700BFFFF738FE801B642840
:100FA00073D828688003F7D50CE0FFF72FFE0646BC
:100FB00005E000BFFFF72AFE801B6428F0D82868F0
:100FC0008003F7D420789A4E80074FF001094FF044
:100FD000000839D5686810F00C0F07D06868C0F3B6
:100FE0008100022809D16868C00306D428688007F8
:100FF00014D52069012808D110E02069B0B1C6F8E5
:101000000090FFF703FE074605E00AE1FFF7FEFD4B
:10101000C01B0228C4D828688007F7D528686169F2
:1010200020F0F80040EAC10028600DE0C6F800801A
:10103000FFF7ECFD074604E0FFF7E8FDC01B0228C0
:1010400023D828688007F7D4207800072CD5794862
:10105000A169D9B1C0F80090FFF7D8FD074604E0B8
:10106000FFF7D4FDC01B02280FD8686A8007F7D5A8
:1010700071484FF4FA510068B0FBF1F0009000BFE6
:101080000098411E0091FAD20EE080E0C0F8008086
:10109000FFF7BCFD074604E0FFF7B8FDC01B0228C0
:1010A00075D8686A8007F7D42078400760D5E8696A
:1010B0000027C00008D4E86940F08050E861E86982
:1010C000012700F0805000905C480168C90513D4E6
:1010D0000168834641F480710160FFF797FD824605
:1010E00006E000BFFFF792FDA0EB0A0064284ED88F
:1010F000DBF80000C005F5D5E06801280AD008B18A
:10110000052813D0286A20F001002862286A20F000
:10111000040002E0286A40F001002862E06841F221
:10112000883B98B1FFF772FD82460BE0286A40F0D9
:1011300004002862EEE700BFFFF768FDA0EB0A019C
:1011400059455AD8286A8007F6D50CE0FFF75EFDAE
:10115000824605E0FFF75AFDA0EB0A0159454CD83D
:10116000286A8007F6D41FB1E86920F08050E86152
:10117000E06988B36968C1F38101022944D002287B
:10118000C6F8608004D0FFF741FD044638E034E043
:10119000FFF73CFD074604E0FFF738FDC01B0228BF
:1011A0002BD828688001F7D4206AB0F5803F05D19C
:1011B0006868A16820F4003008436860D4E9080139
:1011C0000843696821F4741108436860C6F86090A8
:1011D000FFF71CFD044606E025E000BFFFF716FD03
:1011E000001B022809D828688001F7D51BE000BF42
:1011F000FFF70CFD001B022802D90320BDE8F88F81
:1012000028688001F4D40EE00128F7D06868226ACB
:1012100000F48031914204D1616A00F47010884278
:1012200001D00120EAE70020E8E7000000100240BA
:1012300000004242800442429000002000700040C2
:1012400010B5401EB0F1807F01D3012010BD4FF0DA
:10125000E02460610F21601702F010F90020A06106
:1012600007202061002010BD7047704770B590F8CE
:101270003C20012A26D0012480F83C40022280F83C
:101280003D2003685A689D6822F070060A68324360
:101290005A600D4B02689A4208D0B2F1804F05D0D7
:1012A0000A4B9A4202D00A4B9A4204D1496825F06F
:1012B00080031943916080F83D40002180F83C1084
:1012C000084670BD022070BD002C014000040040A3
:1012D0000008004010B5040003D094F83D0010B1A0
:1012E00007E0012010BD002084F83C00204600F0FB
:1012F0001FF8022084F83D00211D206801F050FDF8
:10130000012084F8460084F83E0084F83F0084F809
:10131000400084F8410084F8420084F8430084F8D7
:10132000440084F8450084F83D00002010BD000012
:1013300008B5154A0168154891420ED1816941F4FA
:10134000006181618069002200F400600090012149
:101350001920FFF7D7FC192010E0B1F1804F11D10F
:10136000C16941F00101C161C069002200F00100C2
:10137000009011461C20FFF7C5FC1C20BDE808406A
:10138000FFF7B3BC08BD0000002C01400010024074
:1013900090F83D10012901D001207047022180F80A
:1013A0003D100168CA6842F00102CA6000680B493A
:1013B000884208D0B0F1804F05D00949884202D058
:1013C0000849884204D1816801F00701062903D049
:1013D000016841F00101016000207047002C0140CC
:1013E000000400400008004070B5044690F83C003E
:1013F0000025012817D0012684F83C60022084F8DB
:101400003D002068826822F0770222F47F428260E9
:101410000868502838D00DDC20284FD005DC90B368
:10142000102811D14AE0022070BD302846D0402853
:101430000AD13BE060282FD070280DD0B0F5805F36
:1014400003D0B0F5005F12D0012584F83D60002084
:1014500084F83C00284670BDCB68D1E901212068A2
:1014600001F0DAFC2068816841F0770109E0CB687F
:10147000D1E90121206801F0CFFC2068816841F4A6
:1014800080418160E1E719E0CA684968206801F09D
:10149000D5FC5021206806E0CA684968206801F040
:1014A000DEFC6021206801F0C1FCCEE7CA68496813
:1014B000206801F0C3FC40212068F4E7226801465F
:1014C0001046F0E770472DE9F04104460068C66811
:1014D00005694FF00007A90713D5B10711D5F91E0B
:1014E000016101202077206880698007204602D0B2
:1014F000FFF7E8FF04E000F07EF8204600F07CF8FB
:101500002777680716D5700714D521686FF0040097
:101510000861022020772068806910F4407F20460F
:1015200002D0FFF7CFFF04E000F065F8204600F09E
:1015300063F82777280715D5300713D521686FF092
:1015400008000861042020772068C06980072046D1
:1015500002D0FFF7B7FF04E000F04DF8204600F09E
:101560004BF82777E80616D5F00614D521686FF0FA
:1015700010000861082020772068C06910F4407FBF
:10158000204602D0FFF79EFF04E000F034F820462A
:1015900000F032F82777E80708D0F00706D0216876
:1015A0006FF001000861204600F028F8280608D5F1
:1015B000300606D521686FF0800008612046FFF7ED
:1015C00053FE680608D5700606D521686FF0400006
:1015D0000861204600F054F8A8060AD5B00608D5E0
:1015E00021686FF0200008612046BDE8F041FFF758
:1015F0003CBEBDE8F08170477047000070B51D49E2
:101600000546006809681C4C884211D1A06A401C3C
:10161000A062208B401C2083608B401C6083606A2A
:10162000401C6062FEF748FF00F07EFD00F028FEDF
:1016300012492868096888421AD1A07980B9A08B1C
:10164000401C80B2A083792801D10020A083A08B08
:101650000921B0FBF1F201FB120008B90120A071D1
:101660000520FEF7CDFEBDE870403C20FEF7A6BE8B
:1016700070BD00007805002000000020C00500209B
:10168000704738B5044690F84200202801D0022067
:1016900038BD51B14AB1012020630020606320466B
:1016A00001F008FE216B012901D0012038BD21681D
:1016B0000A684968009121680C3151E8002F42F016
:1016C000100241E80023002BF5D138BD70B50D465E
:1016D00000680C49884214D10B4CA08A401CA0829F
:1016E00001F06EF900F0FCFD607808B9012060702F
:1016F0002570962205490648FFF7C3FF01F0E0FE7A
:10170000A06170BD0038014058000020E2040020B4
:101710000806002010B5040015D0242084F84100EC
:101720002068C16821F40051C160204600F076F9BC
:101730000020606484F8410084F8420044F8300FCF
:101740006060207410BD012010BD7047F8B50168BD
:1017500004460868CA684B6910F00F0F4FF0000587
:1017600059D003F0010602F49077374365D0C107E2
:1017700005D0D10503D5616C41F0010161644107D9
:1017800005D5D90703D0616C41F00201616481077E
:1017900005D5D90703D0616C41F0040161640107EC
:1017A00007D502F02001314303D0616C41F00801FC
:1017B0006164616C00293AD0800604D5900602D598
:1017C000204601F0B9FC20684069616CC0F38010CC
:1017D000090700D460B3204601F079FC2068406915
:1017E000400621D52068143050E8001F21F0400148
:1017F00040E80012002AF5D1E06BA8B16D494163C1
:10180000E06BFEF7E1FE002811D0E06B416B01B008
:10181000BDE8F040084783060FD593060DD5204656
:10182000BDE8F84001F088BC2046FFF78EFFF8BD08
:101830002046FFF78AFF6564F8BD266B2023012E42
:101840007CD1C6067AD5D60678D508684868009057
:1018500048694FF00206400640D5E16B08684068D1
:101860000004000CE8D0A28D8242E5D9E0858869A9
:1018700020282DD020680C3050E8001F21F4807102
:1018800040E80012002AF5D12068143050E8001F0B
:1018900021F0010140E80012002AF5D1206814303F
:1018A00050E8001F21F0400140E80012002AF5D165
:1018B00084F84230256320680C3050E8001F21F086
:1018C000100140E80012002AF5D1E06BFEF758FE47
:1018D0006663A08DE18D401A81B22AE0A08DE18D72
:1018E000401A81B2E08D0028A6D00029A4D0226839
:1018F0000C3252E8000F20F4907042E80007002FED
:10190000F5D12068143050E8002F22F0010240E8A1
:101910000027002FF5D184F84230256320680C3071
:1019200050E8002F22F0100240E80023002BF5D1F0
:1019300066632046FFF7CAFEF8BDFFE705062BD514
:10194000150629D594F841002128F5D1A068B0F5F5
:10195000805F01D12069B0B1206A411C21622168F9
:1019600000784860E08C401E0004000CE084E3D165
:101970002068C16821F08001C1602068C16841F021
:101980004001C160D8E7206A0088C0F308004860C1
:10199000206A801C2062E5E74006CDD55006CBD5F5
:1019A000CA68204622F04002CA6084F8413000F044
:1019B0005DFAC1E7852F000870B5040004D094F8E3
:1019C0004100002510B106E0012070BD84F84050B0
:1019D000204600F06DF8242084F841002068C1689A
:1019E00021F40051C160204601F008FC2068016923
:1019F00021F4904101612068416921F02A0141618F
:101A00002068C16841F40051C1606564202084F8F9
:101A1000410084F842006563002070BD10B50446A3
:101A200000681D4B1D491E4A984210D1886920F458
:101A3000804088614FF4C0611046FEF761FFE06BA3
:101A4000FEF70EFEA06BFEF70BFE25201FE0154BE8
:101A500098420CD1C86920F40030C8610C211046AE
:101A6000FEF74EFFA06BFEF7FBFD26200FE00E4AAF
:101A7000904210D1C86920F48020C8614FF44061C1
:101A80000A48FEF73DFFA06BFEF7EAFD2720BDE800
:101A90001040FFF719B910BD003801400010024096
:101AA000000801400044004000480040000C014094
:101AB0002DE9F04385B0002400940194029403942E
:101AC0000546DFF8F881D0F800C07D4802210322E6
:101AD0007C4B102680274FF48069C44558D1D0F83C
:101AE00018C04CF4804CC0F818C0D0F818C00CF4E2
:101AF000804CCDF810C0D0F818C04CF0040CC0F8E1
:101B000018C08069039200F0040004900802CDE937
:101B10000001694698461846FEF77EFFCDE900941D
:101B2000694640460294FEF777FFDFF8A0816649D8
:101B30004046B946C0E90014C0E90247C8F8104061
:101B4000C8F814408914C8E90641FEF761FE08B1DF
:101B5000FEF7AFFC5C485E4FC5F83C801438C8F80F
:101B600024503860C7E90164C7E903947C61BC6113
:101B70003846FC61FEF74CFE08B1FEF79AFCAF63F5
:101B80000022022125207D62FFF7BCF825204AE0D3
:101B9000DFF84081C4454BD1D0F81CC04CF4003C68
:101BA000C0F81CC0D0F81CC00CF4003CCDF810C02C
:101BB000D0F818C04CF0040CC0F818C0806903922B
:101BC00000F0040004900420CDE900016946984625
:101BD0001846FEF721FF0820CDE90004694640467B
:101BE0000294FEF719FF3849DFF8EC8028314046AF
:101BF000C8F80010C0E90164C0E90374C8F81440D3
:101C0000C8F81840C8F81C40FEF702FE08B1FEF7FD
:101C100050FCC5F83880002211462620C8F8245010
:101C2000FFF770F82620FFF760F805B0BDE8F083F5
:101C30002A4B9C45F9D1C36943F48023C361C3692E
:101C400003F480230493836943F00803836180696C
:101C5000CDE9009100F00800CDE90320DFF8808095
:101C600069464046FEF7D8FE4FF40060CDE9000417
:101C7000694640460294FEF7CFFE1349DFF86480C0
:101C80003C394046C8F80010C0E90164C0E903745B
:101C9000C8F81440C8F81840C8F81C40FEF7B8FD52
:101CA00008B1FEF706FCC5F838800022114627204F
:101CB000C8F82450FFF726F82720B4E70038014081
:101CC000001002400008014058000240E0060020D9
:101CD000240700200044004068070020004800401E
:101CE000000C0140AC07002090F84230202B01D0BE
:101CF0000220704721B11AB10023036301F022BB17
:101D00000120704770B5054600680D490D4C8842AA
:101D100008D10D4800F0E8FD0B4800F06BFAA089EF
:101D2000401CA08109492868884208D1064800F073
:101D3000DBFD054800F05EFAA089401CA08170BD63
:101D4000004400403C0000201804002000480040EF
:101D500070472DE9F843044690F84100984616462E
:101D60000D46202802D00220BDE8F88385B17EB15F
:101D700000206064212084F84100FEF747FFA6841C
:101D80008146E684A0682027B0F5805F02D003E09A
:101D90000120E9E7206910B12E4600250EE000265B
:101DA0000CE08021204601F0E8FAA8B9C6B116F887
:101DB000010B21684860E08C401EE084E08C4B46BB
:101DC0004FF00002CDF800800028EAD14FF040012A
:101DD000204601F0D2FA40B184F841700320C3E7F5
:101DE00035F8020BC0F30800E3E784F841700020E7
:101DF000BAE7000070B5044690F84100202801D0F1
:101E0000022070BD49B342B32162A284E284002063
:101E10006064212384F84130A56B114BAB62A56B44
:101E2000104BEB62A56B104B2B63A36B58632568BB
:101E300013462A1DA06BFEF719FD21686FF04000C4
:101E400008602068143050E8001F41F0800140E82D
:101E50000012002AF5D1002070BD012070BD0000E5
:101E600083300008C5300008952F00087047704780
:101E70002DE9F84F9F4C607800287CD000256570D4
:101E80009D4EDFF87892307899F8001000F00F003E
:101E9000884205D0BDE8F84F96219748FEF79CB9D7
:101EA000608A401C6082777893483946FEF759FA79
:101EB000F119009111F8011C884225D190490120A7
:101EC00008709049AB460D803078DFF83C8200F016
:101ED000F000DFF838A210281AD0874D963D202850
:101EE0004CD0302847D1208A401C208200F02EFAA6
:101EF00098F8000000287FD0E088401CE080052F83
:101F000079D90220B91EC3E02089401C2081C1E795
:101F1000A089401CA08188F800B000F0C9FC00F046
:101F2000C7FCB0787A4C00F03F0545F08000207087
:101F3000002031182218401CC978C0B251700F28F7
:101F4000F7D3A6202074A02060748020A0741421F0
:101F50006F48FEF71EFAC5EBC501E0745AF8210080
:101F60004FF0FF3314226A49FFF7F3FE00F084FCC0
:101F7000BDE8F84F00E0BBE000F07EBCE089401C0B
:101F8000E08100F0E3F900F0E1F91021FF1E88F88C
:101F900000100020F9B20122534608E03418401C1A
:101FA000A478C0B2C4EBC40403EB84042271884259
:101FB000F4D399F80000042100F00F0040F0200055
:101FC0002870042068700220A8704B489638FEF7ED
:101FD000C8F94949E8704FF0FF33042296394D485B
:101FE000FFF7B7FE444896219638FEF7F5F800F063
:101FF0009BF91FE000E04DE099F80000042100F09B
:102000000F0040F070002870042068700720A8704E
:1020100039489638FEF7A5F93749E8704FF0FF3395
:10202000042296393B48FFF794FE334896219638B0
:10203000FEF7D2F8BDE8F84F00F076B9335C03F054
:102040003F0203F0C00CC2EBC2080AEB880383F81E
:1020500007C006EB000C9CF801C083F806C02A54A8
:1020600093F805C00022BCF1000F00D1012293F8C3
:1020700009C0920042EA4C0293F808C042EA0C02FE
:1020800005EB000C801C8CF8012083F809B0C0B26D
:102090008842D3DB0098204A10F8020C81091170A5
:1020A0001E4AC0F3011111701D4AC0F38101117065
:1020B0001C4900F00300087099F8000000F00F00C0
:1020C00040F030002870781EC1B20B486970963815
:1020D000FEF747F9E91901F8020C07496A789639C1
:1020E0000C48FFF787FE0120E07001F0E9F920625B
:1020F000BDE8F88F58000020E20400200000002016
:10210000030000202000002001000020B400002077
:102110002C040020080600200700002008000020F2
:10212000090000200A0000202DE9F0412F4C606AD0
:102130004FF41671B0FBF1F0FEF739F90646606A0C
:102140004FF49671B0FBF1F0FEF731F90546E079F6
:10215000274F4FF4807148B1E079012808D0E07929
:10216000022815D0E079032815D005E0002200E010
:1021700001223846FEF745FD207A78B1207A012801
:102180000ED0207A02281DD0207A03281DD00CE022
:10219000002EEDD1EAE7002DEAD1E7E7002200E0CA
:1021A000012280213846FEF72CFD607A80B1607AEA
:1021B00001280FD0607A022813D0607A032813D147
:1021C00045B905E0002EEBD1E8E7002DE8D1E5E7C1
:1021D000002200E001223846BDE8F0414021FEF730
:1021E00010BD002EF6D1F3E7BDE8F081000000201D
:1021F000000C014070B50446C07901282CD1174865
:10220000174901220068884201D1164803E01649A7
:10221000884201D1154802701548407800F03F010E
:10222000C1EBC1051349C30901EB850140060B72DF
:1022300006D511484A720078202801D10F48027053
:1022400008690025401C08614D814A710D22032157
:102250000748FDF7B9FFE57170BD000034000020AC
:1022600050060020040000209806002005000020F1
:102270004D000020B4000020010000200F000020CD
:10228000154910B5486A4FF41672B0FBF2F0FEF72C
:102290008EF80246486A4FF49673B0FBF3F0FEF7EF
:1022A00086F88C7A0D4B4CB18C7A012C08D08C7A44
:1022B000022C0CD0897A03290CD108B9002200E045
:1022C0000122BDE8104020211846FEF79ABC002AE2
:1022D000F6D1F3E710BD000000000020000C014023
:1022E00010B50C4C20785F2812D1607805280FD1EA
:1022F00003212046FEF735F8A178814208D106492E
:10230000002008800549086005494889401C48812B
:1023100010BD0000E20400201C000020240000206A
:1023200058000020FEE7000070B5074D4FF48074A0
:10233000002221462846FEF764FC21462846BDE8D7
:1023400070400022FEF75DBC0008014070B501221C
:10235000064D140221462846FEF753FC2146284626
:10236000BDE870400122FEF74CBC000000080140AF
:102370002DE9F04385B000243F4800940194029475
:102380000394816941F010018161816901F01001BC
:102390000491816941F020018161816901F020018E
:1023A0000491816941F004018161816901F00401B6
:1023B0000491816941F00801816180692F4F00F02B
:1023C00008004FF400550490002229463846FEF7D5
:1023D00018FCDFF8AC8000224FF2E0114046FEF717
:1023E00010FCDFF8A09000224FF4C8514846FEF7D9
:1023F00008FC0095022601250396CDE901546946A3
:102400003846FEF709FBF0208DE831006946484662
:10241000FEF702FB07208DE8310069464046FEF7D3
:10242000FBFA43F2E010CDE90005CDE9024669462A
:102430004046FEF7F1FA4FF440400327CDE900058E
:10244000CDE9024769464046FEF7E6FA2802CDE9A3
:102450000005CDE9024769464846FEF7DDFAF80275
:10246000CDE90005CDE9024669464846FEF7D4FAB3
:1024700005B0BDE8F08300000010024000100140EC
:10248000000C01400008014010B586B00024174838
:1024900000940194029403940494134905940160F8
:1024A0004721C0E9011440F2E731C0E90314446157
:1024B0008461FEF70FFF08B172B6FEE74FF480505B
:1024C000009069460948FEF78FFF08B172B6FEE733
:1024D000049404A905480594FEF7C8FE002801D01D
:1024E00072B6FEE706B010BD002C01407805002052
:1024F00010B586B000241748009401940294039408
:1025000004944FF080410594016041F61F41C0E9F9
:10251000011442F20F71C0E903148461FEF7DAFE80
:1025200008B172B6FEE74FF4805000906946094842
:10253000FEF75AFF08B172B6FEE7049404A90548F5
:102540000594FEF793FE002801D072B6FEE706B0B0
:1025500010BD0000C00500202DE9F041AD4D042163
:102560002846FEF749FBA0B30020AB4C2178084376
:10257000207002212846FEF73FFB58B30020217847
:1025800041EA4000207001212846FEF735FB30B3B8
:1025900000202178A14E41EA800020708021304641
:1025A000FEF72AFBE8B10020217841EAC000207044
:1025B00040213046FEF720FBA8B100202178B0462C
:1025C00041EA0010207020213046FEF715FB60B173
:1025D000F9E000E001E00120C7E70120CFE701209A
:1025E000D7E70120E0E70120E8E7202060704FF402
:1025F0009676002240212846FEF703FB0022802128
:102600002846FEF7FEFA4FF4807700223946284626
:10261000FEF7F7FA40F2DC50FEF760F901224021A4
:102620002846FEF7EEFA002280212846FEF7E9FA56
:10263000002239462846FEF7E4FA3046FEF74EF906
:10264000002240212846FEF7DCFA0122802128469C
:10265000FEF7D7FA002239462846FEF7D2FA30466E
:10266000FEF73CF9002240212846FEF7CAFA002274
:1026700080212846FEF7C5FA012239462846FEF792
:10268000C0FA3046FEF72AF9002240212846FEF71C
:10269000B8FA002280212846FEF7B3FA0022394614
:1026A0002846FEF7AEFA3046FEF718F9012240211F
:1026B0002846FEF7A6FA002280212846FEF7A1FA56
:1026C000002239462846FEF79CFA3046FEF706F906
:1026D000002240212846FEF794FA01228021284654
:1026E000FEF78FFA002239462846FEF78AFA30466E
:1026F000FEF7F4F8002240212846FEF782FA002275
:1027000080212846FEF77DFA012239462846FEF749
:1027100078FA3046FEF7E2F8002240212846FEF71C
:1027200070FA002280212846FEF76BFA0022394613
:102730002846FEF766FA3046FEF7D0F8012240211F
:102740002846FEF75EFA002280212846FEF759FA55
:10275000002239462846FEF754FA3046FEF7BEF806
:10276000002240212846FEF74CFA0122802128460B
:10277000FEF747FA002239462846FEF742FA30466D
:10278000FEF7ACF8002240212846FEF73AFA002274
:1027900080212846FEF735FA012239462846FEF701
:1027A00030FA3046FEF79AF8012240212846FEF71B
:1027B00028FA012280212846FEF723FA0122394611
:1027C0002846FEF71EFA10214046FEF715FADFF8FC
:1027D0005080144E4FF4E13758B1C4E90D863046AD
:1027E000FEF798FF30467760FFF7E6F80122910385
:1027F0000BE0C4E90D680A48FEF78CFF0848C8F8EA
:102800000470FFF7D9F80122D1032846BDE8F04152
:10281000FEF7F7B9000C014000000020000801405D
:10282000500600209806002010B5FFF77DFCFFF74A
:1028300027FDFFF71DFB00F025F90D48417821B178
:10284000102907D020290AD107E0817939B1002168
:10285000817104E000F0E8F901E000F013FB00F002
:10286000D9FD00F0F5FDBDE8104000F03BB90000D7
:1028700000000020FEE7FEE709480A4A01680A480E
:10288000914203D100224FF4004105E0074A9142F2
:1028900004D100224FF48041FEF7B3B97047000025
:1028A0003400002050060020000C01409806002053
:1028B0000848094A01680948914202D10122D1031E
:1028C00004E0074A914203D101229103FEF799B92E
:1028D000704700003400002050060020000C01402A
:1028E00098060020704700002DE9F0410446007A68
:1028F0002F4E01274FF0000806F11105052835D2AB
:10290000DFE800F00313173C4000607AFE2802D095
:10291000FD2806D02AE028702772F088401CF0803D
:1029200024E028700320207220E0607A6870022082
:10293000F9E7607AA8701E4803211130FDF729FDE0
:102940006978F27801F03F01914202D13179491C56
:102950003171A978814204D1E7713089401C3081FE
:1029600002E07089401C708184F8088004F109013C
:102970002068BDE8F0410122FFF7B6B9607A6870BF
:102980000420D0E7607AA870094803211130FDF7D0
:1029900000FDA9788142E7D1FFF7D8FC05496878A6
:1029A0008870054800782028DED004480770DBE7EF
:1029B0003C0000204C040020010000205A000020B0
:1029C00070B5294C207800F0F00160294AD1274EDB
:1029D00000F00F003178884205D02046BDE87040F5
:1029E0009621FDF7F9BB65781F482946FDF7B9FC2C
:1029F000611911F8011C884234D11D490120087069
:102A0000FFF7A4FCFFF7A2FC1A490020164C08703F
:102A10003078963C00F00F0040F0600020700420F9
:102A200060700620A07004212046FDF79AFCE0703B
:102A30004FF0FF33042221460F48FFF78AF94FF485
:102A40007A70401E0004000CFBD1BFF34F8F0B487F
:102A500001680B4A01F4E06111430160BFF34F8F3D
:102A600000BFFDE770BD0000E20400200000002070
:102A70000300002001000020080600200CED00E00B
:102A80000400FA0510B5134CA078002821D0FFF7F8
:102A90005DFC0020A0701048104C007800F00F0082
:102AA00040F0100020700420607001462046FDF7C1
:102AB00058FCE0704FF0FF33042221460848FFF72E
:102AC00048F996212046FDF787FBBDE81040FFF747
:102AD0002BBC10BD58000020000000204C0400203A
:102AE000080600200D4810B50078202815D000F009
:102AF000E7FC0B4CA169401A0A49E06188420CD3FB
:102B0000A088401CA080FFF70FFC962206490748CA
:102B1000FEF7B7FD00F0D4FCA06110BD010000205D
:102B200058000020404B4C00E20400200806002022
:102B3000704700002DE9F047374D384C1F204FF00B
:102B400000092178C1EBC10205EB8202127932B192
:102B5000FFF7AEFE3248007820280CD013E0491C65
:102B6000C9B221701F2901D184F80090401E10F0D5
:102B7000FF00E6D144E02078C0EBC00005EB800107
:102B80008879401C887120788046C0EBC00005EB36
:102B90008006D6E90307C11B716100F079FE824609
:102BA000384600F075FE1F4900F086FE514600F0E1
:102BB000ADFDB061F079194F00F0C00108F03F00A1
:102BC0000E3701433970B079787003213846FDF72C
:102BD000E0FBB87020780322C0EBC000394655F8FE
:102BE0002000FFF707F90120A07000F069FC606188
:102BF0002078C0EBC00005EB8000C168491CC160B3
:102C00002078401CC0B220701F2801D184F80090A9
:102C10000120BDE8F0870000B40000203C00002047
:102C2000010000200000C84238B50B4C0025A079F7
:102C300050B1FFF73DFE09A000680090684600F023
:102C40000FF8A571002038BD608B0F2802D3FFF765
:102C500071FF6583012038BD00000020EFAE000049
:102C600010B50446FFF724FE084809494FF0FF332A
:102C700000780222C0EBC00051F820002146FFF787
:102C800068F8BDE81040FFF7F7BD00003C000020E9
:102C9000B40000202DE9F0411E4900231E4C0D78A0
:102CA00019460126C3EBC302202D44F8220004EB91
:102CB00082072CD087F8041004EB82025B1CD171D0
:102CC00091711172517256715181D16011615161CE
:102CD000DBB291611F2BE5D3104CAE2221726172E1
:102CE000E171E160206003210D48FDF76DFA0C48A9
:102CF000EA220321C01CFDF767FAFFF7BDFD04F1CE
:102D000009012068BDE8F0410122FEF7EDBF3E71E8
:102D1000D2E7000001000020B400002018040020C9
:102D20004A000020FDF778BF30B58FB028216846F3
:102D3000FDF774FA14210AA8FDF770FA01210804BE
:102D4000CDE900100024029402250491CDE907503A
:102D50004FF4E01009906846FEF7E2F808B172B649
:102D6000FEE70F20CDE90A054FF48060CDE90C4065
:102D700002210AA80E94FDF7F7FF002801D072B6D1
:102D8000FEE70FB030BD70470148FEF79CBB000066
:102D9000780500200148FEF796BB0000C005002022
:102DA000F0B50268194B1A4C1A4D4FF08047984203
:102DB00005D0B84203D0A04201D0A84203D122F0EE
:102DC00070064A683243984205D0B84203D0A04208
:102DD00001D0A84203D122F44074CA6822434C694E
:102DE00022F08002224302608A68C2620A6882621C
:102DF000984201D109690163012141610169C90753
:102E000003D0016921F001010161F0BD002C0140F6
:102E1000000400400008004010B5846842EA032224
:102E200024F47F440A432243826010BD826822F06A
:102E300070020A4342F007018160704710B5036ACF
:102E4000046A24F001040462846924F0F00444EA72
:102E5000021423F00A020A438461026210BD10B515
:102E6000036A046A24F010040462846923F0A00356
:102E700024F4704444EA023243EA0111826101629F
:102E800010BD00002DE9F0413B4C01270025E07A00
:102E900030B301286DD100BFFFF7C6FE00F010FB74
:102EA000E16A364E401A4CF250312063884246D3D4
:102EB0002573A5735FF00100C0EBC00106EB810133
:102EC000A27B097A401C1144C0B2A1731F28F3D31E
:102ED00011F0FF0F2A484FF400610AD0277309E070
:102EE00000F0EEFAE062A572E57125726772E77292
:102EF000D2E73DB10122FDF784FE65720220207207
:102F0000A07205E00022FDF77CFE67722572A572B3
:102F100065732846A5730121C1EBC10206EB82024D
:102F2000527932B1491CC9B20E29F5D318B1E771F3
:102F300002E06773FBE7E57100F0C2FAE062E07B54
:102F4000012816D100204023C0EBC00106EB81010F
:102F50004A7A012A08D1CA7912B1402A02D002E085
:102F6000CB7100E0CD714D72401CC0B21F28EBD375
:102F7000E573BDE8F081000000000020B4000020EF
:102F80000008014010B5406A0021C185C184FEF7E8
:102F9000DCFB10BD70B5446A2068406994F84110AC
:102FA000C0F3C0100025212904D118B1E5842046C2
:102FB00000F0B4F82068406994F84210C0F3801023
:102FC000222904D118B1E585204600F080F8606C14
:102FD00040F0100060642046FEF7B7FB70BD10B5EE
:102FE0000146406A096809684FF0000289062ED43C
:102FF000C28501680C3151E8003F23F4807341E839
:103000000034002CF5D10168143151E8003F23F061
:10301000010341E80034002CF5D10168143151E876
:10302000003F23F0400341E80034002CF5D120217B
:1030300080F84210016B012909D101680C3151E877
:10304000003F23F0100341E80034002CF5D1426327
:10305000016B012902D0FEF755FE10BD818DFEF7F0
:1030600035FB10BD10B5406A01214163016B012998
:1030700002D0FEF76DFE10BD818D4908FEF726FBDC
:1030800010BD10B50146406A09680968890616D462
:103090000021C1840168143151E8002F22F0800220
:1030A00041E80023002BF5D101680C3151E8002FD5
:1030B00042F0400241E80023002BF5D110BDFEF79D
:1030C000D5FE10BD10B5406AFEF7D1FE10BD0168F7
:1030D0000C3151E8002F22F4907241E80023002BBC
:1030E000F5D10168143151E8002F22F0010241E8C6
:1030F0000023002BF5D1016B012909D101680C31A6
:1031000051E8002F22F0100241E80023002BF5D1F6
:10311000202180F8421000210163704701680C31C2
:1031200051E8002F22F0C00241E80023002BF5D126
:10313000202180F84110704708B590F842102229EC
:1031400001D0022008BD82684FF480539A4201D119
:10315000016921B1816A9A421BD04AB10AE0026832
:10316000816A5268C2F308020A80816A891C08E0F9
:10317000026972B10268526802F07F020A70816AC5
:10318000491C8162C18D491E0904090CC18503D007
:103190001BE002685268F1E70168CA6822F0200269
:1031A000CA600168CA6822F48072CA6001684A690C
:1031B00022F001024A61202180F84210002141637F
:1031C000026B012A03D0FEF79DFD002008BD0163BC
:1031D00001680C3151E8002F22F0100241E8002371
:1031E000002BF5D101680A68D20602D50A68496841
:1031F0000091818DFEF76AFAE7E7000070B504469A
:1032000000680169E26821F44051114301612169BC
:10321000A0680843616908432168CA6841F20C63E9
:103220009A430243CA6020684169A26921F440714F
:10323000114341611E492068884202D1FDF73AFEE0
:1032400001E0FDF727FE00EBC00101EB0012606812
:1032500064218000B2FBF0F3B3FBF1F36FF01806CA
:103260007343B2FBF0F5B2FBF0F605EB83053223B6
:1032700003EB0515B5FBF1F5B6FBF1F605F0F0052E
:1032800005EB0615B2FBF0F6B2FBF0F0B0FBF1F087
:103290006FF01802504306EB800003EB0010B0FB08
:1032A000F1F0216800F00F002844886070BD000034
:1032B0000038014038B581620446828500201346FB
:1032C0006064222284F84220E56B1B4AAA62E56B07
:1032D0001A4AEA62E56B1A4A2A63E26B50630A46AD
:1032E0002168E06B091DFDF7C1FA2068016840689C
:1032F0000090206948B120680C3050E8001F41F46C
:10330000807140E80012002AF5D12068143050E89E
:10331000001F41F0010140E80012002AF5D12068A9
:10332000143050E8001F41F0400140E80012002A2C
:10333000F5D1002038BD0000DF2F000865300008FF
:10334000952F000881628285C28500214164222177
:1033500080F84210016921B10168CA6842F48072A4
:10336000CA6001684A6942F001024A610068C168A6
:1033700041F02001C160002070472DE9F8439846D4
:1033800017460D460446089E24E0701C22D0FDF727
:103390003DFCA0EB0800B0421AD8CEB12068C1684D
:1033A000490717D5802D15D0402D13D00168C9438A
:1033B00009070FD401680025406800902046FFF7F8
:1033C00086FE0820606484F840500120BDE8F88340
:1033D0000320FBE72068006835EA000004D00020E5
:1033E000B842D2D00020F1E70120F9E70148FEF70A
:1033F000ADB90000080600200148FEF7A7B900009B
:10340000500600200148FEF7A1B9000098060020F0
:10341000FEE7000010B50C4CE078002812D000F058
:103420004FF8216A401A46F2A8116062884209D317
:10343000FEF77AFFFEF778FF96210448FCF7CCFEF2
:103440000020E07010BD0000580000204C04002057
:1034500010B5094CA07800280DD000F031F8616952
:10346000401AA061B0F5FA6F05D30020A061BDE855
:103470001040FFF701BA10BD3C0000200907090EFB
:10348000002804DB00F1E02080F80014704700F011
:103490000F0000F1E02080F8141D7047BFF34F8F3C
:1034A00005480168054A01F4E06111430160BFF37A
:1034B0004F8F00BFFDE700000CED00E00400FA05AF
:1034C00005480068416A0548806A00EB4002C2EB8B
:1034D000C01001EBC00070477805002000000020FC
:1034E00008B5FDF7A1FBFFF71FFCFEF741FF73488E
:1034F000416941F0010141614069002200F0010091
:10350000009004210C20FDF7FDFB0C20FDF7EDFBE6
:10351000002203210E20FDF7F5FB0E20FDF7E5FB51
:10352000002203210F20FDF7EDFB0F20FDF7DDFB4F
:10353000002204211120FDF7E5FB1120FDF7D5FB4A
:10354000FEF7A2FF5F485E494FF461460024016028
:10355000C0E901640C25C460C0E904458461C4610C
:10356000FEF72AFA08B172B6FEE7564856494830C7
:103570000160C0E90164C460C0E904458461C461BC
:10358000FEF71AFA08B172B6FEE74E484F4990307E
:103590000160C0E90164C460C0E904458461C4619C
:1035A000FEF70AFA08B172B6FEE7FEF7A1FF484E31
:1035B0004FF48055002229463046FDF722FB454F47
:1035C000002240213846FDF71CFB002280213846AE
:1035D000FDF717FB4FF48078002241463846FDF78F
:1035E00010FBFA20FDF77AF9012229463046FDF753
:1035F00008FB012240213846FDF703FB0022802111
:103600003846FDF7FEFA002241463846FDF7F9FA42
:10361000C820FDF763F9002240213846FDF7F1FA92
:10362000012280213846FDF7ECFA00224146384657
:10363000FDF7E7FAC820FDF751F90022402138468E
:10364000FDF7DFFA002280213846FDF7DAFA012281
:1036500041463846FDF7D5FAC820FDF73FF91E4828
:10366000012202701D4802701D4802701D4804703E
:10367000FEF772FF13491C48FCF734FE6420FDF787
:103680002DF91A480068FFF705FB0E489038FDF742
:103690007FFE0C484838FDF77BFE15A0FCF708FFBD
:1036A000002229463046FDF7ACFA174C2068401C32
:1036B0002060FCF737FEFFF7B7F8F7E7001002408D
:1036C0000038014008060020004400400048004047
:1036D00000080140000C0140070000200800002005
:1036E000090000200A0000204004002034000020CF
:1036F0002A2A2A2A2A4E65772073657373696F6EAA
:103700002A2A2A2A2A0A0000800000204FF47F0C6F
:103710001CEAD0121EBF1CEAD11392EA0C0F93EAE6
:103720000C0F00F0858090EA010F48BF42F48072D0
:1037300040F4000C41F400002CF07F4120F07F4069
:1037400000B58142A2EB03020FF2081CACEB504E15
:10375000C0F100009EF800E04FEA4E0E00FB0EFCA8
:1037600038BF49004FEA2C1C02F5FA020CFB0EF39D
:103770004FEACE1E4FEA112C4FEAC1210EEB635ED9
:1037800042EB22420EFB0CFC4FEA1C5300FB0311E0
:103790004FEA112C4FEA01310EFB0CFC4FEADC4CD6
:1037A00000FB0C11C14228BF09184CEB03335DF834
:1037B00004EB10EB410143EBC250B2F57C0F38BF74
:1037C000704729D512F0F00F1CBF00F1C04000F087
:1037D00000407047008182838485868788898B8C2E
:1037E0008D8E8F919293959697999A9C9D9FA0A26A
:1037F000A3A5A7A8AAACAEB0B2B3B5B7B9BCBEC0BA
:10380000C2C5C7C9CCCED1D4D7D9DCDFE2E6E9EC5A
:10381000F0F3F7FAFE0000004FEA400C0CF1807C58
:10382000BCF17E4F28BF7047B0F1C04000F00BB92B
:1038300090EA010F0CEAD11348BF42F4807262454E
:1038400038BF634507D213F47F0F16D080EA01001A
:1038500000F00040704710B500F0AFF8097EFC3E64
:1038600000F005B880EA010000F00040704780EAEF
:10387000010000F0004000F0E6B812F47F0F04BF32
:103880000248704780EA010000F0DDB80000C07F08
:10389000B0FA80F310FA03F2C3F19D030AD0D90500
:1038A00001EB1220530638BF704700F1010008BF3A
:1038B00020F00100704700004FF47F0C1CEAD0128A
:1038C0001EBF1CEAD11392EA0C0F93EA0C0F00F012
:1038D000478090EA010F48BF42F480724FF0004CDD
:1038E0004CEA00204CEA012102EB0302A0FB011389
:1038F000A2F50002002918BF43F001035B0028BFB6
:103900004FEA330342EB22425FEA132C4CEBC250E6
:103910002EBFBCEB436FB2F57C0F70474FEA036CD0
:10392000BCF1004F08BF20F00100B2F57C0F38BF9A
:1039300070470BD582F0FF0212F5803FC8BF704779
:1039400000F1C040D8BF00F00040704700F5000C07
:103950005FEA4C0C48BF7047B0F1C04000F073B84C
:1039600090EA010F0CEAD11348BF42F4807262451D
:1039700038BF634504D280EA010000F00040704780
:1039800010B500F01AF800BF8900013E00F007B83A
:1039900000F009B85FEA410C5FEA1C6C08D080EACD
:1039A000010000F050B85FEA400C5FEA1C6CF6D1F1
:1039B0004FF00040A0F5800070470EF1020E2EF08F
:1039C000030E5EF8044B244204D44FEA4102B2F1E4
:1039D0007F4F11D84FEA4003B3F17F4F0CD80ED17F
:1039E0004FEAD07CB2F17F4F0CEB4C0C0CF1020C87
:1039F00008BF4CEBD17C04E04FF0080C01E04FEA2B
:103A0000D17C0CEB4C0324FA03F404F00704B4F16A
:103A1000040C06D20EEB840CBDE810404CF0010CF7
:103A20006047DFE80CF0070802024FF00040A0F505
:103A3000800010BD0846420018BFD2F1807288BFD6
:103A400000F0004010BDFF2141EAD050C005704792
:103A5000010202030405060708090A0B0C0D0E0FEC
:103A6000101000000000000000000102030406071F
:103A70000809000000000102030400009C3A00084D
:103A8000000000209400000028010008303B0008DE
:103A900094000020BC0D000044010008000000005C
:103AA0000000000000000000000000000000000016
:103AB0000000000000000000000000000000000006
:103AC00000000000000000000000000000000000F6
:103AD00000000000000000000000000000000000E6
:103AE00000000000000000000000000000000000D6
:103AF00000000000000001000000000000000000C5
:103B000000000000000000000000000000000000B5
:103B100000000000000000000000000000000000A5
:103B200001000000100000000000000000127A00F8
:04000005080000ED02
:00000001FF
